{
	"ElMino_HalalSupplyChain.sol": {
		"ElMinoHalalSupplyChain": {
			"abi": [
				{
					"inputs": [],
					"stateMutability": "nonpayable",
					"type": "constructor"
				},
				{
					"anonymous": false,
					"inputs": [
						{
							"indexed": true,
							"internalType": "address",
							"name": "actor",
							"type": "address"
						},
						{
							"indexed": false,
							"internalType": "enum ElMinoHalalSupplyChain.Role",
							"name": "role",
							"type": "uint8"
						}
					],
					"name": "ActorAuthorized",
					"type": "event"
				},
				{
					"anonymous": false,
					"inputs": [
						{
							"indexed": true,
							"internalType": "string",
							"name": "batchId",
							"type": "string"
						},
						{
							"indexed": false,
							"internalType": "string",
							"name": "productName",
							"type": "string"
						},
						{
							"indexed": true,
							"internalType": "address",
							"name": "producer",
							"type": "address"
						}
					],
					"name": "BatchCreated",
					"type": "event"
				},
				{
					"anonymous": false,
					"inputs": [
						{
							"indexed": true,
							"internalType": "string",
							"name": "batchId",
							"type": "string"
						},
						{
							"indexed": true,
							"internalType": "address",
							"name": "from",
							"type": "address"
						},
						{
							"indexed": true,
							"internalType": "address",
							"name": "to",
							"type": "address"
						}
					],
					"name": "BatchTransferred",
					"type": "event"
				},
				{
					"anonymous": false,
					"inputs": [
						{
							"indexed": true,
							"internalType": "string",
							"name": "batchId",
							"type": "string"
						},
						{
							"indexed": false,
							"internalType": "string",
							"name": "certHash",
							"type": "string"
						},
						{
							"indexed": true,
							"internalType": "address",
							"name": "halalAuthority",
							"type": "address"
						}
					],
					"name": "HalalCertified",
					"type": "event"
				},
				{
					"anonymous": false,
					"inputs": [
						{
							"indexed": true,
							"internalType": "string",
							"name": "batchId",
							"type": "string"
						},
						{
							"indexed": false,
							"internalType": "string",
							"name": "newStatus",
							"type": "string"
						},
						{
							"indexed": true,
							"internalType": "address",
							"name": "updatedBy",
							"type": "address"
						}
					],
					"name": "StatusUpdated",
					"type": "event"
				},
				{
					"inputs": [],
					"name": "admin",
					"outputs": [
						{
							"internalType": "address",
							"name": "",
							"type": "address"
						}
					],
					"stateMutability": "view",
					"type": "function"
				},
				{
					"inputs": [
						{
							"internalType": "address",
							"name": "actor",
							"type": "address"
						},
						{
							"internalType": "enum ElMinoHalalSupplyChain.Role",
							"name": "role",
							"type": "uint8"
						}
					],
					"name": "assignRole",
					"outputs": [],
					"stateMutability": "nonpayable",
					"type": "function"
				},
				{
					"inputs": [
						{
							"internalType": "string",
							"name": "batchId",
							"type": "string"
						},
						{
							"internalType": "string",
							"name": "productName",
							"type": "string"
						}
					],
					"name": "createBatch",
					"outputs": [],
					"stateMutability": "nonpayable",
					"type": "function"
				},
				{
					"inputs": [
						{
							"internalType": "string",
							"name": "batchId",
							"type": "string"
						}
					],
					"name": "getBatch",
					"outputs": [
						{
							"internalType": "string",
							"name": "productName",
							"type": "string"
						},
						{
							"internalType": "string",
							"name": "id",
							"type": "string"
						},
						{
							"internalType": "address",
							"name": "producer",
							"type": "address"
						},
						{
							"internalType": "address",
							"name": "currentOwner",
							"type": "address"
						},
						{
							"internalType": "string",
							"name": "status",
							"type": "string"
						},
						{
							"internalType": "string",
							"name": "halalCertHash",
							"type": "string"
						},
						{
							"internalType": "uint256",
							"name": "createdAt",
							"type": "uint256"
						}
					],
					"stateMutability": "view",
					"type": "function"
				},
				{
					"inputs": [
						{
							"internalType": "string",
							"name": "batchId",
							"type": "string"
						}
					],
					"name": "isBatchExists",
					"outputs": [
						{
							"internalType": "bool",
							"name": "",
							"type": "bool"
						}
					],
					"stateMutability": "view",
					"type": "function"
				},
				{
					"inputs": [
						{
							"internalType": "address",
							"name": "",
							"type": "address"
						}
					],
					"name": "roles",
					"outputs": [
						{
							"internalType": "enum ElMinoHalalSupplyChain.Role",
							"name": "",
							"type": "uint8"
						}
					],
					"stateMutability": "view",
					"type": "function"
				},
				{
					"inputs": [
						{
							"internalType": "string",
							"name": "batchId",
							"type": "string"
						},
						{
							"internalType": "string",
							"name": "certHash",
							"type": "string"
						}
					],
					"name": "setHalalCertificate",
					"outputs": [],
					"stateMutability": "nonpayable",
					"type": "function"
				},
				{
					"inputs": [
						{
							"internalType": "string",
							"name": "batchId",
							"type": "string"
						},
						{
							"internalType": "address",
							"name": "to",
							"type": "address"
						}
					],
					"name": "transferBatch",
					"outputs": [],
					"stateMutability": "nonpayable",
					"type": "function"
				},
				{
					"inputs": [
						{
							"internalType": "string",
							"name": "batchId",
							"type": "string"
						},
						{
							"internalType": "string",
							"name": "newStatus",
							"type": "string"
						}
					],
					"name": "updateStatus",
					"outputs": [],
					"stateMutability": "nonpayable",
					"type": "function"
				}
			],
			"devdoc": {
				"kind": "dev",
				"methods": {},
				"version": 1
			},
			"evm": {
				"assembly": "    /* \"ElMino_HalalSupplyChain.sol\":1043:9669  contract ElMinoHalalSupplyChain {... */\n  mstore(0x40, 0x80)\n    /* \"ElMino_HalalSupplyChain.sol\":3615:3762  constructor() {... */\n  callvalue\n  dup1\n  iszero\n  tag_1\n  jumpi\n  revert(0x00, 0x00)\ntag_1:\n  pop\n    /* \"ElMino_HalalSupplyChain.sol\":3648:3658  msg.sender */\n  caller\n    /* \"ElMino_HalalSupplyChain.sol\":3640:3645  admin */\n  0x00\n  0x00\n    /* \"ElMino_HalalSupplyChain.sol\":3640:3658  admin = msg.sender */\n  0x0100\n  exp\n  dup2\n  sload\n  dup2\n  0xffffffffffffffffffffffffffffffffffffffff\n  mul\n  not\n  and\n  swap1\n  dup4\n  0xffffffffffffffffffffffffffffffffffffffff\n  and\n  mul\n  or\n  swap1\n  sstore\n  pop\n    /* \"ElMino_HalalSupplyChain.sol\":3689:3699  Role.Admin */\n  0x01\n    /* \"ElMino_HalalSupplyChain.sol\":3669:3674  roles */\n  dup1\n    /* \"ElMino_HalalSupplyChain.sol\":3669:3686  roles[msg.sender] */\n  0x00\n    /* \"ElMino_HalalSupplyChain.sol\":3675:3685  msg.sender */\n  caller\n    /* \"ElMino_HalalSupplyChain.sol\":3669:3686  roles[msg.sender] */\n  0xffffffffffffffffffffffffffffffffffffffff\n  and\n  0xffffffffffffffffffffffffffffffffffffffff\n  and\n  dup2\n  mstore\n  0x20\n  add\n  swap1\n  dup2\n  mstore\n  0x20\n  add\n  0x00\n  keccak256\n  0x00\n    /* \"ElMino_HalalSupplyChain.sol\":3669:3699  roles[msg.sender] = Role.Admin */\n  0x0100\n  exp\n  dup2\n  sload\n  dup2\n  0xff\n  mul\n  not\n  and\n  swap1\n  dup4\n  0x05\n  dup2\n  gt\n  iszero\n  tag_4\n  jumpi\n  tag_5\n  tag_6\n  jump\t// in\ntag_5:\ntag_4:\n  mul\n  or\n  swap1\n  sstore\n  pop\n    /* \"ElMino_HalalSupplyChain.sol\":3731:3741  msg.sender */\n  caller\n    /* \"ElMino_HalalSupplyChain.sol\":3715:3754  ActorAuthorized(msg.sender, Role.Admin) */\n  0xffffffffffffffffffffffffffffffffffffffff\n  and\n  0x7dfb9fc416e4287afa0615b649cb29f7b04a76c92ecdca2f8dc3dfd55158a3b4\n    /* \"ElMino_HalalSupplyChain.sol\":3743:3753  Role.Admin */\n  0x01\n    /* \"ElMino_HalalSupplyChain.sol\":3715:3754  ActorAuthorized(msg.sender, Role.Admin) */\n  mload(0x40)\n  tag_7\n  swap2\n  swap1\n  tag_8\n  jump\t// in\ntag_7:\n  mload(0x40)\n  dup1\n  swap2\n  sub\n  swap1\n  log2\n    /* \"ElMino_HalalSupplyChain.sol\":1043:9669  contract ElMinoHalalSupplyChain {... */\n  jump(tag_9)\n    /* \"#utility.yul\":7:187   */\ntag_6:\n    /* \"#utility.yul\":55:132   */\n  0x4e487b7100000000000000000000000000000000000000000000000000000000\n    /* \"#utility.yul\":52:53   */\n  0x00\n    /* \"#utility.yul\":45:133   */\n  mstore\n    /* \"#utility.yul\":152:156   */\n  0x21\n    /* \"#utility.yul\":149:150   */\n  0x04\n    /* \"#utility.yul\":142:157   */\n  mstore\n    /* \"#utility.yul\":176:180   */\n  0x24\n    /* \"#utility.yul\":173:174   */\n  0x00\n    /* \"#utility.yul\":166:181   */\n  revert\n    /* \"#utility.yul\":193:305   */\ntag_10:\n    /* \"#utility.yul\":273:274   */\n  0x06\n    /* \"#utility.yul\":266:271   */\n  dup2\n    /* \"#utility.yul\":263:275   */\n  lt\n    /* \"#utility.yul\":253:299   */\n  tag_17\n  jumpi\n    /* \"#utility.yul\":279:297   */\n  tag_18\n  tag_6\n  jump\t// in\ntag_18:\n    /* \"#utility.yul\":253:299   */\ntag_17:\n    /* \"#utility.yul\":193:305   */\n  pop\n  jump\t// out\n    /* \"#utility.yul\":311:436   */\ntag_11:\n    /* \"#utility.yul\":355:362   */\n  0x00\n    /* \"#utility.yul\":384:389   */\n  dup2\n    /* \"#utility.yul\":373:389   */\n  swap1\n  pop\n    /* \"#utility.yul\":390:430   */\n  tag_20\n    /* \"#utility.yul\":424:429   */\n  dup3\n    /* \"#utility.yul\":390:430   */\n  tag_10\n  jump\t// in\ntag_20:\n    /* \"#utility.yul\":311:436   */\n  swap2\n  swap1\n  pop\n  jump\t// out\n    /* \"#utility.yul\":442:567   */\ntag_12:\n    /* \"#utility.yul\":497:506   */\n  0x00\n    /* \"#utility.yul\":530:561   */\n  tag_22\n    /* \"#utility.yul\":555:560   */\n  dup3\n    /* \"#utility.yul\":530:561   */\n  tag_11\n  jump\t// in\ntag_22:\n    /* \"#utility.yul\":517:561   */\n  swap1\n  pop\n    /* \"#utility.yul\":442:567   */\n  swap2\n  swap1\n  pop\n  jump\t// out\n    /* \"#utility.yul\":573:714   */\ntag_13:\n    /* \"#utility.yul\":665:707   */\n  tag_24\n    /* \"#utility.yul\":701:706   */\n  dup2\n    /* \"#utility.yul\":665:707   */\n  tag_12\n  jump\t// in\ntag_24:\n    /* \"#utility.yul\":660:663   */\n  dup3\n    /* \"#utility.yul\":653:708   */\n  mstore\n    /* \"#utility.yul\":573:714   */\n  pop\n  pop\n  jump\t// out\n    /* \"#utility.yul\":720:952   */\ntag_8:\n    /* \"#utility.yul\":818:822   */\n  0x00\n    /* \"#utility.yul\":856:858   */\n  0x20\n    /* \"#utility.yul\":845:854   */\n  dup3\n    /* \"#utility.yul\":841:859   */\n  add\n    /* \"#utility.yul\":833:859   */\n  swap1\n  pop\n    /* \"#utility.yul\":869:945   */\n  tag_26\n    /* \"#utility.yul\":942:943   */\n  0x00\n    /* \"#utility.yul\":931:940   */\n  dup4\n    /* \"#utility.yul\":927:944   */\n  add\n    /* \"#utility.yul\":918:924   */\n  dup5\n    /* \"#utility.yul\":869:945   */\n  tag_13\n  jump\t// in\ntag_26:\n    /* \"#utility.yul\":720:952   */\n  swap3\n  swap2\n  pop\n  pop\n  jump\t// out\n    /* \"ElMino_HalalSupplyChain.sol\":1043:9669  contract ElMinoHalalSupplyChain {... */\ntag_9:\n  dataSize(sub_0)\n  dup1\n  dataOffset(sub_0)\n  0x00\n  codecopy\n  0x00\n  return\nstop\n\nsub_0: assembly {\n        /* \"ElMino_HalalSupplyChain.sol\":1043:9669  contract ElMinoHalalSupplyChain {... */\n      mstore(0x40, 0x80)\n      callvalue\n      dup1\n      iszero\n      tag_1\n      jumpi\n      revert(0x00, 0x00)\n    tag_1:\n      pop\n      jumpi(tag_2, lt(calldatasize, 0x04))\n      shr(0xe0, calldataload(0x00))\n      dup1\n      0x99374642\n      gt\n      tag_12\n      jumpi\n      dup1\n      0x99374642\n      eq\n      tag_7\n      jumpi\n      dup1\n      0xb401563b\n      eq\n      tag_8\n      jumpi\n      dup1\n      0xbbb65699\n      eq\n      tag_9\n      jumpi\n      dup1\n      0xf851a440\n      eq\n      tag_10\n      jumpi\n      dup1\n      0xf9ca4274\n      eq\n      tag_11\n      jumpi\n      jump(tag_2)\n    tag_12:\n      dup1\n      0x347047cc\n      eq\n      tag_3\n      jumpi\n      dup1\n      0x374acb1b\n      eq\n      tag_4\n      jumpi\n      dup1\n      0x630a195b\n      eq\n      tag_5\n      jumpi\n      dup1\n      0x92b8f021\n      eq\n      tag_6\n      jumpi\n    tag_2:\n      revert(0x00, 0x00)\n        /* \"ElMino_HalalSupplyChain.sol\":8157:8673  function updateStatus(string calldata batchId, string calldata newStatus)... */\n    tag_3:\n      tag_13\n      0x04\n      dup1\n      calldatasize\n      sub\n      dup2\n      add\n      swap1\n      tag_14\n      swap2\n      swap1\n      tag_15\n      jump\t// in\n    tag_14:\n      tag_16\n      jump\t// in\n    tag_13:\n      stop\n        /* \"ElMino_HalalSupplyChain.sol\":9540:9666  function isBatchExists(string calldata batchId) external view returns (bool) {... */\n    tag_4:\n      tag_17\n      0x04\n      dup1\n      calldatasize\n      sub\n      dup2\n      add\n      swap1\n      tag_18\n      swap2\n      swap1\n      tag_19\n      jump\t// in\n    tag_18:\n      tag_20\n      jump\t// in\n    tag_17:\n      mload(0x40)\n      tag_21\n      swap2\n      swap1\n      tag_22\n      jump\t// in\n    tag_21:\n      mload(0x40)\n      dup1\n      swap2\n      sub\n      swap1\n      return\n        /* \"ElMino_HalalSupplyChain.sol\":3931:4273  function assignRole(address actor, Role role) external onlyAdmin {... */\n    tag_5:\n      tag_23\n      0x04\n      dup1\n      calldatasize\n      sub\n      dup2\n      add\n      swap1\n      tag_24\n      swap2\n      swap1\n      tag_25\n      jump\t// in\n    tag_24:\n      tag_26\n      jump\t// in\n    tag_23:\n      stop\n        /* \"ElMino_HalalSupplyChain.sol\":4488:5319  function createBatch(string calldata batchId, string calldata productName)... */\n    tag_6:\n      tag_27\n      0x04\n      dup1\n      calldatasize\n      sub\n      dup2\n      add\n      swap1\n      tag_28\n      swap2\n      swap1\n      tag_15\n      jump\t// in\n    tag_28:\n      tag_29\n      jump\t// in\n    tag_27:\n      stop\n        /* \"ElMino_HalalSupplyChain.sol\":1511:1548  mapping(address => Role) public roles */\n    tag_7:\n      tag_30\n      0x04\n      dup1\n      calldatasize\n      sub\n      dup2\n      add\n      swap1\n      tag_31\n      swap2\n      swap1\n      tag_32\n      jump\t// in\n    tag_31:\n      tag_33\n      jump\t// in\n    tag_30:\n      mload(0x40)\n      tag_34\n      swap2\n      swap1\n      tag_35\n      jump\t// in\n    tag_34:\n      mload(0x40)\n      dup1\n      swap2\n      sub\n      swap1\n      return\n        /* \"ElMino_HalalSupplyChain.sol\":5666:6862  function transferBatch(string calldata batchId, address to)... */\n    tag_8:\n      tag_36\n      0x04\n      dup1\n      calldatasize\n      sub\n      dup2\n      add\n      swap1\n      tag_37\n      swap2\n      swap1\n      tag_38\n      jump\t// in\n    tag_37:\n      tag_39\n      jump\t// in\n    tag_36:\n      stop\n        /* \"ElMino_HalalSupplyChain.sol\":7159:7813  function setHalalCertificate(string calldata batchId, string calldata certHash)... */\n    tag_9:\n      tag_40\n      0x04\n      dup1\n      calldatasize\n      sub\n      dup2\n      add\n      swap1\n      tag_41\n      swap2\n      swap1\n      tag_15\n      jump\t// in\n    tag_41:\n      tag_42\n      jump\t// in\n    tag_40:\n      stop\n        /* \"ElMino_HalalSupplyChain.sol\":1446:1466  address public admin */\n    tag_10:\n      tag_43\n      tag_44\n      jump\t// in\n    tag_43:\n      mload(0x40)\n      tag_45\n      swap2\n      swap1\n      tag_46\n      jump\t// in\n    tag_45:\n      mload(0x40)\n      dup1\n      swap2\n      sub\n      swap1\n      return\n        /* \"ElMino_HalalSupplyChain.sol\":8834:9486  function getBatch(string calldata batchId)... */\n    tag_11:\n      tag_47\n      0x04\n      dup1\n      calldatasize\n      sub\n      dup2\n      add\n      swap1\n      tag_48\n      swap2\n      swap1\n      tag_19\n      jump\t// in\n    tag_48:\n      tag_49\n      jump\t// in\n    tag_47:\n      mload(0x40)\n      tag_50\n      swap8\n      swap7\n      swap6\n      swap5\n      swap4\n      swap3\n      swap2\n      swap1\n      tag_51\n      jump\t// in\n    tag_50:\n      mload(0x40)\n      dup1\n      swap2\n      sub\n      swap1\n      return\n        /* \"ElMino_HalalSupplyChain.sol\":8157:8673  function updateStatus(string calldata batchId, string calldata newStatus)... */\n    tag_16:\n        /* \"ElMino_HalalSupplyChain.sol\":8270:8277  batchId */\n      dup4\n      dup4\n        /* \"ElMino_HalalSupplyChain.sol\":3254:3385  modifier batchExists(string memory batchId) {... */\n      dup1\n      dup1\n      0x1f\n      add\n      0x20\n      dup1\n      swap2\n      div\n      mul\n      0x20\n      add\n      mload(0x40)\n      swap1\n      dup2\n      add\n      0x40\n      mstore\n      dup1\n      swap4\n      swap3\n      swap2\n      swap1\n      dup2\n      dup2\n      mstore\n      0x20\n      add\n      dup4\n      dup4\n      dup1\n      dup3\n      dup5\n      calldatacopy\n      0x00\n      dup2\n      dup5\n      add\n      mstore\n      not(0x1f)\n      0x1f\n      dup3\n      add\n      and\n      swap1\n      pop\n      dup1\n      dup4\n      add\n      swap3\n      pop\n      pop\n      pop\n      pop\n      pop\n      pop\n      pop\n        /* \"ElMino_HalalSupplyChain.sol\":3317:3324  batches */\n      0x02\n        /* \"ElMino_HalalSupplyChain.sol\":3325:3332  batchId */\n      dup2\n        /* \"ElMino_HalalSupplyChain.sol\":3317:3333  batches[batchId] */\n      mload(0x40)\n      tag_53\n      swap2\n      swap1\n      tag_54\n      jump\t// in\n    tag_53:\n      swap1\n      dup2\n      mstore\n      0x20\n      add\n      mload(0x40)\n      dup1\n      swap2\n      sub\n      swap1\n      keccak256\n        /* \"ElMino_HalalSupplyChain.sol\":3317:3340  batches[batchId].exists */\n      0x07\n      add\n      0x00\n      swap1\n      sload\n      swap1\n      0x0100\n      exp\n      swap1\n      div\n      0xff\n      and\n        /* \"ElMino_HalalSupplyChain.sol\":3309:3365  require(batches[batchId].exists, \"Batch does not exist\") */\n      tag_55\n      jumpi\n      mload(0x40)\n      0x08c379a000000000000000000000000000000000000000000000000000000000\n      dup2\n      mstore\n      0x04\n      add\n      tag_56\n      swap1\n      tag_57\n      jump\t// in\n    tag_56:\n      mload(0x40)\n      dup1\n      swap2\n      sub\n      swap1\n      revert\n    tag_55:\n        /* \"ElMino_HalalSupplyChain.sol\":8329:8330  0 */\n      0x00\n        /* \"ElMino_HalalSupplyChain.sol\":8309:8318  newStatus */\n      dup4\n      dup4\n        /* \"ElMino_HalalSupplyChain.sol\":8303:8326  bytes(newStatus).length */\n      swap1\n      pop\n        /* \"ElMino_HalalSupplyChain.sol\":8303:8330  bytes(newStatus).length > 0 */\n      gt\n        /* \"ElMino_HalalSupplyChain.sol\":8295:8353  require(bytes(newStatus).length > 0, \"newStatus required\") */\n      tag_59\n      jumpi\n      mload(0x40)\n      0x08c379a000000000000000000000000000000000000000000000000000000000\n      dup2\n      mstore\n      0x04\n      add\n      tag_60\n      swap1\n      tag_61\n      jump\t// in\n    tag_60:\n      mload(0x40)\n      dup1\n      swap2\n      sub\n      swap1\n      revert\n    tag_59:\n        /* \"ElMino_HalalSupplyChain.sol\":8366:8378  bool isOwner */\n      0x00\n        /* \"ElMino_HalalSupplyChain.sol\":8415:8425  msg.sender */\n      caller\n        /* \"ElMino_HalalSupplyChain.sol\":8382:8425  batches[batchId].currentOwner == msg.sender */\n      0xffffffffffffffffffffffffffffffffffffffff\n      and\n        /* \"ElMino_HalalSupplyChain.sol\":8382:8389  batches */\n      0x02\n        /* \"ElMino_HalalSupplyChain.sol\":8390:8397  batchId */\n      dup8\n      dup8\n        /* \"ElMino_HalalSupplyChain.sol\":8382:8398  batches[batchId] */\n      mload(0x40)\n      tag_62\n      swap3\n      swap2\n      swap1\n      tag_63\n      jump\t// in\n    tag_62:\n      swap1\n      dup2\n      mstore\n      0x20\n      add\n      mload(0x40)\n      dup1\n      swap2\n      sub\n      swap1\n      keccak256\n        /* \"ElMino_HalalSupplyChain.sol\":8382:8411  batches[batchId].currentOwner */\n      0x03\n      add\n      0x00\n      swap1\n      sload\n      swap1\n      0x0100\n      exp\n      swap1\n      div\n      0xffffffffffffffffffffffffffffffffffffffff\n      and\n        /* \"ElMino_HalalSupplyChain.sol\":8382:8425  batches[batchId].currentOwner == msg.sender */\n      0xffffffffffffffffffffffffffffffffffffffff\n      and\n      eq\n        /* \"ElMino_HalalSupplyChain.sol\":8366:8426  bool isOwner = (batches[batchId].currentOwner == msg.sender) */\n      swap1\n      pop\n        /* \"ElMino_HalalSupplyChain.sol\":8437:8448  bool isAuth */\n      0x00\n        /* \"ElMino_HalalSupplyChain.sol\":8473:8482  Role.None */\n      0x00\n        /* \"ElMino_HalalSupplyChain.sol\":8452:8482  roles[msg.sender] != Role.None */\n      0x05\n      dup2\n      gt\n      iszero\n      tag_64\n      jumpi\n      tag_65\n      tag_66\n      jump\t// in\n    tag_65:\n    tag_64:\n        /* \"ElMino_HalalSupplyChain.sol\":8452:8457  roles */\n      0x01\n        /* \"ElMino_HalalSupplyChain.sol\":8452:8469  roles[msg.sender] */\n      0x00\n        /* \"ElMino_HalalSupplyChain.sol\":8458:8468  msg.sender */\n      caller\n        /* \"ElMino_HalalSupplyChain.sol\":8452:8469  roles[msg.sender] */\n      0xffffffffffffffffffffffffffffffffffffffff\n      and\n      0xffffffffffffffffffffffffffffffffffffffff\n      and\n      dup2\n      mstore\n      0x20\n      add\n      swap1\n      dup2\n      mstore\n      0x20\n      add\n      0x00\n      keccak256\n      0x00\n      swap1\n      sload\n      swap1\n      0x0100\n      exp\n      swap1\n      div\n      0xff\n      and\n        /* \"ElMino_HalalSupplyChain.sol\":8452:8482  roles[msg.sender] != Role.None */\n      0x05\n      dup2\n      gt\n      iszero\n      tag_67\n      jumpi\n      tag_68\n      tag_66\n      jump\t// in\n    tag_68:\n    tag_67:\n      eq\n      iszero\n        /* \"ElMino_HalalSupplyChain.sol\":8437:8483  bool isAuth = (roles[msg.sender] != Role.None) */\n      swap1\n      pop\n        /* \"ElMino_HalalSupplyChain.sol\":8504:8511  isOwner */\n      dup2\n        /* \"ElMino_HalalSupplyChain.sol\":8504:8521  isOwner || isAuth */\n      dup1\n      tag_69\n      jumpi\n      pop\n        /* \"ElMino_HalalSupplyChain.sol\":8515:8521  isAuth */\n      dup1\n        /* \"ElMino_HalalSupplyChain.sol\":8504:8521  isOwner || isAuth */\n    tag_69:\n        /* \"ElMino_HalalSupplyChain.sol\":8496:8554  require(isOwner || isAuth, \"Not allowed to update status\") */\n      tag_70\n      jumpi\n      mload(0x40)\n      0x08c379a000000000000000000000000000000000000000000000000000000000\n      dup2\n      mstore\n      0x04\n      add\n      tag_71\n      swap1\n      tag_72\n      jump\t// in\n    tag_71:\n      mload(0x40)\n      dup1\n      swap2\n      sub\n      swap1\n      revert\n    tag_70:\n        /* \"ElMino_HalalSupplyChain.sol\":8593:8602  newStatus */\n      dup5\n      dup5\n        /* \"ElMino_HalalSupplyChain.sol\":8567:8574  batches */\n      0x02\n        /* \"ElMino_HalalSupplyChain.sol\":8575:8582  batchId */\n      dup10\n      dup10\n        /* \"ElMino_HalalSupplyChain.sol\":8567:8583  batches[batchId] */\n      mload(0x40)\n      tag_73\n      swap3\n      swap2\n      swap1\n      tag_63\n      jump\t// in\n    tag_73:\n      swap1\n      dup2\n      mstore\n      0x20\n      add\n      mload(0x40)\n      dup1\n      swap2\n      sub\n      swap1\n      keccak256\n        /* \"ElMino_HalalSupplyChain.sol\":8567:8590  batches[batchId].status */\n      0x04\n      add\n        /* \"ElMino_HalalSupplyChain.sol\":8567:8602  batches[batchId].status = newStatus */\n      swap2\n      dup3\n      tag_74\n      swap3\n      swap2\n      swap1\n      tag_75\n      jump\t// in\n    tag_74:\n      pop\n        /* \"ElMino_HalalSupplyChain.sol\":8654:8664  msg.sender */\n      caller\n        /* \"ElMino_HalalSupplyChain.sol\":8620:8665  StatusUpdated(batchId, newStatus, msg.sender) */\n      0xffffffffffffffffffffffffffffffffffffffff\n      and\n        /* \"ElMino_HalalSupplyChain.sol\":8634:8641  batchId */\n      dup8\n      dup8\n        /* \"ElMino_HalalSupplyChain.sol\":8620:8665  StatusUpdated(batchId, newStatus, msg.sender) */\n      mload(0x40)\n      tag_76\n      swap3\n      swap2\n      swap1\n      tag_63\n      jump\t// in\n    tag_76:\n      mload(0x40)\n      dup1\n      swap2\n      sub\n      swap1\n      keccak256\n      0xa40410f71afcb456ef810bf2c9cf8d0e917213d9477633602d780d212f0b9389\n        /* \"ElMino_HalalSupplyChain.sol\":8643:8652  newStatus */\n      dup8\n      dup8\n        /* \"ElMino_HalalSupplyChain.sol\":8620:8665  StatusUpdated(batchId, newStatus, msg.sender) */\n      mload(0x40)\n      tag_77\n      swap3\n      swap2\n      swap1\n      tag_78\n      jump\t// in\n    tag_77:\n      mload(0x40)\n      dup1\n      swap2\n      sub\n      swap1\n      log3\n        /* \"ElMino_HalalSupplyChain.sol\":8284:8673  {... */\n      pop\n      pop\n        /* \"ElMino_HalalSupplyChain.sol\":8157:8673  function updateStatus(string calldata batchId, string calldata newStatus)... */\n      pop\n      pop\n      pop\n      pop\n      pop\n      jump\t// out\n        /* \"ElMino_HalalSupplyChain.sol\":9540:9666  function isBatchExists(string calldata batchId) external view returns (bool) {... */\n    tag_20:\n        /* \"ElMino_HalalSupplyChain.sol\":9611:9615  bool */\n      0x00\n        /* \"ElMino_HalalSupplyChain.sol\":9635:9642  batches */\n      0x02\n        /* \"ElMino_HalalSupplyChain.sol\":9643:9650  batchId */\n      dup4\n      dup4\n        /* \"ElMino_HalalSupplyChain.sol\":9635:9651  batches[batchId] */\n      mload(0x40)\n      tag_80\n      swap3\n      swap2\n      swap1\n      tag_63\n      jump\t// in\n    tag_80:\n      swap1\n      dup2\n      mstore\n      0x20\n      add\n      mload(0x40)\n      dup1\n      swap2\n      sub\n      swap1\n      keccak256\n        /* \"ElMino_HalalSupplyChain.sol\":9635:9658  batches[batchId].exists */\n      0x07\n      add\n      0x00\n      swap1\n      sload\n      swap1\n      0x0100\n      exp\n      swap1\n      div\n      0xff\n      and\n        /* \"ElMino_HalalSupplyChain.sol\":9628:9658  return batches[batchId].exists */\n      swap1\n      pop\n        /* \"ElMino_HalalSupplyChain.sol\":9540:9666  function isBatchExists(string calldata batchId) external view returns (bool) {... */\n      swap3\n      swap2\n      pop\n      pop\n      jump\t// out\n        /* \"ElMino_HalalSupplyChain.sol\":3931:4273  function assignRole(address actor, Role role) external onlyAdmin {... */\n    tag_26:\n        /* \"ElMino_HalalSupplyChain.sol\":3010:3015  admin */\n      0x00\n      0x00\n      swap1\n      sload\n      swap1\n      0x0100\n      exp\n      swap1\n      div\n      0xffffffffffffffffffffffffffffffffffffffff\n      and\n        /* \"ElMino_HalalSupplyChain.sol\":2996:3015  msg.sender == admin */\n      0xffffffffffffffffffffffffffffffffffffffff\n      and\n        /* \"ElMino_HalalSupplyChain.sol\":2996:3006  msg.sender */\n      caller\n        /* \"ElMino_HalalSupplyChain.sol\":2996:3015  msg.sender == admin */\n      0xffffffffffffffffffffffffffffffffffffffff\n      and\n      eq\n        /* \"ElMino_HalalSupplyChain.sol\":2988:3044  require(msg.sender == admin, \"Only admin can call this\") */\n      tag_82\n      jumpi\n      mload(0x40)\n      0x08c379a000000000000000000000000000000000000000000000000000000000\n      dup2\n      mstore\n      0x04\n      add\n      tag_83\n      swap1\n      tag_84\n      jump\t// in\n    tag_83:\n      mload(0x40)\n      dup1\n      swap2\n      sub\n      swap1\n      revert\n    tag_82:\n        /* \"ElMino_HalalSupplyChain.sol\":4032:4033  0 */\n      0x00\n        /* \"ElMino_HalalSupplyChain.sol\":4015:4034  actor != address(0) */\n      0xffffffffffffffffffffffffffffffffffffffff\n      and\n        /* \"ElMino_HalalSupplyChain.sol\":4015:4020  actor */\n      dup3\n        /* \"ElMino_HalalSupplyChain.sol\":4015:4034  actor != address(0) */\n      0xffffffffffffffffffffffffffffffffffffffff\n      and\n      sub\n        /* \"ElMino_HalalSupplyChain.sol\":4007:4063  require(actor != address(0), \"Zero address not allowed\") */\n      tag_86\n      jumpi\n      mload(0x40)\n      0x08c379a000000000000000000000000000000000000000000000000000000000\n      dup2\n      mstore\n      0x04\n      add\n      tag_87\n      swap1\n      tag_88\n      jump\t// in\n    tag_87:\n      mload(0x40)\n      dup1\n      swap2\n      sub\n      swap1\n      revert\n    tag_86:\n        /* \"ElMino_HalalSupplyChain.sol\":4090:4099  Role.None */\n      0x00\n        /* \"ElMino_HalalSupplyChain.sol\":4082:4099  role != Role.None */\n      0x05\n      dup2\n      gt\n      iszero\n      tag_89\n      jumpi\n      tag_90\n      tag_66\n      jump\t// in\n    tag_90:\n    tag_89:\n        /* \"ElMino_HalalSupplyChain.sol\":4082:4086  role */\n      dup2\n        /* \"ElMino_HalalSupplyChain.sol\":4082:4099  role != Role.None */\n      0x05\n      dup2\n      gt\n      iszero\n      tag_91\n      jumpi\n      tag_92\n      tag_66\n      jump\t// in\n    tag_92:\n    tag_91:\n      sub\n        /* \"ElMino_HalalSupplyChain.sol\":4074:4123  require(role != Role.None, \"Role cannot be None\") */\n      tag_93\n      jumpi\n      mload(0x40)\n      0x08c379a000000000000000000000000000000000000000000000000000000000\n      dup2\n      mstore\n      0x04\n      add\n      tag_94\n      swap1\n      tag_95\n      jump\t// in\n    tag_94:\n      mload(0x40)\n      dup1\n      swap2\n      sub\n      swap1\n      revert\n    tag_93:\n        /* \"ElMino_HalalSupplyChain.sol\":4150:4160  Role.Admin */\n      0x01\n        /* \"ElMino_HalalSupplyChain.sol\":4142:4160  role != Role.Admin */\n      0x05\n      dup2\n      gt\n      iszero\n      tag_96\n      jumpi\n      tag_97\n      tag_66\n      jump\t// in\n    tag_97:\n    tag_96:\n        /* \"ElMino_HalalSupplyChain.sol\":4142:4146  role */\n      dup2\n        /* \"ElMino_HalalSupplyChain.sol\":4142:4160  role != Role.Admin */\n      0x05\n      dup2\n      gt\n      iszero\n      tag_98\n      jumpi\n      tag_99\n      tag_66\n      jump\t// in\n    tag_99:\n    tag_98:\n      sub\n        /* \"ElMino_HalalSupplyChain.sol\":4134:4189  require(role != Role.Admin, \"Cannot assign Admin role\") */\n      tag_100\n      jumpi\n      mload(0x40)\n      0x08c379a000000000000000000000000000000000000000000000000000000000\n      dup2\n      mstore\n      0x04\n      add\n      tag_101\n      swap1\n      tag_102\n      jump\t// in\n    tag_101:\n      mload(0x40)\n      dup1\n      swap2\n      sub\n      swap1\n      revert\n    tag_100:\n        /* \"ElMino_HalalSupplyChain.sol\":4217:4221  role */\n      dup1\n        /* \"ElMino_HalalSupplyChain.sol\":4202:4207  roles */\n      0x01\n        /* \"ElMino_HalalSupplyChain.sol\":4202:4214  roles[actor] */\n      0x00\n        /* \"ElMino_HalalSupplyChain.sol\":4208:4213  actor */\n      dup5\n        /* \"ElMino_HalalSupplyChain.sol\":4202:4214  roles[actor] */\n      0xffffffffffffffffffffffffffffffffffffffff\n      and\n      0xffffffffffffffffffffffffffffffffffffffff\n      and\n      dup2\n      mstore\n      0x20\n      add\n      swap1\n      dup2\n      mstore\n      0x20\n      add\n      0x00\n      keccak256\n      0x00\n        /* \"ElMino_HalalSupplyChain.sol\":4202:4221  roles[actor] = role */\n      0x0100\n      exp\n      dup2\n      sload\n      dup2\n      0xff\n      mul\n      not\n      and\n      swap1\n      dup4\n      0x05\n      dup2\n      gt\n      iszero\n      tag_103\n      jumpi\n      tag_104\n      tag_66\n      jump\t// in\n    tag_104:\n    tag_103:\n      mul\n      or\n      swap1\n      sstore\n      pop\n        /* \"ElMino_HalalSupplyChain.sol\":4253:4258  actor */\n      dup2\n        /* \"ElMino_HalalSupplyChain.sol\":4237:4265  ActorAuthorized(actor, role) */\n      0xffffffffffffffffffffffffffffffffffffffff\n      and\n      0x7dfb9fc416e4287afa0615b649cb29f7b04a76c92ecdca2f8dc3dfd55158a3b4\n        /* \"ElMino_HalalSupplyChain.sol\":4260:4264  role */\n      dup3\n        /* \"ElMino_HalalSupplyChain.sol\":4237:4265  ActorAuthorized(actor, role) */\n      mload(0x40)\n      tag_105\n      swap2\n      swap1\n      tag_35\n      jump\t// in\n    tag_105:\n      mload(0x40)\n      dup1\n      swap2\n      sub\n      swap1\n      log2\n        /* \"ElMino_HalalSupplyChain.sol\":3931:4273  function assignRole(address actor, Role role) external onlyAdmin {... */\n      pop\n      pop\n      jump\t// out\n        /* \"ElMino_HalalSupplyChain.sol\":4488:5319  function createBatch(string calldata batchId, string calldata productName)... */\n    tag_29:\n        /* \"ElMino_HalalSupplyChain.sol\":4599:4612  Role.Producer */\n      0x02\n        /* \"ElMino_HalalSupplyChain.sol\":3166:3167  r */\n      dup1\n        /* \"ElMino_HalalSupplyChain.sol\":3145:3167  roles[msg.sender] == r */\n      0x05\n      dup2\n      gt\n      iszero\n      tag_107\n      jumpi\n      tag_108\n      tag_66\n      jump\t// in\n    tag_108:\n    tag_107:\n        /* \"ElMino_HalalSupplyChain.sol\":3145:3150  roles */\n      0x01\n        /* \"ElMino_HalalSupplyChain.sol\":3145:3162  roles[msg.sender] */\n      0x00\n        /* \"ElMino_HalalSupplyChain.sol\":3151:3161  msg.sender */\n      caller\n        /* \"ElMino_HalalSupplyChain.sol\":3145:3162  roles[msg.sender] */\n      0xffffffffffffffffffffffffffffffffffffffff\n      and\n      0xffffffffffffffffffffffffffffffffffffffff\n      and\n      dup2\n      mstore\n      0x20\n      add\n      swap1\n      dup2\n      mstore\n      0x20\n      add\n      0x00\n      keccak256\n      0x00\n      swap1\n      sload\n      swap1\n      0x0100\n      exp\n      swap1\n      div\n      0xff\n      and\n        /* \"ElMino_HalalSupplyChain.sol\":3145:3167  roles[msg.sender] == r */\n      0x05\n      dup2\n      gt\n      iszero\n      tag_109\n      jumpi\n      tag_110\n      tag_66\n      jump\t// in\n    tag_110:\n    tag_109:\n      eq\n        /* \"ElMino_HalalSupplyChain.sol\":3137:3200  require(roles[msg.sender] == r, \"Invalid role for this action\") */\n      tag_111\n      jumpi\n      mload(0x40)\n      0x08c379a000000000000000000000000000000000000000000000000000000000\n      dup2\n      mstore\n      0x04\n      add\n      tag_112\n      swap1\n      tag_113\n      jump\t// in\n    tag_112:\n      mload(0x40)\n      dup1\n      swap2\n      sub\n      swap1\n      revert\n    tag_111:\n        /* \"ElMino_HalalSupplyChain.sol\":4662:4663  0 */\n      0x00\n        /* \"ElMino_HalalSupplyChain.sol\":4644:4651  batchId */\n      dup6\n      dup6\n        /* \"ElMino_HalalSupplyChain.sol\":4638:4659  bytes(batchId).length */\n      swap1\n      pop\n        /* \"ElMino_HalalSupplyChain.sol\":4638:4663  bytes(batchId).length > 0 */\n      gt\n        /* \"ElMino_HalalSupplyChain.sol\":4630:4684  require(bytes(batchId).length > 0, \"batchId required\") */\n      tag_115\n      jumpi\n      mload(0x40)\n      0x08c379a000000000000000000000000000000000000000000000000000000000\n      dup2\n      mstore\n      0x04\n      add\n      tag_116\n      swap1\n      tag_117\n      jump\t// in\n    tag_116:\n      mload(0x40)\n      dup1\n      swap2\n      sub\n      swap1\n      revert\n    tag_115:\n        /* \"ElMino_HalalSupplyChain.sol\":4731:4732  0 */\n      0x00\n        /* \"ElMino_HalalSupplyChain.sol\":4709:4720  productName */\n      dup4\n      dup4\n        /* \"ElMino_HalalSupplyChain.sol\":4703:4728  bytes(productName).length */\n      swap1\n      pop\n        /* \"ElMino_HalalSupplyChain.sol\":4703:4732  bytes(productName).length > 0 */\n      gt\n        /* \"ElMino_HalalSupplyChain.sol\":4695:4757  require(bytes(productName).length > 0, \"productName required\") */\n      tag_118\n      jumpi\n      mload(0x40)\n      0x08c379a000000000000000000000000000000000000000000000000000000000\n      dup2\n      mstore\n      0x04\n      add\n      tag_119\n      swap1\n      tag_120\n      jump\t// in\n    tag_119:\n      mload(0x40)\n      dup1\n      swap2\n      sub\n      swap1\n      revert\n    tag_118:\n        /* \"ElMino_HalalSupplyChain.sol\":4777:4784  batches */\n      0x02\n        /* \"ElMino_HalalSupplyChain.sol\":4785:4792  batchId */\n      dup6\n      dup6\n        /* \"ElMino_HalalSupplyChain.sol\":4777:4793  batches[batchId] */\n      mload(0x40)\n      tag_121\n      swap3\n      swap2\n      swap1\n      tag_63\n      jump\t// in\n    tag_121:\n      swap1\n      dup2\n      mstore\n      0x20\n      add\n      mload(0x40)\n      dup1\n      swap2\n      sub\n      swap1\n      keccak256\n        /* \"ElMino_HalalSupplyChain.sol\":4777:4800  batches[batchId].exists */\n      0x07\n      add\n      0x00\n      swap1\n      sload\n      swap1\n      0x0100\n      exp\n      swap1\n      div\n      0xff\n      and\n        /* \"ElMino_HalalSupplyChain.sol\":4776:4800  !batches[batchId].exists */\n      iszero\n        /* \"ElMino_HalalSupplyChain.sol\":4768:4822  require(!batches[batchId].exists, \"Duplicate batchId\") */\n      tag_122\n      jumpi\n      mload(0x40)\n      0x08c379a000000000000000000000000000000000000000000000000000000000\n      dup2\n      mstore\n      0x04\n      add\n      tag_123\n      swap1\n      tag_124\n      jump\t// in\n    tag_123:\n      mload(0x40)\n      dup1\n      swap2\n      sub\n      swap1\n      revert\n    tag_122:\n        /* \"ElMino_HalalSupplyChain.sol\":4854:5185  Batch({... */\n      mload(0x40)\n      dup1\n      0x0120\n      add\n      0x40\n      mstore\n      dup1\n        /* \"ElMino_HalalSupplyChain.sol\":4888:4899  productName */\n      dup5\n      dup5\n        /* \"ElMino_HalalSupplyChain.sol\":4854:5185  Batch({... */\n      dup1\n      dup1\n      0x1f\n      add\n      0x20\n      dup1\n      swap2\n      div\n      mul\n      0x20\n      add\n      mload(0x40)\n      swap1\n      dup2\n      add\n      0x40\n      mstore\n      dup1\n      swap4\n      swap3\n      swap2\n      swap1\n      dup2\n      dup2\n      mstore\n      0x20\n      add\n      dup4\n      dup4\n      dup1\n      dup3\n      dup5\n      calldatacopy\n      0x00\n      dup2\n      dup5\n      add\n      mstore\n      not(0x1f)\n      0x1f\n      dup3\n      add\n      and\n      swap1\n      pop\n      dup1\n      dup4\n      add\n      swap3\n      pop\n      pop\n      pop\n      pop\n      pop\n      pop\n      pop\n      dup2\n      mstore\n      0x20\n      add\n        /* \"ElMino_HalalSupplyChain.sol\":4923:4930  batchId */\n      dup7\n      dup7\n        /* \"ElMino_HalalSupplyChain.sol\":4854:5185  Batch({... */\n      dup1\n      dup1\n      0x1f\n      add\n      0x20\n      dup1\n      swap2\n      div\n      mul\n      0x20\n      add\n      mload(0x40)\n      swap1\n      dup2\n      add\n      0x40\n      mstore\n      dup1\n      swap4\n      swap3\n      swap2\n      swap1\n      dup2\n      dup2\n      mstore\n      0x20\n      add\n      dup4\n      dup4\n      dup1\n      dup3\n      dup5\n      calldatacopy\n      0x00\n      dup2\n      dup5\n      add\n      mstore\n      not(0x1f)\n      0x1f\n      dup3\n      add\n      and\n      swap1\n      pop\n      dup1\n      dup4\n      add\n      swap3\n      pop\n      pop\n      pop\n      pop\n      pop\n      pop\n      pop\n      dup2\n      mstore\n      0x20\n      add\n        /* \"ElMino_HalalSupplyChain.sol\":4955:4965  msg.sender */\n      caller\n        /* \"ElMino_HalalSupplyChain.sol\":4854:5185  Batch({... */\n      0xffffffffffffffffffffffffffffffffffffffff\n      and\n      dup2\n      mstore\n      0x20\n      add\n        /* \"ElMino_HalalSupplyChain.sol\":4994:5004  msg.sender */\n      caller\n        /* \"ElMino_HalalSupplyChain.sol\":4854:5185  Batch({... */\n      0xffffffffffffffffffffffffffffffffffffffff\n      and\n      dup2\n      mstore\n      0x20\n      add\n      mload(0x40)\n      dup1\n      0x40\n      add\n      0x40\n      mstore\n      dup1\n      0x08\n      dup2\n      mstore\n      0x20\n      add\n      0x50726f6475636564000000000000000000000000000000000000000000000000\n      dup2\n      mstore\n      pop\n      dup2\n      mstore\n      0x20\n      add\n      mload(0x40)\n      dup1\n      0x20\n      add\n      0x40\n      mstore\n      dup1\n      0x00\n      dup2\n      mstore\n      pop\n      dup2\n      mstore\n      0x20\n      add\n        /* \"ElMino_HalalSupplyChain.sol\":5095:5110  block.timestamp */\n      timestamp\n        /* \"ElMino_HalalSupplyChain.sol\":4854:5185  Batch({... */\n      dup2\n      mstore\n      0x20\n      add\n        /* \"ElMino_HalalSupplyChain.sol\":5133:5137  true */\n      0x01\n        /* \"ElMino_HalalSupplyChain.sol\":4854:5185  Batch({... */\n      iszero\n      iszero\n      dup2\n      mstore\n      0x20\n      add\n        /* \"ElMino_HalalSupplyChain.sol\":5168:5173  false */\n      0x00\n        /* \"ElMino_HalalSupplyChain.sol\":4854:5185  Batch({... */\n      iszero\n      iszero\n      dup2\n      mstore\n      pop\n        /* \"ElMino_HalalSupplyChain.sol\":4835:4842  batches */\n      0x02\n        /* \"ElMino_HalalSupplyChain.sol\":4843:4850  batchId */\n      dup7\n      dup7\n        /* \"ElMino_HalalSupplyChain.sol\":4835:4851  batches[batchId] */\n      mload(0x40)\n      tag_125\n      swap3\n      swap2\n      swap1\n      tag_63\n      jump\t// in\n    tag_125:\n      swap1\n      dup2\n      mstore\n      0x20\n      add\n      mload(0x40)\n      dup1\n      swap2\n      sub\n      swap1\n      keccak256\n        /* \"ElMino_HalalSupplyChain.sol\":4835:5185  batches[batchId] = Batch({... */\n      0x00\n      dup3\n      add\n      mload\n      dup2\n      0x00\n      add\n      swap1\n      dup2\n      tag_126\n      swap2\n      swap1\n      tag_127\n      jump\t// in\n    tag_126:\n      pop\n      0x20\n      dup3\n      add\n      mload\n      dup2\n      0x01\n      add\n      swap1\n      dup2\n      tag_128\n      swap2\n      swap1\n      tag_127\n      jump\t// in\n    tag_128:\n      pop\n      0x40\n      dup3\n      add\n      mload\n      dup2\n      0x02\n      add\n      exp(0x0100, 0x00)\n      dup2\n      sload\n      dup2\n      0xffffffffffffffffffffffffffffffffffffffff\n      mul\n      not\n      and\n      swap1\n      dup4\n      0xffffffffffffffffffffffffffffffffffffffff\n      and\n      mul\n      or\n      swap1\n      sstore\n      pop\n      0x60\n      dup3\n      add\n      mload\n      dup2\n      0x03\n      add\n      exp(0x0100, 0x00)\n      dup2\n      sload\n      dup2\n      0xffffffffffffffffffffffffffffffffffffffff\n      mul\n      not\n      and\n      swap1\n      dup4\n      0xffffffffffffffffffffffffffffffffffffffff\n      and\n      mul\n      or\n      swap1\n      sstore\n      pop\n      0x80\n      dup3\n      add\n      mload\n      dup2\n      0x04\n      add\n      swap1\n      dup2\n      tag_129\n      swap2\n      swap1\n      tag_127\n      jump\t// in\n    tag_129:\n      pop\n      0xa0\n      dup3\n      add\n      mload\n      dup2\n      0x05\n      add\n      swap1\n      dup2\n      tag_130\n      swap2\n      swap1\n      tag_127\n      jump\t// in\n    tag_130:\n      pop\n      0xc0\n      dup3\n      add\n      mload\n      dup2\n      0x06\n      add\n      sstore\n      0xe0\n      dup3\n      add\n      mload\n      dup2\n      0x07\n      add\n      exp(0x0100, 0x00)\n      dup2\n      sload\n      dup2\n      0xff\n      mul\n      not\n      and\n      swap1\n      dup4\n      iszero\n      iszero\n      mul\n      or\n      swap1\n      sstore\n      pop\n      0x0100\n      dup3\n      add\n      mload\n      dup2\n      0x07\n      add\n      exp(0x0100, 0x01)\n      dup2\n      sload\n      dup2\n      0xff\n      mul\n      not\n      and\n      swap1\n      dup4\n      iszero\n      iszero\n      mul\n      or\n      swap1\n      sstore\n      pop\n      swap1\n      pop\n      pop\n        /* \"ElMino_HalalSupplyChain.sol\":5238:5248  msg.sender */\n      caller\n        /* \"ElMino_HalalSupplyChain.sol\":5203:5249  BatchCreated(batchId, productName, msg.sender) */\n      0xffffffffffffffffffffffffffffffffffffffff\n      and\n        /* \"ElMino_HalalSupplyChain.sol\":5216:5223  batchId */\n      dup6\n      dup6\n        /* \"ElMino_HalalSupplyChain.sol\":5203:5249  BatchCreated(batchId, productName, msg.sender) */\n      mload(0x40)\n      tag_131\n      swap3\n      swap2\n      swap1\n      tag_63\n      jump\t// in\n    tag_131:\n      mload(0x40)\n      dup1\n      swap2\n      sub\n      swap1\n      keccak256\n      0x14a4819b534290cb8ccfb4060d5410e04c15b9493bccae224d5b9ae9e6f939d0\n        /* \"ElMino_HalalSupplyChain.sol\":5225:5236  productName */\n      dup6\n      dup6\n        /* \"ElMino_HalalSupplyChain.sol\":5203:5249  BatchCreated(batchId, productName, msg.sender) */\n      mload(0x40)\n      tag_132\n      swap3\n      swap2\n      swap1\n      tag_78\n      jump\t// in\n    tag_132:\n      mload(0x40)\n      dup1\n      swap2\n      sub\n      swap1\n      log3\n        /* \"ElMino_HalalSupplyChain.sol\":5300:5310  msg.sender */\n      caller\n        /* \"ElMino_HalalSupplyChain.sol\":5265:5311  StatusUpdated(batchId, \"Produced\", msg.sender) */\n      0xffffffffffffffffffffffffffffffffffffffff\n      and\n        /* \"ElMino_HalalSupplyChain.sol\":5279:5286  batchId */\n      dup6\n      dup6\n        /* \"ElMino_HalalSupplyChain.sol\":5265:5311  StatusUpdated(batchId, \"Produced\", msg.sender) */\n      mload(0x40)\n      tag_133\n      swap3\n      swap2\n      swap1\n      tag_63\n      jump\t// in\n    tag_133:\n      mload(0x40)\n      dup1\n      swap2\n      sub\n      swap1\n      keccak256\n      0xa40410f71afcb456ef810bf2c9cf8d0e917213d9477633602d780d212f0b9389\n      mload(0x40)\n      tag_134\n      swap1\n      tag_135\n      jump\t// in\n    tag_134:\n      mload(0x40)\n      dup1\n      swap2\n      sub\n      swap1\n      log3\n        /* \"ElMino_HalalSupplyChain.sol\":4488:5319  function createBatch(string calldata batchId, string calldata productName)... */\n      pop\n      pop\n      pop\n      pop\n      pop\n      jump\t// out\n        /* \"ElMino_HalalSupplyChain.sol\":1511:1548  mapping(address => Role) public roles */\n    tag_33:\n      mstore(0x20, 0x01)\n      dup1\n      0x00\n      mstore\n      keccak256(0x00, 0x40)\n      0x00\n      swap2\n      pop\n      sload\n      swap1\n      0x0100\n      exp\n      swap1\n      div\n      0xff\n      and\n      dup2\n      jump\t// out\n        /* \"ElMino_HalalSupplyChain.sol\":5666:6862  function transferBatch(string calldata batchId, address to)... */\n    tag_39:\n        /* \"ElMino_HalalSupplyChain.sol\":5765:5772  batchId */\n      dup3\n      dup3\n        /* \"ElMino_HalalSupplyChain.sol\":3254:3385  modifier batchExists(string memory batchId) {... */\n      dup1\n      dup1\n      0x1f\n      add\n      0x20\n      dup1\n      swap2\n      div\n      mul\n      0x20\n      add\n      mload(0x40)\n      swap1\n      dup2\n      add\n      0x40\n      mstore\n      dup1\n      swap4\n      swap3\n      swap2\n      swap1\n      dup2\n      dup2\n      mstore\n      0x20\n      add\n      dup4\n      dup4\n      dup1\n      dup3\n      dup5\n      calldatacopy\n      0x00\n      dup2\n      dup5\n      add\n      mstore\n      not(0x1f)\n      0x1f\n      dup3\n      add\n      and\n      swap1\n      pop\n      dup1\n      dup4\n      add\n      swap3\n      pop\n      pop\n      pop\n      pop\n      pop\n      pop\n      pop\n        /* \"ElMino_HalalSupplyChain.sol\":3317:3324  batches */\n      0x02\n        /* \"ElMino_HalalSupplyChain.sol\":3325:3332  batchId */\n      dup2\n        /* \"ElMino_HalalSupplyChain.sol\":3317:3333  batches[batchId] */\n      mload(0x40)\n      tag_137\n      swap2\n      swap1\n      tag_54\n      jump\t// in\n    tag_137:\n      swap1\n      dup2\n      mstore\n      0x20\n      add\n      mload(0x40)\n      dup1\n      swap2\n      sub\n      swap1\n      keccak256\n        /* \"ElMino_HalalSupplyChain.sol\":3317:3340  batches[batchId].exists */\n      0x07\n      add\n      0x00\n      swap1\n      sload\n      swap1\n      0x0100\n      exp\n      swap1\n      div\n      0xff\n      and\n        /* \"ElMino_HalalSupplyChain.sol\":3309:3365  require(batches[batchId].exists, \"Batch does not exist\") */\n      tag_138\n      jumpi\n      mload(0x40)\n      0x08c379a000000000000000000000000000000000000000000000000000000000\n      dup2\n      mstore\n      0x04\n      add\n      tag_139\n      swap1\n      tag_57\n      jump\t// in\n    tag_139:\n      mload(0x40)\n      dup1\n      swap2\n      sub\n      swap1\n      revert\n    tag_138:\n        /* \"ElMino_HalalSupplyChain.sol\":5800:5807  batchId */\n      dup4\n      dup4\n        /* \"ElMino_HalalSupplyChain.sol\":3434:3587  modifier onlyCurrentOwner(string memory batchId) {... */\n      dup1\n      dup1\n      0x1f\n      add\n      0x20\n      dup1\n      swap2\n      div\n      mul\n      0x20\n      add\n      mload(0x40)\n      swap1\n      dup2\n      add\n      0x40\n      mstore\n      dup1\n      swap4\n      swap3\n      swap2\n      swap1\n      dup2\n      dup2\n      mstore\n      0x20\n      add\n      dup4\n      dup4\n      dup1\n      dup3\n      dup5\n      calldatacopy\n      0x00\n      dup2\n      dup5\n      add\n      mstore\n      not(0x1f)\n      0x1f\n      dup3\n      add\n      and\n      swap1\n      pop\n      dup1\n      dup4\n      add\n      swap3\n      pop\n      pop\n      pop\n      pop\n      pop\n      pop\n      pop\n        /* \"ElMino_HalalSupplyChain.sol\":3535:3545  msg.sender */\n      caller\n        /* \"ElMino_HalalSupplyChain.sol\":3502:3545  batches[batchId].currentOwner == msg.sender */\n      0xffffffffffffffffffffffffffffffffffffffff\n      and\n        /* \"ElMino_HalalSupplyChain.sol\":3502:3509  batches */\n      0x02\n        /* \"ElMino_HalalSupplyChain.sol\":3510:3517  batchId */\n      dup3\n        /* \"ElMino_HalalSupplyChain.sol\":3502:3518  batches[batchId] */\n      mload(0x40)\n      tag_141\n      swap2\n      swap1\n      tag_54\n      jump\t// in\n    tag_141:\n      swap1\n      dup2\n      mstore\n      0x20\n      add\n      mload(0x40)\n      dup1\n      swap2\n      sub\n      swap1\n      keccak256\n        /* \"ElMino_HalalSupplyChain.sol\":3502:3531  batches[batchId].currentOwner */\n      0x03\n      add\n      0x00\n      swap1\n      sload\n      swap1\n      0x0100\n      exp\n      swap1\n      div\n      0xffffffffffffffffffffffffffffffffffffffff\n      and\n        /* \"ElMino_HalalSupplyChain.sol\":3502:3545  batches[batchId].currentOwner == msg.sender */\n      0xffffffffffffffffffffffffffffffffffffffff\n      and\n      eq\n        /* \"ElMino_HalalSupplyChain.sol\":3494:3567  require(batches[batchId].currentOwner == msg.sender, \"Not current owner\") */\n      tag_142\n      jumpi\n      mload(0x40)\n      0x08c379a000000000000000000000000000000000000000000000000000000000\n      dup2\n      mstore\n      0x04\n      add\n      tag_143\n      swap1\n      tag_144\n      jump\t// in\n    tag_143:\n      mload(0x40)\n      dup1\n      swap2\n      sub\n      swap1\n      revert\n    tag_142:\n        /* \"ElMino_HalalSupplyChain.sol\":5847:5848  0 */\n      0x00\n        /* \"ElMino_HalalSupplyChain.sol\":5833:5849  to != address(0) */\n      0xffffffffffffffffffffffffffffffffffffffff\n      and\n        /* \"ElMino_HalalSupplyChain.sol\":5833:5835  to */\n      dup4\n        /* \"ElMino_HalalSupplyChain.sol\":5833:5849  to != address(0) */\n      0xffffffffffffffffffffffffffffffffffffffff\n      and\n      sub\n        /* \"ElMino_HalalSupplyChain.sol\":5825:5866  require(to != address(0), \"Zero address\") */\n      tag_146\n      jumpi\n      mload(0x40)\n      0x08c379a000000000000000000000000000000000000000000000000000000000\n      dup2\n      mstore\n      0x04\n      add\n      tag_147\n      swap1\n      tag_148\n      jump\t// in\n    tag_147:\n      mload(0x40)\n      dup1\n      swap2\n      sub\n      swap1\n      revert\n    tag_146:\n        /* \"ElMino_HalalSupplyChain.sol\":5898:5907  Role.None */\n      0x00\n        /* \"ElMino_HalalSupplyChain.sol\":5885:5907  roles[to] != Role.None */\n      0x05\n      dup2\n      gt\n      iszero\n      tag_149\n      jumpi\n      tag_150\n      tag_66\n      jump\t// in\n    tag_150:\n    tag_149:\n        /* \"ElMino_HalalSupplyChain.sol\":5885:5890  roles */\n      0x01\n        /* \"ElMino_HalalSupplyChain.sol\":5885:5894  roles[to] */\n      0x00\n        /* \"ElMino_HalalSupplyChain.sol\":5891:5893  to */\n      dup6\n        /* \"ElMino_HalalSupplyChain.sol\":5885:5894  roles[to] */\n      0xffffffffffffffffffffffffffffffffffffffff\n      and\n      0xffffffffffffffffffffffffffffffffffffffff\n      and\n      dup2\n      mstore\n      0x20\n      add\n      swap1\n      dup2\n      mstore\n      0x20\n      add\n      0x00\n      keccak256\n      0x00\n      swap1\n      sload\n      swap1\n      0x0100\n      exp\n      swap1\n      div\n      0xff\n      and\n        /* \"ElMino_HalalSupplyChain.sol\":5885:5907  roles[to] != Role.None */\n      0x05\n      dup2\n      gt\n      iszero\n      tag_151\n      jumpi\n      tag_152\n      tag_66\n      jump\t// in\n    tag_152:\n    tag_151:\n      sub\n        /* \"ElMino_HalalSupplyChain.sol\":5877:5936  require(roles[to] != Role.None, \"Recipient not authorized\") */\n      tag_153\n      jumpi\n      mload(0x40)\n      0x08c379a000000000000000000000000000000000000000000000000000000000\n      dup2\n      mstore\n      0x04\n      add\n      tag_154\n      swap1\n      tag_155\n      jump\t// in\n    tag_154:\n      mload(0x40)\n      dup1\n      swap2\n      sub\n      swap1\n      revert\n    tag_153:\n        /* \"ElMino_HalalSupplyChain.sol\":5949:5962  Role fromRole */\n      0x00\n        /* \"ElMino_HalalSupplyChain.sol\":5965:5970  roles */\n      0x01\n        /* \"ElMino_HalalSupplyChain.sol\":5965:5982  roles[msg.sender] */\n      0x00\n        /* \"ElMino_HalalSupplyChain.sol\":5971:5981  msg.sender */\n      caller\n        /* \"ElMino_HalalSupplyChain.sol\":5965:5982  roles[msg.sender] */\n      0xffffffffffffffffffffffffffffffffffffffff\n      and\n      0xffffffffffffffffffffffffffffffffffffffff\n      and\n      dup2\n      mstore\n      0x20\n      add\n      swap1\n      dup2\n      mstore\n      0x20\n      add\n      0x00\n      keccak256\n      0x00\n      swap1\n      sload\n      swap1\n      0x0100\n      exp\n      swap1\n      div\n      0xff\n      and\n        /* \"ElMino_HalalSupplyChain.sol\":5949:5982  Role fromRole = roles[msg.sender] */\n      swap1\n      pop\n        /* \"ElMino_HalalSupplyChain.sol\":5993:6004  Role toRole */\n      0x00\n        /* \"ElMino_HalalSupplyChain.sol\":6007:6012  roles */\n      0x01\n        /* \"ElMino_HalalSupplyChain.sol\":6007:6016  roles[to] */\n      0x00\n        /* \"ElMino_HalalSupplyChain.sol\":6013:6015  to */\n      dup7\n        /* \"ElMino_HalalSupplyChain.sol\":6007:6016  roles[to] */\n      0xffffffffffffffffffffffffffffffffffffffff\n      and\n      0xffffffffffffffffffffffffffffffffffffffff\n      and\n      dup2\n      mstore\n      0x20\n      add\n      swap1\n      dup2\n      mstore\n      0x20\n      add\n      0x00\n      keccak256\n      0x00\n      swap1\n      sload\n      swap1\n      0x0100\n      exp\n      swap1\n      div\n      0xff\n      and\n        /* \"ElMino_HalalSupplyChain.sol\":5993:6016  Role toRole = roles[to] */\n      swap1\n      pop\n        /* \"ElMino_HalalSupplyChain.sol\":6086:6099  Role.Producer */\n      0x02\n        /* \"ElMino_HalalSupplyChain.sol\":6074:6099  fromRole == Role.Producer */\n      0x05\n      dup2\n      gt\n      iszero\n      tag_156\n      jumpi\n      tag_157\n      tag_66\n      jump\t// in\n    tag_157:\n    tag_156:\n        /* \"ElMino_HalalSupplyChain.sol\":6074:6082  fromRole */\n      dup3\n        /* \"ElMino_HalalSupplyChain.sol\":6074:6099  fromRole == Role.Producer */\n      0x05\n      dup2\n      gt\n      iszero\n      tag_158\n      jumpi\n      tag_159\n      tag_66\n      jump\t// in\n    tag_159:\n    tag_158:\n      sub\n        /* \"ElMino_HalalSupplyChain.sol\":6070:6549  if (fromRole == Role.Producer) {... */\n      tag_160\n      jumpi\n        /* \"ElMino_HalalSupplyChain.sol\":6134:6153  Role.HalalAuthority */\n      0x03\n        /* \"ElMino_HalalSupplyChain.sol\":6124:6153  toRole == Role.HalalAuthority */\n      0x05\n      dup2\n      gt\n      iszero\n      tag_161\n      jumpi\n      tag_162\n      tag_66\n      jump\t// in\n    tag_162:\n    tag_161:\n        /* \"ElMino_HalalSupplyChain.sol\":6124:6130  toRole */\n      dup2\n        /* \"ElMino_HalalSupplyChain.sol\":6124:6153  toRole == Role.HalalAuthority */\n      0x05\n      dup2\n      gt\n      iszero\n      tag_163\n      jumpi\n      tag_164\n      tag_66\n      jump\t// in\n    tag_164:\n    tag_163:\n      eq\n        /* \"ElMino_HalalSupplyChain.sol\":6116:6189  require(toRole == Role.HalalAuthority, \"Producer -> HalalAuthority only\") */\n      tag_165\n      jumpi\n      mload(0x40)\n      0x08c379a000000000000000000000000000000000000000000000000000000000\n      dup2\n      mstore\n      0x04\n      add\n      tag_166\n      swap1\n      tag_167\n      jump\t// in\n    tag_166:\n      mload(0x40)\n      dup1\n      swap2\n      sub\n      swap1\n      revert\n    tag_165:\n        /* \"ElMino_HalalSupplyChain.sol\":6070:6549  if (fromRole == Role.Producer) {... */\n      jump(tag_168)\n    tag_160:\n        /* \"ElMino_HalalSupplyChain.sol\":6223:6242  Role.HalalAuthority */\n      0x03\n        /* \"ElMino_HalalSupplyChain.sol\":6211:6242  fromRole == Role.HalalAuthority */\n      0x05\n      dup2\n      gt\n      iszero\n      tag_169\n      jumpi\n      tag_170\n      tag_66\n      jump\t// in\n    tag_170:\n    tag_169:\n        /* \"ElMino_HalalSupplyChain.sol\":6211:6219  fromRole */\n      dup3\n        /* \"ElMino_HalalSupplyChain.sol\":6211:6242  fromRole == Role.HalalAuthority */\n      0x05\n      dup2\n      gt\n      iszero\n      tag_171\n      jumpi\n      tag_172\n      tag_66\n      jump\t// in\n    tag_172:\n    tag_171:\n      sub\n        /* \"ElMino_HalalSupplyChain.sol\":6207:6549  if (fromRole == Role.HalalAuthority) {... */\n      tag_173\n      jumpi\n        /* \"ElMino_HalalSupplyChain.sol\":6277:6293  Role.Distributor */\n      0x04\n        /* \"ElMino_HalalSupplyChain.sol\":6267:6293  toRole == Role.Distributor */\n      0x05\n      dup2\n      gt\n      iszero\n      tag_174\n      jumpi\n      tag_175\n      tag_66\n      jump\t// in\n    tag_175:\n    tag_174:\n        /* \"ElMino_HalalSupplyChain.sol\":6267:6273  toRole */\n      dup2\n        /* \"ElMino_HalalSupplyChain.sol\":6267:6293  toRole == Role.Distributor */\n      0x05\n      dup2\n      gt\n      iszero\n      tag_176\n      jumpi\n      tag_177\n      tag_66\n      jump\t// in\n    tag_177:\n    tag_176:\n      eq\n        /* \"ElMino_HalalSupplyChain.sol\":6259:6332  require(toRole == Role.Distributor, \"HalalAuthority -> Distributor only\") */\n      tag_178\n      jumpi\n      mload(0x40)\n      0x08c379a000000000000000000000000000000000000000000000000000000000\n      dup2\n      mstore\n      0x04\n      add\n      tag_179\n      swap1\n      tag_180\n      jump\t// in\n    tag_179:\n      mload(0x40)\n      dup1\n      swap2\n      sub\n      swap1\n      revert\n    tag_178:\n        /* \"ElMino_HalalSupplyChain.sol\":6207:6549  if (fromRole == Role.HalalAuthority) {... */\n      jump(tag_181)\n    tag_173:\n        /* \"ElMino_HalalSupplyChain.sol\":6366:6382  Role.Distributor */\n      0x04\n        /* \"ElMino_HalalSupplyChain.sol\":6354:6382  fromRole == Role.Distributor */\n      0x05\n      dup2\n      gt\n      iszero\n      tag_182\n      jumpi\n      tag_183\n      tag_66\n      jump\t// in\n    tag_183:\n    tag_182:\n        /* \"ElMino_HalalSupplyChain.sol\":6354:6362  fromRole */\n      dup3\n        /* \"ElMino_HalalSupplyChain.sol\":6354:6382  fromRole == Role.Distributor */\n      0x05\n      dup2\n      gt\n      iszero\n      tag_184\n      jumpi\n      tag_185\n      tag_66\n      jump\t// in\n    tag_185:\n    tag_184:\n      sub\n        /* \"ElMino_HalalSupplyChain.sol\":6350:6549  if (fromRole == Role.Distributor) {... */\n      tag_186\n      jumpi\n        /* \"ElMino_HalalSupplyChain.sol\":6417:6430  Role.Retailer */\n      0x05\n        /* \"ElMino_HalalSupplyChain.sol\":6407:6430  toRole == Role.Retailer */\n      dup1\n      dup2\n      gt\n      iszero\n      tag_187\n      jumpi\n      tag_188\n      tag_66\n      jump\t// in\n    tag_188:\n    tag_187:\n        /* \"ElMino_HalalSupplyChain.sol\":6407:6413  toRole */\n      dup2\n        /* \"ElMino_HalalSupplyChain.sol\":6407:6430  toRole == Role.Retailer */\n      0x05\n      dup2\n      gt\n      iszero\n      tag_189\n      jumpi\n      tag_190\n      tag_66\n      jump\t// in\n    tag_190:\n    tag_189:\n      eq\n        /* \"ElMino_HalalSupplyChain.sol\":6399:6463  require(toRole == Role.Retailer, \"Distributor -> Retailer only\") */\n      tag_191\n      jumpi\n      mload(0x40)\n      0x08c379a000000000000000000000000000000000000000000000000000000000\n      dup2\n      mstore\n      0x04\n      add\n      tag_192\n      swap1\n      tag_193\n      jump\t// in\n    tag_192:\n      mload(0x40)\n      dup1\n      swap2\n      sub\n      swap1\n      revert\n    tag_191:\n        /* \"ElMino_HalalSupplyChain.sol\":6350:6549  if (fromRole == Role.Distributor) {... */\n      jump(tag_194)\n    tag_186:\n        /* \"ElMino_HalalSupplyChain.sol\":6496:6537  revert(\"This role cannot transfer batch\") */\n      mload(0x40)\n      0x08c379a000000000000000000000000000000000000000000000000000000000\n      dup2\n      mstore\n      0x04\n      add\n      tag_195\n      swap1\n      tag_196\n      jump\t// in\n    tag_195:\n      mload(0x40)\n      dup1\n      swap2\n      sub\n      swap1\n      revert\n        /* \"ElMino_HalalSupplyChain.sol\":6350:6549  if (fromRole == Role.Distributor) {... */\n    tag_194:\n        /* \"ElMino_HalalSupplyChain.sol\":6207:6549  if (fromRole == Role.HalalAuthority) {... */\n    tag_181:\n        /* \"ElMino_HalalSupplyChain.sol\":6070:6549  if (fromRole == Role.Producer) {... */\n    tag_168:\n        /* \"ElMino_HalalSupplyChain.sol\":6561:6573  address from */\n      0x00\n        /* \"ElMino_HalalSupplyChain.sol\":6576:6583  batches */\n      0x02\n        /* \"ElMino_HalalSupplyChain.sol\":6584:6591  batchId */\n      dup9\n      dup9\n        /* \"ElMino_HalalSupplyChain.sol\":6576:6592  batches[batchId] */\n      mload(0x40)\n      tag_197\n      swap3\n      swap2\n      swap1\n      tag_63\n      jump\t// in\n    tag_197:\n      swap1\n      dup2\n      mstore\n      0x20\n      add\n      mload(0x40)\n      dup1\n      swap2\n      sub\n      swap1\n      keccak256\n        /* \"ElMino_HalalSupplyChain.sol\":6576:6605  batches[batchId].currentOwner */\n      0x03\n      add\n      0x00\n      swap1\n      sload\n      swap1\n      0x0100\n      exp\n      swap1\n      div\n      0xffffffffffffffffffffffffffffffffffffffff\n      and\n        /* \"ElMino_HalalSupplyChain.sol\":6561:6605  address from = batches[batchId].currentOwner */\n      swap1\n      pop\n        /* \"ElMino_HalalSupplyChain.sol\":6684:6686  to */\n      dup6\n        /* \"ElMino_HalalSupplyChain.sol\":6652:6659  batches */\n      0x02\n        /* \"ElMino_HalalSupplyChain.sol\":6660:6667  batchId */\n      dup10\n      dup10\n        /* \"ElMino_HalalSupplyChain.sol\":6652:6668  batches[batchId] */\n      mload(0x40)\n      tag_198\n      swap3\n      swap2\n      swap1\n      tag_63\n      jump\t// in\n    tag_198:\n      swap1\n      dup2\n      mstore\n      0x20\n      add\n      mload(0x40)\n      dup1\n      swap2\n      sub\n      swap1\n      keccak256\n        /* \"ElMino_HalalSupplyChain.sol\":6652:6681  batches[batchId].currentOwner */\n      0x03\n      add\n      0x00\n        /* \"ElMino_HalalSupplyChain.sol\":6652:6686  batches[batchId].currentOwner = to */\n      0x0100\n      exp\n      dup2\n      sload\n      dup2\n      0xffffffffffffffffffffffffffffffffffffffff\n      mul\n      not\n      and\n      swap1\n      dup4\n      0xffffffffffffffffffffffffffffffffffffffff\n      and\n      mul\n      or\n      swap1\n      sstore\n      pop\n        /* \"ElMino_HalalSupplyChain.sol\":6697:6736  batches[batchId].status = \"Transferred\" */\n      mload(0x40)\n      dup1\n      0x40\n      add\n      0x40\n      mstore\n      dup1\n      0x0b\n      dup2\n      mstore\n      0x20\n      add\n      0x5472616e73666572726564000000000000000000000000000000000000000000\n      dup2\n      mstore\n      pop\n        /* \"ElMino_HalalSupplyChain.sol\":6697:6704  batches */\n      0x02\n        /* \"ElMino_HalalSupplyChain.sol\":6705:6712  batchId */\n      dup10\n      dup10\n        /* \"ElMino_HalalSupplyChain.sol\":6697:6713  batches[batchId] */\n      mload(0x40)\n      tag_199\n      swap3\n      swap2\n      swap1\n      tag_63\n      jump\t// in\n    tag_199:\n      swap1\n      dup2\n      mstore\n      0x20\n      add\n      mload(0x40)\n      dup1\n      swap2\n      sub\n      swap1\n      keccak256\n        /* \"ElMino_HalalSupplyChain.sol\":6697:6720  batches[batchId].status */\n      0x04\n      add\n        /* \"ElMino_HalalSupplyChain.sol\":6697:6736  batches[batchId].status = \"Transferred\" */\n      swap1\n      dup2\n      tag_200\n      swap2\n      swap1\n      tag_127\n      jump\t// in\n    tag_200:\n      pop\n        /* \"ElMino_HalalSupplyChain.sol\":6786:6788  to */\n      dup6\n        /* \"ElMino_HalalSupplyChain.sol\":6754:6789  BatchTransferred(batchId, from, to) */\n      0xffffffffffffffffffffffffffffffffffffffff\n      and\n        /* \"ElMino_HalalSupplyChain.sol\":6780:6784  from */\n      dup2\n        /* \"ElMino_HalalSupplyChain.sol\":6754:6789  BatchTransferred(batchId, from, to) */\n      0xffffffffffffffffffffffffffffffffffffffff\n      and\n        /* \"ElMino_HalalSupplyChain.sol\":6771:6778  batchId */\n      dup10\n      dup10\n        /* \"ElMino_HalalSupplyChain.sol\":6754:6789  BatchTransferred(batchId, from, to) */\n      mload(0x40)\n      tag_201\n      swap3\n      swap2\n      swap1\n      tag_63\n      jump\t// in\n    tag_201:\n      mload(0x40)\n      dup1\n      swap2\n      sub\n      swap1\n      keccak256\n      0xa8b047db3c9b378a978a9cc59c0f75a2671f935a140d6799f8f56104f0ec6dd6\n      mload(0x40)\n      mload(0x40)\n      dup1\n      swap2\n      sub\n      swap1\n      log4\n        /* \"ElMino_HalalSupplyChain.sol\":6843:6853  msg.sender */\n      caller\n        /* \"ElMino_HalalSupplyChain.sol\":6805:6854  StatusUpdated(batchId, \"Transferred\", msg.sender) */\n      0xffffffffffffffffffffffffffffffffffffffff\n      and\n        /* \"ElMino_HalalSupplyChain.sol\":6819:6826  batchId */\n      dup9\n      dup9\n        /* \"ElMino_HalalSupplyChain.sol\":6805:6854  StatusUpdated(batchId, \"Transferred\", msg.sender) */\n      mload(0x40)\n      tag_202\n      swap3\n      swap2\n      swap1\n      tag_63\n      jump\t// in\n    tag_202:\n      mload(0x40)\n      dup1\n      swap2\n      sub\n      swap1\n      keccak256\n      0xa40410f71afcb456ef810bf2c9cf8d0e917213d9477633602d780d212f0b9389\n      mload(0x40)\n      tag_203\n      swap1\n      tag_204\n      jump\t// in\n    tag_203:\n      mload(0x40)\n      dup1\n      swap2\n      sub\n      swap1\n      log3\n        /* \"ElMino_HalalSupplyChain.sol\":5814:6862  {... */\n      pop\n      pop\n      pop\n        /* \"ElMino_HalalSupplyChain.sol\":3376:3377  _ */\n      pop\n        /* \"ElMino_HalalSupplyChain.sol\":5666:6862  function transferBatch(string calldata batchId, address to)... */\n      pop\n      pop\n      pop\n      pop\n      jump\t// out\n        /* \"ElMino_HalalSupplyChain.sol\":7159:7813  function setHalalCertificate(string calldata batchId, string calldata certHash)... */\n    tag_42:\n        /* \"ElMino_HalalSupplyChain.sol\":7278:7285  batchId */\n      dup4\n      dup4\n        /* \"ElMino_HalalSupplyChain.sol\":3254:3385  modifier batchExists(string memory batchId) {... */\n      dup1\n      dup1\n      0x1f\n      add\n      0x20\n      dup1\n      swap2\n      div\n      mul\n      0x20\n      add\n      mload(0x40)\n      swap1\n      dup2\n      add\n      0x40\n      mstore\n      dup1\n      swap4\n      swap3\n      swap2\n      swap1\n      dup2\n      dup2\n      mstore\n      0x20\n      add\n      dup4\n      dup4\n      dup1\n      dup3\n      dup5\n      calldatacopy\n      0x00\n      dup2\n      dup5\n      add\n      mstore\n      not(0x1f)\n      0x1f\n      dup3\n      add\n      and\n      swap1\n      pop\n      dup1\n      dup4\n      add\n      swap3\n      pop\n      pop\n      pop\n      pop\n      pop\n      pop\n      pop\n        /* \"ElMino_HalalSupplyChain.sol\":3317:3324  batches */\n      0x02\n        /* \"ElMino_HalalSupplyChain.sol\":3325:3332  batchId */\n      dup2\n        /* \"ElMino_HalalSupplyChain.sol\":3317:3333  batches[batchId] */\n      mload(0x40)\n      tag_206\n      swap2\n      swap1\n      tag_54\n      jump\t// in\n    tag_206:\n      swap1\n      dup2\n      mstore\n      0x20\n      add\n      mload(0x40)\n      dup1\n      swap2\n      sub\n      swap1\n      keccak256\n        /* \"ElMino_HalalSupplyChain.sol\":3317:3340  batches[batchId].exists */\n      0x07\n      add\n      0x00\n      swap1\n      sload\n      swap1\n      0x0100\n      exp\n      swap1\n      div\n      0xff\n      and\n        /* \"ElMino_HalalSupplyChain.sol\":3309:3365  require(batches[batchId].exists, \"Batch does not exist\") */\n      tag_207\n      jumpi\n      mload(0x40)\n      0x08c379a000000000000000000000000000000000000000000000000000000000\n      dup2\n      mstore\n      0x04\n      add\n      tag_208\n      swap1\n      tag_57\n      jump\t// in\n    tag_208:\n      mload(0x40)\n      dup1\n      swap2\n      sub\n      swap1\n      revert\n    tag_207:\n        /* \"ElMino_HalalSupplyChain.sol\":7305:7324  Role.HalalAuthority */\n      0x03\n        /* \"ElMino_HalalSupplyChain.sol\":3166:3167  r */\n      dup1\n        /* \"ElMino_HalalSupplyChain.sol\":3145:3167  roles[msg.sender] == r */\n      0x05\n      dup2\n      gt\n      iszero\n      tag_210\n      jumpi\n      tag_211\n      tag_66\n      jump\t// in\n    tag_211:\n    tag_210:\n        /* \"ElMino_HalalSupplyChain.sol\":3145:3150  roles */\n      0x01\n        /* \"ElMino_HalalSupplyChain.sol\":3145:3162  roles[msg.sender] */\n      0x00\n        /* \"ElMino_HalalSupplyChain.sol\":3151:3161  msg.sender */\n      caller\n        /* \"ElMino_HalalSupplyChain.sol\":3145:3162  roles[msg.sender] */\n      0xffffffffffffffffffffffffffffffffffffffff\n      and\n      0xffffffffffffffffffffffffffffffffffffffff\n      and\n      dup2\n      mstore\n      0x20\n      add\n      swap1\n      dup2\n      mstore\n      0x20\n      add\n      0x00\n      keccak256\n      0x00\n      swap1\n      sload\n      swap1\n      0x0100\n      exp\n      swap1\n      div\n      0xff\n      and\n        /* \"ElMino_HalalSupplyChain.sol\":3145:3167  roles[msg.sender] == r */\n      0x05\n      dup2\n      gt\n      iszero\n      tag_212\n      jumpi\n      tag_213\n      tag_66\n      jump\t// in\n    tag_213:\n    tag_212:\n      eq\n        /* \"ElMino_HalalSupplyChain.sol\":3137:3200  require(roles[msg.sender] == r, \"Invalid role for this action\") */\n      tag_214\n      jumpi\n      mload(0x40)\n      0x08c379a000000000000000000000000000000000000000000000000000000000\n      dup2\n      mstore\n      0x04\n      add\n      tag_215\n      swap1\n      tag_113\n      jump\t// in\n    tag_215:\n      mload(0x40)\n      dup1\n      swap2\n      sub\n      swap1\n      revert\n    tag_214:\n        /* \"ElMino_HalalSupplyChain.sol\":7352:7359  batchId */\n      dup6\n      dup6\n        /* \"ElMino_HalalSupplyChain.sol\":3434:3587  modifier onlyCurrentOwner(string memory batchId) {... */\n      dup1\n      dup1\n      0x1f\n      add\n      0x20\n      dup1\n      swap2\n      div\n      mul\n      0x20\n      add\n      mload(0x40)\n      swap1\n      dup2\n      add\n      0x40\n      mstore\n      dup1\n      swap4\n      swap3\n      swap2\n      swap1\n      dup2\n      dup2\n      mstore\n      0x20\n      add\n      dup4\n      dup4\n      dup1\n      dup3\n      dup5\n      calldatacopy\n      0x00\n      dup2\n      dup5\n      add\n      mstore\n      not(0x1f)\n      0x1f\n      dup3\n      add\n      and\n      swap1\n      pop\n      dup1\n      dup4\n      add\n      swap3\n      pop\n      pop\n      pop\n      pop\n      pop\n      pop\n      pop\n        /* \"ElMino_HalalSupplyChain.sol\":3535:3545  msg.sender */\n      caller\n        /* \"ElMino_HalalSupplyChain.sol\":3502:3545  batches[batchId].currentOwner == msg.sender */\n      0xffffffffffffffffffffffffffffffffffffffff\n      and\n        /* \"ElMino_HalalSupplyChain.sol\":3502:3509  batches */\n      0x02\n        /* \"ElMino_HalalSupplyChain.sol\":3510:3517  batchId */\n      dup3\n        /* \"ElMino_HalalSupplyChain.sol\":3502:3518  batches[batchId] */\n      mload(0x40)\n      tag_217\n      swap2\n      swap1\n      tag_54\n      jump\t// in\n    tag_217:\n      swap1\n      dup2\n      mstore\n      0x20\n      add\n      mload(0x40)\n      dup1\n      swap2\n      sub\n      swap1\n      keccak256\n        /* \"ElMino_HalalSupplyChain.sol\":3502:3531  batches[batchId].currentOwner */\n      0x03\n      add\n      0x00\n      swap1\n      sload\n      swap1\n      0x0100\n      exp\n      swap1\n      div\n      0xffffffffffffffffffffffffffffffffffffffff\n      and\n        /* \"ElMino_HalalSupplyChain.sol\":3502:3545  batches[batchId].currentOwner == msg.sender */\n      0xffffffffffffffffffffffffffffffffffffffff\n      and\n      eq\n        /* \"ElMino_HalalSupplyChain.sol\":3494:3567  require(batches[batchId].currentOwner == msg.sender, \"Not current owner\") */\n      tag_218\n      jumpi\n      mload(0x40)\n      0x08c379a000000000000000000000000000000000000000000000000000000000\n      dup2\n      mstore\n      0x04\n      add\n      tag_219\n      swap1\n      tag_144\n      jump\t// in\n    tag_219:\n      mload(0x40)\n      dup1\n      swap2\n      sub\n      swap1\n      revert\n    tag_218:\n        /* \"ElMino_HalalSupplyChain.sol\":7414:7415  0 */\n      0x00\n        /* \"ElMino_HalalSupplyChain.sol\":7395:7403  certHash */\n      dup6\n      dup6\n        /* \"ElMino_HalalSupplyChain.sol\":7389:7411  bytes(certHash).length */\n      swap1\n      pop\n        /* \"ElMino_HalalSupplyChain.sol\":7389:7415  bytes(certHash).length > 0 */\n      gt\n        /* \"ElMino_HalalSupplyChain.sol\":7381:7437  require(bytes(certHash).length > 0, \"certHash required\") */\n      tag_221\n      jumpi\n      mload(0x40)\n      0x08c379a000000000000000000000000000000000000000000000000000000000\n      dup2\n      mstore\n      0x04\n      add\n      tag_222\n      swap1\n      tag_223\n      jump\t// in\n    tag_222:\n      mload(0x40)\n      dup1\n      swap2\n      sub\n      swap1\n      revert\n    tag_221:\n        /* \"ElMino_HalalSupplyChain.sol\":7457:7464  batches */\n      0x02\n        /* \"ElMino_HalalSupplyChain.sol\":7465:7472  batchId */\n      dup8\n      dup8\n        /* \"ElMino_HalalSupplyChain.sol\":7457:7473  batches[batchId] */\n      mload(0x40)\n      tag_224\n      swap3\n      swap2\n      swap1\n      tag_63\n      jump\t// in\n    tag_224:\n      swap1\n      dup2\n      mstore\n      0x20\n      add\n      mload(0x40)\n      dup1\n      swap2\n      sub\n      swap1\n      keccak256\n        /* \"ElMino_HalalSupplyChain.sol\":7457:7488  batches[batchId].halalCertified */\n      0x07\n      add\n      0x01\n      swap1\n      sload\n      swap1\n      0x0100\n      exp\n      swap1\n      div\n      0xff\n      and\n        /* \"ElMino_HalalSupplyChain.sol\":7456:7488  !batches[batchId].halalCertified */\n      iszero\n        /* \"ElMino_HalalSupplyChain.sol\":7448:7516  require(!batches[batchId].halalCertified, \"Halal already certified\") */\n      tag_225\n      jumpi\n      mload(0x40)\n      0x08c379a000000000000000000000000000000000000000000000000000000000\n      dup2\n      mstore\n      0x04\n      add\n      tag_226\n      swap1\n      tag_227\n      jump\t// in\n    tag_226:\n      mload(0x40)\n      dup1\n      swap2\n      sub\n      swap1\n      revert\n    tag_225:\n        /* \"ElMino_HalalSupplyChain.sol\":7562:7570  certHash */\n      dup5\n      dup5\n        /* \"ElMino_HalalSupplyChain.sol\":7529:7536  batches */\n      0x02\n        /* \"ElMino_HalalSupplyChain.sol\":7537:7544  batchId */\n      dup10\n      dup10\n        /* \"ElMino_HalalSupplyChain.sol\":7529:7545  batches[batchId] */\n      mload(0x40)\n      tag_228\n      swap3\n      swap2\n      swap1\n      tag_63\n      jump\t// in\n    tag_228:\n      swap1\n      dup2\n      mstore\n      0x20\n      add\n      mload(0x40)\n      dup1\n      swap2\n      sub\n      swap1\n      keccak256\n        /* \"ElMino_HalalSupplyChain.sol\":7529:7559  batches[batchId].halalCertHash */\n      0x05\n      add\n        /* \"ElMino_HalalSupplyChain.sol\":7529:7570  batches[batchId].halalCertHash = certHash */\n      swap2\n      dup3\n      tag_229\n      swap3\n      swap2\n      swap1\n      tag_75\n      jump\t// in\n    tag_229:\n      pop\n        /* \"ElMino_HalalSupplyChain.sol\":7615:7619  true */\n      0x01\n        /* \"ElMino_HalalSupplyChain.sol\":7581:7588  batches */\n      0x02\n        /* \"ElMino_HalalSupplyChain.sol\":7589:7596  batchId */\n      dup9\n      dup9\n        /* \"ElMino_HalalSupplyChain.sol\":7581:7597  batches[batchId] */\n      mload(0x40)\n      tag_230\n      swap3\n      swap2\n      swap1\n      tag_63\n      jump\t// in\n    tag_230:\n      swap1\n      dup2\n      mstore\n      0x20\n      add\n      mload(0x40)\n      dup1\n      swap2\n      sub\n      swap1\n      keccak256\n        /* \"ElMino_HalalSupplyChain.sol\":7581:7612  batches[batchId].halalCertified */\n      0x07\n      add\n      0x01\n        /* \"ElMino_HalalSupplyChain.sol\":7581:7619  batches[batchId].halalCertified = true */\n      0x0100\n      exp\n      dup2\n      sload\n      dup2\n      0xff\n      mul\n      not\n      and\n      swap1\n      dup4\n      iszero\n      iszero\n      mul\n      or\n      swap1\n      sstore\n      pop\n        /* \"ElMino_HalalSupplyChain.sol\":7630:7673  batches[batchId].status = \"Certified Halal\" */\n      mload(0x40)\n      dup1\n      0x40\n      add\n      0x40\n      mstore\n      dup1\n      0x0f\n      dup2\n      mstore\n      0x20\n      add\n      0x4365727469666965642048616c616c0000000000000000000000000000000000\n      dup2\n      mstore\n      pop\n        /* \"ElMino_HalalSupplyChain.sol\":7630:7637  batches */\n      0x02\n        /* \"ElMino_HalalSupplyChain.sol\":7638:7645  batchId */\n      dup9\n      dup9\n        /* \"ElMino_HalalSupplyChain.sol\":7630:7646  batches[batchId] */\n      mload(0x40)\n      tag_231\n      swap3\n      swap2\n      swap1\n      tag_63\n      jump\t// in\n    tag_231:\n      swap1\n      dup2\n      mstore\n      0x20\n      add\n      mload(0x40)\n      dup1\n      swap2\n      sub\n      swap1\n      keccak256\n        /* \"ElMino_HalalSupplyChain.sol\":7630:7653  batches[batchId].status */\n      0x04\n      add\n        /* \"ElMino_HalalSupplyChain.sol\":7630:7673  batches[batchId].status = \"Certified Halal\" */\n      swap1\n      dup2\n      tag_232\n      swap2\n      swap1\n      tag_127\n      jump\t// in\n    tag_232:\n      pop\n        /* \"ElMino_HalalSupplyChain.sol\":7725:7735  msg.sender */\n      caller\n        /* \"ElMino_HalalSupplyChain.sol\":7691:7736  HalalCertified(batchId, certHash, msg.sender) */\n      0xffffffffffffffffffffffffffffffffffffffff\n      and\n        /* \"ElMino_HalalSupplyChain.sol\":7706:7713  batchId */\n      dup8\n      dup8\n        /* \"ElMino_HalalSupplyChain.sol\":7691:7736  HalalCertified(batchId, certHash, msg.sender) */\n      mload(0x40)\n      tag_233\n      swap3\n      swap2\n      swap1\n      tag_63\n      jump\t// in\n    tag_233:\n      mload(0x40)\n      dup1\n      swap2\n      sub\n      swap1\n      keccak256\n      0x63d98c95c04737c94b1ccd82ad5f6540cfa9dd84872f501890d38d6884f291e4\n        /* \"ElMino_HalalSupplyChain.sol\":7715:7723  certHash */\n      dup8\n      dup8\n        /* \"ElMino_HalalSupplyChain.sol\":7691:7736  HalalCertified(batchId, certHash, msg.sender) */\n      mload(0x40)\n      tag_234\n      swap3\n      swap2\n      swap1\n      tag_78\n      jump\t// in\n    tag_234:\n      mload(0x40)\n      dup1\n      swap2\n      sub\n      swap1\n      log3\n        /* \"ElMino_HalalSupplyChain.sol\":7794:7804  msg.sender */\n      caller\n        /* \"ElMino_HalalSupplyChain.sol\":7752:7805  StatusUpdated(batchId, \"Certified Halal\", msg.sender) */\n      0xffffffffffffffffffffffffffffffffffffffff\n      and\n        /* \"ElMino_HalalSupplyChain.sol\":7766:7773  batchId */\n      dup8\n      dup8\n        /* \"ElMino_HalalSupplyChain.sol\":7752:7805  StatusUpdated(batchId, \"Certified Halal\", msg.sender) */\n      mload(0x40)\n      tag_235\n      swap3\n      swap2\n      swap1\n      tag_63\n      jump\t// in\n    tag_235:\n      mload(0x40)\n      dup1\n      swap2\n      sub\n      swap1\n      keccak256\n      0xa40410f71afcb456ef810bf2c9cf8d0e917213d9477633602d780d212f0b9389\n      mload(0x40)\n      tag_236\n      swap1\n      tag_237\n      jump\t// in\n    tag_236:\n      mload(0x40)\n      dup1\n      swap2\n      sub\n      swap1\n      log3\n        /* \"ElMino_HalalSupplyChain.sol\":3211:3212  _ */\n      pop\n        /* \"ElMino_HalalSupplyChain.sol\":3376:3377  _ */\n      pop\n        /* \"ElMino_HalalSupplyChain.sol\":7159:7813  function setHalalCertificate(string calldata batchId, string calldata certHash)... */\n      pop\n      pop\n      pop\n      pop\n      pop\n      jump\t// out\n        /* \"ElMino_HalalSupplyChain.sol\":1446:1466  address public admin */\n    tag_44:\n      0x00\n      0x00\n      swap1\n      sload\n      swap1\n      0x0100\n      exp\n      swap1\n      div\n      0xffffffffffffffffffffffffffffffffffffffff\n      and\n      dup2\n      jump\t// out\n        /* \"ElMino_HalalSupplyChain.sol\":8834:9486  function getBatch(string calldata batchId)... */\n    tag_49:\n        /* \"ElMino_HalalSupplyChain.sol\":8971:8996  string memory productName */\n      0x60\n        /* \"ElMino_HalalSupplyChain.sol\":9011:9027  string memory id */\n      dup1\n        /* \"ElMino_HalalSupplyChain.sol\":9042:9058  address producer */\n      0x00\n        /* \"ElMino_HalalSupplyChain.sol\":9073:9093  address currentOwner */\n      0x00\n        /* \"ElMino_HalalSupplyChain.sol\":9108:9128  string memory status */\n      0x60\n        /* \"ElMino_HalalSupplyChain.sol\":9143:9170  string memory halalCertHash */\n      dup1\n        /* \"ElMino_HalalSupplyChain.sol\":9185:9202  uint256 createdAt */\n      0x00\n        /* \"ElMino_HalalSupplyChain.sol\":8930:8937  batchId */\n      dup9\n      dup9\n        /* \"ElMino_HalalSupplyChain.sol\":3254:3385  modifier batchExists(string memory batchId) {... */\n      dup1\n      dup1\n      0x1f\n      add\n      0x20\n      dup1\n      swap2\n      div\n      mul\n      0x20\n      add\n      mload(0x40)\n      swap1\n      dup2\n      add\n      0x40\n      mstore\n      dup1\n      swap4\n      swap3\n      swap2\n      swap1\n      dup2\n      dup2\n      mstore\n      0x20\n      add\n      dup4\n      dup4\n      dup1\n      dup3\n      dup5\n      calldatacopy\n      0x00\n      dup2\n      dup5\n      add\n      mstore\n      not(0x1f)\n      0x1f\n      dup3\n      add\n      and\n      swap1\n      pop\n      dup1\n      dup4\n      add\n      swap3\n      pop\n      pop\n      pop\n      pop\n      pop\n      pop\n      pop\n        /* \"ElMino_HalalSupplyChain.sol\":3317:3324  batches */\n      0x02\n        /* \"ElMino_HalalSupplyChain.sol\":3325:3332  batchId */\n      dup2\n        /* \"ElMino_HalalSupplyChain.sol\":3317:3333  batches[batchId] */\n      mload(0x40)\n      tag_239\n      swap2\n      swap1\n      tag_54\n      jump\t// in\n    tag_239:\n      swap1\n      dup2\n      mstore\n      0x20\n      add\n      mload(0x40)\n      dup1\n      swap2\n      sub\n      swap1\n      keccak256\n        /* \"ElMino_HalalSupplyChain.sol\":3317:3340  batches[batchId].exists */\n      0x07\n      add\n      0x00\n      swap1\n      sload\n      swap1\n      0x0100\n      exp\n      swap1\n      div\n      0xff\n      and\n        /* \"ElMino_HalalSupplyChain.sol\":3309:3365  require(batches[batchId].exists, \"Batch does not exist\") */\n      tag_240\n      jumpi\n      mload(0x40)\n      0x08c379a000000000000000000000000000000000000000000000000000000000\n      dup2\n      mstore\n      0x04\n      add\n      tag_241\n      swap1\n      tag_57\n      jump\t// in\n    tag_241:\n      mload(0x40)\n      dup1\n      swap2\n      sub\n      swap1\n      revert\n    tag_240:\n        /* \"ElMino_HalalSupplyChain.sol\":9230:9245  Batch storage b */\n      0x00\n        /* \"ElMino_HalalSupplyChain.sol\":9248:9255  batches */\n      0x02\n        /* \"ElMino_HalalSupplyChain.sol\":9256:9263  batchId */\n      dup12\n      dup12\n        /* \"ElMino_HalalSupplyChain.sol\":9248:9264  batches[batchId] */\n      mload(0x40)\n      tag_243\n      swap3\n      swap2\n      swap1\n      tag_63\n      jump\t// in\n    tag_243:\n      swap1\n      dup2\n      mstore\n      0x20\n      add\n      mload(0x40)\n      dup1\n      swap2\n      sub\n      swap1\n      keccak256\n        /* \"ElMino_HalalSupplyChain.sol\":9230:9264  Batch storage b = batches[batchId] */\n      swap1\n      pop\n        /* \"ElMino_HalalSupplyChain.sol\":9297:9298  b */\n      dup1\n        /* \"ElMino_HalalSupplyChain.sol\":9297:9310  b.productName */\n      0x00\n      add\n        /* \"ElMino_HalalSupplyChain.sol\":9325:9326  b */\n      dup2\n        /* \"ElMino_HalalSupplyChain.sol\":9325:9334  b.batchId */\n      0x01\n      add\n        /* \"ElMino_HalalSupplyChain.sol\":9349:9350  b */\n      dup3\n        /* \"ElMino_HalalSupplyChain.sol\":9349:9359  b.producer */\n      0x02\n      add\n      0x00\n      swap1\n      sload\n      swap1\n      0x0100\n      exp\n      swap1\n      div\n      0xffffffffffffffffffffffffffffffffffffffff\n      and\n        /* \"ElMino_HalalSupplyChain.sol\":9374:9375  b */\n      dup4\n        /* \"ElMino_HalalSupplyChain.sol\":9374:9388  b.currentOwner */\n      0x03\n      add\n      0x00\n      swap1\n      sload\n      swap1\n      0x0100\n      exp\n      swap1\n      div\n      0xffffffffffffffffffffffffffffffffffffffff\n      and\n        /* \"ElMino_HalalSupplyChain.sol\":9403:9404  b */\n      dup5\n        /* \"ElMino_HalalSupplyChain.sol\":9403:9411  b.status */\n      0x04\n      add\n        /* \"ElMino_HalalSupplyChain.sol\":9426:9427  b */\n      dup6\n        /* \"ElMino_HalalSupplyChain.sol\":9426:9441  b.halalCertHash */\n      0x05\n      add\n        /* \"ElMino_HalalSupplyChain.sol\":9456:9457  b */\n      dup7\n        /* \"ElMino_HalalSupplyChain.sol\":9456:9467  b.createdAt */\n      0x06\n      add\n      sload\n        /* \"ElMino_HalalSupplyChain.sol\":9275:9478  return (... */\n      dup7\n      dup1\n      sload\n      tag_244\n      swap1\n      tag_245\n      jump\t// in\n    tag_244:\n      dup1\n      0x1f\n      add\n      0x20\n      dup1\n      swap2\n      div\n      mul\n      0x20\n      add\n      mload(0x40)\n      swap1\n      dup2\n      add\n      0x40\n      mstore\n      dup1\n      swap3\n      swap2\n      swap1\n      dup2\n      dup2\n      mstore\n      0x20\n      add\n      dup3\n      dup1\n      sload\n      tag_246\n      swap1\n      tag_245\n      jump\t// in\n    tag_246:\n      dup1\n      iszero\n      tag_247\n      jumpi\n      dup1\n      0x1f\n      lt\n      tag_248\n      jumpi\n      0x0100\n      dup1\n      dup4\n      sload\n      div\n      mul\n      dup4\n      mstore\n      swap2\n      0x20\n      add\n      swap2\n      jump(tag_247)\n    tag_248:\n      dup3\n      add\n      swap2\n      swap1\n      0x00\n      mstore\n      keccak256(0x00, 0x20)\n      swap1\n    tag_249:\n      dup2\n      sload\n      dup2\n      mstore\n      swap1\n      0x01\n      add\n      swap1\n      0x20\n      add\n      dup1\n      dup4\n      gt\n      tag_249\n      jumpi\n      dup3\n      swap1\n      sub\n      0x1f\n      and\n      dup3\n      add\n      swap2\n    tag_247:\n      pop\n      pop\n      pop\n      pop\n      pop\n      swap7\n      pop\n      dup6\n      dup1\n      sload\n      tag_250\n      swap1\n      tag_245\n      jump\t// in\n    tag_250:\n      dup1\n      0x1f\n      add\n      0x20\n      dup1\n      swap2\n      div\n      mul\n      0x20\n      add\n      mload(0x40)\n      swap1\n      dup2\n      add\n      0x40\n      mstore\n      dup1\n      swap3\n      swap2\n      swap1\n      dup2\n      dup2\n      mstore\n      0x20\n      add\n      dup3\n      dup1\n      sload\n      tag_251\n      swap1\n      tag_245\n      jump\t// in\n    tag_251:\n      dup1\n      iszero\n      tag_252\n      jumpi\n      dup1\n      0x1f\n      lt\n      tag_253\n      jumpi\n      0x0100\n      dup1\n      dup4\n      sload\n      div\n      mul\n      dup4\n      mstore\n      swap2\n      0x20\n      add\n      swap2\n      jump(tag_252)\n    tag_253:\n      dup3\n      add\n      swap2\n      swap1\n      0x00\n      mstore\n      keccak256(0x00, 0x20)\n      swap1\n    tag_254:\n      dup2\n      sload\n      dup2\n      mstore\n      swap1\n      0x01\n      add\n      swap1\n      0x20\n      add\n      dup1\n      dup4\n      gt\n      tag_254\n      jumpi\n      dup3\n      swap1\n      sub\n      0x1f\n      and\n      dup3\n      add\n      swap2\n    tag_252:\n      pop\n      pop\n      pop\n      pop\n      pop\n      swap6\n      pop\n      dup3\n      dup1\n      sload\n      tag_255\n      swap1\n      tag_245\n      jump\t// in\n    tag_255:\n      dup1\n      0x1f\n      add\n      0x20\n      dup1\n      swap2\n      div\n      mul\n      0x20\n      add\n      mload(0x40)\n      swap1\n      dup2\n      add\n      0x40\n      mstore\n      dup1\n      swap3\n      swap2\n      swap1\n      dup2\n      dup2\n      mstore\n      0x20\n      add\n      dup3\n      dup1\n      sload\n      tag_256\n      swap1\n      tag_245\n      jump\t// in\n    tag_256:\n      dup1\n      iszero\n      tag_257\n      jumpi\n      dup1\n      0x1f\n      lt\n      tag_258\n      jumpi\n      0x0100\n      dup1\n      dup4\n      sload\n      div\n      mul\n      dup4\n      mstore\n      swap2\n      0x20\n      add\n      swap2\n      jump(tag_257)\n    tag_258:\n      dup3\n      add\n      swap2\n      swap1\n      0x00\n      mstore\n      keccak256(0x00, 0x20)\n      swap1\n    tag_259:\n      dup2\n      sload\n      dup2\n      mstore\n      swap1\n      0x01\n      add\n      swap1\n      0x20\n      add\n      dup1\n      dup4\n      gt\n      tag_259\n      jumpi\n      dup3\n      swap1\n      sub\n      0x1f\n      and\n      dup3\n      add\n      swap2\n    tag_257:\n      pop\n      pop\n      pop\n      pop\n      pop\n      swap3\n      pop\n      dup2\n      dup1\n      sload\n      tag_260\n      swap1\n      tag_245\n      jump\t// in\n    tag_260:\n      dup1\n      0x1f\n      add\n      0x20\n      dup1\n      swap2\n      div\n      mul\n      0x20\n      add\n      mload(0x40)\n      swap1\n      dup2\n      add\n      0x40\n      mstore\n      dup1\n      swap3\n      swap2\n      swap1\n      dup2\n      dup2\n      mstore\n      0x20\n      add\n      dup3\n      dup1\n      sload\n      tag_261\n      swap1\n      tag_245\n      jump\t// in\n    tag_261:\n      dup1\n      iszero\n      tag_262\n      jumpi\n      dup1\n      0x1f\n      lt\n      tag_263\n      jumpi\n      0x0100\n      dup1\n      dup4\n      sload\n      div\n      mul\n      dup4\n      mstore\n      swap2\n      0x20\n      add\n      swap2\n      jump(tag_262)\n    tag_263:\n      dup3\n      add\n      swap2\n      swap1\n      0x00\n      mstore\n      keccak256(0x00, 0x20)\n      swap1\n    tag_264:\n      dup2\n      sload\n      dup2\n      mstore\n      swap1\n      0x01\n      add\n      swap1\n      0x20\n      add\n      dup1\n      dup4\n      gt\n      tag_264\n      jumpi\n      dup3\n      swap1\n      sub\n      0x1f\n      and\n      dup3\n      add\n      swap2\n    tag_262:\n      pop\n      pop\n      pop\n      pop\n      pop\n      swap2\n      pop\n      swap9\n      pop\n      swap9\n      pop\n      swap9\n      pop\n      swap9\n      pop\n      swap9\n      pop\n      swap9\n      pop\n      swap9\n      pop\n      pop\n        /* \"ElMino_HalalSupplyChain.sol\":8834:9486  function getBatch(string calldata batchId)... */\n      pop\n      swap3\n      swap6\n      swap9\n      swap2\n      swap5\n      swap8\n      pop\n      swap3\n      swap6\n      pop\n      jump\t// out\n        /* \"#utility.yul\":88:205   */\n    tag_266:\n        /* \"#utility.yul\":197:198   */\n      0x00\n        /* \"#utility.yul\":194:195   */\n      0x00\n        /* \"#utility.yul\":187:199   */\n      revert\n        /* \"#utility.yul\":211:328   */\n    tag_267:\n        /* \"#utility.yul\":320:321   */\n      0x00\n        /* \"#utility.yul\":317:318   */\n      0x00\n        /* \"#utility.yul\":310:322   */\n      revert\n        /* \"#utility.yul\":334:451   */\n    tag_268:\n        /* \"#utility.yul\":443:444   */\n      0x00\n        /* \"#utility.yul\":440:441   */\n      0x00\n        /* \"#utility.yul\":433:445   */\n      revert\n        /* \"#utility.yul\":457:574   */\n    tag_269:\n        /* \"#utility.yul\":566:567   */\n      0x00\n        /* \"#utility.yul\":563:564   */\n      0x00\n        /* \"#utility.yul\":556:568   */\n      revert\n        /* \"#utility.yul\":580:697   */\n    tag_270:\n        /* \"#utility.yul\":689:690   */\n      0x00\n        /* \"#utility.yul\":686:687   */\n      0x00\n        /* \"#utility.yul\":679:691   */\n      revert\n        /* \"#utility.yul\":717:1270   */\n    tag_271:\n        /* \"#utility.yul\":775:783   */\n      0x00\n        /* \"#utility.yul\":785:791   */\n      0x00\n        /* \"#utility.yul\":835:838   */\n      dup4\n        /* \"#utility.yul\":828:832   */\n      0x1f\n        /* \"#utility.yul\":820:826   */\n      dup5\n        /* \"#utility.yul\":816:833   */\n      add\n        /* \"#utility.yul\":812:839   */\n      slt\n        /* \"#utility.yul\":802:924   */\n      tag_369\n      jumpi\n        /* \"#utility.yul\":843:922   */\n      tag_370\n      tag_268\n      jump\t// in\n    tag_370:\n        /* \"#utility.yul\":802:924   */\n    tag_369:\n        /* \"#utility.yul\":956:962   */\n      dup3\n        /* \"#utility.yul\":943:963   */\n      calldataload\n        /* \"#utility.yul\":933:963   */\n      swap1\n      pop\n        /* \"#utility.yul\":986:1004   */\n      0xffffffffffffffff\n        /* \"#utility.yul\":978:984   */\n      dup2\n        /* \"#utility.yul\":975:1005   */\n      gt\n        /* \"#utility.yul\":972:1089   */\n      iszero\n      tag_371\n      jumpi\n        /* \"#utility.yul\":1008:1087   */\n      tag_372\n      tag_269\n      jump\t// in\n    tag_372:\n        /* \"#utility.yul\":972:1089   */\n    tag_371:\n        /* \"#utility.yul\":1122:1126   */\n      0x20\n        /* \"#utility.yul\":1114:1120   */\n      dup4\n        /* \"#utility.yul\":1110:1127   */\n      add\n        /* \"#utility.yul\":1098:1127   */\n      swap2\n      pop\n        /* \"#utility.yul\":1176:1179   */\n      dup4\n        /* \"#utility.yul\":1168:1172   */\n      0x01\n        /* \"#utility.yul\":1160:1166   */\n      dup3\n        /* \"#utility.yul\":1156:1173   */\n      mul\n        /* \"#utility.yul\":1146:1154   */\n      dup4\n        /* \"#utility.yul\":1142:1174   */\n      add\n        /* \"#utility.yul\":1139:1180   */\n      gt\n        /* \"#utility.yul\":1136:1264   */\n      iszero\n      tag_373\n      jumpi\n        /* \"#utility.yul\":1183:1262   */\n      tag_374\n      tag_270\n      jump\t// in\n    tag_374:\n        /* \"#utility.yul\":1136:1264   */\n    tag_373:\n        /* \"#utility.yul\":717:1270   */\n      swap3\n      pop\n      swap3\n      swap1\n      pop\n      jump\t// out\n        /* \"#utility.yul\":1276:2150   */\n    tag_15:\n        /* \"#utility.yul\":1368:1374   */\n      0x00\n        /* \"#utility.yul\":1376:1382   */\n      0x00\n        /* \"#utility.yul\":1384:1390   */\n      0x00\n        /* \"#utility.yul\":1392:1398   */\n      0x00\n        /* \"#utility.yul\":1441:1443   */\n      0x40\n        /* \"#utility.yul\":1429:1438   */\n      dup6\n        /* \"#utility.yul\":1420:1427   */\n      dup8\n        /* \"#utility.yul\":1416:1439   */\n      sub\n        /* \"#utility.yul\":1412:1444   */\n      slt\n        /* \"#utility.yul\":1409:1528   */\n      iszero\n      tag_376\n      jumpi\n        /* \"#utility.yul\":1447:1526   */\n      tag_377\n      tag_266\n      jump\t// in\n    tag_377:\n        /* \"#utility.yul\":1409:1528   */\n    tag_376:\n        /* \"#utility.yul\":1595:1596   */\n      0x00\n        /* \"#utility.yul\":1584:1593   */\n      dup6\n        /* \"#utility.yul\":1580:1597   */\n      add\n        /* \"#utility.yul\":1567:1598   */\n      calldataload\n        /* \"#utility.yul\":1625:1643   */\n      0xffffffffffffffff\n        /* \"#utility.yul\":1617:1623   */\n      dup2\n        /* \"#utility.yul\":1614:1644   */\n      gt\n        /* \"#utility.yul\":1611:1728   */\n      iszero\n      tag_378\n      jumpi\n        /* \"#utility.yul\":1647:1726   */\n      tag_379\n      tag_267\n      jump\t// in\n    tag_379:\n        /* \"#utility.yul\":1611:1728   */\n    tag_378:\n        /* \"#utility.yul\":1760:1825   */\n      tag_380\n        /* \"#utility.yul\":1817:1824   */\n      dup8\n        /* \"#utility.yul\":1808:1814   */\n      dup3\n        /* \"#utility.yul\":1797:1806   */\n      dup9\n        /* \"#utility.yul\":1793:1815   */\n      add\n        /* \"#utility.yul\":1760:1825   */\n      tag_271\n      jump\t// in\n    tag_380:\n        /* \"#utility.yul\":1742:1825   */\n      swap5\n      pop\n      swap5\n      pop\n        /* \"#utility.yul\":1538:1835   */\n      pop\n        /* \"#utility.yul\":1902:1904   */\n      0x20\n        /* \"#utility.yul\":1891:1900   */\n      dup6\n        /* \"#utility.yul\":1887:1905   */\n      add\n        /* \"#utility.yul\":1874:1906   */\n      calldataload\n        /* \"#utility.yul\":1933:1951   */\n      0xffffffffffffffff\n        /* \"#utility.yul\":1925:1931   */\n      dup2\n        /* \"#utility.yul\":1922:1952   */\n      gt\n        /* \"#utility.yul\":1919:2036   */\n      iszero\n      tag_381\n      jumpi\n        /* \"#utility.yul\":1955:2034   */\n      tag_382\n      tag_267\n      jump\t// in\n    tag_382:\n        /* \"#utility.yul\":1919:2036   */\n    tag_381:\n        /* \"#utility.yul\":2068:2133   */\n      tag_383\n        /* \"#utility.yul\":2125:2132   */\n      dup8\n        /* \"#utility.yul\":2116:2122   */\n      dup3\n        /* \"#utility.yul\":2105:2114   */\n      dup9\n        /* \"#utility.yul\":2101:2123   */\n      add\n        /* \"#utility.yul\":2068:2133   */\n      tag_271\n      jump\t// in\n    tag_383:\n        /* \"#utility.yul\":2050:2133   */\n      swap3\n      pop\n      swap3\n      pop\n        /* \"#utility.yul\":1845:2143   */\n      pop\n        /* \"#utility.yul\":1276:2150   */\n      swap3\n      swap6\n      swap2\n      swap5\n      pop\n      swap3\n      pop\n      jump\t// out\n        /* \"#utility.yul\":2156:2685   */\n    tag_19:\n        /* \"#utility.yul\":2227:2233   */\n      0x00\n        /* \"#utility.yul\":2235:2241   */\n      0x00\n        /* \"#utility.yul\":2284:2286   */\n      0x20\n        /* \"#utility.yul\":2272:2281   */\n      dup4\n        /* \"#utility.yul\":2263:2270   */\n      dup6\n        /* \"#utility.yul\":2259:2282   */\n      sub\n        /* \"#utility.yul\":2255:2287   */\n      slt\n        /* \"#utility.yul\":2252:2371   */\n      iszero\n      tag_385\n      jumpi\n        /* \"#utility.yul\":2290:2369   */\n      tag_386\n      tag_266\n      jump\t// in\n    tag_386:\n        /* \"#utility.yul\":2252:2371   */\n    tag_385:\n        /* \"#utility.yul\":2438:2439   */\n      0x00\n        /* \"#utility.yul\":2427:2436   */\n      dup4\n        /* \"#utility.yul\":2423:2440   */\n      add\n        /* \"#utility.yul\":2410:2441   */\n      calldataload\n        /* \"#utility.yul\":2468:2486   */\n      0xffffffffffffffff\n        /* \"#utility.yul\":2460:2466   */\n      dup2\n        /* \"#utility.yul\":2457:2487   */\n      gt\n        /* \"#utility.yul\":2454:2571   */\n      iszero\n      tag_387\n      jumpi\n        /* \"#utility.yul\":2490:2569   */\n      tag_388\n      tag_267\n      jump\t// in\n    tag_388:\n        /* \"#utility.yul\":2454:2571   */\n    tag_387:\n        /* \"#utility.yul\":2603:2668   */\n      tag_389\n        /* \"#utility.yul\":2660:2667   */\n      dup6\n        /* \"#utility.yul\":2651:2657   */\n      dup3\n        /* \"#utility.yul\":2640:2649   */\n      dup7\n        /* \"#utility.yul\":2636:2658   */\n      add\n        /* \"#utility.yul\":2603:2668   */\n      tag_271\n      jump\t// in\n    tag_389:\n        /* \"#utility.yul\":2585:2668   */\n      swap3\n      pop\n      swap3\n      pop\n        /* \"#utility.yul\":2381:2678   */\n      pop\n        /* \"#utility.yul\":2156:2685   */\n      swap3\n      pop\n      swap3\n      swap1\n      pop\n      jump\t// out\n        /* \"#utility.yul\":2691:2781   */\n    tag_272:\n        /* \"#utility.yul\":2725:2732   */\n      0x00\n        /* \"#utility.yul\":2768:2773   */\n      dup2\n        /* \"#utility.yul\":2761:2774   */\n      iszero\n        /* \"#utility.yul\":2754:2775   */\n      iszero\n        /* \"#utility.yul\":2743:2775   */\n      swap1\n      pop\n        /* \"#utility.yul\":2691:2781   */\n      swap2\n      swap1\n      pop\n      jump\t// out\n        /* \"#utility.yul\":2787:2896   */\n    tag_273:\n        /* \"#utility.yul\":2868:2889   */\n      tag_392\n        /* \"#utility.yul\":2883:2888   */\n      dup2\n        /* \"#utility.yul\":2868:2889   */\n      tag_272\n      jump\t// in\n    tag_392:\n        /* \"#utility.yul\":2863:2866   */\n      dup3\n        /* \"#utility.yul\":2856:2890   */\n      mstore\n        /* \"#utility.yul\":2787:2896   */\n      pop\n      pop\n      jump\t// out\n        /* \"#utility.yul\":2902:3112   */\n    tag_22:\n        /* \"#utility.yul\":2989:2993   */\n      0x00\n        /* \"#utility.yul\":3027:3029   */\n      0x20\n        /* \"#utility.yul\":3016:3025   */\n      dup3\n        /* \"#utility.yul\":3012:3030   */\n      add\n        /* \"#utility.yul\":3004:3030   */\n      swap1\n      pop\n        /* \"#utility.yul\":3040:3105   */\n      tag_394\n        /* \"#utility.yul\":3102:3103   */\n      0x00\n        /* \"#utility.yul\":3091:3100   */\n      dup4\n        /* \"#utility.yul\":3087:3104   */\n      add\n        /* \"#utility.yul\":3078:3084   */\n      dup5\n        /* \"#utility.yul\":3040:3105   */\n      tag_273\n      jump\t// in\n    tag_394:\n        /* \"#utility.yul\":2902:3112   */\n      swap3\n      swap2\n      pop\n      pop\n      jump\t// out\n        /* \"#utility.yul\":3118:3244   */\n    tag_274:\n        /* \"#utility.yul\":3155:3162   */\n      0x00\n        /* \"#utility.yul\":3195:3237   */\n      0xffffffffffffffffffffffffffffffffffffffff\n        /* \"#utility.yul\":3188:3193   */\n      dup3\n        /* \"#utility.yul\":3184:3238   */\n      and\n        /* \"#utility.yul\":3173:3238   */\n      swap1\n      pop\n        /* \"#utility.yul\":3118:3244   */\n      swap2\n      swap1\n      pop\n      jump\t// out\n        /* \"#utility.yul\":3250:3346   */\n    tag_275:\n        /* \"#utility.yul\":3287:3294   */\n      0x00\n        /* \"#utility.yul\":3316:3340   */\n      tag_397\n        /* \"#utility.yul\":3334:3339   */\n      dup3\n        /* \"#utility.yul\":3316:3340   */\n      tag_274\n      jump\t// in\n    tag_397:\n        /* \"#utility.yul\":3305:3340   */\n      swap1\n      pop\n        /* \"#utility.yul\":3250:3346   */\n      swap2\n      swap1\n      pop\n      jump\t// out\n        /* \"#utility.yul\":3352:3474   */\n    tag_276:\n        /* \"#utility.yul\":3425:3449   */\n      tag_399\n        /* \"#utility.yul\":3443:3448   */\n      dup2\n        /* \"#utility.yul\":3425:3449   */\n      tag_275\n      jump\t// in\n    tag_399:\n        /* \"#utility.yul\":3418:3423   */\n      dup2\n        /* \"#utility.yul\":3415:3450   */\n      eq\n        /* \"#utility.yul\":3405:3468   */\n      tag_400\n      jumpi\n        /* \"#utility.yul\":3464:3465   */\n      0x00\n        /* \"#utility.yul\":3461:3462   */\n      0x00\n        /* \"#utility.yul\":3454:3466   */\n      revert\n        /* \"#utility.yul\":3405:3468   */\n    tag_400:\n        /* \"#utility.yul\":3352:3474   */\n      pop\n      jump\t// out\n        /* \"#utility.yul\":3480:3619   */\n    tag_277:\n        /* \"#utility.yul\":3526:3531   */\n      0x00\n        /* \"#utility.yul\":3564:3570   */\n      dup2\n        /* \"#utility.yul\":3551:3571   */\n      calldataload\n        /* \"#utility.yul\":3542:3571   */\n      swap1\n      pop\n        /* \"#utility.yul\":3580:3613   */\n      tag_402\n        /* \"#utility.yul\":3607:3612   */\n      dup2\n        /* \"#utility.yul\":3580:3613   */\n      tag_276\n      jump\t// in\n    tag_402:\n        /* \"#utility.yul\":3480:3619   */\n      swap3\n      swap2\n      pop\n      pop\n      jump\t// out\n        /* \"#utility.yul\":3625:3731   */\n    tag_278:\n        /* \"#utility.yul\":3705:3706   */\n      0x06\n        /* \"#utility.yul\":3698:3703   */\n      dup2\n        /* \"#utility.yul\":3695:3707   */\n      lt\n        /* \"#utility.yul\":3685:3725   */\n      tag_404\n      jumpi\n        /* \"#utility.yul\":3721:3722   */\n      0x00\n        /* \"#utility.yul\":3718:3719   */\n      0x00\n        /* \"#utility.yul\":3711:3723   */\n      revert\n        /* \"#utility.yul\":3685:3725   */\n    tag_404:\n        /* \"#utility.yul\":3625:3731   */\n      pop\n      jump\t// out\n        /* \"#utility.yul\":3737:3890   */\n    tag_279:\n        /* \"#utility.yul\":3790:3795   */\n      0x00\n        /* \"#utility.yul\":3828:3834   */\n      dup2\n        /* \"#utility.yul\":3815:3835   */\n      calldataload\n        /* \"#utility.yul\":3806:3835   */\n      swap1\n      pop\n        /* \"#utility.yul\":3844:3884   */\n      tag_406\n        /* \"#utility.yul\":3878:3883   */\n      dup2\n        /* \"#utility.yul\":3844:3884   */\n      tag_278\n      jump\t// in\n    tag_406:\n        /* \"#utility.yul\":3737:3890   */\n      swap3\n      swap2\n      pop\n      pop\n      jump\t// out\n        /* \"#utility.yul\":3896:4384   */\n    tag_25:\n        /* \"#utility.yul\":3971:3977   */\n      0x00\n        /* \"#utility.yul\":3979:3985   */\n      0x00\n        /* \"#utility.yul\":4028:4030   */\n      0x40\n        /* \"#utility.yul\":4016:4025   */\n      dup4\n        /* \"#utility.yul\":4007:4014   */\n      dup6\n        /* \"#utility.yul\":4003:4026   */\n      sub\n        /* \"#utility.yul\":3999:4031   */\n      slt\n        /* \"#utility.yul\":3996:4115   */\n      iszero\n      tag_408\n      jumpi\n        /* \"#utility.yul\":4034:4113   */\n      tag_409\n      tag_266\n      jump\t// in\n    tag_409:\n        /* \"#utility.yul\":3996:4115   */\n    tag_408:\n        /* \"#utility.yul\":4154:4155   */\n      0x00\n        /* \"#utility.yul\":4179:4232   */\n      tag_410\n        /* \"#utility.yul\":4224:4231   */\n      dup6\n        /* \"#utility.yul\":4215:4221   */\n      dup3\n        /* \"#utility.yul\":4204:4213   */\n      dup7\n        /* \"#utility.yul\":4200:4222   */\n      add\n        /* \"#utility.yul\":4179:4232   */\n      tag_277\n      jump\t// in\n    tag_410:\n        /* \"#utility.yul\":4169:4232   */\n      swap3\n      pop\n        /* \"#utility.yul\":4125:4242   */\n      pop\n        /* \"#utility.yul\":4281:4283   */\n      0x20\n        /* \"#utility.yul\":4307:4367   */\n      tag_411\n        /* \"#utility.yul\":4359:4366   */\n      dup6\n        /* \"#utility.yul\":4350:4356   */\n      dup3\n        /* \"#utility.yul\":4339:4348   */\n      dup7\n        /* \"#utility.yul\":4335:4357   */\n      add\n        /* \"#utility.yul\":4307:4367   */\n      tag_279\n      jump\t// in\n    tag_411:\n        /* \"#utility.yul\":4297:4367   */\n      swap2\n      pop\n        /* \"#utility.yul\":4252:4377   */\n      pop\n        /* \"#utility.yul\":3896:4384   */\n      swap3\n      pop\n      swap3\n      swap1\n      pop\n      jump\t// out\n        /* \"#utility.yul\":4390:4719   */\n    tag_32:\n        /* \"#utility.yul\":4449:4455   */\n      0x00\n        /* \"#utility.yul\":4498:4500   */\n      0x20\n        /* \"#utility.yul\":4486:4495   */\n      dup3\n        /* \"#utility.yul\":4477:4484   */\n      dup5\n        /* \"#utility.yul\":4473:4496   */\n      sub\n        /* \"#utility.yul\":4469:4501   */\n      slt\n        /* \"#utility.yul\":4466:4585   */\n      iszero\n      tag_413\n      jumpi\n        /* \"#utility.yul\":4504:4583   */\n      tag_414\n      tag_266\n      jump\t// in\n    tag_414:\n        /* \"#utility.yul\":4466:4585   */\n    tag_413:\n        /* \"#utility.yul\":4624:4625   */\n      0x00\n        /* \"#utility.yul\":4649:4702   */\n      tag_415\n        /* \"#utility.yul\":4694:4701   */\n      dup5\n        /* \"#utility.yul\":4685:4691   */\n      dup3\n        /* \"#utility.yul\":4674:4683   */\n      dup6\n        /* \"#utility.yul\":4670:4692   */\n      add\n        /* \"#utility.yul\":4649:4702   */\n      tag_277\n      jump\t// in\n    tag_415:\n        /* \"#utility.yul\":4639:4702   */\n      swap2\n      pop\n        /* \"#utility.yul\":4595:4712   */\n      pop\n        /* \"#utility.yul\":4390:4719   */\n      swap3\n      swap2\n      pop\n      pop\n      jump\t// out\n        /* \"#utility.yul\":4725:4905   */\n    tag_66:\n        /* \"#utility.yul\":4773:4850   */\n      0x4e487b7100000000000000000000000000000000000000000000000000000000\n        /* \"#utility.yul\":4770:4771   */\n      0x00\n        /* \"#utility.yul\":4763:4851   */\n      mstore\n        /* \"#utility.yul\":4870:4874   */\n      0x21\n        /* \"#utility.yul\":4867:4868   */\n      0x04\n        /* \"#utility.yul\":4860:4875   */\n      mstore\n        /* \"#utility.yul\":4894:4898   */\n      0x24\n        /* \"#utility.yul\":4891:4892   */\n      0x00\n        /* \"#utility.yul\":4884:4899   */\n      revert\n        /* \"#utility.yul\":4911:5023   */\n    tag_280:\n        /* \"#utility.yul\":4991:4992   */\n      0x06\n        /* \"#utility.yul\":4984:4989   */\n      dup2\n        /* \"#utility.yul\":4981:4993   */\n      lt\n        /* \"#utility.yul\":4971:5017   */\n      tag_418\n      jumpi\n        /* \"#utility.yul\":4997:5015   */\n      tag_419\n      tag_66\n      jump\t// in\n    tag_419:\n        /* \"#utility.yul\":4971:5017   */\n    tag_418:\n        /* \"#utility.yul\":4911:5023   */\n      pop\n      jump\t// out\n        /* \"#utility.yul\":5029:5154   */\n    tag_281:\n        /* \"#utility.yul\":5073:5080   */\n      0x00\n        /* \"#utility.yul\":5102:5107   */\n      dup2\n        /* \"#utility.yul\":5091:5107   */\n      swap1\n      pop\n        /* \"#utility.yul\":5108:5148   */\n      tag_421\n        /* \"#utility.yul\":5142:5147   */\n      dup3\n        /* \"#utility.yul\":5108:5148   */\n      tag_280\n      jump\t// in\n    tag_421:\n        /* \"#utility.yul\":5029:5154   */\n      swap2\n      swap1\n      pop\n      jump\t// out\n        /* \"#utility.yul\":5160:5285   */\n    tag_282:\n        /* \"#utility.yul\":5215:5224   */\n      0x00\n        /* \"#utility.yul\":5248:5279   */\n      tag_423\n        /* \"#utility.yul\":5273:5278   */\n      dup3\n        /* \"#utility.yul\":5248:5279   */\n      tag_281\n      jump\t// in\n    tag_423:\n        /* \"#utility.yul\":5235:5279   */\n      swap1\n      pop\n        /* \"#utility.yul\":5160:5285   */\n      swap2\n      swap1\n      pop\n      jump\t// out\n        /* \"#utility.yul\":5291:5432   */\n    tag_283:\n        /* \"#utility.yul\":5383:5425   */\n      tag_425\n        /* \"#utility.yul\":5419:5424   */\n      dup2\n        /* \"#utility.yul\":5383:5425   */\n      tag_282\n      jump\t// in\n    tag_425:\n        /* \"#utility.yul\":5378:5381   */\n      dup3\n        /* \"#utility.yul\":5371:5426   */\n      mstore\n        /* \"#utility.yul\":5291:5432   */\n      pop\n      pop\n      jump\t// out\n        /* \"#utility.yul\":5438:5670   */\n    tag_35:\n        /* \"#utility.yul\":5536:5540   */\n      0x00\n        /* \"#utility.yul\":5574:5576   */\n      0x20\n        /* \"#utility.yul\":5563:5572   */\n      dup3\n        /* \"#utility.yul\":5559:5577   */\n      add\n        /* \"#utility.yul\":5551:5577   */\n      swap1\n      pop\n        /* \"#utility.yul\":5587:5663   */\n      tag_427\n        /* \"#utility.yul\":5660:5661   */\n      0x00\n        /* \"#utility.yul\":5649:5658   */\n      dup4\n        /* \"#utility.yul\":5645:5662   */\n      add\n        /* \"#utility.yul\":5636:5642   */\n      dup5\n        /* \"#utility.yul\":5587:5663   */\n      tag_283\n      jump\t// in\n    tag_427:\n        /* \"#utility.yul\":5438:5670   */\n      swap3\n      swap2\n      pop\n      pop\n      jump\t// out\n        /* \"#utility.yul\":5676:6350   */\n    tag_38:\n        /* \"#utility.yul\":5756:5762   */\n      0x00\n        /* \"#utility.yul\":5764:5770   */\n      0x00\n        /* \"#utility.yul\":5772:5778   */\n      0x00\n        /* \"#utility.yul\":5821:5823   */\n      0x40\n        /* \"#utility.yul\":5809:5818   */\n      dup5\n        /* \"#utility.yul\":5800:5807   */\n      dup7\n        /* \"#utility.yul\":5796:5819   */\n      sub\n        /* \"#utility.yul\":5792:5824   */\n      slt\n        /* \"#utility.yul\":5789:5908   */\n      iszero\n      tag_429\n      jumpi\n        /* \"#utility.yul\":5827:5906   */\n      tag_430\n      tag_266\n      jump\t// in\n    tag_430:\n        /* \"#utility.yul\":5789:5908   */\n    tag_429:\n        /* \"#utility.yul\":5975:5976   */\n      0x00\n        /* \"#utility.yul\":5964:5973   */\n      dup5\n        /* \"#utility.yul\":5960:5977   */\n      add\n        /* \"#utility.yul\":5947:5978   */\n      calldataload\n        /* \"#utility.yul\":6005:6023   */\n      0xffffffffffffffff\n        /* \"#utility.yul\":5997:6003   */\n      dup2\n        /* \"#utility.yul\":5994:6024   */\n      gt\n        /* \"#utility.yul\":5991:6108   */\n      iszero\n      tag_431\n      jumpi\n        /* \"#utility.yul\":6027:6106   */\n      tag_432\n      tag_267\n      jump\t// in\n    tag_432:\n        /* \"#utility.yul\":5991:6108   */\n    tag_431:\n        /* \"#utility.yul\":6140:6205   */\n      tag_433\n        /* \"#utility.yul\":6197:6204   */\n      dup7\n        /* \"#utility.yul\":6188:6194   */\n      dup3\n        /* \"#utility.yul\":6177:6186   */\n      dup8\n        /* \"#utility.yul\":6173:6195   */\n      add\n        /* \"#utility.yul\":6140:6205   */\n      tag_271\n      jump\t// in\n    tag_433:\n        /* \"#utility.yul\":6122:6205   */\n      swap4\n      pop\n      swap4\n      pop\n        /* \"#utility.yul\":5918:6215   */\n      pop\n        /* \"#utility.yul\":6254:6256   */\n      0x20\n        /* \"#utility.yul\":6280:6333   */\n      tag_434\n        /* \"#utility.yul\":6325:6332   */\n      dup7\n        /* \"#utility.yul\":6316:6322   */\n      dup3\n        /* \"#utility.yul\":6305:6314   */\n      dup8\n        /* \"#utility.yul\":6301:6323   */\n      add\n        /* \"#utility.yul\":6280:6333   */\n      tag_277\n      jump\t// in\n    tag_434:\n        /* \"#utility.yul\":6270:6333   */\n      swap2\n      pop\n        /* \"#utility.yul\":6225:6343   */\n      pop\n        /* \"#utility.yul\":5676:6350   */\n      swap3\n      pop\n      swap3\n      pop\n      swap3\n      jump\t// out\n        /* \"#utility.yul\":6356:6474   */\n    tag_284:\n        /* \"#utility.yul\":6443:6467   */\n      tag_436\n        /* \"#utility.yul\":6461:6466   */\n      dup2\n        /* \"#utility.yul\":6443:6467   */\n      tag_275\n      jump\t// in\n    tag_436:\n        /* \"#utility.yul\":6438:6441   */\n      dup3\n        /* \"#utility.yul\":6431:6468   */\n      mstore\n        /* \"#utility.yul\":6356:6474   */\n      pop\n      pop\n      jump\t// out\n        /* \"#utility.yul\":6480:6702   */\n    tag_46:\n        /* \"#utility.yul\":6573:6577   */\n      0x00\n        /* \"#utility.yul\":6611:6613   */\n      0x20\n        /* \"#utility.yul\":6600:6609   */\n      dup3\n        /* \"#utility.yul\":6596:6614   */\n      add\n        /* \"#utility.yul\":6588:6614   */\n      swap1\n      pop\n        /* \"#utility.yul\":6624:6695   */\n      tag_438\n        /* \"#utility.yul\":6692:6693   */\n      0x00\n        /* \"#utility.yul\":6681:6690   */\n      dup4\n        /* \"#utility.yul\":6677:6694   */\n      add\n        /* \"#utility.yul\":6668:6674   */\n      dup5\n        /* \"#utility.yul\":6624:6695   */\n      tag_284\n      jump\t// in\n    tag_438:\n        /* \"#utility.yul\":6480:6702   */\n      swap3\n      swap2\n      pop\n      pop\n      jump\t// out\n        /* \"#utility.yul\":6708:6807   */\n    tag_285:\n        /* \"#utility.yul\":6760:6766   */\n      0x00\n        /* \"#utility.yul\":6794:6799   */\n      dup2\n        /* \"#utility.yul\":6788:6800   */\n      mload\n        /* \"#utility.yul\":6778:6800   */\n      swap1\n      pop\n        /* \"#utility.yul\":6708:6807   */\n      swap2\n      swap1\n      pop\n      jump\t// out\n        /* \"#utility.yul\":6813:6982   */\n    tag_286:\n        /* \"#utility.yul\":6897:6908   */\n      0x00\n        /* \"#utility.yul\":6931:6937   */\n      dup3\n        /* \"#utility.yul\":6926:6929   */\n      dup3\n        /* \"#utility.yul\":6919:6938   */\n      mstore\n        /* \"#utility.yul\":6971:6975   */\n      0x20\n        /* \"#utility.yul\":6966:6969   */\n      dup3\n        /* \"#utility.yul\":6962:6976   */\n      add\n        /* \"#utility.yul\":6947:6976   */\n      swap1\n      pop\n        /* \"#utility.yul\":6813:6982   */\n      swap3\n      swap2\n      pop\n      pop\n      jump\t// out\n        /* \"#utility.yul\":6988:7127   */\n    tag_287:\n        /* \"#utility.yul\":7077:7083   */\n      dup3\n        /* \"#utility.yul\":7072:7075   */\n      dup2\n        /* \"#utility.yul\":7067:7070   */\n      dup4\n        /* \"#utility.yul\":7061:7084   */\n      mcopy\n        /* \"#utility.yul\":7118:7119   */\n      0x00\n        /* \"#utility.yul\":7109:7115   */\n      dup4\n        /* \"#utility.yul\":7104:7107   */\n      dup4\n        /* \"#utility.yul\":7100:7116   */\n      add\n        /* \"#utility.yul\":7093:7120   */\n      mstore\n        /* \"#utility.yul\":6988:7127   */\n      pop\n      pop\n      pop\n      jump\t// out\n        /* \"#utility.yul\":7133:7235   */\n    tag_288:\n        /* \"#utility.yul\":7174:7180   */\n      0x00\n        /* \"#utility.yul\":7225:7227   */\n      0x1f\n        /* \"#utility.yul\":7221:7228   */\n      not\n        /* \"#utility.yul\":7216:7218   */\n      0x1f\n        /* \"#utility.yul\":7209:7214   */\n      dup4\n        /* \"#utility.yul\":7205:7219   */\n      add\n        /* \"#utility.yul\":7201:7229   */\n      and\n        /* \"#utility.yul\":7191:7229   */\n      swap1\n      pop\n        /* \"#utility.yul\":7133:7235   */\n      swap2\n      swap1\n      pop\n      jump\t// out\n        /* \"#utility.yul\":7241:7618   */\n    tag_289:\n        /* \"#utility.yul\":7329:7332   */\n      0x00\n        /* \"#utility.yul\":7357:7396   */\n      tag_444\n        /* \"#utility.yul\":7390:7395   */\n      dup3\n        /* \"#utility.yul\":7357:7396   */\n      tag_285\n      jump\t// in\n    tag_444:\n        /* \"#utility.yul\":7412:7483   */\n      tag_445\n        /* \"#utility.yul\":7476:7482   */\n      dup2\n        /* \"#utility.yul\":7471:7474   */\n      dup6\n        /* \"#utility.yul\":7412:7483   */\n      tag_286\n      jump\t// in\n    tag_445:\n        /* \"#utility.yul\":7405:7483   */\n      swap4\n      pop\n        /* \"#utility.yul\":7492:7557   */\n      tag_446\n        /* \"#utility.yul\":7550:7556   */\n      dup2\n        /* \"#utility.yul\":7545:7548   */\n      dup6\n        /* \"#utility.yul\":7538:7542   */\n      0x20\n        /* \"#utility.yul\":7531:7536   */\n      dup7\n        /* \"#utility.yul\":7527:7543   */\n      add\n        /* \"#utility.yul\":7492:7557   */\n      tag_287\n      jump\t// in\n    tag_446:\n        /* \"#utility.yul\":7582:7611   */\n      tag_447\n        /* \"#utility.yul\":7604:7610   */\n      dup2\n        /* \"#utility.yul\":7582:7611   */\n      tag_288\n      jump\t// in\n    tag_447:\n        /* \"#utility.yul\":7577:7580   */\n      dup5\n        /* \"#utility.yul\":7573:7612   */\n      add\n        /* \"#utility.yul\":7566:7612   */\n      swap2\n      pop\n        /* \"#utility.yul\":7333:7618   */\n      pop\n        /* \"#utility.yul\":7241:7618   */\n      swap3\n      swap2\n      pop\n      pop\n      jump\t// out\n        /* \"#utility.yul\":7624:7701   */\n    tag_290:\n        /* \"#utility.yul\":7661:7668   */\n      0x00\n        /* \"#utility.yul\":7690:7695   */\n      dup2\n        /* \"#utility.yul\":7679:7695   */\n      swap1\n      pop\n        /* \"#utility.yul\":7624:7701   */\n      swap2\n      swap1\n      pop\n      jump\t// out\n        /* \"#utility.yul\":7707:7825   */\n    tag_291:\n        /* \"#utility.yul\":7794:7818   */\n      tag_450\n        /* \"#utility.yul\":7812:7817   */\n      dup2\n        /* \"#utility.yul\":7794:7818   */\n      tag_290\n      jump\t// in\n    tag_450:\n        /* \"#utility.yul\":7789:7792   */\n      dup3\n        /* \"#utility.yul\":7782:7819   */\n      mstore\n        /* \"#utility.yul\":7707:7825   */\n      pop\n      pop\n      jump\t// out\n        /* \"#utility.yul\":7831:9081   */\n    tag_51:\n        /* \"#utility.yul\":8172:8176   */\n      0x00\n        /* \"#utility.yul\":8210:8213   */\n      0xe0\n        /* \"#utility.yul\":8199:8208   */\n      dup3\n        /* \"#utility.yul\":8195:8214   */\n      add\n        /* \"#utility.yul\":8187:8214   */\n      swap1\n      pop\n        /* \"#utility.yul\":8260:8269   */\n      dup2\n        /* \"#utility.yul\":8254:8258   */\n      dup2\n        /* \"#utility.yul\":8250:8270   */\n      sub\n        /* \"#utility.yul\":8246:8247   */\n      0x00\n        /* \"#utility.yul\":8235:8244   */\n      dup4\n        /* \"#utility.yul\":8231:8248   */\n      add\n        /* \"#utility.yul\":8224:8271   */\n      mstore\n        /* \"#utility.yul\":8288:8366   */\n      tag_452\n        /* \"#utility.yul\":8361:8365   */\n      dup2\n        /* \"#utility.yul\":8352:8358   */\n      dup11\n        /* \"#utility.yul\":8288:8366   */\n      tag_289\n      jump\t// in\n    tag_452:\n        /* \"#utility.yul\":8280:8366   */\n      swap1\n      pop\n        /* \"#utility.yul\":8413:8422   */\n      dup2\n        /* \"#utility.yul\":8407:8411   */\n      dup2\n        /* \"#utility.yul\":8403:8423   */\n      sub\n        /* \"#utility.yul\":8398:8400   */\n      0x20\n        /* \"#utility.yul\":8387:8396   */\n      dup4\n        /* \"#utility.yul\":8383:8401   */\n      add\n        /* \"#utility.yul\":8376:8424   */\n      mstore\n        /* \"#utility.yul\":8441:8519   */\n      tag_453\n        /* \"#utility.yul\":8514:8518   */\n      dup2\n        /* \"#utility.yul\":8505:8511   */\n      dup10\n        /* \"#utility.yul\":8441:8519   */\n      tag_289\n      jump\t// in\n    tag_453:\n        /* \"#utility.yul\":8433:8519   */\n      swap1\n      pop\n        /* \"#utility.yul\":8529:8601   */\n      tag_454\n        /* \"#utility.yul\":8597:8599   */\n      0x40\n        /* \"#utility.yul\":8586:8595   */\n      dup4\n        /* \"#utility.yul\":8582:8600   */\n      add\n        /* \"#utility.yul\":8573:8579   */\n      dup9\n        /* \"#utility.yul\":8529:8601   */\n      tag_284\n      jump\t// in\n    tag_454:\n        /* \"#utility.yul\":8611:8683   */\n      tag_455\n        /* \"#utility.yul\":8679:8681   */\n      0x60\n        /* \"#utility.yul\":8668:8677   */\n      dup4\n        /* \"#utility.yul\":8664:8682   */\n      add\n        /* \"#utility.yul\":8655:8661   */\n      dup8\n        /* \"#utility.yul\":8611:8683   */\n      tag_284\n      jump\t// in\n    tag_455:\n        /* \"#utility.yul\":8731:8740   */\n      dup2\n        /* \"#utility.yul\":8725:8729   */\n      dup2\n        /* \"#utility.yul\":8721:8741   */\n      sub\n        /* \"#utility.yul\":8715:8718   */\n      0x80\n        /* \"#utility.yul\":8704:8713   */\n      dup4\n        /* \"#utility.yul\":8700:8719   */\n      add\n        /* \"#utility.yul\":8693:8742   */\n      mstore\n        /* \"#utility.yul\":8759:8837   */\n      tag_456\n        /* \"#utility.yul\":8832:8836   */\n      dup2\n        /* \"#utility.yul\":8823:8829   */\n      dup7\n        /* \"#utility.yul\":8759:8837   */\n      tag_289\n      jump\t// in\n    tag_456:\n        /* \"#utility.yul\":8751:8837   */\n      swap1\n      pop\n        /* \"#utility.yul\":8885:8894   */\n      dup2\n        /* \"#utility.yul\":8879:8883   */\n      dup2\n        /* \"#utility.yul\":8875:8895   */\n      sub\n        /* \"#utility.yul\":8869:8872   */\n      0xa0\n        /* \"#utility.yul\":8858:8867   */\n      dup4\n        /* \"#utility.yul\":8854:8873   */\n      add\n        /* \"#utility.yul\":8847:8896   */\n      mstore\n        /* \"#utility.yul\":8913:8991   */\n      tag_457\n        /* \"#utility.yul\":8986:8990   */\n      dup2\n        /* \"#utility.yul\":8977:8983   */\n      dup6\n        /* \"#utility.yul\":8913:8991   */\n      tag_289\n      jump\t// in\n    tag_457:\n        /* \"#utility.yul\":8905:8991   */\n      swap1\n      pop\n        /* \"#utility.yul\":9001:9074   */\n      tag_458\n        /* \"#utility.yul\":9069:9072   */\n      0xc0\n        /* \"#utility.yul\":9058:9067   */\n      dup4\n        /* \"#utility.yul\":9054:9073   */\n      add\n        /* \"#utility.yul\":9045:9051   */\n      dup5\n        /* \"#utility.yul\":9001:9074   */\n      tag_291\n      jump\t// in\n    tag_458:\n        /* \"#utility.yul\":7831:9081   */\n      swap9\n      swap8\n      pop\n      pop\n      pop\n      pop\n      pop\n      pop\n      pop\n      pop\n      jump\t// out\n        /* \"#utility.yul\":9087:9235   */\n    tag_292:\n        /* \"#utility.yul\":9189:9200   */\n      0x00\n        /* \"#utility.yul\":9226:9229   */\n      dup2\n        /* \"#utility.yul\":9211:9229   */\n      swap1\n      pop\n        /* \"#utility.yul\":9087:9235   */\n      swap3\n      swap2\n      pop\n      pop\n      jump\t// out\n        /* \"#utility.yul\":9241:9631   */\n    tag_293:\n        /* \"#utility.yul\":9347:9350   */\n      0x00\n        /* \"#utility.yul\":9375:9414   */\n      tag_461\n        /* \"#utility.yul\":9408:9413   */\n      dup3\n        /* \"#utility.yul\":9375:9414   */\n      tag_285\n      jump\t// in\n    tag_461:\n        /* \"#utility.yul\":9430:9519   */\n      tag_462\n        /* \"#utility.yul\":9512:9518   */\n      dup2\n        /* \"#utility.yul\":9507:9510   */\n      dup6\n        /* \"#utility.yul\":9430:9519   */\n      tag_292\n      jump\t// in\n    tag_462:\n        /* \"#utility.yul\":9423:9519   */\n      swap4\n      pop\n        /* \"#utility.yul\":9528:9593   */\n      tag_463\n        /* \"#utility.yul\":9586:9592   */\n      dup2\n        /* \"#utility.yul\":9581:9584   */\n      dup6\n        /* \"#utility.yul\":9574:9578   */\n      0x20\n        /* \"#utility.yul\":9567:9572   */\n      dup7\n        /* \"#utility.yul\":9563:9579   */\n      add\n        /* \"#utility.yul\":9528:9593   */\n      tag_287\n      jump\t// in\n    tag_463:\n        /* \"#utility.yul\":9618:9624   */\n      dup1\n        /* \"#utility.yul\":9613:9616   */\n      dup5\n        /* \"#utility.yul\":9609:9625   */\n      add\n        /* \"#utility.yul\":9602:9625   */\n      swap2\n      pop\n        /* \"#utility.yul\":9351:9631   */\n      pop\n        /* \"#utility.yul\":9241:9631   */\n      swap3\n      swap2\n      pop\n      pop\n      jump\t// out\n        /* \"#utility.yul\":9637:9912   */\n    tag_54:\n        /* \"#utility.yul\":9769:9772   */\n      0x00\n        /* \"#utility.yul\":9791:9886   */\n      tag_465\n        /* \"#utility.yul\":9882:9885   */\n      dup3\n        /* \"#utility.yul\":9873:9879   */\n      dup5\n        /* \"#utility.yul\":9791:9886   */\n      tag_293\n      jump\t// in\n    tag_465:\n        /* \"#utility.yul\":9784:9886   */\n      swap2\n      pop\n        /* \"#utility.yul\":9903:9906   */\n      dup2\n        /* \"#utility.yul\":9896:9906   */\n      swap1\n      pop\n        /* \"#utility.yul\":9637:9912   */\n      swap3\n      swap2\n      pop\n      pop\n      jump\t// out\n        /* \"#utility.yul\":9918:10088   */\n    tag_294:\n        /* \"#utility.yul\":10058:10080   */\n      0x426174636820646f6573206e6f74206578697374000000000000000000000000\n        /* \"#utility.yul\":10054:10055   */\n      0x00\n        /* \"#utility.yul\":10046:10052   */\n      dup3\n        /* \"#utility.yul\":10042:10056   */\n      add\n        /* \"#utility.yul\":10035:10081   */\n      mstore\n        /* \"#utility.yul\":9918:10088   */\n      pop\n      jump\t// out\n        /* \"#utility.yul\":10094:10460   */\n    tag_295:\n        /* \"#utility.yul\":10236:10239   */\n      0x00\n        /* \"#utility.yul\":10257:10324   */\n      tag_468\n        /* \"#utility.yul\":10321:10323   */\n      0x14\n        /* \"#utility.yul\":10316:10319   */\n      dup4\n        /* \"#utility.yul\":10257:10324   */\n      tag_286\n      jump\t// in\n    tag_468:\n        /* \"#utility.yul\":10250:10324   */\n      swap2\n      pop\n        /* \"#utility.yul\":10333:10426   */\n      tag_469\n        /* \"#utility.yul\":10422:10425   */\n      dup3\n        /* \"#utility.yul\":10333:10426   */\n      tag_294\n      jump\t// in\n    tag_469:\n        /* \"#utility.yul\":10451:10453   */\n      0x20\n        /* \"#utility.yul\":10446:10449   */\n      dup3\n        /* \"#utility.yul\":10442:10454   */\n      add\n        /* \"#utility.yul\":10435:10454   */\n      swap1\n      pop\n        /* \"#utility.yul\":10094:10460   */\n      swap2\n      swap1\n      pop\n      jump\t// out\n        /* \"#utility.yul\":10466:10885   */\n    tag_57:\n        /* \"#utility.yul\":10632:10636   */\n      0x00\n        /* \"#utility.yul\":10670:10672   */\n      0x20\n        /* \"#utility.yul\":10659:10668   */\n      dup3\n        /* \"#utility.yul\":10655:10673   */\n      add\n        /* \"#utility.yul\":10647:10673   */\n      swap1\n      pop\n        /* \"#utility.yul\":10719:10728   */\n      dup2\n        /* \"#utility.yul\":10713:10717   */\n      dup2\n        /* \"#utility.yul\":10709:10729   */\n      sub\n        /* \"#utility.yul\":10705:10706   */\n      0x00\n        /* \"#utility.yul\":10694:10703   */\n      dup4\n        /* \"#utility.yul\":10690:10707   */\n      add\n        /* \"#utility.yul\":10683:10730   */\n      mstore\n        /* \"#utility.yul\":10747:10878   */\n      tag_471\n        /* \"#utility.yul\":10873:10877   */\n      dup2\n        /* \"#utility.yul\":10747:10878   */\n      tag_295\n      jump\t// in\n    tag_471:\n        /* \"#utility.yul\":10739:10878   */\n      swap1\n      pop\n        /* \"#utility.yul\":10466:10885   */\n      swap2\n      swap1\n      pop\n      jump\t// out\n        /* \"#utility.yul\":10891:11059   */\n    tag_296:\n        /* \"#utility.yul\":11031:11051   */\n      0x6e65775374617475732072657175697265640000000000000000000000000000\n        /* \"#utility.yul\":11027:11028   */\n      0x00\n        /* \"#utility.yul\":11019:11025   */\n      dup3\n        /* \"#utility.yul\":11015:11029   */\n      add\n        /* \"#utility.yul\":11008:11052   */\n      mstore\n        /* \"#utility.yul\":10891:11059   */\n      pop\n      jump\t// out\n        /* \"#utility.yul\":11065:11431   */\n    tag_297:\n        /* \"#utility.yul\":11207:11210   */\n      0x00\n        /* \"#utility.yul\":11228:11295   */\n      tag_474\n        /* \"#utility.yul\":11292:11294   */\n      0x12\n        /* \"#utility.yul\":11287:11290   */\n      dup4\n        /* \"#utility.yul\":11228:11295   */\n      tag_286\n      jump\t// in\n    tag_474:\n        /* \"#utility.yul\":11221:11295   */\n      swap2\n      pop\n        /* \"#utility.yul\":11304:11397   */\n      tag_475\n        /* \"#utility.yul\":11393:11396   */\n      dup3\n        /* \"#utility.yul\":11304:11397   */\n      tag_296\n      jump\t// in\n    tag_475:\n        /* \"#utility.yul\":11422:11424   */\n      0x20\n        /* \"#utility.yul\":11417:11420   */\n      dup3\n        /* \"#utility.yul\":11413:11425   */\n      add\n        /* \"#utility.yul\":11406:11425   */\n      swap1\n      pop\n        /* \"#utility.yul\":11065:11431   */\n      swap2\n      swap1\n      pop\n      jump\t// out\n        /* \"#utility.yul\":11437:11856   */\n    tag_61:\n        /* \"#utility.yul\":11603:11607   */\n      0x00\n        /* \"#utility.yul\":11641:11643   */\n      0x20\n        /* \"#utility.yul\":11630:11639   */\n      dup3\n        /* \"#utility.yul\":11626:11644   */\n      add\n        /* \"#utility.yul\":11618:11644   */\n      swap1\n      pop\n        /* \"#utility.yul\":11690:11699   */\n      dup2\n        /* \"#utility.yul\":11684:11688   */\n      dup2\n        /* \"#utility.yul\":11680:11700   */\n      sub\n        /* \"#utility.yul\":11676:11677   */\n      0x00\n        /* \"#utility.yul\":11665:11674   */\n      dup4\n        /* \"#utility.yul\":11661:11678   */\n      add\n        /* \"#utility.yul\":11654:11701   */\n      mstore\n        /* \"#utility.yul\":11718:11849   */\n      tag_477\n        /* \"#utility.yul\":11844:11848   */\n      dup2\n        /* \"#utility.yul\":11718:11849   */\n      tag_297\n      jump\t// in\n    tag_477:\n        /* \"#utility.yul\":11710:11849   */\n      swap1\n      pop\n        /* \"#utility.yul\":11437:11856   */\n      swap2\n      swap1\n      pop\n      jump\t// out\n        /* \"#utility.yul\":11862:12010   */\n    tag_298:\n        /* \"#utility.yul\":11960:11966   */\n      dup3\n        /* \"#utility.yul\":11955:11958   */\n      dup2\n        /* \"#utility.yul\":11950:11953   */\n      dup4\n        /* \"#utility.yul\":11937:11967   */\n      calldatacopy\n        /* \"#utility.yul\":12001:12002   */\n      0x00\n        /* \"#utility.yul\":11992:11998   */\n      dup4\n        /* \"#utility.yul\":11987:11990   */\n      dup4\n        /* \"#utility.yul\":11983:11999   */\n      add\n        /* \"#utility.yul\":11976:12003   */\n      mstore\n        /* \"#utility.yul\":11862:12010   */\n      pop\n      pop\n      pop\n      jump\t// out\n        /* \"#utility.yul\":12040:12370   */\n    tag_299:\n        /* \"#utility.yul\":12156:12159   */\n      0x00\n        /* \"#utility.yul\":12177:12266   */\n      tag_480\n        /* \"#utility.yul\":12259:12265   */\n      dup4\n        /* \"#utility.yul\":12254:12257   */\n      dup6\n        /* \"#utility.yul\":12177:12266   */\n      tag_292\n      jump\t// in\n    tag_480:\n        /* \"#utility.yul\":12170:12266   */\n      swap4\n      pop\n        /* \"#utility.yul\":12276:12332   */\n      tag_481\n        /* \"#utility.yul\":12325:12331   */\n      dup4\n        /* \"#utility.yul\":12320:12323   */\n      dup6\n        /* \"#utility.yul\":12313:12318   */\n      dup5\n        /* \"#utility.yul\":12276:12332   */\n      tag_298\n      jump\t// in\n    tag_481:\n        /* \"#utility.yul\":12357:12363   */\n      dup3\n        /* \"#utility.yul\":12352:12355   */\n      dup5\n        /* \"#utility.yul\":12348:12364   */\n      add\n        /* \"#utility.yul\":12341:12364   */\n      swap1\n      pop\n        /* \"#utility.yul\":12040:12370   */\n      swap4\n      swap3\n      pop\n      pop\n      pop\n      jump\t// out\n        /* \"#utility.yul\":12376:12671   */\n    tag_63:\n        /* \"#utility.yul\":12518:12521   */\n      0x00\n        /* \"#utility.yul\":12540:12645   */\n      tag_483\n        /* \"#utility.yul\":12641:12644   */\n      dup3\n        /* \"#utility.yul\":12632:12638   */\n      dup5\n        /* \"#utility.yul\":12624:12630   */\n      dup7\n        /* \"#utility.yul\":12540:12645   */\n      tag_299\n      jump\t// in\n    tag_483:\n        /* \"#utility.yul\":12533:12645   */\n      swap2\n      pop\n        /* \"#utility.yul\":12662:12665   */\n      dup2\n        /* \"#utility.yul\":12655:12665   */\n      swap1\n      pop\n        /* \"#utility.yul\":12376:12671   */\n      swap4\n      swap3\n      pop\n      pop\n      pop\n      jump\t// out\n        /* \"#utility.yul\":12677:12855   */\n    tag_300:\n        /* \"#utility.yul\":12817:12847   */\n      0x4e6f7420616c6c6f77656420746f207570646174652073746174757300000000\n        /* \"#utility.yul\":12813:12814   */\n      0x00\n        /* \"#utility.yul\":12805:12811   */\n      dup3\n        /* \"#utility.yul\":12801:12815   */\n      add\n        /* \"#utility.yul\":12794:12848   */\n      mstore\n        /* \"#utility.yul\":12677:12855   */\n      pop\n      jump\t// out\n        /* \"#utility.yul\":12861:13227   */\n    tag_301:\n        /* \"#utility.yul\":13003:13006   */\n      0x00\n        /* \"#utility.yul\":13024:13091   */\n      tag_486\n        /* \"#utility.yul\":13088:13090   */\n      0x1c\n        /* \"#utility.yul\":13083:13086   */\n      dup4\n        /* \"#utility.yul\":13024:13091   */\n      tag_286\n      jump\t// in\n    tag_486:\n        /* \"#utility.yul\":13017:13091   */\n      swap2\n      pop\n        /* \"#utility.yul\":13100:13193   */\n      tag_487\n        /* \"#utility.yul\":13189:13192   */\n      dup3\n        /* \"#utility.yul\":13100:13193   */\n      tag_300\n      jump\t// in\n    tag_487:\n        /* \"#utility.yul\":13218:13220   */\n      0x20\n        /* \"#utility.yul\":13213:13216   */\n      dup3\n        /* \"#utility.yul\":13209:13221   */\n      add\n        /* \"#utility.yul\":13202:13221   */\n      swap1\n      pop\n        /* \"#utility.yul\":12861:13227   */\n      swap2\n      swap1\n      pop\n      jump\t// out\n        /* \"#utility.yul\":13233:13652   */\n    tag_72:\n        /* \"#utility.yul\":13399:13403   */\n      0x00\n        /* \"#utility.yul\":13437:13439   */\n      0x20\n        /* \"#utility.yul\":13426:13435   */\n      dup3\n        /* \"#utility.yul\":13422:13440   */\n      add\n        /* \"#utility.yul\":13414:13440   */\n      swap1\n      pop\n        /* \"#utility.yul\":13486:13495   */\n      dup2\n        /* \"#utility.yul\":13480:13484   */\n      dup2\n        /* \"#utility.yul\":13476:13496   */\n      sub\n        /* \"#utility.yul\":13472:13473   */\n      0x00\n        /* \"#utility.yul\":13461:13470   */\n      dup4\n        /* \"#utility.yul\":13457:13474   */\n      add\n        /* \"#utility.yul\":13450:13497   */\n      mstore\n        /* \"#utility.yul\":13514:13645   */\n      tag_489\n        /* \"#utility.yul\":13640:13644   */\n      dup2\n        /* \"#utility.yul\":13514:13645   */\n      tag_301\n      jump\t// in\n    tag_489:\n        /* \"#utility.yul\":13506:13645   */\n      swap1\n      pop\n        /* \"#utility.yul\":13233:13652   */\n      swap2\n      swap1\n      pop\n      jump\t// out\n        /* \"#utility.yul\":13658:13755   */\n    tag_302:\n        /* \"#utility.yul\":13717:13723   */\n      0x00\n        /* \"#utility.yul\":13745:13748   */\n      dup3\n        /* \"#utility.yul\":13735:13748   */\n      swap1\n      pop\n        /* \"#utility.yul\":13658:13755   */\n      swap3\n      swap2\n      pop\n      pop\n      jump\t// out\n        /* \"#utility.yul\":13761:13941   */\n    tag_303:\n        /* \"#utility.yul\":13809:13886   */\n      0x4e487b7100000000000000000000000000000000000000000000000000000000\n        /* \"#utility.yul\":13806:13807   */\n      0x00\n        /* \"#utility.yul\":13799:13887   */\n      mstore\n        /* \"#utility.yul\":13906:13910   */\n      0x41\n        /* \"#utility.yul\":13903:13904   */\n      0x04\n        /* \"#utility.yul\":13896:13911   */\n      mstore\n        /* \"#utility.yul\":13930:13934   */\n      0x24\n        /* \"#utility.yul\":13927:13928   */\n      0x00\n        /* \"#utility.yul\":13920:13935   */\n      revert\n        /* \"#utility.yul\":13947:14127   */\n    tag_304:\n        /* \"#utility.yul\":13995:14072   */\n      0x4e487b7100000000000000000000000000000000000000000000000000000000\n        /* \"#utility.yul\":13992:13993   */\n      0x00\n        /* \"#utility.yul\":13985:14073   */\n      mstore\n        /* \"#utility.yul\":14092:14096   */\n      0x22\n        /* \"#utility.yul\":14089:14090   */\n      0x04\n        /* \"#utility.yul\":14082:14097   */\n      mstore\n        /* \"#utility.yul\":14116:14120   */\n      0x24\n        /* \"#utility.yul\":14113:14114   */\n      0x00\n        /* \"#utility.yul\":14106:14121   */\n      revert\n        /* \"#utility.yul\":14133:14453   */\n    tag_245:\n        /* \"#utility.yul\":14177:14183   */\n      0x00\n        /* \"#utility.yul\":14214:14215   */\n      0x02\n        /* \"#utility.yul\":14208:14212   */\n      dup3\n        /* \"#utility.yul\":14204:14216   */\n      div\n        /* \"#utility.yul\":14194:14216   */\n      swap1\n      pop\n        /* \"#utility.yul\":14261:14262   */\n      0x01\n        /* \"#utility.yul\":14255:14259   */\n      dup3\n        /* \"#utility.yul\":14251:14263   */\n      and\n        /* \"#utility.yul\":14282:14300   */\n      dup1\n        /* \"#utility.yul\":14272:14353   */\n      tag_494\n      jumpi\n        /* \"#utility.yul\":14338:14342   */\n      0x7f\n        /* \"#utility.yul\":14330:14336   */\n      dup3\n        /* \"#utility.yul\":14326:14343   */\n      and\n        /* \"#utility.yul\":14316:14343   */\n      swap2\n      pop\n        /* \"#utility.yul\":14272:14353   */\n    tag_494:\n        /* \"#utility.yul\":14400:14402   */\n      0x20\n        /* \"#utility.yul\":14392:14398   */\n      dup3\n        /* \"#utility.yul\":14389:14403   */\n      lt\n        /* \"#utility.yul\":14369:14387   */\n      dup2\n        /* \"#utility.yul\":14366:14404   */\n      sub\n        /* \"#utility.yul\":14363:14447   */\n      tag_495\n      jumpi\n        /* \"#utility.yul\":14419:14437   */\n      tag_496\n      tag_304\n      jump\t// in\n    tag_496:\n        /* \"#utility.yul\":14363:14447   */\n    tag_495:\n        /* \"#utility.yul\":14184:14453   */\n      pop\n        /* \"#utility.yul\":14133:14453   */\n      swap2\n      swap1\n      pop\n      jump\t// out\n        /* \"#utility.yul\":14459:14600   */\n    tag_305:\n        /* \"#utility.yul\":14508:14512   */\n      0x00\n        /* \"#utility.yul\":14531:14534   */\n      dup2\n        /* \"#utility.yul\":14523:14534   */\n      swap1\n      pop\n        /* \"#utility.yul\":14554:14557   */\n      dup2\n        /* \"#utility.yul\":14551:14552   */\n      0x00\n        /* \"#utility.yul\":14544:14558   */\n      mstore\n        /* \"#utility.yul\":14588:14592   */\n      0x20\n        /* \"#utility.yul\":14585:14586   */\n      0x00\n        /* \"#utility.yul\":14575:14593   */\n      keccak256\n        /* \"#utility.yul\":14567:14593   */\n      swap1\n      pop\n        /* \"#utility.yul\":14459:14600   */\n      swap2\n      swap1\n      pop\n      jump\t// out\n        /* \"#utility.yul\":14606:14699   */\n    tag_306:\n        /* \"#utility.yul\":14643:14649   */\n      0x00\n        /* \"#utility.yul\":14690:14692   */\n      0x20\n        /* \"#utility.yul\":14685:14687   */\n      0x1f\n        /* \"#utility.yul\":14678:14683   */\n      dup4\n        /* \"#utility.yul\":14674:14688   */\n      add\n        /* \"#utility.yul\":14670:14693   */\n      div\n        /* \"#utility.yul\":14660:14693   */\n      swap1\n      pop\n        /* \"#utility.yul\":14606:14699   */\n      swap2\n      swap1\n      pop\n      jump\t// out\n        /* \"#utility.yul\":14705:14812   */\n    tag_307:\n        /* \"#utility.yul\":14749:14757   */\n      0x00\n        /* \"#utility.yul\":14799:14804   */\n      dup3\n        /* \"#utility.yul\":14793:14797   */\n      dup3\n        /* \"#utility.yul\":14789:14805   */\n      shl\n        /* \"#utility.yul\":14768:14805   */\n      swap1\n      pop\n        /* \"#utility.yul\":14705:14812   */\n      swap3\n      swap2\n      pop\n      pop\n      jump\t// out\n        /* \"#utility.yul\":14818:15211   */\n    tag_308:\n        /* \"#utility.yul\":14887:14893   */\n      0x00\n        /* \"#utility.yul\":14937:14938   */\n      0x08\n        /* \"#utility.yul\":14925:14935   */\n      dup4\n        /* \"#utility.yul\":14921:14939   */\n      mul\n        /* \"#utility.yul\":14960:15057   */\n      tag_501\n        /* \"#utility.yul\":14990:15056   */\n      0xffffffffffffffffffffffffffffffffffffffffffffffffffffffffffffffff\n        /* \"#utility.yul\":14979:14988   */\n      dup3\n        /* \"#utility.yul\":14960:15057   */\n      tag_307\n      jump\t// in\n    tag_501:\n        /* \"#utility.yul\":15078:15117   */\n      tag_502\n        /* \"#utility.yul\":15108:15116   */\n      dup7\n        /* \"#utility.yul\":15097:15106   */\n      dup4\n        /* \"#utility.yul\":15078:15117   */\n      tag_307\n      jump\t// in\n    tag_502:\n        /* \"#utility.yul\":15066:15117   */\n      swap6\n      pop\n        /* \"#utility.yul\":15150:15154   */\n      dup1\n        /* \"#utility.yul\":15146:15155   */\n      not\n        /* \"#utility.yul\":15139:15144   */\n      dup5\n        /* \"#utility.yul\":15135:15156   */\n      and\n        /* \"#utility.yul\":15126:15156   */\n      swap4\n      pop\n        /* \"#utility.yul\":15199:15203   */\n      dup1\n        /* \"#utility.yul\":15189:15197   */\n      dup7\n        /* \"#utility.yul\":15185:15204   */\n      and\n        /* \"#utility.yul\":15178:15183   */\n      dup5\n        /* \"#utility.yul\":15175:15205   */\n      or\n        /* \"#utility.yul\":15165:15205   */\n      swap3\n      pop\n        /* \"#utility.yul\":14894:15211   */\n      pop\n      pop\n        /* \"#utility.yul\":14818:15211   */\n      swap4\n      swap3\n      pop\n      pop\n      pop\n      jump\t// out\n        /* \"#utility.yul\":15217:15277   */\n    tag_309:\n        /* \"#utility.yul\":15245:15248   */\n      0x00\n        /* \"#utility.yul\":15266:15271   */\n      dup2\n        /* \"#utility.yul\":15259:15271   */\n      swap1\n      pop\n        /* \"#utility.yul\":15217:15277   */\n      swap2\n      swap1\n      pop\n      jump\t// out\n        /* \"#utility.yul\":15283:15425   */\n    tag_310:\n        /* \"#utility.yul\":15333:15342   */\n      0x00\n        /* \"#utility.yul\":15366:15419   */\n      tag_505\n        /* \"#utility.yul\":15384:15418   */\n      tag_506\n        /* \"#utility.yul\":15393:15417   */\n      tag_507\n        /* \"#utility.yul\":15411:15416   */\n      dup5\n        /* \"#utility.yul\":15393:15417   */\n      tag_290\n      jump\t// in\n    tag_507:\n        /* \"#utility.yul\":15384:15418   */\n      tag_309\n      jump\t// in\n    tag_506:\n        /* \"#utility.yul\":15366:15419   */\n      tag_290\n      jump\t// in\n    tag_505:\n        /* \"#utility.yul\":15353:15419   */\n      swap1\n      pop\n        /* \"#utility.yul\":15283:15425   */\n      swap2\n      swap1\n      pop\n      jump\t// out\n        /* \"#utility.yul\":15431:15506   */\n    tag_311:\n        /* \"#utility.yul\":15474:15477   */\n      0x00\n        /* \"#utility.yul\":15495:15500   */\n      dup2\n        /* \"#utility.yul\":15488:15500   */\n      swap1\n      pop\n        /* \"#utility.yul\":15431:15506   */\n      swap2\n      swap1\n      pop\n      jump\t// out\n        /* \"#utility.yul\":15512:15781   */\n    tag_312:\n        /* \"#utility.yul\":15622:15661   */\n      tag_510\n        /* \"#utility.yul\":15653:15660   */\n      dup4\n        /* \"#utility.yul\":15622:15661   */\n      tag_310\n      jump\t// in\n    tag_510:\n        /* \"#utility.yul\":15683:15774   */\n      tag_511\n        /* \"#utility.yul\":15732:15773   */\n      tag_512\n        /* \"#utility.yul\":15756:15772   */\n      dup3\n        /* \"#utility.yul\":15732:15773   */\n      tag_311\n      jump\t// in\n    tag_512:\n        /* \"#utility.yul\":15724:15730   */\n      dup5\n        /* \"#utility.yul\":15717:15721   */\n      dup5\n        /* \"#utility.yul\":15711:15722   */\n      sload\n        /* \"#utility.yul\":15683:15774   */\n      tag_308\n      jump\t// in\n    tag_511:\n        /* \"#utility.yul\":15677:15681   */\n      dup3\n        /* \"#utility.yul\":15670:15775   */\n      sstore\n        /* \"#utility.yul\":15588:15781   */\n      pop\n        /* \"#utility.yul\":15512:15781   */\n      pop\n      pop\n      pop\n      jump\t// out\n        /* \"#utility.yul\":15787:15860   */\n    tag_313:\n        /* \"#utility.yul\":15832:15835   */\n      0x00\n        /* \"#utility.yul\":15853:15854   */\n      0x00\n        /* \"#utility.yul\":15846:15854   */\n      swap1\n      pop\n        /* \"#utility.yul\":15787:15860   */\n      swap1\n      jump\t// out\n        /* \"#utility.yul\":15866:16055   */\n    tag_314:\n        /* \"#utility.yul\":15943:15975   */\n      tag_515\n      tag_313\n      jump\t// in\n    tag_515:\n        /* \"#utility.yul\":15984:16049   */\n      tag_516\n        /* \"#utility.yul\":16042:16048   */\n      dup2\n        /* \"#utility.yul\":16034:16040   */\n      dup5\n        /* \"#utility.yul\":16028:16032   */\n      dup5\n        /* \"#utility.yul\":15984:16049   */\n      tag_312\n      jump\t// in\n    tag_516:\n        /* \"#utility.yul\":15919:16055   */\n      pop\n        /* \"#utility.yul\":15866:16055   */\n      pop\n      pop\n      jump\t// out\n        /* \"#utility.yul\":16061:16247   */\n    tag_315:\n        /* \"#utility.yul\":16121:16241   */\n    tag_518:\n        /* \"#utility.yul\":16138:16141   */\n      dup2\n        /* \"#utility.yul\":16131:16136   */\n      dup2\n        /* \"#utility.yul\":16128:16142   */\n      lt\n        /* \"#utility.yul\":16121:16241   */\n      iszero\n      tag_520\n      jumpi\n        /* \"#utility.yul\":16192:16231   */\n      tag_521\n        /* \"#utility.yul\":16229:16230   */\n      0x00\n        /* \"#utility.yul\":16222:16227   */\n      dup3\n        /* \"#utility.yul\":16192:16231   */\n      tag_314\n      jump\t// in\n    tag_521:\n        /* \"#utility.yul\":16165:16166   */\n      0x01\n        /* \"#utility.yul\":16158:16163   */\n      dup2\n        /* \"#utility.yul\":16154:16167   */\n      add\n        /* \"#utility.yul\":16145:16167   */\n      swap1\n      pop\n        /* \"#utility.yul\":16121:16241   */\n      jump(tag_518)\n    tag_520:\n        /* \"#utility.yul\":16061:16247   */\n      pop\n      pop\n      jump\t// out\n        /* \"#utility.yul\":16253:16796   */\n    tag_316:\n        /* \"#utility.yul\":16354:16356   */\n      0x1f\n        /* \"#utility.yul\":16349:16352   */\n      dup3\n        /* \"#utility.yul\":16346:16357   */\n      gt\n        /* \"#utility.yul\":16343:16789   */\n      iszero\n      tag_523\n      jumpi\n        /* \"#utility.yul\":16388:16426   */\n      tag_524\n        /* \"#utility.yul\":16420:16425   */\n      dup2\n        /* \"#utility.yul\":16388:16426   */\n      tag_305\n      jump\t// in\n    tag_524:\n        /* \"#utility.yul\":16472:16501   */\n      tag_525\n        /* \"#utility.yul\":16490:16500   */\n      dup5\n        /* \"#utility.yul\":16472:16501   */\n      tag_306\n      jump\t// in\n    tag_525:\n        /* \"#utility.yul\":16462:16470   */\n      dup2\n        /* \"#utility.yul\":16458:16502   */\n      add\n        /* \"#utility.yul\":16655:16657   */\n      0x20\n        /* \"#utility.yul\":16643:16653   */\n      dup6\n        /* \"#utility.yul\":16640:16658   */\n      lt\n        /* \"#utility.yul\":16637:16686   */\n      iszero\n      tag_526\n      jumpi\n        /* \"#utility.yul\":16676:16684   */\n      dup2\n        /* \"#utility.yul\":16661:16684   */\n      swap1\n      pop\n        /* \"#utility.yul\":16637:16686   */\n    tag_526:\n        /* \"#utility.yul\":16699:16779   */\n      tag_527\n        /* \"#utility.yul\":16755:16777   */\n      tag_528\n        /* \"#utility.yul\":16773:16776   */\n      dup6\n        /* \"#utility.yul\":16755:16777   */\n      tag_306\n      jump\t// in\n    tag_528:\n        /* \"#utility.yul\":16745:16753   */\n      dup4\n        /* \"#utility.yul\":16741:16778   */\n      add\n        /* \"#utility.yul\":16728:16739   */\n      dup3\n        /* \"#utility.yul\":16699:16779   */\n      tag_315\n      jump\t// in\n    tag_527:\n        /* \"#utility.yul\":16358:16789   */\n      pop\n      pop\n        /* \"#utility.yul\":16343:16789   */\n    tag_523:\n        /* \"#utility.yul\":16253:16796   */\n      pop\n      pop\n      pop\n      jump\t// out\n        /* \"#utility.yul\":16802:16919   */\n    tag_317:\n        /* \"#utility.yul\":16856:16864   */\n      0x00\n        /* \"#utility.yul\":16906:16911   */\n      dup3\n        /* \"#utility.yul\":16900:16904   */\n      dup3\n        /* \"#utility.yul\":16896:16912   */\n      shr\n        /* \"#utility.yul\":16875:16912   */\n      swap1\n      pop\n        /* \"#utility.yul\":16802:16919   */\n      swap3\n      swap2\n      pop\n      pop\n      jump\t// out\n        /* \"#utility.yul\":16925:17094   */\n    tag_318:\n        /* \"#utility.yul\":16969:16975   */\n      0x00\n        /* \"#utility.yul\":17002:17053   */\n      tag_531\n        /* \"#utility.yul\":17050:17051   */\n      0x00\n        /* \"#utility.yul\":17046:17052   */\n      not\n        /* \"#utility.yul\":17038:17043   */\n      dup5\n        /* \"#utility.yul\":17035:17036   */\n      0x08\n        /* \"#utility.yul\":17031:17044   */\n      mul\n        /* \"#utility.yul\":17002:17053   */\n      tag_317\n      jump\t// in\n    tag_531:\n        /* \"#utility.yul\":16998:17054   */\n      not\n        /* \"#utility.yul\":17083:17087   */\n      dup1\n        /* \"#utility.yul\":17077:17081   */\n      dup4\n        /* \"#utility.yul\":17073:17088   */\n      and\n        /* \"#utility.yul\":17063:17088   */\n      swap2\n      pop\n        /* \"#utility.yul\":16976:17094   */\n      pop\n        /* \"#utility.yul\":16925:17094   */\n      swap3\n      swap2\n      pop\n      pop\n      jump\t// out\n        /* \"#utility.yul\":17099:17394   */\n    tag_319:\n        /* \"#utility.yul\":17175:17179   */\n      0x00\n        /* \"#utility.yul\":17321:17350   */\n      tag_533\n        /* \"#utility.yul\":17346:17349   */\n      dup4\n        /* \"#utility.yul\":17340:17344   */\n      dup4\n        /* \"#utility.yul\":17321:17350   */\n      tag_318\n      jump\t// in\n    tag_533:\n        /* \"#utility.yul\":17313:17350   */\n      swap2\n      pop\n        /* \"#utility.yul\":17383:17386   */\n      dup3\n        /* \"#utility.yul\":17380:17381   */\n      0x02\n        /* \"#utility.yul\":17376:17387   */\n      mul\n        /* \"#utility.yul\":17370:17374   */\n      dup3\n        /* \"#utility.yul\":17367:17388   */\n      or\n        /* \"#utility.yul\":17359:17388   */\n      swap1\n      pop\n        /* \"#utility.yul\":17099:17394   */\n      swap3\n      swap2\n      pop\n      pop\n      jump\t// out\n        /* \"#utility.yul\":17399:18802   */\n    tag_75:\n        /* \"#utility.yul\":17523:17567   */\n      tag_535\n        /* \"#utility.yul\":17563:17566   */\n      dup4\n        /* \"#utility.yul\":17558:17561   */\n      dup4\n        /* \"#utility.yul\":17523:17567   */\n      tag_302\n      jump\t// in\n    tag_535:\n        /* \"#utility.yul\":17632:17650   */\n      0xffffffffffffffff\n        /* \"#utility.yul\":17624:17630   */\n      dup2\n        /* \"#utility.yul\":17621:17651   */\n      gt\n        /* \"#utility.yul\":17618:17674   */\n      iszero\n      tag_536\n      jumpi\n        /* \"#utility.yul\":17654:17672   */\n      tag_537\n      tag_303\n      jump\t// in\n    tag_537:\n        /* \"#utility.yul\":17618:17674   */\n    tag_536:\n        /* \"#utility.yul\":17698:17736   */\n      tag_538\n        /* \"#utility.yul\":17730:17734   */\n      dup3\n        /* \"#utility.yul\":17724:17735   */\n      sload\n        /* \"#utility.yul\":17698:17736   */\n      tag_245\n      jump\t// in\n    tag_538:\n        /* \"#utility.yul\":17783:17850   */\n      tag_539\n        /* \"#utility.yul\":17843:17849   */\n      dup3\n        /* \"#utility.yul\":17835:17841   */\n      dup3\n        /* \"#utility.yul\":17829:17833   */\n      dup6\n        /* \"#utility.yul\":17783:17850   */\n      tag_316\n      jump\t// in\n    tag_539:\n        /* \"#utility.yul\":17877:17878   */\n      0x00\n        /* \"#utility.yul\":17906:17908   */\n      0x1f\n        /* \"#utility.yul\":17898:17904   */\n      dup4\n        /* \"#utility.yul\":17895:17909   */\n      gt\n        /* \"#utility.yul\":17923:17924   */\n      0x01\n        /* \"#utility.yul\":17918:18550   */\n      dup2\n      eq\n      tag_541\n      jumpi\n        /* \"#utility.yul\":18594:18595   */\n      0x00\n        /* \"#utility.yul\":18611:18617   */\n      dup5\n        /* \"#utility.yul\":18608:18692   */\n      iszero\n      tag_542\n      jumpi\n        /* \"#utility.yul\":18667:18676   */\n      dup3\n        /* \"#utility.yul\":18662:18665   */\n      dup8\n        /* \"#utility.yul\":18658:18677   */\n      add\n        /* \"#utility.yul\":18645:18678   */\n      calldataload\n        /* \"#utility.yul\":18636:18678   */\n      swap1\n      pop\n        /* \"#utility.yul\":18608:18692   */\n    tag_542:\n        /* \"#utility.yul\":18718:18785   */\n      tag_543\n        /* \"#utility.yul\":18778:18784   */\n      dup6\n        /* \"#utility.yul\":18771:18776   */\n      dup3\n        /* \"#utility.yul\":18718:18785   */\n      tag_319\n      jump\t// in\n    tag_543:\n        /* \"#utility.yul\":18712:18716   */\n      dup7\n        /* \"#utility.yul\":18705:18786   */\n      sstore\n        /* \"#utility.yul\":18567:18796   */\n      pop\n        /* \"#utility.yul\":17888:18796   */\n      jump(tag_540)\n        /* \"#utility.yul\":17918:18550   */\n    tag_541:\n        /* \"#utility.yul\":17970:17974   */\n      0x1f\n        /* \"#utility.yul\":17966:17975   */\n      not\n        /* \"#utility.yul\":17958:17964   */\n      dup5\n        /* \"#utility.yul\":17954:17976   */\n      and\n        /* \"#utility.yul\":18004:18041   */\n      tag_544\n        /* \"#utility.yul\":18036:18040   */\n      dup7\n        /* \"#utility.yul\":18004:18041   */\n      tag_305\n      jump\t// in\n    tag_544:\n        /* \"#utility.yul\":18063:18064   */\n      0x00\n        /* \"#utility.yul\":18077:18292   */\n    tag_545:\n        /* \"#utility.yul\":18091:18098   */\n      dup3\n        /* \"#utility.yul\":18088:18089   */\n      dup2\n        /* \"#utility.yul\":18085:18099   */\n      lt\n        /* \"#utility.yul\":18077:18292   */\n      iszero\n      tag_547\n      jumpi\n        /* \"#utility.yul\":18177:18186   */\n      dup5\n        /* \"#utility.yul\":18172:18175   */\n      dup10\n        /* \"#utility.yul\":18168:18187   */\n      add\n        /* \"#utility.yul\":18155:18188   */\n      calldataload\n        /* \"#utility.yul\":18147:18153   */\n      dup3\n        /* \"#utility.yul\":18140:18189   */\n      sstore\n        /* \"#utility.yul\":18228:18229   */\n      0x01\n        /* \"#utility.yul\":18220:18226   */\n      dup3\n        /* \"#utility.yul\":18216:18230   */\n      add\n        /* \"#utility.yul\":18206:18230   */\n      swap2\n      pop\n        /* \"#utility.yul\":18275:18277   */\n      0x20\n        /* \"#utility.yul\":18264:18273   */\n      dup6\n        /* \"#utility.yul\":18260:18278   */\n      add\n        /* \"#utility.yul\":18247:18278   */\n      swap5\n      pop\n        /* \"#utility.yul\":18114:18118   */\n      0x20\n        /* \"#utility.yul\":18111:18112   */\n      dup2\n        /* \"#utility.yul\":18107:18119   */\n      add\n        /* \"#utility.yul\":18102:18119   */\n      swap1\n      pop\n        /* \"#utility.yul\":18077:18292   */\n      jump(tag_545)\n    tag_547:\n        /* \"#utility.yul\":18320:18326   */\n      dup7\n        /* \"#utility.yul\":18311:18318   */\n      dup4\n        /* \"#utility.yul\":18308:18327   */\n      lt\n        /* \"#utility.yul\":18305:18491   */\n      iszero\n      tag_548\n      jumpi\n        /* \"#utility.yul\":18385:18394   */\n      dup5\n        /* \"#utility.yul\":18380:18383   */\n      dup10\n        /* \"#utility.yul\":18376:18395   */\n      add\n        /* \"#utility.yul\":18363:18396   */\n      calldataload\n        /* \"#utility.yul\":18428:18476   */\n      tag_549\n        /* \"#utility.yul\":18470:18474   */\n      0x1f\n        /* \"#utility.yul\":18462:18468   */\n      dup10\n        /* \"#utility.yul\":18458:18475   */\n      and\n        /* \"#utility.yul\":18447:18456   */\n      dup3\n        /* \"#utility.yul\":18428:18476   */\n      tag_318\n      jump\t// in\n    tag_549:\n        /* \"#utility.yul\":18420:18426   */\n      dup4\n        /* \"#utility.yul\":18413:18477   */\n      sstore\n        /* \"#utility.yul\":18328:18491   */\n      pop\n        /* \"#utility.yul\":18305:18491   */\n    tag_548:\n        /* \"#utility.yul\":18537:18538   */\n      0x01\n        /* \"#utility.yul\":18533:18534   */\n      0x02\n        /* \"#utility.yul\":18525:18531   */\n      dup9\n        /* \"#utility.yul\":18521:18535   */\n      mul\n        /* \"#utility.yul\":18517:18539   */\n      add\n        /* \"#utility.yul\":18511:18515   */\n      dup9\n        /* \"#utility.yul\":18504:18540   */\n      sstore\n        /* \"#utility.yul\":17925:18550   */\n      pop\n      pop\n      pop\n        /* \"#utility.yul\":17888:18796   */\n    tag_540:\n      pop\n        /* \"#utility.yul\":17498:18802   */\n      pop\n      pop\n      pop\n        /* \"#utility.yul\":17399:18802   */\n      pop\n      pop\n      pop\n      jump\t// out\n        /* \"#utility.yul\":18832:19149   */\n    tag_320:\n        /* \"#utility.yul\":18930:18933   */\n      0x00\n        /* \"#utility.yul\":18951:19022   */\n      tag_551\n        /* \"#utility.yul\":19015:19021   */\n      dup4\n        /* \"#utility.yul\":19010:19013   */\n      dup6\n        /* \"#utility.yul\":18951:19022   */\n      tag_286\n      jump\t// in\n    tag_551:\n        /* \"#utility.yul\":18944:19022   */\n      swap4\n      pop\n        /* \"#utility.yul\":19032:19088   */\n      tag_552\n        /* \"#utility.yul\":19081:19087   */\n      dup4\n        /* \"#utility.yul\":19076:19079   */\n      dup6\n        /* \"#utility.yul\":19069:19074   */\n      dup5\n        /* \"#utility.yul\":19032:19088   */\n      tag_298\n      jump\t// in\n    tag_552:\n        /* \"#utility.yul\":19113:19142   */\n      tag_553\n        /* \"#utility.yul\":19135:19141   */\n      dup4\n        /* \"#utility.yul\":19113:19142   */\n      tag_288\n      jump\t// in\n    tag_553:\n        /* \"#utility.yul\":19108:19111   */\n      dup5\n        /* \"#utility.yul\":19104:19143   */\n      add\n        /* \"#utility.yul\":19097:19143   */\n      swap1\n      pop\n        /* \"#utility.yul\":18832:19149   */\n      swap4\n      swap3\n      pop\n      pop\n      pop\n      jump\t// out\n        /* \"#utility.yul\":19155:19488   */\n    tag_78:\n        /* \"#utility.yul\":19278:19282   */\n      0x00\n        /* \"#utility.yul\":19316:19318   */\n      0x20\n        /* \"#utility.yul\":19305:19314   */\n      dup3\n        /* \"#utility.yul\":19301:19319   */\n      add\n        /* \"#utility.yul\":19293:19319   */\n      swap1\n      pop\n        /* \"#utility.yul\":19365:19374   */\n      dup2\n        /* \"#utility.yul\":19359:19363   */\n      dup2\n        /* \"#utility.yul\":19355:19375   */\n      sub\n        /* \"#utility.yul\":19351:19352   */\n      0x00\n        /* \"#utility.yul\":19340:19349   */\n      dup4\n        /* \"#utility.yul\":19336:19353   */\n      add\n        /* \"#utility.yul\":19329:19376   */\n      mstore\n        /* \"#utility.yul\":19393:19481   */\n      tag_555\n        /* \"#utility.yul\":19476:19480   */\n      dup2\n        /* \"#utility.yul\":19467:19473   */\n      dup5\n        /* \"#utility.yul\":19459:19465   */\n      dup7\n        /* \"#utility.yul\":19393:19481   */\n      tag_320\n      jump\t// in\n    tag_555:\n        /* \"#utility.yul\":19385:19481   */\n      swap1\n      pop\n        /* \"#utility.yul\":19155:19488   */\n      swap4\n      swap3\n      pop\n      pop\n      pop\n      jump\t// out\n        /* \"#utility.yul\":19494:19668   */\n    tag_321:\n        /* \"#utility.yul\":19634:19660   */\n      0x4f6e6c792061646d696e2063616e2063616c6c20746869730000000000000000\n        /* \"#utility.yul\":19630:19631   */\n      0x00\n        /* \"#utility.yul\":19622:19628   */\n      dup3\n        /* \"#utility.yul\":19618:19632   */\n      add\n        /* \"#utility.yul\":19611:19661   */\n      mstore\n        /* \"#utility.yul\":19494:19668   */\n      pop\n      jump\t// out\n        /* \"#utility.yul\":19674:20040   */\n    tag_322:\n        /* \"#utility.yul\":19816:19819   */\n      0x00\n        /* \"#utility.yul\":19837:19904   */\n      tag_558\n        /* \"#utility.yul\":19901:19903   */\n      0x18\n        /* \"#utility.yul\":19896:19899   */\n      dup4\n        /* \"#utility.yul\":19837:19904   */\n      tag_286\n      jump\t// in\n    tag_558:\n        /* \"#utility.yul\":19830:19904   */\n      swap2\n      pop\n        /* \"#utility.yul\":19913:20006   */\n      tag_559\n        /* \"#utility.yul\":20002:20005   */\n      dup3\n        /* \"#utility.yul\":19913:20006   */\n      tag_321\n      jump\t// in\n    tag_559:\n        /* \"#utility.yul\":20031:20033   */\n      0x20\n        /* \"#utility.yul\":20026:20029   */\n      dup3\n        /* \"#utility.yul\":20022:20034   */\n      add\n        /* \"#utility.yul\":20015:20034   */\n      swap1\n      pop\n        /* \"#utility.yul\":19674:20040   */\n      swap2\n      swap1\n      pop\n      jump\t// out\n        /* \"#utility.yul\":20046:20465   */\n    tag_84:\n        /* \"#utility.yul\":20212:20216   */\n      0x00\n        /* \"#utility.yul\":20250:20252   */\n      0x20\n        /* \"#utility.yul\":20239:20248   */\n      dup3\n        /* \"#utility.yul\":20235:20253   */\n      add\n        /* \"#utility.yul\":20227:20253   */\n      swap1\n      pop\n        /* \"#utility.yul\":20299:20308   */\n      dup2\n        /* \"#utility.yul\":20293:20297   */\n      dup2\n        /* \"#utility.yul\":20289:20309   */\n      sub\n        /* \"#utility.yul\":20285:20286   */\n      0x00\n        /* \"#utility.yul\":20274:20283   */\n      dup4\n        /* \"#utility.yul\":20270:20287   */\n      add\n        /* \"#utility.yul\":20263:20310   */\n      mstore\n        /* \"#utility.yul\":20327:20458   */\n      tag_561\n        /* \"#utility.yul\":20453:20457   */\n      dup2\n        /* \"#utility.yul\":20327:20458   */\n      tag_322\n      jump\t// in\n    tag_561:\n        /* \"#utility.yul\":20319:20458   */\n      swap1\n      pop\n        /* \"#utility.yul\":20046:20465   */\n      swap2\n      swap1\n      pop\n      jump\t// out\n        /* \"#utility.yul\":20471:20645   */\n    tag_323:\n        /* \"#utility.yul\":20611:20637   */\n      0x5a65726f2061646472657373206e6f7420616c6c6f7765640000000000000000\n        /* \"#utility.yul\":20607:20608   */\n      0x00\n        /* \"#utility.yul\":20599:20605   */\n      dup3\n        /* \"#utility.yul\":20595:20609   */\n      add\n        /* \"#utility.yul\":20588:20638   */\n      mstore\n        /* \"#utility.yul\":20471:20645   */\n      pop\n      jump\t// out\n        /* \"#utility.yul\":20651:21017   */\n    tag_324:\n        /* \"#utility.yul\":20793:20796   */\n      0x00\n        /* \"#utility.yul\":20814:20881   */\n      tag_564\n        /* \"#utility.yul\":20878:20880   */\n      0x18\n        /* \"#utility.yul\":20873:20876   */\n      dup4\n        /* \"#utility.yul\":20814:20881   */\n      tag_286\n      jump\t// in\n    tag_564:\n        /* \"#utility.yul\":20807:20881   */\n      swap2\n      pop\n        /* \"#utility.yul\":20890:20983   */\n      tag_565\n        /* \"#utility.yul\":20979:20982   */\n      dup3\n        /* \"#utility.yul\":20890:20983   */\n      tag_323\n      jump\t// in\n    tag_565:\n        /* \"#utility.yul\":21008:21010   */\n      0x20\n        /* \"#utility.yul\":21003:21006   */\n      dup3\n        /* \"#utility.yul\":20999:21011   */\n      add\n        /* \"#utility.yul\":20992:21011   */\n      swap1\n      pop\n        /* \"#utility.yul\":20651:21017   */\n      swap2\n      swap1\n      pop\n      jump\t// out\n        /* \"#utility.yul\":21023:21442   */\n    tag_88:\n        /* \"#utility.yul\":21189:21193   */\n      0x00\n        /* \"#utility.yul\":21227:21229   */\n      0x20\n        /* \"#utility.yul\":21216:21225   */\n      dup3\n        /* \"#utility.yul\":21212:21230   */\n      add\n        /* \"#utility.yul\":21204:21230   */\n      swap1\n      pop\n        /* \"#utility.yul\":21276:21285   */\n      dup2\n        /* \"#utility.yul\":21270:21274   */\n      dup2\n        /* \"#utility.yul\":21266:21286   */\n      sub\n        /* \"#utility.yul\":21262:21263   */\n      0x00\n        /* \"#utility.yul\":21251:21260   */\n      dup4\n        /* \"#utility.yul\":21247:21264   */\n      add\n        /* \"#utility.yul\":21240:21287   */\n      mstore\n        /* \"#utility.yul\":21304:21435   */\n      tag_567\n        /* \"#utility.yul\":21430:21434   */\n      dup2\n        /* \"#utility.yul\":21304:21435   */\n      tag_324\n      jump\t// in\n    tag_567:\n        /* \"#utility.yul\":21296:21435   */\n      swap1\n      pop\n        /* \"#utility.yul\":21023:21442   */\n      swap2\n      swap1\n      pop\n      jump\t// out\n        /* \"#utility.yul\":21448:21617   */\n    tag_325:\n        /* \"#utility.yul\":21588:21609   */\n      0x526f6c652063616e6e6f74206265204e6f6e6500000000000000000000000000\n        /* \"#utility.yul\":21584:21585   */\n      0x00\n        /* \"#utility.yul\":21576:21582   */\n      dup3\n        /* \"#utility.yul\":21572:21586   */\n      add\n        /* \"#utility.yul\":21565:21610   */\n      mstore\n        /* \"#utility.yul\":21448:21617   */\n      pop\n      jump\t// out\n        /* \"#utility.yul\":21623:21989   */\n    tag_326:\n        /* \"#utility.yul\":21765:21768   */\n      0x00\n        /* \"#utility.yul\":21786:21853   */\n      tag_570\n        /* \"#utility.yul\":21850:21852   */\n      0x13\n        /* \"#utility.yul\":21845:21848   */\n      dup4\n        /* \"#utility.yul\":21786:21853   */\n      tag_286\n      jump\t// in\n    tag_570:\n        /* \"#utility.yul\":21779:21853   */\n      swap2\n      pop\n        /* \"#utility.yul\":21862:21955   */\n      tag_571\n        /* \"#utility.yul\":21951:21954   */\n      dup3\n        /* \"#utility.yul\":21862:21955   */\n      tag_325\n      jump\t// in\n    tag_571:\n        /* \"#utility.yul\":21980:21982   */\n      0x20\n        /* \"#utility.yul\":21975:21978   */\n      dup3\n        /* \"#utility.yul\":21971:21983   */\n      add\n        /* \"#utility.yul\":21964:21983   */\n      swap1\n      pop\n        /* \"#utility.yul\":21623:21989   */\n      swap2\n      swap1\n      pop\n      jump\t// out\n        /* \"#utility.yul\":21995:22414   */\n    tag_95:\n        /* \"#utility.yul\":22161:22165   */\n      0x00\n        /* \"#utility.yul\":22199:22201   */\n      0x20\n        /* \"#utility.yul\":22188:22197   */\n      dup3\n        /* \"#utility.yul\":22184:22202   */\n      add\n        /* \"#utility.yul\":22176:22202   */\n      swap1\n      pop\n        /* \"#utility.yul\":22248:22257   */\n      dup2\n        /* \"#utility.yul\":22242:22246   */\n      dup2\n        /* \"#utility.yul\":22238:22258   */\n      sub\n        /* \"#utility.yul\":22234:22235   */\n      0x00\n        /* \"#utility.yul\":22223:22232   */\n      dup4\n        /* \"#utility.yul\":22219:22236   */\n      add\n        /* \"#utility.yul\":22212:22259   */\n      mstore\n        /* \"#utility.yul\":22276:22407   */\n      tag_573\n        /* \"#utility.yul\":22402:22406   */\n      dup2\n        /* \"#utility.yul\":22276:22407   */\n      tag_326\n      jump\t// in\n    tag_573:\n        /* \"#utility.yul\":22268:22407   */\n      swap1\n      pop\n        /* \"#utility.yul\":21995:22414   */\n      swap2\n      swap1\n      pop\n      jump\t// out\n        /* \"#utility.yul\":22420:22594   */\n    tag_327:\n        /* \"#utility.yul\":22560:22586   */\n      0x43616e6e6f742061737369676e2041646d696e20726f6c650000000000000000\n        /* \"#utility.yul\":22556:22557   */\n      0x00\n        /* \"#utility.yul\":22548:22554   */\n      dup3\n        /* \"#utility.yul\":22544:22558   */\n      add\n        /* \"#utility.yul\":22537:22587   */\n      mstore\n        /* \"#utility.yul\":22420:22594   */\n      pop\n      jump\t// out\n        /* \"#utility.yul\":22600:22966   */\n    tag_328:\n        /* \"#utility.yul\":22742:22745   */\n      0x00\n        /* \"#utility.yul\":22763:22830   */\n      tag_576\n        /* \"#utility.yul\":22827:22829   */\n      0x18\n        /* \"#utility.yul\":22822:22825   */\n      dup4\n        /* \"#utility.yul\":22763:22830   */\n      tag_286\n      jump\t// in\n    tag_576:\n        /* \"#utility.yul\":22756:22830   */\n      swap2\n      pop\n        /* \"#utility.yul\":22839:22932   */\n      tag_577\n        /* \"#utility.yul\":22928:22931   */\n      dup3\n        /* \"#utility.yul\":22839:22932   */\n      tag_327\n      jump\t// in\n    tag_577:\n        /* \"#utility.yul\":22957:22959   */\n      0x20\n        /* \"#utility.yul\":22952:22955   */\n      dup3\n        /* \"#utility.yul\":22948:22960   */\n      add\n        /* \"#utility.yul\":22941:22960   */\n      swap1\n      pop\n        /* \"#utility.yul\":22600:22966   */\n      swap2\n      swap1\n      pop\n      jump\t// out\n        /* \"#utility.yul\":22972:23391   */\n    tag_102:\n        /* \"#utility.yul\":23138:23142   */\n      0x00\n        /* \"#utility.yul\":23176:23178   */\n      0x20\n        /* \"#utility.yul\":23165:23174   */\n      dup3\n        /* \"#utility.yul\":23161:23179   */\n      add\n        /* \"#utility.yul\":23153:23179   */\n      swap1\n      pop\n        /* \"#utility.yul\":23225:23234   */\n      dup2\n        /* \"#utility.yul\":23219:23223   */\n      dup2\n        /* \"#utility.yul\":23215:23235   */\n      sub\n        /* \"#utility.yul\":23211:23212   */\n      0x00\n        /* \"#utility.yul\":23200:23209   */\n      dup4\n        /* \"#utility.yul\":23196:23213   */\n      add\n        /* \"#utility.yul\":23189:23236   */\n      mstore\n        /* \"#utility.yul\":23253:23384   */\n      tag_579\n        /* \"#utility.yul\":23379:23383   */\n      dup2\n        /* \"#utility.yul\":23253:23384   */\n      tag_328\n      jump\t// in\n    tag_579:\n        /* \"#utility.yul\":23245:23384   */\n      swap1\n      pop\n        /* \"#utility.yul\":22972:23391   */\n      swap2\n      swap1\n      pop\n      jump\t// out\n        /* \"#utility.yul\":23397:23575   */\n    tag_329:\n        /* \"#utility.yul\":23537:23567   */\n      0x496e76616c696420726f6c6520666f72207468697320616374696f6e00000000\n        /* \"#utility.yul\":23533:23534   */\n      0x00\n        /* \"#utility.yul\":23525:23531   */\n      dup3\n        /* \"#utility.yul\":23521:23535   */\n      add\n        /* \"#utility.yul\":23514:23568   */\n      mstore\n        /* \"#utility.yul\":23397:23575   */\n      pop\n      jump\t// out\n        /* \"#utility.yul\":23581:23947   */\n    tag_330:\n        /* \"#utility.yul\":23723:23726   */\n      0x00\n        /* \"#utility.yul\":23744:23811   */\n      tag_582\n        /* \"#utility.yul\":23808:23810   */\n      0x1c\n        /* \"#utility.yul\":23803:23806   */\n      dup4\n        /* \"#utility.yul\":23744:23811   */\n      tag_286\n      jump\t// in\n    tag_582:\n        /* \"#utility.yul\":23737:23811   */\n      swap2\n      pop\n        /* \"#utility.yul\":23820:23913   */\n      tag_583\n        /* \"#utility.yul\":23909:23912   */\n      dup3\n        /* \"#utility.yul\":23820:23913   */\n      tag_329\n      jump\t// in\n    tag_583:\n        /* \"#utility.yul\":23938:23940   */\n      0x20\n        /* \"#utility.yul\":23933:23936   */\n      dup3\n        /* \"#utility.yul\":23929:23941   */\n      add\n        /* \"#utility.yul\":23922:23941   */\n      swap1\n      pop\n        /* \"#utility.yul\":23581:23947   */\n      swap2\n      swap1\n      pop\n      jump\t// out\n        /* \"#utility.yul\":23953:24372   */\n    tag_113:\n        /* \"#utility.yul\":24119:24123   */\n      0x00\n        /* \"#utility.yul\":24157:24159   */\n      0x20\n        /* \"#utility.yul\":24146:24155   */\n      dup3\n        /* \"#utility.yul\":24142:24160   */\n      add\n        /* \"#utility.yul\":24134:24160   */\n      swap1\n      pop\n        /* \"#utility.yul\":24206:24215   */\n      dup2\n        /* \"#utility.yul\":24200:24204   */\n      dup2\n        /* \"#utility.yul\":24196:24216   */\n      sub\n        /* \"#utility.yul\":24192:24193   */\n      0x00\n        /* \"#utility.yul\":24181:24190   */\n      dup4\n        /* \"#utility.yul\":24177:24194   */\n      add\n        /* \"#utility.yul\":24170:24217   */\n      mstore\n        /* \"#utility.yul\":24234:24365   */\n      tag_585\n        /* \"#utility.yul\":24360:24364   */\n      dup2\n        /* \"#utility.yul\":24234:24365   */\n      tag_330\n      jump\t// in\n    tag_585:\n        /* \"#utility.yul\":24226:24365   */\n      swap1\n      pop\n        /* \"#utility.yul\":23953:24372   */\n      swap2\n      swap1\n      pop\n      jump\t// out\n        /* \"#utility.yul\":24378:24544   */\n    tag_331:\n        /* \"#utility.yul\":24518:24536   */\n      0x6261746368496420726571756972656400000000000000000000000000000000\n        /* \"#utility.yul\":24514:24515   */\n      0x00\n        /* \"#utility.yul\":24506:24512   */\n      dup3\n        /* \"#utility.yul\":24502:24516   */\n      add\n        /* \"#utility.yul\":24495:24537   */\n      mstore\n        /* \"#utility.yul\":24378:24544   */\n      pop\n      jump\t// out\n        /* \"#utility.yul\":24550:24916   */\n    tag_332:\n        /* \"#utility.yul\":24692:24695   */\n      0x00\n        /* \"#utility.yul\":24713:24780   */\n      tag_588\n        /* \"#utility.yul\":24777:24779   */\n      0x10\n        /* \"#utility.yul\":24772:24775   */\n      dup4\n        /* \"#utility.yul\":24713:24780   */\n      tag_286\n      jump\t// in\n    tag_588:\n        /* \"#utility.yul\":24706:24780   */\n      swap2\n      pop\n        /* \"#utility.yul\":24789:24882   */\n      tag_589\n        /* \"#utility.yul\":24878:24881   */\n      dup3\n        /* \"#utility.yul\":24789:24882   */\n      tag_331\n      jump\t// in\n    tag_589:\n        /* \"#utility.yul\":24907:24909   */\n      0x20\n        /* \"#utility.yul\":24902:24905   */\n      dup3\n        /* \"#utility.yul\":24898:24910   */\n      add\n        /* \"#utility.yul\":24891:24910   */\n      swap1\n      pop\n        /* \"#utility.yul\":24550:24916   */\n      swap2\n      swap1\n      pop\n      jump\t// out\n        /* \"#utility.yul\":24922:25341   */\n    tag_117:\n        /* \"#utility.yul\":25088:25092   */\n      0x00\n        /* \"#utility.yul\":25126:25128   */\n      0x20\n        /* \"#utility.yul\":25115:25124   */\n      dup3\n        /* \"#utility.yul\":25111:25129   */\n      add\n        /* \"#utility.yul\":25103:25129   */\n      swap1\n      pop\n        /* \"#utility.yul\":25175:25184   */\n      dup2\n        /* \"#utility.yul\":25169:25173   */\n      dup2\n        /* \"#utility.yul\":25165:25185   */\n      sub\n        /* \"#utility.yul\":25161:25162   */\n      0x00\n        /* \"#utility.yul\":25150:25159   */\n      dup4\n        /* \"#utility.yul\":25146:25163   */\n      add\n        /* \"#utility.yul\":25139:25186   */\n      mstore\n        /* \"#utility.yul\":25203:25334   */\n      tag_591\n        /* \"#utility.yul\":25329:25333   */\n      dup2\n        /* \"#utility.yul\":25203:25334   */\n      tag_332\n      jump\t// in\n    tag_591:\n        /* \"#utility.yul\":25195:25334   */\n      swap1\n      pop\n        /* \"#utility.yul\":24922:25341   */\n      swap2\n      swap1\n      pop\n      jump\t// out\n        /* \"#utility.yul\":25347:25517   */\n    tag_333:\n        /* \"#utility.yul\":25487:25509   */\n      0x70726f647563744e616d65207265717569726564000000000000000000000000\n        /* \"#utility.yul\":25483:25484   */\n      0x00\n        /* \"#utility.yul\":25475:25481   */\n      dup3\n        /* \"#utility.yul\":25471:25485   */\n      add\n        /* \"#utility.yul\":25464:25510   */\n      mstore\n        /* \"#utility.yul\":25347:25517   */\n      pop\n      jump\t// out\n        /* \"#utility.yul\":25523:25889   */\n    tag_334:\n        /* \"#utility.yul\":25665:25668   */\n      0x00\n        /* \"#utility.yul\":25686:25753   */\n      tag_594\n        /* \"#utility.yul\":25750:25752   */\n      0x14\n        /* \"#utility.yul\":25745:25748   */\n      dup4\n        /* \"#utility.yul\":25686:25753   */\n      tag_286\n      jump\t// in\n    tag_594:\n        /* \"#utility.yul\":25679:25753   */\n      swap2\n      pop\n        /* \"#utility.yul\":25762:25855   */\n      tag_595\n        /* \"#utility.yul\":25851:25854   */\n      dup3\n        /* \"#utility.yul\":25762:25855   */\n      tag_333\n      jump\t// in\n    tag_595:\n        /* \"#utility.yul\":25880:25882   */\n      0x20\n        /* \"#utility.yul\":25875:25878   */\n      dup3\n        /* \"#utility.yul\":25871:25883   */\n      add\n        /* \"#utility.yul\":25864:25883   */\n      swap1\n      pop\n        /* \"#utility.yul\":25523:25889   */\n      swap2\n      swap1\n      pop\n      jump\t// out\n        /* \"#utility.yul\":25895:26314   */\n    tag_120:\n        /* \"#utility.yul\":26061:26065   */\n      0x00\n        /* \"#utility.yul\":26099:26101   */\n      0x20\n        /* \"#utility.yul\":26088:26097   */\n      dup3\n        /* \"#utility.yul\":26084:26102   */\n      add\n        /* \"#utility.yul\":26076:26102   */\n      swap1\n      pop\n        /* \"#utility.yul\":26148:26157   */\n      dup2\n        /* \"#utility.yul\":26142:26146   */\n      dup2\n        /* \"#utility.yul\":26138:26158   */\n      sub\n        /* \"#utility.yul\":26134:26135   */\n      0x00\n        /* \"#utility.yul\":26123:26132   */\n      dup4\n        /* \"#utility.yul\":26119:26136   */\n      add\n        /* \"#utility.yul\":26112:26159   */\n      mstore\n        /* \"#utility.yul\":26176:26307   */\n      tag_597\n        /* \"#utility.yul\":26302:26306   */\n      dup2\n        /* \"#utility.yul\":26176:26307   */\n      tag_334\n      jump\t// in\n    tag_597:\n        /* \"#utility.yul\":26168:26307   */\n      swap1\n      pop\n        /* \"#utility.yul\":25895:26314   */\n      swap2\n      swap1\n      pop\n      jump\t// out\n        /* \"#utility.yul\":26320:26487   */\n    tag_335:\n        /* \"#utility.yul\":26460:26479   */\n      0x4475706c69636174652062617463684964000000000000000000000000000000\n        /* \"#utility.yul\":26456:26457   */\n      0x00\n        /* \"#utility.yul\":26448:26454   */\n      dup3\n        /* \"#utility.yul\":26444:26458   */\n      add\n        /* \"#utility.yul\":26437:26480   */\n      mstore\n        /* \"#utility.yul\":26320:26487   */\n      pop\n      jump\t// out\n        /* \"#utility.yul\":26493:26859   */\n    tag_336:\n        /* \"#utility.yul\":26635:26638   */\n      0x00\n        /* \"#utility.yul\":26656:26723   */\n      tag_600\n        /* \"#utility.yul\":26720:26722   */\n      0x11\n        /* \"#utility.yul\":26715:26718   */\n      dup4\n        /* \"#utility.yul\":26656:26723   */\n      tag_286\n      jump\t// in\n    tag_600:\n        /* \"#utility.yul\":26649:26723   */\n      swap2\n      pop\n        /* \"#utility.yul\":26732:26825   */\n      tag_601\n        /* \"#utility.yul\":26821:26824   */\n      dup3\n        /* \"#utility.yul\":26732:26825   */\n      tag_335\n      jump\t// in\n    tag_601:\n        /* \"#utility.yul\":26850:26852   */\n      0x20\n        /* \"#utility.yul\":26845:26848   */\n      dup3\n        /* \"#utility.yul\":26841:26853   */\n      add\n        /* \"#utility.yul\":26834:26853   */\n      swap1\n      pop\n        /* \"#utility.yul\":26493:26859   */\n      swap2\n      swap1\n      pop\n      jump\t// out\n        /* \"#utility.yul\":26865:27284   */\n    tag_124:\n        /* \"#utility.yul\":27031:27035   */\n      0x00\n        /* \"#utility.yul\":27069:27071   */\n      0x20\n        /* \"#utility.yul\":27058:27067   */\n      dup3\n        /* \"#utility.yul\":27054:27072   */\n      add\n        /* \"#utility.yul\":27046:27072   */\n      swap1\n      pop\n        /* \"#utility.yul\":27118:27127   */\n      dup2\n        /* \"#utility.yul\":27112:27116   */\n      dup2\n        /* \"#utility.yul\":27108:27128   */\n      sub\n        /* \"#utility.yul\":27104:27105   */\n      0x00\n        /* \"#utility.yul\":27093:27102   */\n      dup4\n        /* \"#utility.yul\":27089:27106   */\n      add\n        /* \"#utility.yul\":27082:27129   */\n      mstore\n        /* \"#utility.yul\":27146:27277   */\n      tag_603\n        /* \"#utility.yul\":27272:27276   */\n      dup2\n        /* \"#utility.yul\":27146:27277   */\n      tag_336\n      jump\t// in\n    tag_603:\n        /* \"#utility.yul\":27138:27277   */\n      swap1\n      pop\n        /* \"#utility.yul\":26865:27284   */\n      swap2\n      swap1\n      pop\n      jump\t// out\n        /* \"#utility.yul\":27290:28685   */\n    tag_127:\n        /* \"#utility.yul\":27407:27444   */\n      tag_605\n        /* \"#utility.yul\":27440:27443   */\n      dup3\n        /* \"#utility.yul\":27407:27444   */\n      tag_285\n      jump\t// in\n    tag_605:\n        /* \"#utility.yul\":27509:27527   */\n      0xffffffffffffffff\n        /* \"#utility.yul\":27501:27507   */\n      dup2\n        /* \"#utility.yul\":27498:27528   */\n      gt\n        /* \"#utility.yul\":27495:27551   */\n      iszero\n      tag_606\n      jumpi\n        /* \"#utility.yul\":27531:27549   */\n      tag_607\n      tag_303\n      jump\t// in\n    tag_607:\n        /* \"#utility.yul\":27495:27551   */\n    tag_606:\n        /* \"#utility.yul\":27575:27613   */\n      tag_608\n        /* \"#utility.yul\":27607:27611   */\n      dup3\n        /* \"#utility.yul\":27601:27612   */\n      sload\n        /* \"#utility.yul\":27575:27613   */\n      tag_245\n      jump\t// in\n    tag_608:\n        /* \"#utility.yul\":27660:27727   */\n      tag_609\n        /* \"#utility.yul\":27720:27726   */\n      dup3\n        /* \"#utility.yul\":27712:27718   */\n      dup3\n        /* \"#utility.yul\":27706:27710   */\n      dup6\n        /* \"#utility.yul\":27660:27727   */\n      tag_316\n      jump\t// in\n    tag_609:\n        /* \"#utility.yul\":27754:27755   */\n      0x00\n        /* \"#utility.yul\":27778:27782   */\n      0x20\n        /* \"#utility.yul\":27765:27782   */\n      swap1\n      pop\n        /* \"#utility.yul\":27810:27812   */\n      0x1f\n        /* \"#utility.yul\":27802:27808   */\n      dup4\n        /* \"#utility.yul\":27799:27813   */\n      gt\n        /* \"#utility.yul\":27827:27828   */\n      0x01\n        /* \"#utility.yul\":27822:28440   */\n      dup2\n      eq\n      tag_611\n      jumpi\n        /* \"#utility.yul\":28484:28485   */\n      0x00\n        /* \"#utility.yul\":28501:28507   */\n      dup5\n        /* \"#utility.yul\":28498:28575   */\n      iszero\n      tag_612\n      jumpi\n        /* \"#utility.yul\":28550:28559   */\n      dup3\n        /* \"#utility.yul\":28545:28548   */\n      dup8\n        /* \"#utility.yul\":28541:28560   */\n      add\n        /* \"#utility.yul\":28535:28561   */\n      mload\n        /* \"#utility.yul\":28526:28561   */\n      swap1\n      pop\n        /* \"#utility.yul\":28498:28575   */\n    tag_612:\n        /* \"#utility.yul\":28601:28668   */\n      tag_613\n        /* \"#utility.yul\":28661:28667   */\n      dup6\n        /* \"#utility.yul\":28654:28659   */\n      dup3\n        /* \"#utility.yul\":28601:28668   */\n      tag_319\n      jump\t// in\n    tag_613:\n        /* \"#utility.yul\":28595:28599   */\n      dup7\n        /* \"#utility.yul\":28588:28669   */\n      sstore\n        /* \"#utility.yul\":28457:28679   */\n      pop\n        /* \"#utility.yul\":27792:28679   */\n      jump(tag_610)\n        /* \"#utility.yul\":27822:28440   */\n    tag_611:\n        /* \"#utility.yul\":27874:27878   */\n      0x1f\n        /* \"#utility.yul\":27870:27879   */\n      not\n        /* \"#utility.yul\":27862:27868   */\n      dup5\n        /* \"#utility.yul\":27858:27880   */\n      and\n        /* \"#utility.yul\":27908:27945   */\n      tag_614\n        /* \"#utility.yul\":27940:27944   */\n      dup7\n        /* \"#utility.yul\":27908:27945   */\n      tag_305\n      jump\t// in\n    tag_614:\n        /* \"#utility.yul\":27967:27968   */\n      0x00\n        /* \"#utility.yul\":27981:28189   */\n    tag_615:\n        /* \"#utility.yul\":27995:28002   */\n      dup3\n        /* \"#utility.yul\":27992:27993   */\n      dup2\n        /* \"#utility.yul\":27989:28003   */\n      lt\n        /* \"#utility.yul\":27981:28189   */\n      iszero\n      tag_617\n      jumpi\n        /* \"#utility.yul\":28074:28083   */\n      dup5\n        /* \"#utility.yul\":28069:28072   */\n      dup10\n        /* \"#utility.yul\":28065:28084   */\n      add\n        /* \"#utility.yul\":28059:28085   */\n      mload\n        /* \"#utility.yul\":28051:28057   */\n      dup3\n        /* \"#utility.yul\":28044:28086   */\n      sstore\n        /* \"#utility.yul\":28125:28126   */\n      0x01\n        /* \"#utility.yul\":28117:28123   */\n      dup3\n        /* \"#utility.yul\":28113:28127   */\n      add\n        /* \"#utility.yul\":28103:28127   */\n      swap2\n      pop\n        /* \"#utility.yul\":28172:28174   */\n      0x20\n        /* \"#utility.yul\":28161:28170   */\n      dup6\n        /* \"#utility.yul\":28157:28175   */\n      add\n        /* \"#utility.yul\":28144:28175   */\n      swap5\n      pop\n        /* \"#utility.yul\":28018:28022   */\n      0x20\n        /* \"#utility.yul\":28015:28016   */\n      dup2\n        /* \"#utility.yul\":28011:28023   */\n      add\n        /* \"#utility.yul\":28006:28023   */\n      swap1\n      pop\n        /* \"#utility.yul\":27981:28189   */\n      jump(tag_615)\n    tag_617:\n        /* \"#utility.yul\":28217:28223   */\n      dup7\n        /* \"#utility.yul\":28208:28215   */\n      dup4\n        /* \"#utility.yul\":28205:28224   */\n      lt\n        /* \"#utility.yul\":28202:28381   */\n      iszero\n      tag_618\n      jumpi\n        /* \"#utility.yul\":28275:28284   */\n      dup5\n        /* \"#utility.yul\":28270:28273   */\n      dup10\n        /* \"#utility.yul\":28266:28285   */\n      add\n        /* \"#utility.yul\":28260:28286   */\n      mload\n        /* \"#utility.yul\":28318:28366   */\n      tag_619\n        /* \"#utility.yul\":28360:28364   */\n      0x1f\n        /* \"#utility.yul\":28352:28358   */\n      dup10\n        /* \"#utility.yul\":28348:28365   */\n      and\n        /* \"#utility.yul\":28337:28346   */\n      dup3\n        /* \"#utility.yul\":28318:28366   */\n      tag_318\n      jump\t// in\n    tag_619:\n        /* \"#utility.yul\":28310:28316   */\n      dup4\n        /* \"#utility.yul\":28303:28367   */\n      sstore\n        /* \"#utility.yul\":28225:28381   */\n      pop\n        /* \"#utility.yul\":28202:28381   */\n    tag_618:\n        /* \"#utility.yul\":28427:28428   */\n      0x01\n        /* \"#utility.yul\":28423:28424   */\n      0x02\n        /* \"#utility.yul\":28415:28421   */\n      dup9\n        /* \"#utility.yul\":28411:28425   */\n      mul\n        /* \"#utility.yul\":28407:28429   */\n      add\n        /* \"#utility.yul\":28401:28405   */\n      dup9\n        /* \"#utility.yul\":28394:28430   */\n      sstore\n        /* \"#utility.yul\":27829:28440   */\n      pop\n      pop\n      pop\n        /* \"#utility.yul\":27792:28679   */\n    tag_610:\n      pop\n        /* \"#utility.yul\":27382:28685   */\n      pop\n      pop\n      pop\n        /* \"#utility.yul\":27290:28685   */\n      pop\n      pop\n      jump\t// out\n        /* \"#utility.yul\":28691:28849   */\n    tag_337:\n        /* \"#utility.yul\":28831:28841   */\n      0x50726f6475636564000000000000000000000000000000000000000000000000\n        /* \"#utility.yul\":28827:28828   */\n      0x00\n        /* \"#utility.yul\":28819:28825   */\n      dup3\n        /* \"#utility.yul\":28815:28829   */\n      add\n        /* \"#utility.yul\":28808:28842   */\n      mstore\n        /* \"#utility.yul\":28691:28849   */\n      pop\n      jump\t// out\n        /* \"#utility.yul\":28855:29220   */\n    tag_338:\n        /* \"#utility.yul\":28997:29000   */\n      0x00\n        /* \"#utility.yul\":29018:29084   */\n      tag_622\n        /* \"#utility.yul\":29082:29083   */\n      0x08\n        /* \"#utility.yul\":29077:29080   */\n      dup4\n        /* \"#utility.yul\":29018:29084   */\n      tag_286\n      jump\t// in\n    tag_622:\n        /* \"#utility.yul\":29011:29084   */\n      swap2\n      pop\n        /* \"#utility.yul\":29093:29186   */\n      tag_623\n        /* \"#utility.yul\":29182:29185   */\n      dup3\n        /* \"#utility.yul\":29093:29186   */\n      tag_337\n      jump\t// in\n    tag_623:\n        /* \"#utility.yul\":29211:29213   */\n      0x20\n        /* \"#utility.yul\":29206:29209   */\n      dup3\n        /* \"#utility.yul\":29202:29214   */\n      add\n        /* \"#utility.yul\":29195:29214   */\n      swap1\n      pop\n        /* \"#utility.yul\":28855:29220   */\n      swap2\n      swap1\n      pop\n      jump\t// out\n        /* \"#utility.yul\":29226:29645   */\n    tag_135:\n        /* \"#utility.yul\":29392:29396   */\n      0x00\n        /* \"#utility.yul\":29430:29432   */\n      0x20\n        /* \"#utility.yul\":29419:29428   */\n      dup3\n        /* \"#utility.yul\":29415:29433   */\n      add\n        /* \"#utility.yul\":29407:29433   */\n      swap1\n      pop\n        /* \"#utility.yul\":29479:29488   */\n      dup2\n        /* \"#utility.yul\":29473:29477   */\n      dup2\n        /* \"#utility.yul\":29469:29489   */\n      sub\n        /* \"#utility.yul\":29465:29466   */\n      0x00\n        /* \"#utility.yul\":29454:29463   */\n      dup4\n        /* \"#utility.yul\":29450:29467   */\n      add\n        /* \"#utility.yul\":29443:29490   */\n      mstore\n        /* \"#utility.yul\":29507:29638   */\n      tag_625\n        /* \"#utility.yul\":29633:29637   */\n      dup2\n        /* \"#utility.yul\":29507:29638   */\n      tag_338\n      jump\t// in\n    tag_625:\n        /* \"#utility.yul\":29499:29638   */\n      swap1\n      pop\n        /* \"#utility.yul\":29226:29645   */\n      swap2\n      swap1\n      pop\n      jump\t// out\n        /* \"#utility.yul\":29651:29818   */\n    tag_339:\n        /* \"#utility.yul\":29791:29810   */\n      0x4e6f742063757272656e74206f776e6572000000000000000000000000000000\n        /* \"#utility.yul\":29787:29788   */\n      0x00\n        /* \"#utility.yul\":29779:29785   */\n      dup3\n        /* \"#utility.yul\":29775:29789   */\n      add\n        /* \"#utility.yul\":29768:29811   */\n      mstore\n        /* \"#utility.yul\":29651:29818   */\n      pop\n      jump\t// out\n        /* \"#utility.yul\":29824:30190   */\n    tag_340:\n        /* \"#utility.yul\":29966:29969   */\n      0x00\n        /* \"#utility.yul\":29987:30054   */\n      tag_628\n        /* \"#utility.yul\":30051:30053   */\n      0x11\n        /* \"#utility.yul\":30046:30049   */\n      dup4\n        /* \"#utility.yul\":29987:30054   */\n      tag_286\n      jump\t// in\n    tag_628:\n        /* \"#utility.yul\":29980:30054   */\n      swap2\n      pop\n        /* \"#utility.yul\":30063:30156   */\n      tag_629\n        /* \"#utility.yul\":30152:30155   */\n      dup3\n        /* \"#utility.yul\":30063:30156   */\n      tag_339\n      jump\t// in\n    tag_629:\n        /* \"#utility.yul\":30181:30183   */\n      0x20\n        /* \"#utility.yul\":30176:30179   */\n      dup3\n        /* \"#utility.yul\":30172:30184   */\n      add\n        /* \"#utility.yul\":30165:30184   */\n      swap1\n      pop\n        /* \"#utility.yul\":29824:30190   */\n      swap2\n      swap1\n      pop\n      jump\t// out\n        /* \"#utility.yul\":30196:30615   */\n    tag_144:\n        /* \"#utility.yul\":30362:30366   */\n      0x00\n        /* \"#utility.yul\":30400:30402   */\n      0x20\n        /* \"#utility.yul\":30389:30398   */\n      dup3\n        /* \"#utility.yul\":30385:30403   */\n      add\n        /* \"#utility.yul\":30377:30403   */\n      swap1\n      pop\n        /* \"#utility.yul\":30449:30458   */\n      dup2\n        /* \"#utility.yul\":30443:30447   */\n      dup2\n        /* \"#utility.yul\":30439:30459   */\n      sub\n        /* \"#utility.yul\":30435:30436   */\n      0x00\n        /* \"#utility.yul\":30424:30433   */\n      dup4\n        /* \"#utility.yul\":30420:30437   */\n      add\n        /* \"#utility.yul\":30413:30460   */\n      mstore\n        /* \"#utility.yul\":30477:30608   */\n      tag_631\n        /* \"#utility.yul\":30603:30607   */\n      dup2\n        /* \"#utility.yul\":30477:30608   */\n      tag_340\n      jump\t// in\n    tag_631:\n        /* \"#utility.yul\":30469:30608   */\n      swap1\n      pop\n        /* \"#utility.yul\":30196:30615   */\n      swap2\n      swap1\n      pop\n      jump\t// out\n        /* \"#utility.yul\":30621:30783   */\n    tag_341:\n        /* \"#utility.yul\":30761:30775   */\n      0x5a65726f20616464726573730000000000000000000000000000000000000000\n        /* \"#utility.yul\":30757:30758   */\n      0x00\n        /* \"#utility.yul\":30749:30755   */\n      dup3\n        /* \"#utility.yul\":30745:30759   */\n      add\n        /* \"#utility.yul\":30738:30776   */\n      mstore\n        /* \"#utility.yul\":30621:30783   */\n      pop\n      jump\t// out\n        /* \"#utility.yul\":30789:31155   */\n    tag_342:\n        /* \"#utility.yul\":30931:30934   */\n      0x00\n        /* \"#utility.yul\":30952:31019   */\n      tag_634\n        /* \"#utility.yul\":31016:31018   */\n      0x0c\n        /* \"#utility.yul\":31011:31014   */\n      dup4\n        /* \"#utility.yul\":30952:31019   */\n      tag_286\n      jump\t// in\n    tag_634:\n        /* \"#utility.yul\":30945:31019   */\n      swap2\n      pop\n        /* \"#utility.yul\":31028:31121   */\n      tag_635\n        /* \"#utility.yul\":31117:31120   */\n      dup3\n        /* \"#utility.yul\":31028:31121   */\n      tag_341\n      jump\t// in\n    tag_635:\n        /* \"#utility.yul\":31146:31148   */\n      0x20\n        /* \"#utility.yul\":31141:31144   */\n      dup3\n        /* \"#utility.yul\":31137:31149   */\n      add\n        /* \"#utility.yul\":31130:31149   */\n      swap1\n      pop\n        /* \"#utility.yul\":30789:31155   */\n      swap2\n      swap1\n      pop\n      jump\t// out\n        /* \"#utility.yul\":31161:31580   */\n    tag_148:\n        /* \"#utility.yul\":31327:31331   */\n      0x00\n        /* \"#utility.yul\":31365:31367   */\n      0x20\n        /* \"#utility.yul\":31354:31363   */\n      dup3\n        /* \"#utility.yul\":31350:31368   */\n      add\n        /* \"#utility.yul\":31342:31368   */\n      swap1\n      pop\n        /* \"#utility.yul\":31414:31423   */\n      dup2\n        /* \"#utility.yul\":31408:31412   */\n      dup2\n        /* \"#utility.yul\":31404:31424   */\n      sub\n        /* \"#utility.yul\":31400:31401   */\n      0x00\n        /* \"#utility.yul\":31389:31398   */\n      dup4\n        /* \"#utility.yul\":31385:31402   */\n      add\n        /* \"#utility.yul\":31378:31425   */\n      mstore\n        /* \"#utility.yul\":31442:31573   */\n      tag_637\n        /* \"#utility.yul\":31568:31572   */\n      dup2\n        /* \"#utility.yul\":31442:31573   */\n      tag_342\n      jump\t// in\n    tag_637:\n        /* \"#utility.yul\":31434:31573   */\n      swap1\n      pop\n        /* \"#utility.yul\":31161:31580   */\n      swap2\n      swap1\n      pop\n      jump\t// out\n        /* \"#utility.yul\":31586:31760   */\n    tag_343:\n        /* \"#utility.yul\":31726:31752   */\n      0x526563697069656e74206e6f7420617574686f72697a65640000000000000000\n        /* \"#utility.yul\":31722:31723   */\n      0x00\n        /* \"#utility.yul\":31714:31720   */\n      dup3\n        /* \"#utility.yul\":31710:31724   */\n      add\n        /* \"#utility.yul\":31703:31753   */\n      mstore\n        /* \"#utility.yul\":31586:31760   */\n      pop\n      jump\t// out\n        /* \"#utility.yul\":31766:32132   */\n    tag_344:\n        /* \"#utility.yul\":31908:31911   */\n      0x00\n        /* \"#utility.yul\":31929:31996   */\n      tag_640\n        /* \"#utility.yul\":31993:31995   */\n      0x18\n        /* \"#utility.yul\":31988:31991   */\n      dup4\n        /* \"#utility.yul\":31929:31996   */\n      tag_286\n      jump\t// in\n    tag_640:\n        /* \"#utility.yul\":31922:31996   */\n      swap2\n      pop\n        /* \"#utility.yul\":32005:32098   */\n      tag_641\n        /* \"#utility.yul\":32094:32097   */\n      dup3\n        /* \"#utility.yul\":32005:32098   */\n      tag_343\n      jump\t// in\n    tag_641:\n        /* \"#utility.yul\":32123:32125   */\n      0x20\n        /* \"#utility.yul\":32118:32121   */\n      dup3\n        /* \"#utility.yul\":32114:32126   */\n      add\n        /* \"#utility.yul\":32107:32126   */\n      swap1\n      pop\n        /* \"#utility.yul\":31766:32132   */\n      swap2\n      swap1\n      pop\n      jump\t// out\n        /* \"#utility.yul\":32138:32557   */\n    tag_155:\n        /* \"#utility.yul\":32304:32308   */\n      0x00\n        /* \"#utility.yul\":32342:32344   */\n      0x20\n        /* \"#utility.yul\":32331:32340   */\n      dup3\n        /* \"#utility.yul\":32327:32345   */\n      add\n        /* \"#utility.yul\":32319:32345   */\n      swap1\n      pop\n        /* \"#utility.yul\":32391:32400   */\n      dup2\n        /* \"#utility.yul\":32385:32389   */\n      dup2\n        /* \"#utility.yul\":32381:32401   */\n      sub\n        /* \"#utility.yul\":32377:32378   */\n      0x00\n        /* \"#utility.yul\":32366:32375   */\n      dup4\n        /* \"#utility.yul\":32362:32379   */\n      add\n        /* \"#utility.yul\":32355:32402   */\n      mstore\n        /* \"#utility.yul\":32419:32550   */\n      tag_643\n        /* \"#utility.yul\":32545:32549   */\n      dup2\n        /* \"#utility.yul\":32419:32550   */\n      tag_344\n      jump\t// in\n    tag_643:\n        /* \"#utility.yul\":32411:32550   */\n      swap1\n      pop\n        /* \"#utility.yul\":32138:32557   */\n      swap2\n      swap1\n      pop\n      jump\t// out\n        /* \"#utility.yul\":32563:32744   */\n    tag_345:\n        /* \"#utility.yul\":32703:32736   */\n      0x50726f6475636572202d3e2048616c616c417574686f72697479206f6e6c7900\n        /* \"#utility.yul\":32699:32700   */\n      0x00\n        /* \"#utility.yul\":32691:32697   */\n      dup3\n        /* \"#utility.yul\":32687:32701   */\n      add\n        /* \"#utility.yul\":32680:32737   */\n      mstore\n        /* \"#utility.yul\":32563:32744   */\n      pop\n      jump\t// out\n        /* \"#utility.yul\":32750:33116   */\n    tag_346:\n        /* \"#utility.yul\":32892:32895   */\n      0x00\n        /* \"#utility.yul\":32913:32980   */\n      tag_646\n        /* \"#utility.yul\":32977:32979   */\n      0x1f\n        /* \"#utility.yul\":32972:32975   */\n      dup4\n        /* \"#utility.yul\":32913:32980   */\n      tag_286\n      jump\t// in\n    tag_646:\n        /* \"#utility.yul\":32906:32980   */\n      swap2\n      pop\n        /* \"#utility.yul\":32989:33082   */\n      tag_647\n        /* \"#utility.yul\":33078:33081   */\n      dup3\n        /* \"#utility.yul\":32989:33082   */\n      tag_345\n      jump\t// in\n    tag_647:\n        /* \"#utility.yul\":33107:33109   */\n      0x20\n        /* \"#utility.yul\":33102:33105   */\n      dup3\n        /* \"#utility.yul\":33098:33110   */\n      add\n        /* \"#utility.yul\":33091:33110   */\n      swap1\n      pop\n        /* \"#utility.yul\":32750:33116   */\n      swap2\n      swap1\n      pop\n      jump\t// out\n        /* \"#utility.yul\":33122:33541   */\n    tag_167:\n        /* \"#utility.yul\":33288:33292   */\n      0x00\n        /* \"#utility.yul\":33326:33328   */\n      0x20\n        /* \"#utility.yul\":33315:33324   */\n      dup3\n        /* \"#utility.yul\":33311:33329   */\n      add\n        /* \"#utility.yul\":33303:33329   */\n      swap1\n      pop\n        /* \"#utility.yul\":33375:33384   */\n      dup2\n        /* \"#utility.yul\":33369:33373   */\n      dup2\n        /* \"#utility.yul\":33365:33385   */\n      sub\n        /* \"#utility.yul\":33361:33362   */\n      0x00\n        /* \"#utility.yul\":33350:33359   */\n      dup4\n        /* \"#utility.yul\":33346:33363   */\n      add\n        /* \"#utility.yul\":33339:33386   */\n      mstore\n        /* \"#utility.yul\":33403:33534   */\n      tag_649\n        /* \"#utility.yul\":33529:33533   */\n      dup2\n        /* \"#utility.yul\":33403:33534   */\n      tag_346\n      jump\t// in\n    tag_649:\n        /* \"#utility.yul\":33395:33534   */\n      swap1\n      pop\n        /* \"#utility.yul\":33122:33541   */\n      swap2\n      swap1\n      pop\n      jump\t// out\n        /* \"#utility.yul\":33547:33768   */\n    tag_347:\n        /* \"#utility.yul\":33687:33721   */\n      0x48616c616c417574686f72697479202d3e204469737472696275746f72206f6e\n        /* \"#utility.yul\":33683:33684   */\n      0x00\n        /* \"#utility.yul\":33675:33681   */\n      dup3\n        /* \"#utility.yul\":33671:33685   */\n      add\n        /* \"#utility.yul\":33664:33722   */\n      mstore\n        /* \"#utility.yul\":33756:33760   */\n      0x6c79000000000000000000000000000000000000000000000000000000000000\n        /* \"#utility.yul\":33751:33753   */\n      0x20\n        /* \"#utility.yul\":33743:33749   */\n      dup3\n        /* \"#utility.yul\":33739:33754   */\n      add\n        /* \"#utility.yul\":33732:33761   */\n      mstore\n        /* \"#utility.yul\":33547:33768   */\n      pop\n      jump\t// out\n        /* \"#utility.yul\":33774:34140   */\n    tag_348:\n        /* \"#utility.yul\":33916:33919   */\n      0x00\n        /* \"#utility.yul\":33937:34004   */\n      tag_652\n        /* \"#utility.yul\":34001:34003   */\n      0x22\n        /* \"#utility.yul\":33996:33999   */\n      dup4\n        /* \"#utility.yul\":33937:34004   */\n      tag_286\n      jump\t// in\n    tag_652:\n        /* \"#utility.yul\":33930:34004   */\n      swap2\n      pop\n        /* \"#utility.yul\":34013:34106   */\n      tag_653\n        /* \"#utility.yul\":34102:34105   */\n      dup3\n        /* \"#utility.yul\":34013:34106   */\n      tag_347\n      jump\t// in\n    tag_653:\n        /* \"#utility.yul\":34131:34133   */\n      0x40\n        /* \"#utility.yul\":34126:34129   */\n      dup3\n        /* \"#utility.yul\":34122:34134   */\n      add\n        /* \"#utility.yul\":34115:34134   */\n      swap1\n      pop\n        /* \"#utility.yul\":33774:34140   */\n      swap2\n      swap1\n      pop\n      jump\t// out\n        /* \"#utility.yul\":34146:34565   */\n    tag_180:\n        /* \"#utility.yul\":34312:34316   */\n      0x00\n        /* \"#utility.yul\":34350:34352   */\n      0x20\n        /* \"#utility.yul\":34339:34348   */\n      dup3\n        /* \"#utility.yul\":34335:34353   */\n      add\n        /* \"#utility.yul\":34327:34353   */\n      swap1\n      pop\n        /* \"#utility.yul\":34399:34408   */\n      dup2\n        /* \"#utility.yul\":34393:34397   */\n      dup2\n        /* \"#utility.yul\":34389:34409   */\n      sub\n        /* \"#utility.yul\":34385:34386   */\n      0x00\n        /* \"#utility.yul\":34374:34383   */\n      dup4\n        /* \"#utility.yul\":34370:34387   */\n      add\n        /* \"#utility.yul\":34363:34410   */\n      mstore\n        /* \"#utility.yul\":34427:34558   */\n      tag_655\n        /* \"#utility.yul\":34553:34557   */\n      dup2\n        /* \"#utility.yul\":34427:34558   */\n      tag_348\n      jump\t// in\n    tag_655:\n        /* \"#utility.yul\":34419:34558   */\n      swap1\n      pop\n        /* \"#utility.yul\":34146:34565   */\n      swap2\n      swap1\n      pop\n      jump\t// out\n        /* \"#utility.yul\":34571:34749   */\n    tag_349:\n        /* \"#utility.yul\":34711:34741   */\n      0x4469737472696275746f72202d3e2052657461696c6572206f6e6c7900000000\n        /* \"#utility.yul\":34707:34708   */\n      0x00\n        /* \"#utility.yul\":34699:34705   */\n      dup3\n        /* \"#utility.yul\":34695:34709   */\n      add\n        /* \"#utility.yul\":34688:34742   */\n      mstore\n        /* \"#utility.yul\":34571:34749   */\n      pop\n      jump\t// out\n        /* \"#utility.yul\":34755:35121   */\n    tag_350:\n        /* \"#utility.yul\":34897:34900   */\n      0x00\n        /* \"#utility.yul\":34918:34985   */\n      tag_658\n        /* \"#utility.yul\":34982:34984   */\n      0x1c\n        /* \"#utility.yul\":34977:34980   */\n      dup4\n        /* \"#utility.yul\":34918:34985   */\n      tag_286\n      jump\t// in\n    tag_658:\n        /* \"#utility.yul\":34911:34985   */\n      swap2\n      pop\n        /* \"#utility.yul\":34994:35087   */\n      tag_659\n        /* \"#utility.yul\":35083:35086   */\n      dup3\n        /* \"#utility.yul\":34994:35087   */\n      tag_349\n      jump\t// in\n    tag_659:\n        /* \"#utility.yul\":35112:35114   */\n      0x20\n        /* \"#utility.yul\":35107:35110   */\n      dup3\n        /* \"#utility.yul\":35103:35115   */\n      add\n        /* \"#utility.yul\":35096:35115   */\n      swap1\n      pop\n        /* \"#utility.yul\":34755:35121   */\n      swap2\n      swap1\n      pop\n      jump\t// out\n        /* \"#utility.yul\":35127:35546   */\n    tag_193:\n        /* \"#utility.yul\":35293:35297   */\n      0x00\n        /* \"#utility.yul\":35331:35333   */\n      0x20\n        /* \"#utility.yul\":35320:35329   */\n      dup3\n        /* \"#utility.yul\":35316:35334   */\n      add\n        /* \"#utility.yul\":35308:35334   */\n      swap1\n      pop\n        /* \"#utility.yul\":35380:35389   */\n      dup2\n        /* \"#utility.yul\":35374:35378   */\n      dup2\n        /* \"#utility.yul\":35370:35390   */\n      sub\n        /* \"#utility.yul\":35366:35367   */\n      0x00\n        /* \"#utility.yul\":35355:35364   */\n      dup4\n        /* \"#utility.yul\":35351:35368   */\n      add\n        /* \"#utility.yul\":35344:35391   */\n      mstore\n        /* \"#utility.yul\":35408:35539   */\n      tag_661\n        /* \"#utility.yul\":35534:35538   */\n      dup2\n        /* \"#utility.yul\":35408:35539   */\n      tag_350\n      jump\t// in\n    tag_661:\n        /* \"#utility.yul\":35400:35539   */\n      swap1\n      pop\n        /* \"#utility.yul\":35127:35546   */\n      swap2\n      swap1\n      pop\n      jump\t// out\n        /* \"#utility.yul\":35552:35733   */\n    tag_351:\n        /* \"#utility.yul\":35692:35725   */\n      0x5468697320726f6c652063616e6e6f74207472616e7366657220626174636800\n        /* \"#utility.yul\":35688:35689   */\n      0x00\n        /* \"#utility.yul\":35680:35686   */\n      dup3\n        /* \"#utility.yul\":35676:35690   */\n      add\n        /* \"#utility.yul\":35669:35726   */\n      mstore\n        /* \"#utility.yul\":35552:35733   */\n      pop\n      jump\t// out\n        /* \"#utility.yul\":35739:36105   */\n    tag_352:\n        /* \"#utility.yul\":35881:35884   */\n      0x00\n        /* \"#utility.yul\":35902:35969   */\n      tag_664\n        /* \"#utility.yul\":35966:35968   */\n      0x1f\n        /* \"#utility.yul\":35961:35964   */\n      dup4\n        /* \"#utility.yul\":35902:35969   */\n      tag_286\n      jump\t// in\n    tag_664:\n        /* \"#utility.yul\":35895:35969   */\n      swap2\n      pop\n        /* \"#utility.yul\":35978:36071   */\n      tag_665\n        /* \"#utility.yul\":36067:36070   */\n      dup3\n        /* \"#utility.yul\":35978:36071   */\n      tag_351\n      jump\t// in\n    tag_665:\n        /* \"#utility.yul\":36096:36098   */\n      0x20\n        /* \"#utility.yul\":36091:36094   */\n      dup3\n        /* \"#utility.yul\":36087:36099   */\n      add\n        /* \"#utility.yul\":36080:36099   */\n      swap1\n      pop\n        /* \"#utility.yul\":35739:36105   */\n      swap2\n      swap1\n      pop\n      jump\t// out\n        /* \"#utility.yul\":36111:36530   */\n    tag_196:\n        /* \"#utility.yul\":36277:36281   */\n      0x00\n        /* \"#utility.yul\":36315:36317   */\n      0x20\n        /* \"#utility.yul\":36304:36313   */\n      dup3\n        /* \"#utility.yul\":36300:36318   */\n      add\n        /* \"#utility.yul\":36292:36318   */\n      swap1\n      pop\n        /* \"#utility.yul\":36364:36373   */\n      dup2\n        /* \"#utility.yul\":36358:36362   */\n      dup2\n        /* \"#utility.yul\":36354:36374   */\n      sub\n        /* \"#utility.yul\":36350:36351   */\n      0x00\n        /* \"#utility.yul\":36339:36348   */\n      dup4\n        /* \"#utility.yul\":36335:36352   */\n      add\n        /* \"#utility.yul\":36328:36375   */\n      mstore\n        /* \"#utility.yul\":36392:36523   */\n      tag_667\n        /* \"#utility.yul\":36518:36522   */\n      dup2\n        /* \"#utility.yul\":36392:36523   */\n      tag_352\n      jump\t// in\n    tag_667:\n        /* \"#utility.yul\":36384:36523   */\n      swap1\n      pop\n        /* \"#utility.yul\":36111:36530   */\n      swap2\n      swap1\n      pop\n      jump\t// out\n        /* \"#utility.yul\":36536:36697   */\n    tag_353:\n        /* \"#utility.yul\":36676:36689   */\n      0x5472616e73666572726564000000000000000000000000000000000000000000\n        /* \"#utility.yul\":36672:36673   */\n      0x00\n        /* \"#utility.yul\":36664:36670   */\n      dup3\n        /* \"#utility.yul\":36660:36674   */\n      add\n        /* \"#utility.yul\":36653:36690   */\n      mstore\n        /* \"#utility.yul\":36536:36697   */\n      pop\n      jump\t// out\n        /* \"#utility.yul\":36703:37069   */\n    tag_354:\n        /* \"#utility.yul\":36845:36848   */\n      0x00\n        /* \"#utility.yul\":36866:36933   */\n      tag_670\n        /* \"#utility.yul\":36930:36932   */\n      0x0b\n        /* \"#utility.yul\":36925:36928   */\n      dup4\n        /* \"#utility.yul\":36866:36933   */\n      tag_286\n      jump\t// in\n    tag_670:\n        /* \"#utility.yul\":36859:36933   */\n      swap2\n      pop\n        /* \"#utility.yul\":36942:37035   */\n      tag_671\n        /* \"#utility.yul\":37031:37034   */\n      dup3\n        /* \"#utility.yul\":36942:37035   */\n      tag_353\n      jump\t// in\n    tag_671:\n        /* \"#utility.yul\":37060:37062   */\n      0x20\n        /* \"#utility.yul\":37055:37058   */\n      dup3\n        /* \"#utility.yul\":37051:37063   */\n      add\n        /* \"#utility.yul\":37044:37063   */\n      swap1\n      pop\n        /* \"#utility.yul\":36703:37069   */\n      swap2\n      swap1\n      pop\n      jump\t// out\n        /* \"#utility.yul\":37075:37494   */\n    tag_204:\n        /* \"#utility.yul\":37241:37245   */\n      0x00\n        /* \"#utility.yul\":37279:37281   */\n      0x20\n        /* \"#utility.yul\":37268:37277   */\n      dup3\n        /* \"#utility.yul\":37264:37282   */\n      add\n        /* \"#utility.yul\":37256:37282   */\n      swap1\n      pop\n        /* \"#utility.yul\":37328:37337   */\n      dup2\n        /* \"#utility.yul\":37322:37326   */\n      dup2\n        /* \"#utility.yul\":37318:37338   */\n      sub\n        /* \"#utility.yul\":37314:37315   */\n      0x00\n        /* \"#utility.yul\":37303:37312   */\n      dup4\n        /* \"#utility.yul\":37299:37316   */\n      add\n        /* \"#utility.yul\":37292:37339   */\n      mstore\n        /* \"#utility.yul\":37356:37487   */\n      tag_673\n        /* \"#utility.yul\":37482:37486   */\n      dup2\n        /* \"#utility.yul\":37356:37487   */\n      tag_354\n      jump\t// in\n    tag_673:\n        /* \"#utility.yul\":37348:37487   */\n      swap1\n      pop\n        /* \"#utility.yul\":37075:37494   */\n      swap2\n      swap1\n      pop\n      jump\t// out\n        /* \"#utility.yul\":37500:37667   */\n    tag_355:\n        /* \"#utility.yul\":37640:37659   */\n      0x6365727448617368207265717569726564000000000000000000000000000000\n        /* \"#utility.yul\":37636:37637   */\n      0x00\n        /* \"#utility.yul\":37628:37634   */\n      dup3\n        /* \"#utility.yul\":37624:37638   */\n      add\n        /* \"#utility.yul\":37617:37660   */\n      mstore\n        /* \"#utility.yul\":37500:37667   */\n      pop\n      jump\t// out\n        /* \"#utility.yul\":37673:38039   */\n    tag_356:\n        /* \"#utility.yul\":37815:37818   */\n      0x00\n        /* \"#utility.yul\":37836:37903   */\n      tag_676\n        /* \"#utility.yul\":37900:37902   */\n      0x11\n        /* \"#utility.yul\":37895:37898   */\n      dup4\n        /* \"#utility.yul\":37836:37903   */\n      tag_286\n      jump\t// in\n    tag_676:\n        /* \"#utility.yul\":37829:37903   */\n      swap2\n      pop\n        /* \"#utility.yul\":37912:38005   */\n      tag_677\n        /* \"#utility.yul\":38001:38004   */\n      dup3\n        /* \"#utility.yul\":37912:38005   */\n      tag_355\n      jump\t// in\n    tag_677:\n        /* \"#utility.yul\":38030:38032   */\n      0x20\n        /* \"#utility.yul\":38025:38028   */\n      dup3\n        /* \"#utility.yul\":38021:38033   */\n      add\n        /* \"#utility.yul\":38014:38033   */\n      swap1\n      pop\n        /* \"#utility.yul\":37673:38039   */\n      swap2\n      swap1\n      pop\n      jump\t// out\n        /* \"#utility.yul\":38045:38464   */\n    tag_223:\n        /* \"#utility.yul\":38211:38215   */\n      0x00\n        /* \"#utility.yul\":38249:38251   */\n      0x20\n        /* \"#utility.yul\":38238:38247   */\n      dup3\n        /* \"#utility.yul\":38234:38252   */\n      add\n        /* \"#utility.yul\":38226:38252   */\n      swap1\n      pop\n        /* \"#utility.yul\":38298:38307   */\n      dup2\n        /* \"#utility.yul\":38292:38296   */\n      dup2\n        /* \"#utility.yul\":38288:38308   */\n      sub\n        /* \"#utility.yul\":38284:38285   */\n      0x00\n        /* \"#utility.yul\":38273:38282   */\n      dup4\n        /* \"#utility.yul\":38269:38286   */\n      add\n        /* \"#utility.yul\":38262:38309   */\n      mstore\n        /* \"#utility.yul\":38326:38457   */\n      tag_679\n        /* \"#utility.yul\":38452:38456   */\n      dup2\n        /* \"#utility.yul\":38326:38457   */\n      tag_356\n      jump\t// in\n    tag_679:\n        /* \"#utility.yul\":38318:38457   */\n      swap1\n      pop\n        /* \"#utility.yul\":38045:38464   */\n      swap2\n      swap1\n      pop\n      jump\t// out\n        /* \"#utility.yul\":38470:38643   */\n    tag_357:\n        /* \"#utility.yul\":38610:38635   */\n      0x48616c616c20616c726561647920636572746966696564000000000000000000\n        /* \"#utility.yul\":38606:38607   */\n      0x00\n        /* \"#utility.yul\":38598:38604   */\n      dup3\n        /* \"#utility.yul\":38594:38608   */\n      add\n        /* \"#utility.yul\":38587:38636   */\n      mstore\n        /* \"#utility.yul\":38470:38643   */\n      pop\n      jump\t// out\n        /* \"#utility.yul\":38649:39015   */\n    tag_358:\n        /* \"#utility.yul\":38791:38794   */\n      0x00\n        /* \"#utility.yul\":38812:38879   */\n      tag_682\n        /* \"#utility.yul\":38876:38878   */\n      0x17\n        /* \"#utility.yul\":38871:38874   */\n      dup4\n        /* \"#utility.yul\":38812:38879   */\n      tag_286\n      jump\t// in\n    tag_682:\n        /* \"#utility.yul\":38805:38879   */\n      swap2\n      pop\n        /* \"#utility.yul\":38888:38981   */\n      tag_683\n        /* \"#utility.yul\":38977:38980   */\n      dup3\n        /* \"#utility.yul\":38888:38981   */\n      tag_357\n      jump\t// in\n    tag_683:\n        /* \"#utility.yul\":39006:39008   */\n      0x20\n        /* \"#utility.yul\":39001:39004   */\n      dup3\n        /* \"#utility.yul\":38997:39009   */\n      add\n        /* \"#utility.yul\":38990:39009   */\n      swap1\n      pop\n        /* \"#utility.yul\":38649:39015   */\n      swap2\n      swap1\n      pop\n      jump\t// out\n        /* \"#utility.yul\":39021:39440   */\n    tag_227:\n        /* \"#utility.yul\":39187:39191   */\n      0x00\n        /* \"#utility.yul\":39225:39227   */\n      0x20\n        /* \"#utility.yul\":39214:39223   */\n      dup3\n        /* \"#utility.yul\":39210:39228   */\n      add\n        /* \"#utility.yul\":39202:39228   */\n      swap1\n      pop\n        /* \"#utility.yul\":39274:39283   */\n      dup2\n        /* \"#utility.yul\":39268:39272   */\n      dup2\n        /* \"#utility.yul\":39264:39284   */\n      sub\n        /* \"#utility.yul\":39260:39261   */\n      0x00\n        /* \"#utility.yul\":39249:39258   */\n      dup4\n        /* \"#utility.yul\":39245:39262   */\n      add\n        /* \"#utility.yul\":39238:39285   */\n      mstore\n        /* \"#utility.yul\":39302:39433   */\n      tag_685\n        /* \"#utility.yul\":39428:39432   */\n      dup2\n        /* \"#utility.yul\":39302:39433   */\n      tag_358\n      jump\t// in\n    tag_685:\n        /* \"#utility.yul\":39294:39433   */\n      swap1\n      pop\n        /* \"#utility.yul\":39021:39440   */\n      swap2\n      swap1\n      pop\n      jump\t// out\n        /* \"#utility.yul\":39446:39611   */\n    tag_359:\n        /* \"#utility.yul\":39586:39603   */\n      0x4365727469666965642048616c616c0000000000000000000000000000000000\n        /* \"#utility.yul\":39582:39583   */\n      0x00\n        /* \"#utility.yul\":39574:39580   */\n      dup3\n        /* \"#utility.yul\":39570:39584   */\n      add\n        /* \"#utility.yul\":39563:39604   */\n      mstore\n        /* \"#utility.yul\":39446:39611   */\n      pop\n      jump\t// out\n        /* \"#utility.yul\":39617:39983   */\n    tag_360:\n        /* \"#utility.yul\":39759:39762   */\n      0x00\n        /* \"#utility.yul\":39780:39847   */\n      tag_688\n        /* \"#utility.yul\":39844:39846   */\n      0x0f\n        /* \"#utility.yul\":39839:39842   */\n      dup4\n        /* \"#utility.yul\":39780:39847   */\n      tag_286\n      jump\t// in\n    tag_688:\n        /* \"#utility.yul\":39773:39847   */\n      swap2\n      pop\n        /* \"#utility.yul\":39856:39949   */\n      tag_689\n        /* \"#utility.yul\":39945:39948   */\n      dup3\n        /* \"#utility.yul\":39856:39949   */\n      tag_359\n      jump\t// in\n    tag_689:\n        /* \"#utility.yul\":39974:39976   */\n      0x20\n        /* \"#utility.yul\":39969:39972   */\n      dup3\n        /* \"#utility.yul\":39965:39977   */\n      add\n        /* \"#utility.yul\":39958:39977   */\n      swap1\n      pop\n        /* \"#utility.yul\":39617:39983   */\n      swap2\n      swap1\n      pop\n      jump\t// out\n        /* \"#utility.yul\":39989:40408   */\n    tag_237:\n        /* \"#utility.yul\":40155:40159   */\n      0x00\n        /* \"#utility.yul\":40193:40195   */\n      0x20\n        /* \"#utility.yul\":40182:40191   */\n      dup3\n        /* \"#utility.yul\":40178:40196   */\n      add\n        /* \"#utility.yul\":40170:40196   */\n      swap1\n      pop\n        /* \"#utility.yul\":40242:40251   */\n      dup2\n        /* \"#utility.yul\":40236:40240   */\n      dup2\n        /* \"#utility.yul\":40232:40252   */\n      sub\n        /* \"#utility.yul\":40228:40229   */\n      0x00\n        /* \"#utility.yul\":40217:40226   */\n      dup4\n        /* \"#utility.yul\":40213:40230   */\n      add\n        /* \"#utility.yul\":40206:40253   */\n      mstore\n        /* \"#utility.yul\":40270:40401   */\n      tag_691\n        /* \"#utility.yul\":40396:40400   */\n      dup2\n        /* \"#utility.yul\":40270:40401   */\n      tag_360\n      jump\t// in\n    tag_691:\n        /* \"#utility.yul\":40262:40401   */\n      swap1\n      pop\n        /* \"#utility.yul\":39989:40408   */\n      swap2\n      swap1\n      pop\n      jump\t// out\n\n    auxdata: 0xa2646970667358221220c07f1d5f9190ab3a815521d5d8eafc7731db0672c1802ec3018ca722ac7be09364736f6c634300081f0033\n}\n",
				"bytecode": {
					"linkReferences": {},
					"object": "608060405234801561000f575f5ffd5b50335f5f6101000a81548173ffffffffffffffffffffffffffffffffffffffff021916908373ffffffffffffffffffffffffffffffffffffffff1602179055506001805f3373ffffffffffffffffffffffffffffffffffffffff1673ffffffffffffffffffffffffffffffffffffffff1681526020019081526020015f205f6101000a81548160ff021916908360058111156100ae576100ad610107565b5b02179055503373ffffffffffffffffffffffffffffffffffffffff167f7dfb9fc416e4287afa0615b649cb29f7b04a76c92ecdca2f8dc3dfd55158a3b460016040516100fa919061017a565b60405180910390a2610193565b7f4e487b71000000000000000000000000000000000000000000000000000000005f52602160045260245ffd5b6006811061014557610144610107565b5b50565b5f81905061015582610134565b919050565b5f61016482610148565b9050919050565b6101748161015a565b82525050565b5f60208201905061018d5f83018461016b565b92915050565b612ef4806101a05f395ff3fe608060405234801561000f575f5ffd5b5060043610610091575f3560e01c806399374642116100645780639937464214610119578063b401563b14610149578063bbb6569914610165578063f851a44014610181578063f9ca42741461019f57610091565b8063347047cc14610095578063374acb1b146100b1578063630a195b146100e157806392b8f021146100fd575b5f5ffd5b6100af60048036038101906100aa9190611c84565b6101d5565b005b6100cb60048036038101906100c69190611d02565b61049f565b6040516100d89190611d67565b60405180910390f35b6100fb60048036038101906100f69190611dfd565b6104d8565b005b61011760048036038101906101129190611c84565b610757565b005b610133600480360381019061012e9190611e3b565b610c5e565b6040516101409190611ed9565b60405180910390f35b610163600480360381019061015e9190611ef2565b610c7b565b005b61017f600480360381019061017a9190611c84565b6113c6565b005b61018961187a565b6040516101969190611f5e565b60405180910390f35b6101b960048036038101906101b49190611d02565b61189e565b6040516101cc9796959493929190611fff565b60405180910390f35b83838080601f0160208091040260200160405190810160405280939291908181526020018383808284375f81840152601f19601f8201169050808301925050505050505060028160405161022991906120c2565b90815260200160405180910390206007015f9054906101000a900460ff16610286576040517f08c379a000000000000000000000000000000000000000000000000000000000815260040161027d90612122565b60405180910390fd5b5f83839050116102cb576040517f08c379a00000000000000000000000000000000000000000000000000000000081526004016102c29061218a565b60405180910390fd5b5f3373ffffffffffffffffffffffffffffffffffffffff16600287876040516102f59291906121da565b90815260200160405180910390206003015f9054906101000a900473ffffffffffffffffffffffffffffffffffffffff1673ffffffffffffffffffffffffffffffffffffffff161490505f5f600581111561035357610352611e66565b5b60015f3373ffffffffffffffffffffffffffffffffffffffff1673ffffffffffffffffffffffffffffffffffffffff1681526020019081526020015f205f9054906101000a900460ff1660058111156103af576103ae611e66565b5b1415905081806103bc5750805b6103fb576040517f08c379a00000000000000000000000000000000000000000000000000000000081526004016103f29061223c565b60405180910390fd5b84846002898960405161040f9291906121da565b9081526020016040518091039020600401918261042d92919061248e565b503373ffffffffffffffffffffffffffffffffffffffff1687876040516104559291906121da565b60405180910390207fa40410f71afcb456ef810bf2c9cf8d0e917213d9477633602d780d212f0b9389878760405161048e929190612587565b60405180910390a350505050505050565b5f600283836040516104b29291906121da565b90815260200160405180910390206007015f9054906101000a900460ff16905092915050565b5f5f9054906101000a900473ffffffffffffffffffffffffffffffffffffffff1673ffffffffffffffffffffffffffffffffffffffff163373ffffffffffffffffffffffffffffffffffffffff1614610566576040517f08c379a000000000000000000000000000000000000000000000000000000000815260040161055d906125f3565b60405180910390fd5b5f73ffffffffffffffffffffffffffffffffffffffff168273ffffffffffffffffffffffffffffffffffffffff16036105d4576040517f08c379a00000000000000000000000000000000000000000000000000000000081526004016105cb9061265b565b60405180910390fd5b5f60058111156105e7576105e6611e66565b5b8160058111156105fa576105f9611e66565b5b0361063a576040517f08c379a0000000000000000000000000000000000000000000000000000000008152600401610631906126c3565b60405180910390fd5b6001600581111561064e5761064d611e66565b5b81600581111561066157610660611e66565b5b036106a1576040517f08c379a00000000000000000000000000000000000000000000000000000000081526004016106989061272b565b60405180910390fd5b8060015f8473ffffffffffffffffffffffffffffffffffffffff1673ffffffffffffffffffffffffffffffffffffffff1681526020019081526020015f205f6101000a81548160ff02191690836005811115610700576106ff611e66565b5b02179055508173ffffffffffffffffffffffffffffffffffffffff167f7dfb9fc416e4287afa0615b649cb29f7b04a76c92ecdca2f8dc3dfd55158a3b48260405161074b9190611ed9565b60405180910390a25050565b600280600581111561076c5761076b611e66565b5b60015f3373ffffffffffffffffffffffffffffffffffffffff1673ffffffffffffffffffffffffffffffffffffffff1681526020019081526020015f205f9054906101000a900460ff1660058111156107c8576107c7611e66565b5b14610808576040517f08c379a00000000000000000000000000000000000000000000000000000000081526004016107ff90612793565b60405180910390fd5b5f858590501161084d576040517f08c379a0000000000000000000000000000000000000000000000000000000008152600401610844906127fb565b60405180910390fd5b5f8383905011610892576040517f08c379a000000000000000000000000000000000000000000000000000000000815260040161088990612863565b60405180910390fd5b600285856040516108a49291906121da565b90815260200160405180910390206007015f9054906101000a900460ff1615610902576040517f08c379a00000000000000000000000000000000000000000000000000000000081526004016108f9906128cb565b60405180910390fd5b60405180610120016040528084848080601f0160208091040260200160405190810160405280939291908181526020018383808284375f81840152601f19601f82011690508083019250505050505050815260200186868080601f0160208091040260200160405190810160405280939291908181526020018383808284375f81840152601f19601f8201169050808301925050505050505081526020013373ffffffffffffffffffffffffffffffffffffffff1681526020013373ffffffffffffffffffffffffffffffffffffffff1681526020016040518060400160405280600881526020017f50726f6475636564000000000000000000000000000000000000000000000000815250815260200160405180602001604052805f81525081526020014281526020016001151581526020015f151581525060028686604051610a4e9291906121da565b90815260200160405180910390205f820151815f019081610a6f91906128e9565b506020820151816001019081610a8591906128e9565b506040820151816002015f6101000a81548173ffffffffffffffffffffffffffffffffffffffff021916908373ffffffffffffffffffffffffffffffffffffffff1602179055506060820151816003015f6101000a81548173ffffffffffffffffffffffffffffffffffffffff021916908373ffffffffffffffffffffffffffffffffffffffff1602179055506080820151816004019081610b2791906128e9565b5060a0820151816005019081610b3d91906128e9565b5060c0820151816006015560e0820151816007015f6101000a81548160ff0219169083151502179055506101008201518160070160016101000a81548160ff0219169083151502179055509050503373ffffffffffffffffffffffffffffffffffffffff168585604051610bb29291906121da565b60405180910390207f14a4819b534290cb8ccfb4060d5410e04c15b9493bccae224d5b9ae9e6f939d08585604051610beb929190612587565b60405180910390a33373ffffffffffffffffffffffffffffffffffffffff168585604051610c1a9291906121da565b60405180910390207fa40410f71afcb456ef810bf2c9cf8d0e917213d9477633602d780d212f0b9389604051610c4f90612a02565b60405180910390a35050505050565b6001602052805f5260405f205f915054906101000a900460ff1681565b82828080601f0160208091040260200160405190810160405280939291908181526020018383808284375f81840152601f19601f82011690508083019250505050505050600281604051610ccf91906120c2565b90815260200160405180910390206007015f9054906101000a900460ff16610d2c576040517f08c379a0000000000000000000000000000000000000000000000000000000008152600401610d2390612122565b60405180910390fd5b83838080601f0160208091040260200160405190810160405280939291908181526020018383808284375f81840152601f19601f820116905080830192505050505050503373ffffffffffffffffffffffffffffffffffffffff16600282604051610d9791906120c2565b90815260200160405180910390206003015f9054906101000a900473ffffffffffffffffffffffffffffffffffffffff1673ffffffffffffffffffffffffffffffffffffffff1614610e1e576040517f08c379a0000000000000000000000000000000000000000000000000000000008152600401610e1590612a6a565b60405180910390fd5b5f73ffffffffffffffffffffffffffffffffffffffff168373ffffffffffffffffffffffffffffffffffffffff1603610e8c576040517f08c379a0000000000000000000000000000000000000000000000000000000008152600401610e8390612ad2565b60405180910390fd5b5f6005811115610e9f57610e9e611e66565b5b60015f8573ffffffffffffffffffffffffffffffffffffffff1673ffffffffffffffffffffffffffffffffffffffff1681526020019081526020015f205f9054906101000a900460ff166005811115610efb57610efa611e66565b5b03610f3b576040517f08c379a0000000000000000000000000000000000000000000000000000000008152600401610f3290612b3a565b60405180910390fd5b5f60015f3373ffffffffffffffffffffffffffffffffffffffff1673ffffffffffffffffffffffffffffffffffffffff1681526020019081526020015f205f9054906101000a900460ff1690505f60015f8673ffffffffffffffffffffffffffffffffffffffff1673ffffffffffffffffffffffffffffffffffffffff1681526020019081526020015f205f9054906101000a900460ff16905060026005811115610fe957610fe8611e66565b5b826005811115610ffc57610ffb611e66565b5b0361106d576003600581111561101557611014611e66565b5b81600581111561102857611027611e66565b5b14611068576040517f08c379a000000000000000000000000000000000000000000000000000000000815260040161105f90612ba2565b60405180910390fd5b6111d9565b6003600581111561108157611080611e66565b5b82600581111561109457611093611e66565b5b0361110557600460058111156110ad576110ac611e66565b5b8160058111156110c0576110bf611e66565b5b14611100576040517f08c379a00000000000000000000000000000000000000000000000000000000081526004016110f790612c30565b60405180910390fd5b6111d8565b6004600581111561111957611118611e66565b5b82600581111561112c5761112b611e66565b5b0361119c5760058081111561114457611143611e66565b5b81600581111561115757611156611e66565b5b14611197576040517f08c379a000000000000000000000000000000000000000000000000000000000815260040161118e90612c98565b60405180910390fd5b6111d7565b6040517f08c379a00000000000000000000000000000000000000000000000000000000081526004016111ce90612d00565b60405180910390fd5b5b5b5f600288886040516111ec9291906121da565b90815260200160405180910390206003015f9054906101000a900473ffffffffffffffffffffffffffffffffffffffff16905085600289896040516112329291906121da565b90815260200160405180910390206003015f6101000a81548173ffffffffffffffffffffffffffffffffffffffff021916908373ffffffffffffffffffffffffffffffffffffffff1602179055506040518060400160405280600b81526020017f5472616e73666572726564000000000000000000000000000000000000000000815250600289896040516112c89291906121da565b908152602001604051809103902060040190816112e591906128e9565b508573ffffffffffffffffffffffffffffffffffffffff168173ffffffffffffffffffffffffffffffffffffffff1689896040516113249291906121da565b60405180910390207fa8b047db3c9b378a978a9cc59c0f75a2671f935a140d6799f8f56104f0ec6dd660405160405180910390a43373ffffffffffffffffffffffffffffffffffffffff16888860405161137f9291906121da565b60405180910390207fa40410f71afcb456ef810bf2c9cf8d0e917213d9477633602d780d212f0b93896040516113b490612d68565b60405180910390a35050505050505050565b83838080601f0160208091040260200160405190810160405280939291908181526020018383808284375f81840152601f19601f8201169050808301925050505050505060028160405161141a91906120c2565b90815260200160405180910390206007015f9054906101000a900460ff16611477576040517f08c379a000000000000000000000000000000000000000000000000000000000815260040161146e90612122565b60405180910390fd5b600380600581111561148c5761148b611e66565b5b60015f3373ffffffffffffffffffffffffffffffffffffffff1673ffffffffffffffffffffffffffffffffffffffff1681526020019081526020015f205f9054906101000a900460ff1660058111156114e8576114e7611e66565b5b14611528576040517f08c379a000000000000000000000000000000000000000000000000000000000815260040161151f90612793565b60405180910390fd5b85858080601f0160208091040260200160405190810160405280939291908181526020018383808284375f81840152601f19601f820116905080830192505050505050503373ffffffffffffffffffffffffffffffffffffffff1660028260405161159391906120c2565b90815260200160405180910390206003015f9054906101000a900473ffffffffffffffffffffffffffffffffffffffff1673ffffffffffffffffffffffffffffffffffffffff161461161a576040517f08c379a000000000000000000000000000000000000000000000000000000000815260040161161190612a6a565b60405180910390fd5b5f858590501161165f576040517f08c379a000000000000000000000000000000000000000000000000000000000815260040161165690612dd0565b60405180910390fd5b600287876040516116719291906121da565b908152602001604051809103902060070160019054906101000a900460ff16156116d0576040517f08c379a00000000000000000000000000000000000000000000000000000000081526004016116c790612e38565b60405180910390fd5b8484600289896040516116e49291906121da565b9081526020016040518091039020600501918261170292919061248e565b506001600288886040516117179291906121da565b908152602001604051809103902060070160016101000a81548160ff0219169083151502179055506040518060400160405280600f81526020017f4365727469666965642048616c616c0000000000000000000000000000000000815250600288886040516117879291906121da565b908152602001604051809103902060040190816117a491906128e9565b503373ffffffffffffffffffffffffffffffffffffffff1687876040516117cc9291906121da565b60405180910390207f63d98c95c04737c94b1ccd82ad5f6540cfa9dd84872f501890d38d6884f291e48787604051611805929190612587565b60405180910390a33373ffffffffffffffffffffffffffffffffffffffff1687876040516118349291906121da565b60405180910390207fa40410f71afcb456ef810bf2c9cf8d0e917213d9477633602d780d212f0b938960405161186990612ea0565b60405180910390a350505050505050565b5f5f9054906101000a900473ffffffffffffffffffffffffffffffffffffffff1681565b6060805f5f6060805f88888080601f0160208091040260200160405190810160405280939291908181526020018383808284375f81840152601f19601f820116905080830192505050505050506002816040516118fb91906120c2565b90815260200160405180910390206007015f9054906101000a900460ff16611958576040517f08c379a000000000000000000000000000000000000000000000000000000000815260040161194f90612122565b60405180910390fd5b5f60028b8b60405161196b9291906121da565b90815260200160405180910390209050805f0181600101826002015f9054906101000a900473ffffffffffffffffffffffffffffffffffffffff16836003015f9054906101000a900473ffffffffffffffffffffffffffffffffffffffff16846004018560050186600601548680546119e3906122be565b80601f0160208091040260200160405190810160405280929190818152602001828054611a0f906122be565b8015611a5a5780601f10611a3157610100808354040283529160200191611a5a565b820191905f5260205f20905b815481529060010190602001808311611a3d57829003601f168201915b50505050509650858054611a6d906122be565b80601f0160208091040260200160405190810160405280929190818152602001828054611a99906122be565b8015611ae45780601f10611abb57610100808354040283529160200191611ae4565b820191905f5260205f20905b815481529060010190602001808311611ac757829003601f168201915b50505050509550828054611af7906122be565b80601f0160208091040260200160405190810160405280929190818152602001828054611b23906122be565b8015611b6e5780601f10611b4557610100808354040283529160200191611b6e565b820191905f5260205f20905b815481529060010190602001808311611b5157829003601f168201915b50505050509250818054611b81906122be565b80601f0160208091040260200160405190810160405280929190818152602001828054611bad906122be565b8015611bf85780601f10611bcf57610100808354040283529160200191611bf8565b820191905f5260205f20905b815481529060010190602001808311611bdb57829003601f168201915b505050505091509850985098509850985098509850505092959891949750929550565b5f5ffd5b5f5ffd5b5f5ffd5b5f5ffd5b5f5ffd5b5f5f83601f840112611c4457611c43611c23565b5b8235905067ffffffffffffffff811115611c6157611c60611c27565b5b602083019150836001820283011115611c7d57611c7c611c2b565b5b9250929050565b5f5f5f5f60408587031215611c9c57611c9b611c1b565b5b5f85013567ffffffffffffffff811115611cb957611cb8611c1f565b5b611cc587828801611c2f565b9450945050602085013567ffffffffffffffff811115611ce857611ce7611c1f565b5b611cf487828801611c2f565b925092505092959194509250565b5f5f60208385031215611d1857611d17611c1b565b5b5f83013567ffffffffffffffff811115611d3557611d34611c1f565b5b611d4185828601611c2f565b92509250509250929050565b5f8115159050919050565b611d6181611d4d565b82525050565b5f602082019050611d7a5f830184611d58565b92915050565b5f73ffffffffffffffffffffffffffffffffffffffff82169050919050565b5f611da982611d80565b9050919050565b611db981611d9f565b8114611dc3575f5ffd5b50565b5f81359050611dd481611db0565b92915050565b60068110611de6575f5ffd5b50565b5f81359050611df781611dda565b92915050565b5f5f60408385031215611e1357611e12611c1b565b5b5f611e2085828601611dc6565b9250506020611e3185828601611de9565b9150509250929050565b5f60208284031215611e5057611e4f611c1b565b5b5f611e5d84828501611dc6565b91505092915050565b7f4e487b71000000000000000000000000000000000000000000000000000000005f52602160045260245ffd5b60068110611ea457611ea3611e66565b5b50565b5f819050611eb482611e93565b919050565b5f611ec382611ea7565b9050919050565b611ed381611eb9565b82525050565b5f602082019050611eec5f830184611eca565b92915050565b5f5f5f60408486031215611f0957611f08611c1b565b5b5f84013567ffffffffffffffff811115611f2657611f25611c1f565b5b611f3286828701611c2f565b93509350506020611f4586828701611dc6565b9150509250925092565b611f5881611d9f565b82525050565b5f602082019050611f715f830184611f4f565b92915050565b5f81519050919050565b5f82825260208201905092915050565b8281835e5f83830152505050565b5f601f19601f8301169050919050565b5f611fb982611f77565b611fc38185611f81565b9350611fd3818560208601611f91565b611fdc81611f9f565b840191505092915050565b5f819050919050565b611ff981611fe7565b82525050565b5f60e0820190508181035f830152612017818a611faf565b9050818103602083015261202b8189611faf565b905061203a6040830188611f4f565b6120476060830187611f4f565b81810360808301526120598186611faf565b905081810360a083015261206d8185611faf565b905061207c60c0830184611ff0565b98975050505050505050565b5f81905092915050565b5f61209c82611f77565b6120a68185612088565b93506120b6818560208601611f91565b80840191505092915050565b5f6120cd8284612092565b915081905092915050565b7f426174636820646f6573206e6f742065786973740000000000000000000000005f82015250565b5f61210c601483611f81565b9150612117826120d8565b602082019050919050565b5f6020820190508181035f83015261213981612100565b9050919050565b7f6e657753746174757320726571756972656400000000000000000000000000005f82015250565b5f612174601283611f81565b915061217f82612140565b602082019050919050565b5f6020820190508181035f8301526121a181612168565b9050919050565b828183375f83830152505050565b5f6121c18385612088565b93506121ce8385846121a8565b82840190509392505050565b5f6121e68284866121b6565b91508190509392505050565b7f4e6f7420616c6c6f77656420746f2075706461746520737461747573000000005f82015250565b5f612226601c83611f81565b9150612231826121f2565b602082019050919050565b5f6020820190508181035f8301526122538161221a565b9050919050565b5f82905092915050565b7f4e487b71000000000000000000000000000000000000000000000000000000005f52604160045260245ffd5b7f4e487b71000000000000000000000000000000000000000000000000000000005f52602260045260245ffd5b5f60028204905060018216806122d557607f821691505b6020821081036122e8576122e7612291565b5b50919050565b5f819050815f5260205f209050919050565b5f6020601f8301049050919050565b5f82821b905092915050565b5f6008830261234a7fffffffffffffffffffffffffffffffffffffffffffffffffffffffffffffffff8261230f565b612354868361230f565b95508019841693508086168417925050509392505050565b5f819050919050565b5f61238f61238a61238584611fe7565b61236c565b611fe7565b9050919050565b5f819050919050565b6123a883612375565b6123bc6123b482612396565b84845461231b565b825550505050565b5f5f905090565b6123d36123c4565b6123de81848461239f565b505050565b5b81811015612401576123f65f826123cb565b6001810190506123e4565b5050565b601f82111561244657612417816122ee565b61242084612300565b8101602085101561242f578190505b61244361243b85612300565b8301826123e3565b50505b505050565b5f82821c905092915050565b5f6124665f198460080261244b565b1980831691505092915050565b5f61247e8383612457565b9150826002028217905092915050565b612498838361225a565b67ffffffffffffffff8111156124b1576124b0612264565b5b6124bb82546122be565b6124c6828285612405565b5f601f8311600181146124f3575f84156124e1578287013590505b6124eb8582612473565b865550612552565b601f198416612501866122ee565b5f5b8281101561252857848901358255600182019150602085019450602081019050612503565b868310156125455784890135612541601f891682612457565b8355505b6001600288020188555050505b50505050505050565b5f6125668385611f81565b93506125738385846121a8565b61257c83611f9f565b840190509392505050565b5f6020820190508181035f8301526125a081848661255b565b90509392505050565b7f4f6e6c792061646d696e2063616e2063616c6c207468697300000000000000005f82015250565b5f6125dd601883611f81565b91506125e8826125a9565b602082019050919050565b5f6020820190508181035f83015261260a816125d1565b9050919050565b7f5a65726f2061646472657373206e6f7420616c6c6f77656400000000000000005f82015250565b5f612645601883611f81565b915061265082612611565b602082019050919050565b5f6020820190508181035f83015261267281612639565b9050919050565b7f526f6c652063616e6e6f74206265204e6f6e65000000000000000000000000005f82015250565b5f6126ad601383611f81565b91506126b882612679565b602082019050919050565b5f6020820190508181035f8301526126da816126a1565b9050919050565b7f43616e6e6f742061737369676e2041646d696e20726f6c6500000000000000005f82015250565b5f612715601883611f81565b9150612720826126e1565b602082019050919050565b5f6020820190508181035f83015261274281612709565b9050919050565b7f496e76616c696420726f6c6520666f72207468697320616374696f6e000000005f82015250565b5f61277d601c83611f81565b915061278882612749565b602082019050919050565b5f6020820190508181035f8301526127aa81612771565b9050919050565b7f62617463684964207265717569726564000000000000000000000000000000005f82015250565b5f6127e5601083611f81565b91506127f0826127b1565b602082019050919050565b5f6020820190508181035f830152612812816127d9565b9050919050565b7f70726f647563744e616d652072657175697265640000000000000000000000005f82015250565b5f61284d601483611f81565b915061285882612819565b602082019050919050565b5f6020820190508181035f83015261287a81612841565b9050919050565b7f4475706c696361746520626174636849640000000000000000000000000000005f82015250565b5f6128b5601183611f81565b91506128c082612881565b602082019050919050565b5f6020820190508181035f8301526128e2816128a9565b9050919050565b6128f282611f77565b67ffffffffffffffff81111561290b5761290a612264565b5b61291582546122be565b612920828285612405565b5f60209050601f831160018114612951575f841561293f578287015190505b6129498582612473565b8655506129b0565b601f19841661295f866122ee565b5f5b8281101561298657848901518255600182019150602085019450602081019050612961565b868310156129a3578489015161299f601f891682612457565b8355505b6001600288020188555050505b505050505050565b7f50726f64756365640000000000000000000000000000000000000000000000005f82015250565b5f6129ec600883611f81565b91506129f7826129b8565b602082019050919050565b5f6020820190508181035f830152612a19816129e0565b9050919050565b7f4e6f742063757272656e74206f776e65720000000000000000000000000000005f82015250565b5f612a54601183611f81565b9150612a5f82612a20565b602082019050919050565b5f6020820190508181035f830152612a8181612a48565b9050919050565b7f5a65726f206164647265737300000000000000000000000000000000000000005f82015250565b5f612abc600c83611f81565b9150612ac782612a88565b602082019050919050565b5f6020820190508181035f830152612ae981612ab0565b9050919050565b7f526563697069656e74206e6f7420617574686f72697a656400000000000000005f82015250565b5f612b24601883611f81565b9150612b2f82612af0565b602082019050919050565b5f6020820190508181035f830152612b5181612b18565b9050919050565b7f50726f6475636572202d3e2048616c616c417574686f72697479206f6e6c79005f82015250565b5f612b8c601f83611f81565b9150612b9782612b58565b602082019050919050565b5f6020820190508181035f830152612bb981612b80565b9050919050565b7f48616c616c417574686f72697479202d3e204469737472696275746f72206f6e5f8201527f6c79000000000000000000000000000000000000000000000000000000000000602082015250565b5f612c1a602283611f81565b9150612c2582612bc0565b604082019050919050565b5f6020820190508181035f830152612c4781612c0e565b9050919050565b7f4469737472696275746f72202d3e2052657461696c6572206f6e6c79000000005f82015250565b5f612c82601c83611f81565b9150612c8d82612c4e565b602082019050919050565b5f6020820190508181035f830152612caf81612c76565b9050919050565b7f5468697320726f6c652063616e6e6f74207472616e73666572206261746368005f82015250565b5f612cea601f83611f81565b9150612cf582612cb6565b602082019050919050565b5f6020820190508181035f830152612d1781612cde565b9050919050565b7f5472616e736665727265640000000000000000000000000000000000000000005f82015250565b5f612d52600b83611f81565b9150612d5d82612d1e565b602082019050919050565b5f6020820190508181035f830152612d7f81612d46565b9050919050565b7f63657274486173682072657175697265640000000000000000000000000000005f82015250565b5f612dba601183611f81565b9150612dc582612d86565b602082019050919050565b5f6020820190508181035f830152612de781612dae565b9050919050565b7f48616c616c20616c7265616479206365727469666965640000000000000000005f82015250565b5f612e22601783611f81565b9150612e2d82612dee565b602082019050919050565b5f6020820190508181035f830152612e4f81612e16565b9050919050565b7f4365727469666965642048616c616c00000000000000000000000000000000005f82015250565b5f612e8a600f83611f81565b9150612e9582612e56565b602082019050919050565b5f6020820190508181035f830152612eb781612e7e565b905091905056fea2646970667358221220c07f1d5f9190ab3a815521d5d8eafc7731db0672c1802ec3018ca722ac7be09364736f6c634300081f0033",
					"opcodes": "PUSH1 0x80 PUSH1 0x40 MSTORE CALLVALUE DUP1 ISZERO PUSH2 0xF JUMPI PUSH0 PUSH0 REVERT JUMPDEST POP CALLER PUSH0 PUSH0 PUSH2 0x100 EXP DUP2 SLOAD DUP2 PUSH20 0xFFFFFFFFFFFFFFFFFFFFFFFFFFFFFFFFFFFFFFFF MUL NOT AND SWAP1 DUP4 PUSH20 0xFFFFFFFFFFFFFFFFFFFFFFFFFFFFFFFFFFFFFFFF AND MUL OR SWAP1 SSTORE POP PUSH1 0x1 DUP1 PUSH0 CALLER PUSH20 0xFFFFFFFFFFFFFFFFFFFFFFFFFFFFFFFFFFFFFFFF AND PUSH20 0xFFFFFFFFFFFFFFFFFFFFFFFFFFFFFFFFFFFFFFFF AND DUP2 MSTORE PUSH1 0x20 ADD SWAP1 DUP2 MSTORE PUSH1 0x20 ADD PUSH0 KECCAK256 PUSH0 PUSH2 0x100 EXP DUP2 SLOAD DUP2 PUSH1 0xFF MUL NOT AND SWAP1 DUP4 PUSH1 0x5 DUP2 GT ISZERO PUSH2 0xAE JUMPI PUSH2 0xAD PUSH2 0x107 JUMP JUMPDEST JUMPDEST MUL OR SWAP1 SSTORE POP CALLER PUSH20 0xFFFFFFFFFFFFFFFFFFFFFFFFFFFFFFFFFFFFFFFF AND PUSH32 0x7DFB9FC416E4287AFA0615B649CB29F7B04A76C92ECDCA2F8DC3DFD55158A3B4 PUSH1 0x1 PUSH1 0x40 MLOAD PUSH2 0xFA SWAP2 SWAP1 PUSH2 0x17A JUMP JUMPDEST PUSH1 0x40 MLOAD DUP1 SWAP2 SUB SWAP1 LOG2 PUSH2 0x193 JUMP JUMPDEST PUSH32 0x4E487B7100000000000000000000000000000000000000000000000000000000 PUSH0 MSTORE PUSH1 0x21 PUSH1 0x4 MSTORE PUSH1 0x24 PUSH0 REVERT JUMPDEST PUSH1 0x6 DUP2 LT PUSH2 0x145 JUMPI PUSH2 0x144 PUSH2 0x107 JUMP JUMPDEST JUMPDEST POP JUMP JUMPDEST PUSH0 DUP2 SWAP1 POP PUSH2 0x155 DUP3 PUSH2 0x134 JUMP JUMPDEST SWAP2 SWAP1 POP JUMP JUMPDEST PUSH0 PUSH2 0x164 DUP3 PUSH2 0x148 JUMP JUMPDEST SWAP1 POP SWAP2 SWAP1 POP JUMP JUMPDEST PUSH2 0x174 DUP2 PUSH2 0x15A JUMP JUMPDEST DUP3 MSTORE POP POP JUMP JUMPDEST PUSH0 PUSH1 0x20 DUP3 ADD SWAP1 POP PUSH2 0x18D PUSH0 DUP4 ADD DUP5 PUSH2 0x16B JUMP JUMPDEST SWAP3 SWAP2 POP POP JUMP JUMPDEST PUSH2 0x2EF4 DUP1 PUSH2 0x1A0 PUSH0 CODECOPY PUSH0 RETURN INVALID PUSH1 0x80 PUSH1 0x40 MSTORE CALLVALUE DUP1 ISZERO PUSH2 0xF JUMPI PUSH0 PUSH0 REVERT JUMPDEST POP PUSH1 0x4 CALLDATASIZE LT PUSH2 0x91 JUMPI PUSH0 CALLDATALOAD PUSH1 0xE0 SHR DUP1 PUSH4 0x99374642 GT PUSH2 0x64 JUMPI DUP1 PUSH4 0x99374642 EQ PUSH2 0x119 JUMPI DUP1 PUSH4 0xB401563B EQ PUSH2 0x149 JUMPI DUP1 PUSH4 0xBBB65699 EQ PUSH2 0x165 JUMPI DUP1 PUSH4 0xF851A440 EQ PUSH2 0x181 JUMPI DUP1 PUSH4 0xF9CA4274 EQ PUSH2 0x19F JUMPI PUSH2 0x91 JUMP JUMPDEST DUP1 PUSH4 0x347047CC EQ PUSH2 0x95 JUMPI DUP1 PUSH4 0x374ACB1B EQ PUSH2 0xB1 JUMPI DUP1 PUSH4 0x630A195B EQ PUSH2 0xE1 JUMPI DUP1 PUSH4 0x92B8F021 EQ PUSH2 0xFD JUMPI JUMPDEST PUSH0 PUSH0 REVERT JUMPDEST PUSH2 0xAF PUSH1 0x4 DUP1 CALLDATASIZE SUB DUP2 ADD SWAP1 PUSH2 0xAA SWAP2 SWAP1 PUSH2 0x1C84 JUMP JUMPDEST PUSH2 0x1D5 JUMP JUMPDEST STOP JUMPDEST PUSH2 0xCB PUSH1 0x4 DUP1 CALLDATASIZE SUB DUP2 ADD SWAP1 PUSH2 0xC6 SWAP2 SWAP1 PUSH2 0x1D02 JUMP JUMPDEST PUSH2 0x49F JUMP JUMPDEST PUSH1 0x40 MLOAD PUSH2 0xD8 SWAP2 SWAP1 PUSH2 0x1D67 JUMP JUMPDEST PUSH1 0x40 MLOAD DUP1 SWAP2 SUB SWAP1 RETURN JUMPDEST PUSH2 0xFB PUSH1 0x4 DUP1 CALLDATASIZE SUB DUP2 ADD SWAP1 PUSH2 0xF6 SWAP2 SWAP1 PUSH2 0x1DFD JUMP JUMPDEST PUSH2 0x4D8 JUMP JUMPDEST STOP JUMPDEST PUSH2 0x117 PUSH1 0x4 DUP1 CALLDATASIZE SUB DUP2 ADD SWAP1 PUSH2 0x112 SWAP2 SWAP1 PUSH2 0x1C84 JUMP JUMPDEST PUSH2 0x757 JUMP JUMPDEST STOP JUMPDEST PUSH2 0x133 PUSH1 0x4 DUP1 CALLDATASIZE SUB DUP2 ADD SWAP1 PUSH2 0x12E SWAP2 SWAP1 PUSH2 0x1E3B JUMP JUMPDEST PUSH2 0xC5E JUMP JUMPDEST PUSH1 0x40 MLOAD PUSH2 0x140 SWAP2 SWAP1 PUSH2 0x1ED9 JUMP JUMPDEST PUSH1 0x40 MLOAD DUP1 SWAP2 SUB SWAP1 RETURN JUMPDEST PUSH2 0x163 PUSH1 0x4 DUP1 CALLDATASIZE SUB DUP2 ADD SWAP1 PUSH2 0x15E SWAP2 SWAP1 PUSH2 0x1EF2 JUMP JUMPDEST PUSH2 0xC7B JUMP JUMPDEST STOP JUMPDEST PUSH2 0x17F PUSH1 0x4 DUP1 CALLDATASIZE SUB DUP2 ADD SWAP1 PUSH2 0x17A SWAP2 SWAP1 PUSH2 0x1C84 JUMP JUMPDEST PUSH2 0x13C6 JUMP JUMPDEST STOP JUMPDEST PUSH2 0x189 PUSH2 0x187A JUMP JUMPDEST PUSH1 0x40 MLOAD PUSH2 0x196 SWAP2 SWAP1 PUSH2 0x1F5E JUMP JUMPDEST PUSH1 0x40 MLOAD DUP1 SWAP2 SUB SWAP1 RETURN JUMPDEST PUSH2 0x1B9 PUSH1 0x4 DUP1 CALLDATASIZE SUB DUP2 ADD SWAP1 PUSH2 0x1B4 SWAP2 SWAP1 PUSH2 0x1D02 JUMP JUMPDEST PUSH2 0x189E JUMP JUMPDEST PUSH1 0x40 MLOAD PUSH2 0x1CC SWAP8 SWAP7 SWAP6 SWAP5 SWAP4 SWAP3 SWAP2 SWAP1 PUSH2 0x1FFF JUMP JUMPDEST PUSH1 0x40 MLOAD DUP1 SWAP2 SUB SWAP1 RETURN JUMPDEST DUP4 DUP4 DUP1 DUP1 PUSH1 0x1F ADD PUSH1 0x20 DUP1 SWAP2 DIV MUL PUSH1 0x20 ADD PUSH1 0x40 MLOAD SWAP1 DUP2 ADD PUSH1 0x40 MSTORE DUP1 SWAP4 SWAP3 SWAP2 SWAP1 DUP2 DUP2 MSTORE PUSH1 0x20 ADD DUP4 DUP4 DUP1 DUP3 DUP5 CALLDATACOPY PUSH0 DUP2 DUP5 ADD MSTORE PUSH1 0x1F NOT PUSH1 0x1F DUP3 ADD AND SWAP1 POP DUP1 DUP4 ADD SWAP3 POP POP POP POP POP POP POP PUSH1 0x2 DUP2 PUSH1 0x40 MLOAD PUSH2 0x229 SWAP2 SWAP1 PUSH2 0x20C2 JUMP JUMPDEST SWAP1 DUP2 MSTORE PUSH1 0x20 ADD PUSH1 0x40 MLOAD DUP1 SWAP2 SUB SWAP1 KECCAK256 PUSH1 0x7 ADD PUSH0 SWAP1 SLOAD SWAP1 PUSH2 0x100 EXP SWAP1 DIV PUSH1 0xFF AND PUSH2 0x286 JUMPI PUSH1 0x40 MLOAD PUSH32 0x8C379A000000000000000000000000000000000000000000000000000000000 DUP2 MSTORE PUSH1 0x4 ADD PUSH2 0x27D SWAP1 PUSH2 0x2122 JUMP JUMPDEST PUSH1 0x40 MLOAD DUP1 SWAP2 SUB SWAP1 REVERT JUMPDEST PUSH0 DUP4 DUP4 SWAP1 POP GT PUSH2 0x2CB JUMPI PUSH1 0x40 MLOAD PUSH32 0x8C379A000000000000000000000000000000000000000000000000000000000 DUP2 MSTORE PUSH1 0x4 ADD PUSH2 0x2C2 SWAP1 PUSH2 0x218A JUMP JUMPDEST PUSH1 0x40 MLOAD DUP1 SWAP2 SUB SWAP1 REVERT JUMPDEST PUSH0 CALLER PUSH20 0xFFFFFFFFFFFFFFFFFFFFFFFFFFFFFFFFFFFFFFFF AND PUSH1 0x2 DUP8 DUP8 PUSH1 0x40 MLOAD PUSH2 0x2F5 SWAP3 SWAP2 SWAP1 PUSH2 0x21DA JUMP JUMPDEST SWAP1 DUP2 MSTORE PUSH1 0x20 ADD PUSH1 0x40 MLOAD DUP1 SWAP2 SUB SWAP1 KECCAK256 PUSH1 0x3 ADD PUSH0 SWAP1 SLOAD SWAP1 PUSH2 0x100 EXP SWAP1 DIV PUSH20 0xFFFFFFFFFFFFFFFFFFFFFFFFFFFFFFFFFFFFFFFF AND PUSH20 0xFFFFFFFFFFFFFFFFFFFFFFFFFFFFFFFFFFFFFFFF AND EQ SWAP1 POP PUSH0 PUSH0 PUSH1 0x5 DUP2 GT ISZERO PUSH2 0x353 JUMPI PUSH2 0x352 PUSH2 0x1E66 JUMP JUMPDEST JUMPDEST PUSH1 0x1 PUSH0 CALLER PUSH20 0xFFFFFFFFFFFFFFFFFFFFFFFFFFFFFFFFFFFFFFFF AND PUSH20 0xFFFFFFFFFFFFFFFFFFFFFFFFFFFFFFFFFFFFFFFF AND DUP2 MSTORE PUSH1 0x20 ADD SWAP1 DUP2 MSTORE PUSH1 0x20 ADD PUSH0 KECCAK256 PUSH0 SWAP1 SLOAD SWAP1 PUSH2 0x100 EXP SWAP1 DIV PUSH1 0xFF AND PUSH1 0x5 DUP2 GT ISZERO PUSH2 0x3AF JUMPI PUSH2 0x3AE PUSH2 0x1E66 JUMP JUMPDEST JUMPDEST EQ ISZERO SWAP1 POP DUP2 DUP1 PUSH2 0x3BC JUMPI POP DUP1 JUMPDEST PUSH2 0x3FB JUMPI PUSH1 0x40 MLOAD PUSH32 0x8C379A000000000000000000000000000000000000000000000000000000000 DUP2 MSTORE PUSH1 0x4 ADD PUSH2 0x3F2 SWAP1 PUSH2 0x223C JUMP JUMPDEST PUSH1 0x40 MLOAD DUP1 SWAP2 SUB SWAP1 REVERT JUMPDEST DUP5 DUP5 PUSH1 0x2 DUP10 DUP10 PUSH1 0x40 MLOAD PUSH2 0x40F SWAP3 SWAP2 SWAP1 PUSH2 0x21DA JUMP JUMPDEST SWAP1 DUP2 MSTORE PUSH1 0x20 ADD PUSH1 0x40 MLOAD DUP1 SWAP2 SUB SWAP1 KECCAK256 PUSH1 0x4 ADD SWAP2 DUP3 PUSH2 0x42D SWAP3 SWAP2 SWAP1 PUSH2 0x248E JUMP JUMPDEST POP CALLER PUSH20 0xFFFFFFFFFFFFFFFFFFFFFFFFFFFFFFFFFFFFFFFF AND DUP8 DUP8 PUSH1 0x40 MLOAD PUSH2 0x455 SWAP3 SWAP2 SWAP1 PUSH2 0x21DA JUMP JUMPDEST PUSH1 0x40 MLOAD DUP1 SWAP2 SUB SWAP1 KECCAK256 PUSH32 0xA40410F71AFCB456EF810BF2C9CF8D0E917213D9477633602D780D212F0B9389 DUP8 DUP8 PUSH1 0x40 MLOAD PUSH2 0x48E SWAP3 SWAP2 SWAP1 PUSH2 0x2587 JUMP JUMPDEST PUSH1 0x40 MLOAD DUP1 SWAP2 SUB SWAP1 LOG3 POP POP POP POP POP POP POP JUMP JUMPDEST PUSH0 PUSH1 0x2 DUP4 DUP4 PUSH1 0x40 MLOAD PUSH2 0x4B2 SWAP3 SWAP2 SWAP1 PUSH2 0x21DA JUMP JUMPDEST SWAP1 DUP2 MSTORE PUSH1 0x20 ADD PUSH1 0x40 MLOAD DUP1 SWAP2 SUB SWAP1 KECCAK256 PUSH1 0x7 ADD PUSH0 SWAP1 SLOAD SWAP1 PUSH2 0x100 EXP SWAP1 DIV PUSH1 0xFF AND SWAP1 POP SWAP3 SWAP2 POP POP JUMP JUMPDEST PUSH0 PUSH0 SWAP1 SLOAD SWAP1 PUSH2 0x100 EXP SWAP1 DIV PUSH20 0xFFFFFFFFFFFFFFFFFFFFFFFFFFFFFFFFFFFFFFFF AND PUSH20 0xFFFFFFFFFFFFFFFFFFFFFFFFFFFFFFFFFFFFFFFF AND CALLER PUSH20 0xFFFFFFFFFFFFFFFFFFFFFFFFFFFFFFFFFFFFFFFF AND EQ PUSH2 0x566 JUMPI PUSH1 0x40 MLOAD PUSH32 0x8C379A000000000000000000000000000000000000000000000000000000000 DUP2 MSTORE PUSH1 0x4 ADD PUSH2 0x55D SWAP1 PUSH2 0x25F3 JUMP JUMPDEST PUSH1 0x40 MLOAD DUP1 SWAP2 SUB SWAP1 REVERT JUMPDEST PUSH0 PUSH20 0xFFFFFFFFFFFFFFFFFFFFFFFFFFFFFFFFFFFFFFFF AND DUP3 PUSH20 0xFFFFFFFFFFFFFFFFFFFFFFFFFFFFFFFFFFFFFFFF AND SUB PUSH2 0x5D4 JUMPI PUSH1 0x40 MLOAD PUSH32 0x8C379A000000000000000000000000000000000000000000000000000000000 DUP2 MSTORE PUSH1 0x4 ADD PUSH2 0x5CB SWAP1 PUSH2 0x265B JUMP JUMPDEST PUSH1 0x40 MLOAD DUP1 SWAP2 SUB SWAP1 REVERT JUMPDEST PUSH0 PUSH1 0x5 DUP2 GT ISZERO PUSH2 0x5E7 JUMPI PUSH2 0x5E6 PUSH2 0x1E66 JUMP JUMPDEST JUMPDEST DUP2 PUSH1 0x5 DUP2 GT ISZERO PUSH2 0x5FA JUMPI PUSH2 0x5F9 PUSH2 0x1E66 JUMP JUMPDEST JUMPDEST SUB PUSH2 0x63A JUMPI PUSH1 0x40 MLOAD PUSH32 0x8C379A000000000000000000000000000000000000000000000000000000000 DUP2 MSTORE PUSH1 0x4 ADD PUSH2 0x631 SWAP1 PUSH2 0x26C3 JUMP JUMPDEST PUSH1 0x40 MLOAD DUP1 SWAP2 SUB SWAP1 REVERT JUMPDEST PUSH1 0x1 PUSH1 0x5 DUP2 GT ISZERO PUSH2 0x64E JUMPI PUSH2 0x64D PUSH2 0x1E66 JUMP JUMPDEST JUMPDEST DUP2 PUSH1 0x5 DUP2 GT ISZERO PUSH2 0x661 JUMPI PUSH2 0x660 PUSH2 0x1E66 JUMP JUMPDEST JUMPDEST SUB PUSH2 0x6A1 JUMPI PUSH1 0x40 MLOAD PUSH32 0x8C379A000000000000000000000000000000000000000000000000000000000 DUP2 MSTORE PUSH1 0x4 ADD PUSH2 0x698 SWAP1 PUSH2 0x272B JUMP JUMPDEST PUSH1 0x40 MLOAD DUP1 SWAP2 SUB SWAP1 REVERT JUMPDEST DUP1 PUSH1 0x1 PUSH0 DUP5 PUSH20 0xFFFFFFFFFFFFFFFFFFFFFFFFFFFFFFFFFFFFFFFF AND PUSH20 0xFFFFFFFFFFFFFFFFFFFFFFFFFFFFFFFFFFFFFFFF AND DUP2 MSTORE PUSH1 0x20 ADD SWAP1 DUP2 MSTORE PUSH1 0x20 ADD PUSH0 KECCAK256 PUSH0 PUSH2 0x100 EXP DUP2 SLOAD DUP2 PUSH1 0xFF MUL NOT AND SWAP1 DUP4 PUSH1 0x5 DUP2 GT ISZERO PUSH2 0x700 JUMPI PUSH2 0x6FF PUSH2 0x1E66 JUMP JUMPDEST JUMPDEST MUL OR SWAP1 SSTORE POP DUP2 PUSH20 0xFFFFFFFFFFFFFFFFFFFFFFFFFFFFFFFFFFFFFFFF AND PUSH32 0x7DFB9FC416E4287AFA0615B649CB29F7B04A76C92ECDCA2F8DC3DFD55158A3B4 DUP3 PUSH1 0x40 MLOAD PUSH2 0x74B SWAP2 SWAP1 PUSH2 0x1ED9 JUMP JUMPDEST PUSH1 0x40 MLOAD DUP1 SWAP2 SUB SWAP1 LOG2 POP POP JUMP JUMPDEST PUSH1 0x2 DUP1 PUSH1 0x5 DUP2 GT ISZERO PUSH2 0x76C JUMPI PUSH2 0x76B PUSH2 0x1E66 JUMP JUMPDEST JUMPDEST PUSH1 0x1 PUSH0 CALLER PUSH20 0xFFFFFFFFFFFFFFFFFFFFFFFFFFFFFFFFFFFFFFFF AND PUSH20 0xFFFFFFFFFFFFFFFFFFFFFFFFFFFFFFFFFFFFFFFF AND DUP2 MSTORE PUSH1 0x20 ADD SWAP1 DUP2 MSTORE PUSH1 0x20 ADD PUSH0 KECCAK256 PUSH0 SWAP1 SLOAD SWAP1 PUSH2 0x100 EXP SWAP1 DIV PUSH1 0xFF AND PUSH1 0x5 DUP2 GT ISZERO PUSH2 0x7C8 JUMPI PUSH2 0x7C7 PUSH2 0x1E66 JUMP JUMPDEST JUMPDEST EQ PUSH2 0x808 JUMPI PUSH1 0x40 MLOAD PUSH32 0x8C379A000000000000000000000000000000000000000000000000000000000 DUP2 MSTORE PUSH1 0x4 ADD PUSH2 0x7FF SWAP1 PUSH2 0x2793 JUMP JUMPDEST PUSH1 0x40 MLOAD DUP1 SWAP2 SUB SWAP1 REVERT JUMPDEST PUSH0 DUP6 DUP6 SWAP1 POP GT PUSH2 0x84D JUMPI PUSH1 0x40 MLOAD PUSH32 0x8C379A000000000000000000000000000000000000000000000000000000000 DUP2 MSTORE PUSH1 0x4 ADD PUSH2 0x844 SWAP1 PUSH2 0x27FB JUMP JUMPDEST PUSH1 0x40 MLOAD DUP1 SWAP2 SUB SWAP1 REVERT JUMPDEST PUSH0 DUP4 DUP4 SWAP1 POP GT PUSH2 0x892 JUMPI PUSH1 0x40 MLOAD PUSH32 0x8C379A000000000000000000000000000000000000000000000000000000000 DUP2 MSTORE PUSH1 0x4 ADD PUSH2 0x889 SWAP1 PUSH2 0x2863 JUMP JUMPDEST PUSH1 0x40 MLOAD DUP1 SWAP2 SUB SWAP1 REVERT JUMPDEST PUSH1 0x2 DUP6 DUP6 PUSH1 0x40 MLOAD PUSH2 0x8A4 SWAP3 SWAP2 SWAP1 PUSH2 0x21DA JUMP JUMPDEST SWAP1 DUP2 MSTORE PUSH1 0x20 ADD PUSH1 0x40 MLOAD DUP1 SWAP2 SUB SWAP1 KECCAK256 PUSH1 0x7 ADD PUSH0 SWAP1 SLOAD SWAP1 PUSH2 0x100 EXP SWAP1 DIV PUSH1 0xFF AND ISZERO PUSH2 0x902 JUMPI PUSH1 0x40 MLOAD PUSH32 0x8C379A000000000000000000000000000000000000000000000000000000000 DUP2 MSTORE PUSH1 0x4 ADD PUSH2 0x8F9 SWAP1 PUSH2 0x28CB JUMP JUMPDEST PUSH1 0x40 MLOAD DUP1 SWAP2 SUB SWAP1 REVERT JUMPDEST PUSH1 0x40 MLOAD DUP1 PUSH2 0x120 ADD PUSH1 0x40 MSTORE DUP1 DUP5 DUP5 DUP1 DUP1 PUSH1 0x1F ADD PUSH1 0x20 DUP1 SWAP2 DIV MUL PUSH1 0x20 ADD PUSH1 0x40 MLOAD SWAP1 DUP2 ADD PUSH1 0x40 MSTORE DUP1 SWAP4 SWAP3 SWAP2 SWAP1 DUP2 DUP2 MSTORE PUSH1 0x20 ADD DUP4 DUP4 DUP1 DUP3 DUP5 CALLDATACOPY PUSH0 DUP2 DUP5 ADD MSTORE PUSH1 0x1F NOT PUSH1 0x1F DUP3 ADD AND SWAP1 POP DUP1 DUP4 ADD SWAP3 POP POP POP POP POP POP POP DUP2 MSTORE PUSH1 0x20 ADD DUP7 DUP7 DUP1 DUP1 PUSH1 0x1F ADD PUSH1 0x20 DUP1 SWAP2 DIV MUL PUSH1 0x20 ADD PUSH1 0x40 MLOAD SWAP1 DUP2 ADD PUSH1 0x40 MSTORE DUP1 SWAP4 SWAP3 SWAP2 SWAP1 DUP2 DUP2 MSTORE PUSH1 0x20 ADD DUP4 DUP4 DUP1 DUP3 DUP5 CALLDATACOPY PUSH0 DUP2 DUP5 ADD MSTORE PUSH1 0x1F NOT PUSH1 0x1F DUP3 ADD AND SWAP1 POP DUP1 DUP4 ADD SWAP3 POP POP POP POP POP POP POP DUP2 MSTORE PUSH1 0x20 ADD CALLER PUSH20 0xFFFFFFFFFFFFFFFFFFFFFFFFFFFFFFFFFFFFFFFF AND DUP2 MSTORE PUSH1 0x20 ADD CALLER PUSH20 0xFFFFFFFFFFFFFFFFFFFFFFFFFFFFFFFFFFFFFFFF AND DUP2 MSTORE PUSH1 0x20 ADD PUSH1 0x40 MLOAD DUP1 PUSH1 0x40 ADD PUSH1 0x40 MSTORE DUP1 PUSH1 0x8 DUP2 MSTORE PUSH1 0x20 ADD PUSH32 0x50726F6475636564000000000000000000000000000000000000000000000000 DUP2 MSTORE POP DUP2 MSTORE PUSH1 0x20 ADD PUSH1 0x40 MLOAD DUP1 PUSH1 0x20 ADD PUSH1 0x40 MSTORE DUP1 PUSH0 DUP2 MSTORE POP DUP2 MSTORE PUSH1 0x20 ADD TIMESTAMP DUP2 MSTORE PUSH1 0x20 ADD PUSH1 0x1 ISZERO ISZERO DUP2 MSTORE PUSH1 0x20 ADD PUSH0 ISZERO ISZERO DUP2 MSTORE POP PUSH1 0x2 DUP7 DUP7 PUSH1 0x40 MLOAD PUSH2 0xA4E SWAP3 SWAP2 SWAP1 PUSH2 0x21DA JUMP JUMPDEST SWAP1 DUP2 MSTORE PUSH1 0x20 ADD PUSH1 0x40 MLOAD DUP1 SWAP2 SUB SWAP1 KECCAK256 PUSH0 DUP3 ADD MLOAD DUP2 PUSH0 ADD SWAP1 DUP2 PUSH2 0xA6F SWAP2 SWAP1 PUSH2 0x28E9 JUMP JUMPDEST POP PUSH1 0x20 DUP3 ADD MLOAD DUP2 PUSH1 0x1 ADD SWAP1 DUP2 PUSH2 0xA85 SWAP2 SWAP1 PUSH2 0x28E9 JUMP JUMPDEST POP PUSH1 0x40 DUP3 ADD MLOAD DUP2 PUSH1 0x2 ADD PUSH0 PUSH2 0x100 EXP DUP2 SLOAD DUP2 PUSH20 0xFFFFFFFFFFFFFFFFFFFFFFFFFFFFFFFFFFFFFFFF MUL NOT AND SWAP1 DUP4 PUSH20 0xFFFFFFFFFFFFFFFFFFFFFFFFFFFFFFFFFFFFFFFF AND MUL OR SWAP1 SSTORE POP PUSH1 0x60 DUP3 ADD MLOAD DUP2 PUSH1 0x3 ADD PUSH0 PUSH2 0x100 EXP DUP2 SLOAD DUP2 PUSH20 0xFFFFFFFFFFFFFFFFFFFFFFFFFFFFFFFFFFFFFFFF MUL NOT AND SWAP1 DUP4 PUSH20 0xFFFFFFFFFFFFFFFFFFFFFFFFFFFFFFFFFFFFFFFF AND MUL OR SWAP1 SSTORE POP PUSH1 0x80 DUP3 ADD MLOAD DUP2 PUSH1 0x4 ADD SWAP1 DUP2 PUSH2 0xB27 SWAP2 SWAP1 PUSH2 0x28E9 JUMP JUMPDEST POP PUSH1 0xA0 DUP3 ADD MLOAD DUP2 PUSH1 0x5 ADD SWAP1 DUP2 PUSH2 0xB3D SWAP2 SWAP1 PUSH2 0x28E9 JUMP JUMPDEST POP PUSH1 0xC0 DUP3 ADD MLOAD DUP2 PUSH1 0x6 ADD SSTORE PUSH1 0xE0 DUP3 ADD MLOAD DUP2 PUSH1 0x7 ADD PUSH0 PUSH2 0x100 EXP DUP2 SLOAD DUP2 PUSH1 0xFF MUL NOT AND SWAP1 DUP4 ISZERO ISZERO MUL OR SWAP1 SSTORE POP PUSH2 0x100 DUP3 ADD MLOAD DUP2 PUSH1 0x7 ADD PUSH1 0x1 PUSH2 0x100 EXP DUP2 SLOAD DUP2 PUSH1 0xFF MUL NOT AND SWAP1 DUP4 ISZERO ISZERO MUL OR SWAP1 SSTORE POP SWAP1 POP POP CALLER PUSH20 0xFFFFFFFFFFFFFFFFFFFFFFFFFFFFFFFFFFFFFFFF AND DUP6 DUP6 PUSH1 0x40 MLOAD PUSH2 0xBB2 SWAP3 SWAP2 SWAP1 PUSH2 0x21DA JUMP JUMPDEST PUSH1 0x40 MLOAD DUP1 SWAP2 SUB SWAP1 KECCAK256 PUSH32 0x14A4819B534290CB8CCFB4060D5410E04C15B9493BCCAE224D5B9AE9E6F939D0 DUP6 DUP6 PUSH1 0x40 MLOAD PUSH2 0xBEB SWAP3 SWAP2 SWAP1 PUSH2 0x2587 JUMP JUMPDEST PUSH1 0x40 MLOAD DUP1 SWAP2 SUB SWAP1 LOG3 CALLER PUSH20 0xFFFFFFFFFFFFFFFFFFFFFFFFFFFFFFFFFFFFFFFF AND DUP6 DUP6 PUSH1 0x40 MLOAD PUSH2 0xC1A SWAP3 SWAP2 SWAP1 PUSH2 0x21DA JUMP JUMPDEST PUSH1 0x40 MLOAD DUP1 SWAP2 SUB SWAP1 KECCAK256 PUSH32 0xA40410F71AFCB456EF810BF2C9CF8D0E917213D9477633602D780D212F0B9389 PUSH1 0x40 MLOAD PUSH2 0xC4F SWAP1 PUSH2 0x2A02 JUMP JUMPDEST PUSH1 0x40 MLOAD DUP1 SWAP2 SUB SWAP1 LOG3 POP POP POP POP POP JUMP JUMPDEST PUSH1 0x1 PUSH1 0x20 MSTORE DUP1 PUSH0 MSTORE PUSH1 0x40 PUSH0 KECCAK256 PUSH0 SWAP2 POP SLOAD SWAP1 PUSH2 0x100 EXP SWAP1 DIV PUSH1 0xFF AND DUP2 JUMP JUMPDEST DUP3 DUP3 DUP1 DUP1 PUSH1 0x1F ADD PUSH1 0x20 DUP1 SWAP2 DIV MUL PUSH1 0x20 ADD PUSH1 0x40 MLOAD SWAP1 DUP2 ADD PUSH1 0x40 MSTORE DUP1 SWAP4 SWAP3 SWAP2 SWAP1 DUP2 DUP2 MSTORE PUSH1 0x20 ADD DUP4 DUP4 DUP1 DUP3 DUP5 CALLDATACOPY PUSH0 DUP2 DUP5 ADD MSTORE PUSH1 0x1F NOT PUSH1 0x1F DUP3 ADD AND SWAP1 POP DUP1 DUP4 ADD SWAP3 POP POP POP POP POP POP POP PUSH1 0x2 DUP2 PUSH1 0x40 MLOAD PUSH2 0xCCF SWAP2 SWAP1 PUSH2 0x20C2 JUMP JUMPDEST SWAP1 DUP2 MSTORE PUSH1 0x20 ADD PUSH1 0x40 MLOAD DUP1 SWAP2 SUB SWAP1 KECCAK256 PUSH1 0x7 ADD PUSH0 SWAP1 SLOAD SWAP1 PUSH2 0x100 EXP SWAP1 DIV PUSH1 0xFF AND PUSH2 0xD2C JUMPI PUSH1 0x40 MLOAD PUSH32 0x8C379A000000000000000000000000000000000000000000000000000000000 DUP2 MSTORE PUSH1 0x4 ADD PUSH2 0xD23 SWAP1 PUSH2 0x2122 JUMP JUMPDEST PUSH1 0x40 MLOAD DUP1 SWAP2 SUB SWAP1 REVERT JUMPDEST DUP4 DUP4 DUP1 DUP1 PUSH1 0x1F ADD PUSH1 0x20 DUP1 SWAP2 DIV MUL PUSH1 0x20 ADD PUSH1 0x40 MLOAD SWAP1 DUP2 ADD PUSH1 0x40 MSTORE DUP1 SWAP4 SWAP3 SWAP2 SWAP1 DUP2 DUP2 MSTORE PUSH1 0x20 ADD DUP4 DUP4 DUP1 DUP3 DUP5 CALLDATACOPY PUSH0 DUP2 DUP5 ADD MSTORE PUSH1 0x1F NOT PUSH1 0x1F DUP3 ADD AND SWAP1 POP DUP1 DUP4 ADD SWAP3 POP POP POP POP POP POP POP CALLER PUSH20 0xFFFFFFFFFFFFFFFFFFFFFFFFFFFFFFFFFFFFFFFF AND PUSH1 0x2 DUP3 PUSH1 0x40 MLOAD PUSH2 0xD97 SWAP2 SWAP1 PUSH2 0x20C2 JUMP JUMPDEST SWAP1 DUP2 MSTORE PUSH1 0x20 ADD PUSH1 0x40 MLOAD DUP1 SWAP2 SUB SWAP1 KECCAK256 PUSH1 0x3 ADD PUSH0 SWAP1 SLOAD SWAP1 PUSH2 0x100 EXP SWAP1 DIV PUSH20 0xFFFFFFFFFFFFFFFFFFFFFFFFFFFFFFFFFFFFFFFF AND PUSH20 0xFFFFFFFFFFFFFFFFFFFFFFFFFFFFFFFFFFFFFFFF AND EQ PUSH2 0xE1E JUMPI PUSH1 0x40 MLOAD PUSH32 0x8C379A000000000000000000000000000000000000000000000000000000000 DUP2 MSTORE PUSH1 0x4 ADD PUSH2 0xE15 SWAP1 PUSH2 0x2A6A JUMP JUMPDEST PUSH1 0x40 MLOAD DUP1 SWAP2 SUB SWAP1 REVERT JUMPDEST PUSH0 PUSH20 0xFFFFFFFFFFFFFFFFFFFFFFFFFFFFFFFFFFFFFFFF AND DUP4 PUSH20 0xFFFFFFFFFFFFFFFFFFFFFFFFFFFFFFFFFFFFFFFF AND SUB PUSH2 0xE8C JUMPI PUSH1 0x40 MLOAD PUSH32 0x8C379A000000000000000000000000000000000000000000000000000000000 DUP2 MSTORE PUSH1 0x4 ADD PUSH2 0xE83 SWAP1 PUSH2 0x2AD2 JUMP JUMPDEST PUSH1 0x40 MLOAD DUP1 SWAP2 SUB SWAP1 REVERT JUMPDEST PUSH0 PUSH1 0x5 DUP2 GT ISZERO PUSH2 0xE9F JUMPI PUSH2 0xE9E PUSH2 0x1E66 JUMP JUMPDEST JUMPDEST PUSH1 0x1 PUSH0 DUP6 PUSH20 0xFFFFFFFFFFFFFFFFFFFFFFFFFFFFFFFFFFFFFFFF AND PUSH20 0xFFFFFFFFFFFFFFFFFFFFFFFFFFFFFFFFFFFFFFFF AND DUP2 MSTORE PUSH1 0x20 ADD SWAP1 DUP2 MSTORE PUSH1 0x20 ADD PUSH0 KECCAK256 PUSH0 SWAP1 SLOAD SWAP1 PUSH2 0x100 EXP SWAP1 DIV PUSH1 0xFF AND PUSH1 0x5 DUP2 GT ISZERO PUSH2 0xEFB JUMPI PUSH2 0xEFA PUSH2 0x1E66 JUMP JUMPDEST JUMPDEST SUB PUSH2 0xF3B JUMPI PUSH1 0x40 MLOAD PUSH32 0x8C379A000000000000000000000000000000000000000000000000000000000 DUP2 MSTORE PUSH1 0x4 ADD PUSH2 0xF32 SWAP1 PUSH2 0x2B3A JUMP JUMPDEST PUSH1 0x40 MLOAD DUP1 SWAP2 SUB SWAP1 REVERT JUMPDEST PUSH0 PUSH1 0x1 PUSH0 CALLER PUSH20 0xFFFFFFFFFFFFFFFFFFFFFFFFFFFFFFFFFFFFFFFF AND PUSH20 0xFFFFFFFFFFFFFFFFFFFFFFFFFFFFFFFFFFFFFFFF AND DUP2 MSTORE PUSH1 0x20 ADD SWAP1 DUP2 MSTORE PUSH1 0x20 ADD PUSH0 KECCAK256 PUSH0 SWAP1 SLOAD SWAP1 PUSH2 0x100 EXP SWAP1 DIV PUSH1 0xFF AND SWAP1 POP PUSH0 PUSH1 0x1 PUSH0 DUP7 PUSH20 0xFFFFFFFFFFFFFFFFFFFFFFFFFFFFFFFFFFFFFFFF AND PUSH20 0xFFFFFFFFFFFFFFFFFFFFFFFFFFFFFFFFFFFFFFFF AND DUP2 MSTORE PUSH1 0x20 ADD SWAP1 DUP2 MSTORE PUSH1 0x20 ADD PUSH0 KECCAK256 PUSH0 SWAP1 SLOAD SWAP1 PUSH2 0x100 EXP SWAP1 DIV PUSH1 0xFF AND SWAP1 POP PUSH1 0x2 PUSH1 0x5 DUP2 GT ISZERO PUSH2 0xFE9 JUMPI PUSH2 0xFE8 PUSH2 0x1E66 JUMP JUMPDEST JUMPDEST DUP3 PUSH1 0x5 DUP2 GT ISZERO PUSH2 0xFFC JUMPI PUSH2 0xFFB PUSH2 0x1E66 JUMP JUMPDEST JUMPDEST SUB PUSH2 0x106D JUMPI PUSH1 0x3 PUSH1 0x5 DUP2 GT ISZERO PUSH2 0x1015 JUMPI PUSH2 0x1014 PUSH2 0x1E66 JUMP JUMPDEST JUMPDEST DUP2 PUSH1 0x5 DUP2 GT ISZERO PUSH2 0x1028 JUMPI PUSH2 0x1027 PUSH2 0x1E66 JUMP JUMPDEST JUMPDEST EQ PUSH2 0x1068 JUMPI PUSH1 0x40 MLOAD PUSH32 0x8C379A000000000000000000000000000000000000000000000000000000000 DUP2 MSTORE PUSH1 0x4 ADD PUSH2 0x105F SWAP1 PUSH2 0x2BA2 JUMP JUMPDEST PUSH1 0x40 MLOAD DUP1 SWAP2 SUB SWAP1 REVERT JUMPDEST PUSH2 0x11D9 JUMP JUMPDEST PUSH1 0x3 PUSH1 0x5 DUP2 GT ISZERO PUSH2 0x1081 JUMPI PUSH2 0x1080 PUSH2 0x1E66 JUMP JUMPDEST JUMPDEST DUP3 PUSH1 0x5 DUP2 GT ISZERO PUSH2 0x1094 JUMPI PUSH2 0x1093 PUSH2 0x1E66 JUMP JUMPDEST JUMPDEST SUB PUSH2 0x1105 JUMPI PUSH1 0x4 PUSH1 0x5 DUP2 GT ISZERO PUSH2 0x10AD JUMPI PUSH2 0x10AC PUSH2 0x1E66 JUMP JUMPDEST JUMPDEST DUP2 PUSH1 0x5 DUP2 GT ISZERO PUSH2 0x10C0 JUMPI PUSH2 0x10BF PUSH2 0x1E66 JUMP JUMPDEST JUMPDEST EQ PUSH2 0x1100 JUMPI PUSH1 0x40 MLOAD PUSH32 0x8C379A000000000000000000000000000000000000000000000000000000000 DUP2 MSTORE PUSH1 0x4 ADD PUSH2 0x10F7 SWAP1 PUSH2 0x2C30 JUMP JUMPDEST PUSH1 0x40 MLOAD DUP1 SWAP2 SUB SWAP1 REVERT JUMPDEST PUSH2 0x11D8 JUMP JUMPDEST PUSH1 0x4 PUSH1 0x5 DUP2 GT ISZERO PUSH2 0x1119 JUMPI PUSH2 0x1118 PUSH2 0x1E66 JUMP JUMPDEST JUMPDEST DUP3 PUSH1 0x5 DUP2 GT ISZERO PUSH2 0x112C JUMPI PUSH2 0x112B PUSH2 0x1E66 JUMP JUMPDEST JUMPDEST SUB PUSH2 0x119C JUMPI PUSH1 0x5 DUP1 DUP2 GT ISZERO PUSH2 0x1144 JUMPI PUSH2 0x1143 PUSH2 0x1E66 JUMP JUMPDEST JUMPDEST DUP2 PUSH1 0x5 DUP2 GT ISZERO PUSH2 0x1157 JUMPI PUSH2 0x1156 PUSH2 0x1E66 JUMP JUMPDEST JUMPDEST EQ PUSH2 0x1197 JUMPI PUSH1 0x40 MLOAD PUSH32 0x8C379A000000000000000000000000000000000000000000000000000000000 DUP2 MSTORE PUSH1 0x4 ADD PUSH2 0x118E SWAP1 PUSH2 0x2C98 JUMP JUMPDEST PUSH1 0x40 MLOAD DUP1 SWAP2 SUB SWAP1 REVERT JUMPDEST PUSH2 0x11D7 JUMP JUMPDEST PUSH1 0x40 MLOAD PUSH32 0x8C379A000000000000000000000000000000000000000000000000000000000 DUP2 MSTORE PUSH1 0x4 ADD PUSH2 0x11CE SWAP1 PUSH2 0x2D00 JUMP JUMPDEST PUSH1 0x40 MLOAD DUP1 SWAP2 SUB SWAP1 REVERT JUMPDEST JUMPDEST JUMPDEST PUSH0 PUSH1 0x2 DUP9 DUP9 PUSH1 0x40 MLOAD PUSH2 0x11EC SWAP3 SWAP2 SWAP1 PUSH2 0x21DA JUMP JUMPDEST SWAP1 DUP2 MSTORE PUSH1 0x20 ADD PUSH1 0x40 MLOAD DUP1 SWAP2 SUB SWAP1 KECCAK256 PUSH1 0x3 ADD PUSH0 SWAP1 SLOAD SWAP1 PUSH2 0x100 EXP SWAP1 DIV PUSH20 0xFFFFFFFFFFFFFFFFFFFFFFFFFFFFFFFFFFFFFFFF AND SWAP1 POP DUP6 PUSH1 0x2 DUP10 DUP10 PUSH1 0x40 MLOAD PUSH2 0x1232 SWAP3 SWAP2 SWAP1 PUSH2 0x21DA JUMP JUMPDEST SWAP1 DUP2 MSTORE PUSH1 0x20 ADD PUSH1 0x40 MLOAD DUP1 SWAP2 SUB SWAP1 KECCAK256 PUSH1 0x3 ADD PUSH0 PUSH2 0x100 EXP DUP2 SLOAD DUP2 PUSH20 0xFFFFFFFFFFFFFFFFFFFFFFFFFFFFFFFFFFFFFFFF MUL NOT AND SWAP1 DUP4 PUSH20 0xFFFFFFFFFFFFFFFFFFFFFFFFFFFFFFFFFFFFFFFF AND MUL OR SWAP1 SSTORE POP PUSH1 0x40 MLOAD DUP1 PUSH1 0x40 ADD PUSH1 0x40 MSTORE DUP1 PUSH1 0xB DUP2 MSTORE PUSH1 0x20 ADD PUSH32 0x5472616E73666572726564000000000000000000000000000000000000000000 DUP2 MSTORE POP PUSH1 0x2 DUP10 DUP10 PUSH1 0x40 MLOAD PUSH2 0x12C8 SWAP3 SWAP2 SWAP1 PUSH2 0x21DA JUMP JUMPDEST SWAP1 DUP2 MSTORE PUSH1 0x20 ADD PUSH1 0x40 MLOAD DUP1 SWAP2 SUB SWAP1 KECCAK256 PUSH1 0x4 ADD SWAP1 DUP2 PUSH2 0x12E5 SWAP2 SWAP1 PUSH2 0x28E9 JUMP JUMPDEST POP DUP6 PUSH20 0xFFFFFFFFFFFFFFFFFFFFFFFFFFFFFFFFFFFFFFFF AND DUP2 PUSH20 0xFFFFFFFFFFFFFFFFFFFFFFFFFFFFFFFFFFFFFFFF AND DUP10 DUP10 PUSH1 0x40 MLOAD PUSH2 0x1324 SWAP3 SWAP2 SWAP1 PUSH2 0x21DA JUMP JUMPDEST PUSH1 0x40 MLOAD DUP1 SWAP2 SUB SWAP1 KECCAK256 PUSH32 0xA8B047DB3C9B378A978A9CC59C0F75A2671F935A140D6799F8F56104F0EC6DD6 PUSH1 0x40 MLOAD PUSH1 0x40 MLOAD DUP1 SWAP2 SUB SWAP1 LOG4 CALLER PUSH20 0xFFFFFFFFFFFFFFFFFFFFFFFFFFFFFFFFFFFFFFFF AND DUP9 DUP9 PUSH1 0x40 MLOAD PUSH2 0x137F SWAP3 SWAP2 SWAP1 PUSH2 0x21DA JUMP JUMPDEST PUSH1 0x40 MLOAD DUP1 SWAP2 SUB SWAP1 KECCAK256 PUSH32 0xA40410F71AFCB456EF810BF2C9CF8D0E917213D9477633602D780D212F0B9389 PUSH1 0x40 MLOAD PUSH2 0x13B4 SWAP1 PUSH2 0x2D68 JUMP JUMPDEST PUSH1 0x40 MLOAD DUP1 SWAP2 SUB SWAP1 LOG3 POP POP POP POP POP POP POP POP JUMP JUMPDEST DUP4 DUP4 DUP1 DUP1 PUSH1 0x1F ADD PUSH1 0x20 DUP1 SWAP2 DIV MUL PUSH1 0x20 ADD PUSH1 0x40 MLOAD SWAP1 DUP2 ADD PUSH1 0x40 MSTORE DUP1 SWAP4 SWAP3 SWAP2 SWAP1 DUP2 DUP2 MSTORE PUSH1 0x20 ADD DUP4 DUP4 DUP1 DUP3 DUP5 CALLDATACOPY PUSH0 DUP2 DUP5 ADD MSTORE PUSH1 0x1F NOT PUSH1 0x1F DUP3 ADD AND SWAP1 POP DUP1 DUP4 ADD SWAP3 POP POP POP POP POP POP POP PUSH1 0x2 DUP2 PUSH1 0x40 MLOAD PUSH2 0x141A SWAP2 SWAP1 PUSH2 0x20C2 JUMP JUMPDEST SWAP1 DUP2 MSTORE PUSH1 0x20 ADD PUSH1 0x40 MLOAD DUP1 SWAP2 SUB SWAP1 KECCAK256 PUSH1 0x7 ADD PUSH0 SWAP1 SLOAD SWAP1 PUSH2 0x100 EXP SWAP1 DIV PUSH1 0xFF AND PUSH2 0x1477 JUMPI PUSH1 0x40 MLOAD PUSH32 0x8C379A000000000000000000000000000000000000000000000000000000000 DUP2 MSTORE PUSH1 0x4 ADD PUSH2 0x146E SWAP1 PUSH2 0x2122 JUMP JUMPDEST PUSH1 0x40 MLOAD DUP1 SWAP2 SUB SWAP1 REVERT JUMPDEST PUSH1 0x3 DUP1 PUSH1 0x5 DUP2 GT ISZERO PUSH2 0x148C JUMPI PUSH2 0x148B PUSH2 0x1E66 JUMP JUMPDEST JUMPDEST PUSH1 0x1 PUSH0 CALLER PUSH20 0xFFFFFFFFFFFFFFFFFFFFFFFFFFFFFFFFFFFFFFFF AND PUSH20 0xFFFFFFFFFFFFFFFFFFFFFFFFFFFFFFFFFFFFFFFF AND DUP2 MSTORE PUSH1 0x20 ADD SWAP1 DUP2 MSTORE PUSH1 0x20 ADD PUSH0 KECCAK256 PUSH0 SWAP1 SLOAD SWAP1 PUSH2 0x100 EXP SWAP1 DIV PUSH1 0xFF AND PUSH1 0x5 DUP2 GT ISZERO PUSH2 0x14E8 JUMPI PUSH2 0x14E7 PUSH2 0x1E66 JUMP JUMPDEST JUMPDEST EQ PUSH2 0x1528 JUMPI PUSH1 0x40 MLOAD PUSH32 0x8C379A000000000000000000000000000000000000000000000000000000000 DUP2 MSTORE PUSH1 0x4 ADD PUSH2 0x151F SWAP1 PUSH2 0x2793 JUMP JUMPDEST PUSH1 0x40 MLOAD DUP1 SWAP2 SUB SWAP1 REVERT JUMPDEST DUP6 DUP6 DUP1 DUP1 PUSH1 0x1F ADD PUSH1 0x20 DUP1 SWAP2 DIV MUL PUSH1 0x20 ADD PUSH1 0x40 MLOAD SWAP1 DUP2 ADD PUSH1 0x40 MSTORE DUP1 SWAP4 SWAP3 SWAP2 SWAP1 DUP2 DUP2 MSTORE PUSH1 0x20 ADD DUP4 DUP4 DUP1 DUP3 DUP5 CALLDATACOPY PUSH0 DUP2 DUP5 ADD MSTORE PUSH1 0x1F NOT PUSH1 0x1F DUP3 ADD AND SWAP1 POP DUP1 DUP4 ADD SWAP3 POP POP POP POP POP POP POP CALLER PUSH20 0xFFFFFFFFFFFFFFFFFFFFFFFFFFFFFFFFFFFFFFFF AND PUSH1 0x2 DUP3 PUSH1 0x40 MLOAD PUSH2 0x1593 SWAP2 SWAP1 PUSH2 0x20C2 JUMP JUMPDEST SWAP1 DUP2 MSTORE PUSH1 0x20 ADD PUSH1 0x40 MLOAD DUP1 SWAP2 SUB SWAP1 KECCAK256 PUSH1 0x3 ADD PUSH0 SWAP1 SLOAD SWAP1 PUSH2 0x100 EXP SWAP1 DIV PUSH20 0xFFFFFFFFFFFFFFFFFFFFFFFFFFFFFFFFFFFFFFFF AND PUSH20 0xFFFFFFFFFFFFFFFFFFFFFFFFFFFFFFFFFFFFFFFF AND EQ PUSH2 0x161A JUMPI PUSH1 0x40 MLOAD PUSH32 0x8C379A000000000000000000000000000000000000000000000000000000000 DUP2 MSTORE PUSH1 0x4 ADD PUSH2 0x1611 SWAP1 PUSH2 0x2A6A JUMP JUMPDEST PUSH1 0x40 MLOAD DUP1 SWAP2 SUB SWAP1 REVERT JUMPDEST PUSH0 DUP6 DUP6 SWAP1 POP GT PUSH2 0x165F JUMPI PUSH1 0x40 MLOAD PUSH32 0x8C379A000000000000000000000000000000000000000000000000000000000 DUP2 MSTORE PUSH1 0x4 ADD PUSH2 0x1656 SWAP1 PUSH2 0x2DD0 JUMP JUMPDEST PUSH1 0x40 MLOAD DUP1 SWAP2 SUB SWAP1 REVERT JUMPDEST PUSH1 0x2 DUP8 DUP8 PUSH1 0x40 MLOAD PUSH2 0x1671 SWAP3 SWAP2 SWAP1 PUSH2 0x21DA JUMP JUMPDEST SWAP1 DUP2 MSTORE PUSH1 0x20 ADD PUSH1 0x40 MLOAD DUP1 SWAP2 SUB SWAP1 KECCAK256 PUSH1 0x7 ADD PUSH1 0x1 SWAP1 SLOAD SWAP1 PUSH2 0x100 EXP SWAP1 DIV PUSH1 0xFF AND ISZERO PUSH2 0x16D0 JUMPI PUSH1 0x40 MLOAD PUSH32 0x8C379A000000000000000000000000000000000000000000000000000000000 DUP2 MSTORE PUSH1 0x4 ADD PUSH2 0x16C7 SWAP1 PUSH2 0x2E38 JUMP JUMPDEST PUSH1 0x40 MLOAD DUP1 SWAP2 SUB SWAP1 REVERT JUMPDEST DUP5 DUP5 PUSH1 0x2 DUP10 DUP10 PUSH1 0x40 MLOAD PUSH2 0x16E4 SWAP3 SWAP2 SWAP1 PUSH2 0x21DA JUMP JUMPDEST SWAP1 DUP2 MSTORE PUSH1 0x20 ADD PUSH1 0x40 MLOAD DUP1 SWAP2 SUB SWAP1 KECCAK256 PUSH1 0x5 ADD SWAP2 DUP3 PUSH2 0x1702 SWAP3 SWAP2 SWAP1 PUSH2 0x248E JUMP JUMPDEST POP PUSH1 0x1 PUSH1 0x2 DUP9 DUP9 PUSH1 0x40 MLOAD PUSH2 0x1717 SWAP3 SWAP2 SWAP1 PUSH2 0x21DA JUMP JUMPDEST SWAP1 DUP2 MSTORE PUSH1 0x20 ADD PUSH1 0x40 MLOAD DUP1 SWAP2 SUB SWAP1 KECCAK256 PUSH1 0x7 ADD PUSH1 0x1 PUSH2 0x100 EXP DUP2 SLOAD DUP2 PUSH1 0xFF MUL NOT AND SWAP1 DUP4 ISZERO ISZERO MUL OR SWAP1 SSTORE POP PUSH1 0x40 MLOAD DUP1 PUSH1 0x40 ADD PUSH1 0x40 MSTORE DUP1 PUSH1 0xF DUP2 MSTORE PUSH1 0x20 ADD PUSH32 0x4365727469666965642048616C616C0000000000000000000000000000000000 DUP2 MSTORE POP PUSH1 0x2 DUP9 DUP9 PUSH1 0x40 MLOAD PUSH2 0x1787 SWAP3 SWAP2 SWAP1 PUSH2 0x21DA JUMP JUMPDEST SWAP1 DUP2 MSTORE PUSH1 0x20 ADD PUSH1 0x40 MLOAD DUP1 SWAP2 SUB SWAP1 KECCAK256 PUSH1 0x4 ADD SWAP1 DUP2 PUSH2 0x17A4 SWAP2 SWAP1 PUSH2 0x28E9 JUMP JUMPDEST POP CALLER PUSH20 0xFFFFFFFFFFFFFFFFFFFFFFFFFFFFFFFFFFFFFFFF AND DUP8 DUP8 PUSH1 0x40 MLOAD PUSH2 0x17CC SWAP3 SWAP2 SWAP1 PUSH2 0x21DA JUMP JUMPDEST PUSH1 0x40 MLOAD DUP1 SWAP2 SUB SWAP1 KECCAK256 PUSH32 0x63D98C95C04737C94B1CCD82AD5F6540CFA9DD84872F501890D38D6884F291E4 DUP8 DUP8 PUSH1 0x40 MLOAD PUSH2 0x1805 SWAP3 SWAP2 SWAP1 PUSH2 0x2587 JUMP JUMPDEST PUSH1 0x40 MLOAD DUP1 SWAP2 SUB SWAP1 LOG3 CALLER PUSH20 0xFFFFFFFFFFFFFFFFFFFFFFFFFFFFFFFFFFFFFFFF AND DUP8 DUP8 PUSH1 0x40 MLOAD PUSH2 0x1834 SWAP3 SWAP2 SWAP1 PUSH2 0x21DA JUMP JUMPDEST PUSH1 0x40 MLOAD DUP1 SWAP2 SUB SWAP1 KECCAK256 PUSH32 0xA40410F71AFCB456EF810BF2C9CF8D0E917213D9477633602D780D212F0B9389 PUSH1 0x40 MLOAD PUSH2 0x1869 SWAP1 PUSH2 0x2EA0 JUMP JUMPDEST PUSH1 0x40 MLOAD DUP1 SWAP2 SUB SWAP1 LOG3 POP POP POP POP POP POP POP JUMP JUMPDEST PUSH0 PUSH0 SWAP1 SLOAD SWAP1 PUSH2 0x100 EXP SWAP1 DIV PUSH20 0xFFFFFFFFFFFFFFFFFFFFFFFFFFFFFFFFFFFFFFFF AND DUP2 JUMP JUMPDEST PUSH1 0x60 DUP1 PUSH0 PUSH0 PUSH1 0x60 DUP1 PUSH0 DUP9 DUP9 DUP1 DUP1 PUSH1 0x1F ADD PUSH1 0x20 DUP1 SWAP2 DIV MUL PUSH1 0x20 ADD PUSH1 0x40 MLOAD SWAP1 DUP2 ADD PUSH1 0x40 MSTORE DUP1 SWAP4 SWAP3 SWAP2 SWAP1 DUP2 DUP2 MSTORE PUSH1 0x20 ADD DUP4 DUP4 DUP1 DUP3 DUP5 CALLDATACOPY PUSH0 DUP2 DUP5 ADD MSTORE PUSH1 0x1F NOT PUSH1 0x1F DUP3 ADD AND SWAP1 POP DUP1 DUP4 ADD SWAP3 POP POP POP POP POP POP POP PUSH1 0x2 DUP2 PUSH1 0x40 MLOAD PUSH2 0x18FB SWAP2 SWAP1 PUSH2 0x20C2 JUMP JUMPDEST SWAP1 DUP2 MSTORE PUSH1 0x20 ADD PUSH1 0x40 MLOAD DUP1 SWAP2 SUB SWAP1 KECCAK256 PUSH1 0x7 ADD PUSH0 SWAP1 SLOAD SWAP1 PUSH2 0x100 EXP SWAP1 DIV PUSH1 0xFF AND PUSH2 0x1958 JUMPI PUSH1 0x40 MLOAD PUSH32 0x8C379A000000000000000000000000000000000000000000000000000000000 DUP2 MSTORE PUSH1 0x4 ADD PUSH2 0x194F SWAP1 PUSH2 0x2122 JUMP JUMPDEST PUSH1 0x40 MLOAD DUP1 SWAP2 SUB SWAP1 REVERT JUMPDEST PUSH0 PUSH1 0x2 DUP12 DUP12 PUSH1 0x40 MLOAD PUSH2 0x196B SWAP3 SWAP2 SWAP1 PUSH2 0x21DA JUMP JUMPDEST SWAP1 DUP2 MSTORE PUSH1 0x20 ADD PUSH1 0x40 MLOAD DUP1 SWAP2 SUB SWAP1 KECCAK256 SWAP1 POP DUP1 PUSH0 ADD DUP2 PUSH1 0x1 ADD DUP3 PUSH1 0x2 ADD PUSH0 SWAP1 SLOAD SWAP1 PUSH2 0x100 EXP SWAP1 DIV PUSH20 0xFFFFFFFFFFFFFFFFFFFFFFFFFFFFFFFFFFFFFFFF AND DUP4 PUSH1 0x3 ADD PUSH0 SWAP1 SLOAD SWAP1 PUSH2 0x100 EXP SWAP1 DIV PUSH20 0xFFFFFFFFFFFFFFFFFFFFFFFFFFFFFFFFFFFFFFFF AND DUP5 PUSH1 0x4 ADD DUP6 PUSH1 0x5 ADD DUP7 PUSH1 0x6 ADD SLOAD DUP7 DUP1 SLOAD PUSH2 0x19E3 SWAP1 PUSH2 0x22BE JUMP JUMPDEST DUP1 PUSH1 0x1F ADD PUSH1 0x20 DUP1 SWAP2 DIV MUL PUSH1 0x20 ADD PUSH1 0x40 MLOAD SWAP1 DUP2 ADD PUSH1 0x40 MSTORE DUP1 SWAP3 SWAP2 SWAP1 DUP2 DUP2 MSTORE PUSH1 0x20 ADD DUP3 DUP1 SLOAD PUSH2 0x1A0F SWAP1 PUSH2 0x22BE JUMP JUMPDEST DUP1 ISZERO PUSH2 0x1A5A JUMPI DUP1 PUSH1 0x1F LT PUSH2 0x1A31 JUMPI PUSH2 0x100 DUP1 DUP4 SLOAD DIV MUL DUP4 MSTORE SWAP2 PUSH1 0x20 ADD SWAP2 PUSH2 0x1A5A JUMP JUMPDEST DUP3 ADD SWAP2 SWAP1 PUSH0 MSTORE PUSH1 0x20 PUSH0 KECCAK256 SWAP1 JUMPDEST DUP2 SLOAD DUP2 MSTORE SWAP1 PUSH1 0x1 ADD SWAP1 PUSH1 0x20 ADD DUP1 DUP4 GT PUSH2 0x1A3D JUMPI DUP3 SWAP1 SUB PUSH1 0x1F AND DUP3 ADD SWAP2 JUMPDEST POP POP POP POP POP SWAP7 POP DUP6 DUP1 SLOAD PUSH2 0x1A6D SWAP1 PUSH2 0x22BE JUMP JUMPDEST DUP1 PUSH1 0x1F ADD PUSH1 0x20 DUP1 SWAP2 DIV MUL PUSH1 0x20 ADD PUSH1 0x40 MLOAD SWAP1 DUP2 ADD PUSH1 0x40 MSTORE DUP1 SWAP3 SWAP2 SWAP1 DUP2 DUP2 MSTORE PUSH1 0x20 ADD DUP3 DUP1 SLOAD PUSH2 0x1A99 SWAP1 PUSH2 0x22BE JUMP JUMPDEST DUP1 ISZERO PUSH2 0x1AE4 JUMPI DUP1 PUSH1 0x1F LT PUSH2 0x1ABB JUMPI PUSH2 0x100 DUP1 DUP4 SLOAD DIV MUL DUP4 MSTORE SWAP2 PUSH1 0x20 ADD SWAP2 PUSH2 0x1AE4 JUMP JUMPDEST DUP3 ADD SWAP2 SWAP1 PUSH0 MSTORE PUSH1 0x20 PUSH0 KECCAK256 SWAP1 JUMPDEST DUP2 SLOAD DUP2 MSTORE SWAP1 PUSH1 0x1 ADD SWAP1 PUSH1 0x20 ADD DUP1 DUP4 GT PUSH2 0x1AC7 JUMPI DUP3 SWAP1 SUB PUSH1 0x1F AND DUP3 ADD SWAP2 JUMPDEST POP POP POP POP POP SWAP6 POP DUP3 DUP1 SLOAD PUSH2 0x1AF7 SWAP1 PUSH2 0x22BE JUMP JUMPDEST DUP1 PUSH1 0x1F ADD PUSH1 0x20 DUP1 SWAP2 DIV MUL PUSH1 0x20 ADD PUSH1 0x40 MLOAD SWAP1 DUP2 ADD PUSH1 0x40 MSTORE DUP1 SWAP3 SWAP2 SWAP1 DUP2 DUP2 MSTORE PUSH1 0x20 ADD DUP3 DUP1 SLOAD PUSH2 0x1B23 SWAP1 PUSH2 0x22BE JUMP JUMPDEST DUP1 ISZERO PUSH2 0x1B6E JUMPI DUP1 PUSH1 0x1F LT PUSH2 0x1B45 JUMPI PUSH2 0x100 DUP1 DUP4 SLOAD DIV MUL DUP4 MSTORE SWAP2 PUSH1 0x20 ADD SWAP2 PUSH2 0x1B6E JUMP JUMPDEST DUP3 ADD SWAP2 SWAP1 PUSH0 MSTORE PUSH1 0x20 PUSH0 KECCAK256 SWAP1 JUMPDEST DUP2 SLOAD DUP2 MSTORE SWAP1 PUSH1 0x1 ADD SWAP1 PUSH1 0x20 ADD DUP1 DUP4 GT PUSH2 0x1B51 JUMPI DUP3 SWAP1 SUB PUSH1 0x1F AND DUP3 ADD SWAP2 JUMPDEST POP POP POP POP POP SWAP3 POP DUP2 DUP1 SLOAD PUSH2 0x1B81 SWAP1 PUSH2 0x22BE JUMP JUMPDEST DUP1 PUSH1 0x1F ADD PUSH1 0x20 DUP1 SWAP2 DIV MUL PUSH1 0x20 ADD PUSH1 0x40 MLOAD SWAP1 DUP2 ADD PUSH1 0x40 MSTORE DUP1 SWAP3 SWAP2 SWAP1 DUP2 DUP2 MSTORE PUSH1 0x20 ADD DUP3 DUP1 SLOAD PUSH2 0x1BAD SWAP1 PUSH2 0x22BE JUMP JUMPDEST DUP1 ISZERO PUSH2 0x1BF8 JUMPI DUP1 PUSH1 0x1F LT PUSH2 0x1BCF JUMPI PUSH2 0x100 DUP1 DUP4 SLOAD DIV MUL DUP4 MSTORE SWAP2 PUSH1 0x20 ADD SWAP2 PUSH2 0x1BF8 JUMP JUMPDEST DUP3 ADD SWAP2 SWAP1 PUSH0 MSTORE PUSH1 0x20 PUSH0 KECCAK256 SWAP1 JUMPDEST DUP2 SLOAD DUP2 MSTORE SWAP1 PUSH1 0x1 ADD SWAP1 PUSH1 0x20 ADD DUP1 DUP4 GT PUSH2 0x1BDB JUMPI DUP3 SWAP1 SUB PUSH1 0x1F AND DUP3 ADD SWAP2 JUMPDEST POP POP POP POP POP SWAP2 POP SWAP9 POP SWAP9 POP SWAP9 POP SWAP9 POP SWAP9 POP SWAP9 POP SWAP9 POP POP POP SWAP3 SWAP6 SWAP9 SWAP2 SWAP5 SWAP8 POP SWAP3 SWAP6 POP JUMP JUMPDEST PUSH0 PUSH0 REVERT JUMPDEST PUSH0 PUSH0 REVERT JUMPDEST PUSH0 PUSH0 REVERT JUMPDEST PUSH0 PUSH0 REVERT JUMPDEST PUSH0 PUSH0 REVERT JUMPDEST PUSH0 PUSH0 DUP4 PUSH1 0x1F DUP5 ADD SLT PUSH2 0x1C44 JUMPI PUSH2 0x1C43 PUSH2 0x1C23 JUMP JUMPDEST JUMPDEST DUP3 CALLDATALOAD SWAP1 POP PUSH8 0xFFFFFFFFFFFFFFFF DUP2 GT ISZERO PUSH2 0x1C61 JUMPI PUSH2 0x1C60 PUSH2 0x1C27 JUMP JUMPDEST JUMPDEST PUSH1 0x20 DUP4 ADD SWAP2 POP DUP4 PUSH1 0x1 DUP3 MUL DUP4 ADD GT ISZERO PUSH2 0x1C7D JUMPI PUSH2 0x1C7C PUSH2 0x1C2B JUMP JUMPDEST JUMPDEST SWAP3 POP SWAP3 SWAP1 POP JUMP JUMPDEST PUSH0 PUSH0 PUSH0 PUSH0 PUSH1 0x40 DUP6 DUP8 SUB SLT ISZERO PUSH2 0x1C9C JUMPI PUSH2 0x1C9B PUSH2 0x1C1B JUMP JUMPDEST JUMPDEST PUSH0 DUP6 ADD CALLDATALOAD PUSH8 0xFFFFFFFFFFFFFFFF DUP2 GT ISZERO PUSH2 0x1CB9 JUMPI PUSH2 0x1CB8 PUSH2 0x1C1F JUMP JUMPDEST JUMPDEST PUSH2 0x1CC5 DUP8 DUP3 DUP9 ADD PUSH2 0x1C2F JUMP JUMPDEST SWAP5 POP SWAP5 POP POP PUSH1 0x20 DUP6 ADD CALLDATALOAD PUSH8 0xFFFFFFFFFFFFFFFF DUP2 GT ISZERO PUSH2 0x1CE8 JUMPI PUSH2 0x1CE7 PUSH2 0x1C1F JUMP JUMPDEST JUMPDEST PUSH2 0x1CF4 DUP8 DUP3 DUP9 ADD PUSH2 0x1C2F JUMP JUMPDEST SWAP3 POP SWAP3 POP POP SWAP3 SWAP6 SWAP2 SWAP5 POP SWAP3 POP JUMP JUMPDEST PUSH0 PUSH0 PUSH1 0x20 DUP4 DUP6 SUB SLT ISZERO PUSH2 0x1D18 JUMPI PUSH2 0x1D17 PUSH2 0x1C1B JUMP JUMPDEST JUMPDEST PUSH0 DUP4 ADD CALLDATALOAD PUSH8 0xFFFFFFFFFFFFFFFF DUP2 GT ISZERO PUSH2 0x1D35 JUMPI PUSH2 0x1D34 PUSH2 0x1C1F JUMP JUMPDEST JUMPDEST PUSH2 0x1D41 DUP6 DUP3 DUP7 ADD PUSH2 0x1C2F JUMP JUMPDEST SWAP3 POP SWAP3 POP POP SWAP3 POP SWAP3 SWAP1 POP JUMP JUMPDEST PUSH0 DUP2 ISZERO ISZERO SWAP1 POP SWAP2 SWAP1 POP JUMP JUMPDEST PUSH2 0x1D61 DUP2 PUSH2 0x1D4D JUMP JUMPDEST DUP3 MSTORE POP POP JUMP JUMPDEST PUSH0 PUSH1 0x20 DUP3 ADD SWAP1 POP PUSH2 0x1D7A PUSH0 DUP4 ADD DUP5 PUSH2 0x1D58 JUMP JUMPDEST SWAP3 SWAP2 POP POP JUMP JUMPDEST PUSH0 PUSH20 0xFFFFFFFFFFFFFFFFFFFFFFFFFFFFFFFFFFFFFFFF DUP3 AND SWAP1 POP SWAP2 SWAP1 POP JUMP JUMPDEST PUSH0 PUSH2 0x1DA9 DUP3 PUSH2 0x1D80 JUMP JUMPDEST SWAP1 POP SWAP2 SWAP1 POP JUMP JUMPDEST PUSH2 0x1DB9 DUP2 PUSH2 0x1D9F JUMP JUMPDEST DUP2 EQ PUSH2 0x1DC3 JUMPI PUSH0 PUSH0 REVERT JUMPDEST POP JUMP JUMPDEST PUSH0 DUP2 CALLDATALOAD SWAP1 POP PUSH2 0x1DD4 DUP2 PUSH2 0x1DB0 JUMP JUMPDEST SWAP3 SWAP2 POP POP JUMP JUMPDEST PUSH1 0x6 DUP2 LT PUSH2 0x1DE6 JUMPI PUSH0 PUSH0 REVERT JUMPDEST POP JUMP JUMPDEST PUSH0 DUP2 CALLDATALOAD SWAP1 POP PUSH2 0x1DF7 DUP2 PUSH2 0x1DDA JUMP JUMPDEST SWAP3 SWAP2 POP POP JUMP JUMPDEST PUSH0 PUSH0 PUSH1 0x40 DUP4 DUP6 SUB SLT ISZERO PUSH2 0x1E13 JUMPI PUSH2 0x1E12 PUSH2 0x1C1B JUMP JUMPDEST JUMPDEST PUSH0 PUSH2 0x1E20 DUP6 DUP3 DUP7 ADD PUSH2 0x1DC6 JUMP JUMPDEST SWAP3 POP POP PUSH1 0x20 PUSH2 0x1E31 DUP6 DUP3 DUP7 ADD PUSH2 0x1DE9 JUMP JUMPDEST SWAP2 POP POP SWAP3 POP SWAP3 SWAP1 POP JUMP JUMPDEST PUSH0 PUSH1 0x20 DUP3 DUP5 SUB SLT ISZERO PUSH2 0x1E50 JUMPI PUSH2 0x1E4F PUSH2 0x1C1B JUMP JUMPDEST JUMPDEST PUSH0 PUSH2 0x1E5D DUP5 DUP3 DUP6 ADD PUSH2 0x1DC6 JUMP JUMPDEST SWAP2 POP POP SWAP3 SWAP2 POP POP JUMP JUMPDEST PUSH32 0x4E487B7100000000000000000000000000000000000000000000000000000000 PUSH0 MSTORE PUSH1 0x21 PUSH1 0x4 MSTORE PUSH1 0x24 PUSH0 REVERT JUMPDEST PUSH1 0x6 DUP2 LT PUSH2 0x1EA4 JUMPI PUSH2 0x1EA3 PUSH2 0x1E66 JUMP JUMPDEST JUMPDEST POP JUMP JUMPDEST PUSH0 DUP2 SWAP1 POP PUSH2 0x1EB4 DUP3 PUSH2 0x1E93 JUMP JUMPDEST SWAP2 SWAP1 POP JUMP JUMPDEST PUSH0 PUSH2 0x1EC3 DUP3 PUSH2 0x1EA7 JUMP JUMPDEST SWAP1 POP SWAP2 SWAP1 POP JUMP JUMPDEST PUSH2 0x1ED3 DUP2 PUSH2 0x1EB9 JUMP JUMPDEST DUP3 MSTORE POP POP JUMP JUMPDEST PUSH0 PUSH1 0x20 DUP3 ADD SWAP1 POP PUSH2 0x1EEC PUSH0 DUP4 ADD DUP5 PUSH2 0x1ECA JUMP JUMPDEST SWAP3 SWAP2 POP POP JUMP JUMPDEST PUSH0 PUSH0 PUSH0 PUSH1 0x40 DUP5 DUP7 SUB SLT ISZERO PUSH2 0x1F09 JUMPI PUSH2 0x1F08 PUSH2 0x1C1B JUMP JUMPDEST JUMPDEST PUSH0 DUP5 ADD CALLDATALOAD PUSH8 0xFFFFFFFFFFFFFFFF DUP2 GT ISZERO PUSH2 0x1F26 JUMPI PUSH2 0x1F25 PUSH2 0x1C1F JUMP JUMPDEST JUMPDEST PUSH2 0x1F32 DUP7 DUP3 DUP8 ADD PUSH2 0x1C2F JUMP JUMPDEST SWAP4 POP SWAP4 POP POP PUSH1 0x20 PUSH2 0x1F45 DUP7 DUP3 DUP8 ADD PUSH2 0x1DC6 JUMP JUMPDEST SWAP2 POP POP SWAP3 POP SWAP3 POP SWAP3 JUMP JUMPDEST PUSH2 0x1F58 DUP2 PUSH2 0x1D9F JUMP JUMPDEST DUP3 MSTORE POP POP JUMP JUMPDEST PUSH0 PUSH1 0x20 DUP3 ADD SWAP1 POP PUSH2 0x1F71 PUSH0 DUP4 ADD DUP5 PUSH2 0x1F4F JUMP JUMPDEST SWAP3 SWAP2 POP POP JUMP JUMPDEST PUSH0 DUP2 MLOAD SWAP1 POP SWAP2 SWAP1 POP JUMP JUMPDEST PUSH0 DUP3 DUP3 MSTORE PUSH1 0x20 DUP3 ADD SWAP1 POP SWAP3 SWAP2 POP POP JUMP JUMPDEST DUP3 DUP2 DUP4 MCOPY PUSH0 DUP4 DUP4 ADD MSTORE POP POP POP JUMP JUMPDEST PUSH0 PUSH1 0x1F NOT PUSH1 0x1F DUP4 ADD AND SWAP1 POP SWAP2 SWAP1 POP JUMP JUMPDEST PUSH0 PUSH2 0x1FB9 DUP3 PUSH2 0x1F77 JUMP JUMPDEST PUSH2 0x1FC3 DUP2 DUP6 PUSH2 0x1F81 JUMP JUMPDEST SWAP4 POP PUSH2 0x1FD3 DUP2 DUP6 PUSH1 0x20 DUP7 ADD PUSH2 0x1F91 JUMP JUMPDEST PUSH2 0x1FDC DUP2 PUSH2 0x1F9F JUMP JUMPDEST DUP5 ADD SWAP2 POP POP SWAP3 SWAP2 POP POP JUMP JUMPDEST PUSH0 DUP2 SWAP1 POP SWAP2 SWAP1 POP JUMP JUMPDEST PUSH2 0x1FF9 DUP2 PUSH2 0x1FE7 JUMP JUMPDEST DUP3 MSTORE POP POP JUMP JUMPDEST PUSH0 PUSH1 0xE0 DUP3 ADD SWAP1 POP DUP2 DUP2 SUB PUSH0 DUP4 ADD MSTORE PUSH2 0x2017 DUP2 DUP11 PUSH2 0x1FAF JUMP JUMPDEST SWAP1 POP DUP2 DUP2 SUB PUSH1 0x20 DUP4 ADD MSTORE PUSH2 0x202B DUP2 DUP10 PUSH2 0x1FAF JUMP JUMPDEST SWAP1 POP PUSH2 0x203A PUSH1 0x40 DUP4 ADD DUP9 PUSH2 0x1F4F JUMP JUMPDEST PUSH2 0x2047 PUSH1 0x60 DUP4 ADD DUP8 PUSH2 0x1F4F JUMP JUMPDEST DUP2 DUP2 SUB PUSH1 0x80 DUP4 ADD MSTORE PUSH2 0x2059 DUP2 DUP7 PUSH2 0x1FAF JUMP JUMPDEST SWAP1 POP DUP2 DUP2 SUB PUSH1 0xA0 DUP4 ADD MSTORE PUSH2 0x206D DUP2 DUP6 PUSH2 0x1FAF JUMP JUMPDEST SWAP1 POP PUSH2 0x207C PUSH1 0xC0 DUP4 ADD DUP5 PUSH2 0x1FF0 JUMP JUMPDEST SWAP9 SWAP8 POP POP POP POP POP POP POP POP JUMP JUMPDEST PUSH0 DUP2 SWAP1 POP SWAP3 SWAP2 POP POP JUMP JUMPDEST PUSH0 PUSH2 0x209C DUP3 PUSH2 0x1F77 JUMP JUMPDEST PUSH2 0x20A6 DUP2 DUP6 PUSH2 0x2088 JUMP JUMPDEST SWAP4 POP PUSH2 0x20B6 DUP2 DUP6 PUSH1 0x20 DUP7 ADD PUSH2 0x1F91 JUMP JUMPDEST DUP1 DUP5 ADD SWAP2 POP POP SWAP3 SWAP2 POP POP JUMP JUMPDEST PUSH0 PUSH2 0x20CD DUP3 DUP5 PUSH2 0x2092 JUMP JUMPDEST SWAP2 POP DUP2 SWAP1 POP SWAP3 SWAP2 POP POP JUMP JUMPDEST PUSH32 0x426174636820646F6573206E6F74206578697374000000000000000000000000 PUSH0 DUP3 ADD MSTORE POP JUMP JUMPDEST PUSH0 PUSH2 0x210C PUSH1 0x14 DUP4 PUSH2 0x1F81 JUMP JUMPDEST SWAP2 POP PUSH2 0x2117 DUP3 PUSH2 0x20D8 JUMP JUMPDEST PUSH1 0x20 DUP3 ADD SWAP1 POP SWAP2 SWAP1 POP JUMP JUMPDEST PUSH0 PUSH1 0x20 DUP3 ADD SWAP1 POP DUP2 DUP2 SUB PUSH0 DUP4 ADD MSTORE PUSH2 0x2139 DUP2 PUSH2 0x2100 JUMP JUMPDEST SWAP1 POP SWAP2 SWAP1 POP JUMP JUMPDEST PUSH32 0x6E65775374617475732072657175697265640000000000000000000000000000 PUSH0 DUP3 ADD MSTORE POP JUMP JUMPDEST PUSH0 PUSH2 0x2174 PUSH1 0x12 DUP4 PUSH2 0x1F81 JUMP JUMPDEST SWAP2 POP PUSH2 0x217F DUP3 PUSH2 0x2140 JUMP JUMPDEST PUSH1 0x20 DUP3 ADD SWAP1 POP SWAP2 SWAP1 POP JUMP JUMPDEST PUSH0 PUSH1 0x20 DUP3 ADD SWAP1 POP DUP2 DUP2 SUB PUSH0 DUP4 ADD MSTORE PUSH2 0x21A1 DUP2 PUSH2 0x2168 JUMP JUMPDEST SWAP1 POP SWAP2 SWAP1 POP JUMP JUMPDEST DUP3 DUP2 DUP4 CALLDATACOPY PUSH0 DUP4 DUP4 ADD MSTORE POP POP POP JUMP JUMPDEST PUSH0 PUSH2 0x21C1 DUP4 DUP6 PUSH2 0x2088 JUMP JUMPDEST SWAP4 POP PUSH2 0x21CE DUP4 DUP6 DUP5 PUSH2 0x21A8 JUMP JUMPDEST DUP3 DUP5 ADD SWAP1 POP SWAP4 SWAP3 POP POP POP JUMP JUMPDEST PUSH0 PUSH2 0x21E6 DUP3 DUP5 DUP7 PUSH2 0x21B6 JUMP JUMPDEST SWAP2 POP DUP2 SWAP1 POP SWAP4 SWAP3 POP POP POP JUMP JUMPDEST PUSH32 0x4E6F7420616C6C6F77656420746F207570646174652073746174757300000000 PUSH0 DUP3 ADD MSTORE POP JUMP JUMPDEST PUSH0 PUSH2 0x2226 PUSH1 0x1C DUP4 PUSH2 0x1F81 JUMP JUMPDEST SWAP2 POP PUSH2 0x2231 DUP3 PUSH2 0x21F2 JUMP JUMPDEST PUSH1 0x20 DUP3 ADD SWAP1 POP SWAP2 SWAP1 POP JUMP JUMPDEST PUSH0 PUSH1 0x20 DUP3 ADD SWAP1 POP DUP2 DUP2 SUB PUSH0 DUP4 ADD MSTORE PUSH2 0x2253 DUP2 PUSH2 0x221A JUMP JUMPDEST SWAP1 POP SWAP2 SWAP1 POP JUMP JUMPDEST PUSH0 DUP3 SWAP1 POP SWAP3 SWAP2 POP POP JUMP JUMPDEST PUSH32 0x4E487B7100000000000000000000000000000000000000000000000000000000 PUSH0 MSTORE PUSH1 0x41 PUSH1 0x4 MSTORE PUSH1 0x24 PUSH0 REVERT JUMPDEST PUSH32 0x4E487B7100000000000000000000000000000000000000000000000000000000 PUSH0 MSTORE PUSH1 0x22 PUSH1 0x4 MSTORE PUSH1 0x24 PUSH0 REVERT JUMPDEST PUSH0 PUSH1 0x2 DUP3 DIV SWAP1 POP PUSH1 0x1 DUP3 AND DUP1 PUSH2 0x22D5 JUMPI PUSH1 0x7F DUP3 AND SWAP2 POP JUMPDEST PUSH1 0x20 DUP3 LT DUP2 SUB PUSH2 0x22E8 JUMPI PUSH2 0x22E7 PUSH2 0x2291 JUMP JUMPDEST JUMPDEST POP SWAP2 SWAP1 POP JUMP JUMPDEST PUSH0 DUP2 SWAP1 POP DUP2 PUSH0 MSTORE PUSH1 0x20 PUSH0 KECCAK256 SWAP1 POP SWAP2 SWAP1 POP JUMP JUMPDEST PUSH0 PUSH1 0x20 PUSH1 0x1F DUP4 ADD DIV SWAP1 POP SWAP2 SWAP1 POP JUMP JUMPDEST PUSH0 DUP3 DUP3 SHL SWAP1 POP SWAP3 SWAP2 POP POP JUMP JUMPDEST PUSH0 PUSH1 0x8 DUP4 MUL PUSH2 0x234A PUSH32 0xFFFFFFFFFFFFFFFFFFFFFFFFFFFFFFFFFFFFFFFFFFFFFFFFFFFFFFFFFFFFFFFF DUP3 PUSH2 0x230F JUMP JUMPDEST PUSH2 0x2354 DUP7 DUP4 PUSH2 0x230F JUMP JUMPDEST SWAP6 POP DUP1 NOT DUP5 AND SWAP4 POP DUP1 DUP7 AND DUP5 OR SWAP3 POP POP POP SWAP4 SWAP3 POP POP POP JUMP JUMPDEST PUSH0 DUP2 SWAP1 POP SWAP2 SWAP1 POP JUMP JUMPDEST PUSH0 PUSH2 0x238F PUSH2 0x238A PUSH2 0x2385 DUP5 PUSH2 0x1FE7 JUMP JUMPDEST PUSH2 0x236C JUMP JUMPDEST PUSH2 0x1FE7 JUMP JUMPDEST SWAP1 POP SWAP2 SWAP1 POP JUMP JUMPDEST PUSH0 DUP2 SWAP1 POP SWAP2 SWAP1 POP JUMP JUMPDEST PUSH2 0x23A8 DUP4 PUSH2 0x2375 JUMP JUMPDEST PUSH2 0x23BC PUSH2 0x23B4 DUP3 PUSH2 0x2396 JUMP JUMPDEST DUP5 DUP5 SLOAD PUSH2 0x231B JUMP JUMPDEST DUP3 SSTORE POP POP POP POP JUMP JUMPDEST PUSH0 PUSH0 SWAP1 POP SWAP1 JUMP JUMPDEST PUSH2 0x23D3 PUSH2 0x23C4 JUMP JUMPDEST PUSH2 0x23DE DUP2 DUP5 DUP5 PUSH2 0x239F JUMP JUMPDEST POP POP POP JUMP JUMPDEST JUMPDEST DUP2 DUP2 LT ISZERO PUSH2 0x2401 JUMPI PUSH2 0x23F6 PUSH0 DUP3 PUSH2 0x23CB JUMP JUMPDEST PUSH1 0x1 DUP2 ADD SWAP1 POP PUSH2 0x23E4 JUMP JUMPDEST POP POP JUMP JUMPDEST PUSH1 0x1F DUP3 GT ISZERO PUSH2 0x2446 JUMPI PUSH2 0x2417 DUP2 PUSH2 0x22EE JUMP JUMPDEST PUSH2 0x2420 DUP5 PUSH2 0x2300 JUMP JUMPDEST DUP2 ADD PUSH1 0x20 DUP6 LT ISZERO PUSH2 0x242F JUMPI DUP2 SWAP1 POP JUMPDEST PUSH2 0x2443 PUSH2 0x243B DUP6 PUSH2 0x2300 JUMP JUMPDEST DUP4 ADD DUP3 PUSH2 0x23E3 JUMP JUMPDEST POP POP JUMPDEST POP POP POP JUMP JUMPDEST PUSH0 DUP3 DUP3 SHR SWAP1 POP SWAP3 SWAP2 POP POP JUMP JUMPDEST PUSH0 PUSH2 0x2466 PUSH0 NOT DUP5 PUSH1 0x8 MUL PUSH2 0x244B JUMP JUMPDEST NOT DUP1 DUP4 AND SWAP2 POP POP SWAP3 SWAP2 POP POP JUMP JUMPDEST PUSH0 PUSH2 0x247E DUP4 DUP4 PUSH2 0x2457 JUMP JUMPDEST SWAP2 POP DUP3 PUSH1 0x2 MUL DUP3 OR SWAP1 POP SWAP3 SWAP2 POP POP JUMP JUMPDEST PUSH2 0x2498 DUP4 DUP4 PUSH2 0x225A JUMP JUMPDEST PUSH8 0xFFFFFFFFFFFFFFFF DUP2 GT ISZERO PUSH2 0x24B1 JUMPI PUSH2 0x24B0 PUSH2 0x2264 JUMP JUMPDEST JUMPDEST PUSH2 0x24BB DUP3 SLOAD PUSH2 0x22BE JUMP JUMPDEST PUSH2 0x24C6 DUP3 DUP3 DUP6 PUSH2 0x2405 JUMP JUMPDEST PUSH0 PUSH1 0x1F DUP4 GT PUSH1 0x1 DUP2 EQ PUSH2 0x24F3 JUMPI PUSH0 DUP5 ISZERO PUSH2 0x24E1 JUMPI DUP3 DUP8 ADD CALLDATALOAD SWAP1 POP JUMPDEST PUSH2 0x24EB DUP6 DUP3 PUSH2 0x2473 JUMP JUMPDEST DUP7 SSTORE POP PUSH2 0x2552 JUMP JUMPDEST PUSH1 0x1F NOT DUP5 AND PUSH2 0x2501 DUP7 PUSH2 0x22EE JUMP JUMPDEST PUSH0 JUMPDEST DUP3 DUP2 LT ISZERO PUSH2 0x2528 JUMPI DUP5 DUP10 ADD CALLDATALOAD DUP3 SSTORE PUSH1 0x1 DUP3 ADD SWAP2 POP PUSH1 0x20 DUP6 ADD SWAP5 POP PUSH1 0x20 DUP2 ADD SWAP1 POP PUSH2 0x2503 JUMP JUMPDEST DUP7 DUP4 LT ISZERO PUSH2 0x2545 JUMPI DUP5 DUP10 ADD CALLDATALOAD PUSH2 0x2541 PUSH1 0x1F DUP10 AND DUP3 PUSH2 0x2457 JUMP JUMPDEST DUP4 SSTORE POP JUMPDEST PUSH1 0x1 PUSH1 0x2 DUP9 MUL ADD DUP9 SSTORE POP POP POP JUMPDEST POP POP POP POP POP POP POP JUMP JUMPDEST PUSH0 PUSH2 0x2566 DUP4 DUP6 PUSH2 0x1F81 JUMP JUMPDEST SWAP4 POP PUSH2 0x2573 DUP4 DUP6 DUP5 PUSH2 0x21A8 JUMP JUMPDEST PUSH2 0x257C DUP4 PUSH2 0x1F9F JUMP JUMPDEST DUP5 ADD SWAP1 POP SWAP4 SWAP3 POP POP POP JUMP JUMPDEST PUSH0 PUSH1 0x20 DUP3 ADD SWAP1 POP DUP2 DUP2 SUB PUSH0 DUP4 ADD MSTORE PUSH2 0x25A0 DUP2 DUP5 DUP7 PUSH2 0x255B JUMP JUMPDEST SWAP1 POP SWAP4 SWAP3 POP POP POP JUMP JUMPDEST PUSH32 0x4F6E6C792061646D696E2063616E2063616C6C20746869730000000000000000 PUSH0 DUP3 ADD MSTORE POP JUMP JUMPDEST PUSH0 PUSH2 0x25DD PUSH1 0x18 DUP4 PUSH2 0x1F81 JUMP JUMPDEST SWAP2 POP PUSH2 0x25E8 DUP3 PUSH2 0x25A9 JUMP JUMPDEST PUSH1 0x20 DUP3 ADD SWAP1 POP SWAP2 SWAP1 POP JUMP JUMPDEST PUSH0 PUSH1 0x20 DUP3 ADD SWAP1 POP DUP2 DUP2 SUB PUSH0 DUP4 ADD MSTORE PUSH2 0x260A DUP2 PUSH2 0x25D1 JUMP JUMPDEST SWAP1 POP SWAP2 SWAP1 POP JUMP JUMPDEST PUSH32 0x5A65726F2061646472657373206E6F7420616C6C6F7765640000000000000000 PUSH0 DUP3 ADD MSTORE POP JUMP JUMPDEST PUSH0 PUSH2 0x2645 PUSH1 0x18 DUP4 PUSH2 0x1F81 JUMP JUMPDEST SWAP2 POP PUSH2 0x2650 DUP3 PUSH2 0x2611 JUMP JUMPDEST PUSH1 0x20 DUP3 ADD SWAP1 POP SWAP2 SWAP1 POP JUMP JUMPDEST PUSH0 PUSH1 0x20 DUP3 ADD SWAP1 POP DUP2 DUP2 SUB PUSH0 DUP4 ADD MSTORE PUSH2 0x2672 DUP2 PUSH2 0x2639 JUMP JUMPDEST SWAP1 POP SWAP2 SWAP1 POP JUMP JUMPDEST PUSH32 0x526F6C652063616E6E6F74206265204E6F6E6500000000000000000000000000 PUSH0 DUP3 ADD MSTORE POP JUMP JUMPDEST PUSH0 PUSH2 0x26AD PUSH1 0x13 DUP4 PUSH2 0x1F81 JUMP JUMPDEST SWAP2 POP PUSH2 0x26B8 DUP3 PUSH2 0x2679 JUMP JUMPDEST PUSH1 0x20 DUP3 ADD SWAP1 POP SWAP2 SWAP1 POP JUMP JUMPDEST PUSH0 PUSH1 0x20 DUP3 ADD SWAP1 POP DUP2 DUP2 SUB PUSH0 DUP4 ADD MSTORE PUSH2 0x26DA DUP2 PUSH2 0x26A1 JUMP JUMPDEST SWAP1 POP SWAP2 SWAP1 POP JUMP JUMPDEST PUSH32 0x43616E6E6F742061737369676E2041646D696E20726F6C650000000000000000 PUSH0 DUP3 ADD MSTORE POP JUMP JUMPDEST PUSH0 PUSH2 0x2715 PUSH1 0x18 DUP4 PUSH2 0x1F81 JUMP JUMPDEST SWAP2 POP PUSH2 0x2720 DUP3 PUSH2 0x26E1 JUMP JUMPDEST PUSH1 0x20 DUP3 ADD SWAP1 POP SWAP2 SWAP1 POP JUMP JUMPDEST PUSH0 PUSH1 0x20 DUP3 ADD SWAP1 POP DUP2 DUP2 SUB PUSH0 DUP4 ADD MSTORE PUSH2 0x2742 DUP2 PUSH2 0x2709 JUMP JUMPDEST SWAP1 POP SWAP2 SWAP1 POP JUMP JUMPDEST PUSH32 0x496E76616C696420726F6C6520666F72207468697320616374696F6E00000000 PUSH0 DUP3 ADD MSTORE POP JUMP JUMPDEST PUSH0 PUSH2 0x277D PUSH1 0x1C DUP4 PUSH2 0x1F81 JUMP JUMPDEST SWAP2 POP PUSH2 0x2788 DUP3 PUSH2 0x2749 JUMP JUMPDEST PUSH1 0x20 DUP3 ADD SWAP1 POP SWAP2 SWAP1 POP JUMP JUMPDEST PUSH0 PUSH1 0x20 DUP3 ADD SWAP1 POP DUP2 DUP2 SUB PUSH0 DUP4 ADD MSTORE PUSH2 0x27AA DUP2 PUSH2 0x2771 JUMP JUMPDEST SWAP1 POP SWAP2 SWAP1 POP JUMP JUMPDEST PUSH32 0x6261746368496420726571756972656400000000000000000000000000000000 PUSH0 DUP3 ADD MSTORE POP JUMP JUMPDEST PUSH0 PUSH2 0x27E5 PUSH1 0x10 DUP4 PUSH2 0x1F81 JUMP JUMPDEST SWAP2 POP PUSH2 0x27F0 DUP3 PUSH2 0x27B1 JUMP JUMPDEST PUSH1 0x20 DUP3 ADD SWAP1 POP SWAP2 SWAP1 POP JUMP JUMPDEST PUSH0 PUSH1 0x20 DUP3 ADD SWAP1 POP DUP2 DUP2 SUB PUSH0 DUP4 ADD MSTORE PUSH2 0x2812 DUP2 PUSH2 0x27D9 JUMP JUMPDEST SWAP1 POP SWAP2 SWAP1 POP JUMP JUMPDEST PUSH32 0x70726F647563744E616D65207265717569726564000000000000000000000000 PUSH0 DUP3 ADD MSTORE POP JUMP JUMPDEST PUSH0 PUSH2 0x284D PUSH1 0x14 DUP4 PUSH2 0x1F81 JUMP JUMPDEST SWAP2 POP PUSH2 0x2858 DUP3 PUSH2 0x2819 JUMP JUMPDEST PUSH1 0x20 DUP3 ADD SWAP1 POP SWAP2 SWAP1 POP JUMP JUMPDEST PUSH0 PUSH1 0x20 DUP3 ADD SWAP1 POP DUP2 DUP2 SUB PUSH0 DUP4 ADD MSTORE PUSH2 0x287A DUP2 PUSH2 0x2841 JUMP JUMPDEST SWAP1 POP SWAP2 SWAP1 POP JUMP JUMPDEST PUSH32 0x4475706C69636174652062617463684964000000000000000000000000000000 PUSH0 DUP3 ADD MSTORE POP JUMP JUMPDEST PUSH0 PUSH2 0x28B5 PUSH1 0x11 DUP4 PUSH2 0x1F81 JUMP JUMPDEST SWAP2 POP PUSH2 0x28C0 DUP3 PUSH2 0x2881 JUMP JUMPDEST PUSH1 0x20 DUP3 ADD SWAP1 POP SWAP2 SWAP1 POP JUMP JUMPDEST PUSH0 PUSH1 0x20 DUP3 ADD SWAP1 POP DUP2 DUP2 SUB PUSH0 DUP4 ADD MSTORE PUSH2 0x28E2 DUP2 PUSH2 0x28A9 JUMP JUMPDEST SWAP1 POP SWAP2 SWAP1 POP JUMP JUMPDEST PUSH2 0x28F2 DUP3 PUSH2 0x1F77 JUMP JUMPDEST PUSH8 0xFFFFFFFFFFFFFFFF DUP2 GT ISZERO PUSH2 0x290B JUMPI PUSH2 0x290A PUSH2 0x2264 JUMP JUMPDEST JUMPDEST PUSH2 0x2915 DUP3 SLOAD PUSH2 0x22BE JUMP JUMPDEST PUSH2 0x2920 DUP3 DUP3 DUP6 PUSH2 0x2405 JUMP JUMPDEST PUSH0 PUSH1 0x20 SWAP1 POP PUSH1 0x1F DUP4 GT PUSH1 0x1 DUP2 EQ PUSH2 0x2951 JUMPI PUSH0 DUP5 ISZERO PUSH2 0x293F JUMPI DUP3 DUP8 ADD MLOAD SWAP1 POP JUMPDEST PUSH2 0x2949 DUP6 DUP3 PUSH2 0x2473 JUMP JUMPDEST DUP7 SSTORE POP PUSH2 0x29B0 JUMP JUMPDEST PUSH1 0x1F NOT DUP5 AND PUSH2 0x295F DUP7 PUSH2 0x22EE JUMP JUMPDEST PUSH0 JUMPDEST DUP3 DUP2 LT ISZERO PUSH2 0x2986 JUMPI DUP5 DUP10 ADD MLOAD DUP3 SSTORE PUSH1 0x1 DUP3 ADD SWAP2 POP PUSH1 0x20 DUP6 ADD SWAP5 POP PUSH1 0x20 DUP2 ADD SWAP1 POP PUSH2 0x2961 JUMP JUMPDEST DUP7 DUP4 LT ISZERO PUSH2 0x29A3 JUMPI DUP5 DUP10 ADD MLOAD PUSH2 0x299F PUSH1 0x1F DUP10 AND DUP3 PUSH2 0x2457 JUMP JUMPDEST DUP4 SSTORE POP JUMPDEST PUSH1 0x1 PUSH1 0x2 DUP9 MUL ADD DUP9 SSTORE POP POP POP JUMPDEST POP POP POP POP POP POP JUMP JUMPDEST PUSH32 0x50726F6475636564000000000000000000000000000000000000000000000000 PUSH0 DUP3 ADD MSTORE POP JUMP JUMPDEST PUSH0 PUSH2 0x29EC PUSH1 0x8 DUP4 PUSH2 0x1F81 JUMP JUMPDEST SWAP2 POP PUSH2 0x29F7 DUP3 PUSH2 0x29B8 JUMP JUMPDEST PUSH1 0x20 DUP3 ADD SWAP1 POP SWAP2 SWAP1 POP JUMP JUMPDEST PUSH0 PUSH1 0x20 DUP3 ADD SWAP1 POP DUP2 DUP2 SUB PUSH0 DUP4 ADD MSTORE PUSH2 0x2A19 DUP2 PUSH2 0x29E0 JUMP JUMPDEST SWAP1 POP SWAP2 SWAP1 POP JUMP JUMPDEST PUSH32 0x4E6F742063757272656E74206F776E6572000000000000000000000000000000 PUSH0 DUP3 ADD MSTORE POP JUMP JUMPDEST PUSH0 PUSH2 0x2A54 PUSH1 0x11 DUP4 PUSH2 0x1F81 JUMP JUMPDEST SWAP2 POP PUSH2 0x2A5F DUP3 PUSH2 0x2A20 JUMP JUMPDEST PUSH1 0x20 DUP3 ADD SWAP1 POP SWAP2 SWAP1 POP JUMP JUMPDEST PUSH0 PUSH1 0x20 DUP3 ADD SWAP1 POP DUP2 DUP2 SUB PUSH0 DUP4 ADD MSTORE PUSH2 0x2A81 DUP2 PUSH2 0x2A48 JUMP JUMPDEST SWAP1 POP SWAP2 SWAP1 POP JUMP JUMPDEST PUSH32 0x5A65726F20616464726573730000000000000000000000000000000000000000 PUSH0 DUP3 ADD MSTORE POP JUMP JUMPDEST PUSH0 PUSH2 0x2ABC PUSH1 0xC DUP4 PUSH2 0x1F81 JUMP JUMPDEST SWAP2 POP PUSH2 0x2AC7 DUP3 PUSH2 0x2A88 JUMP JUMPDEST PUSH1 0x20 DUP3 ADD SWAP1 POP SWAP2 SWAP1 POP JUMP JUMPDEST PUSH0 PUSH1 0x20 DUP3 ADD SWAP1 POP DUP2 DUP2 SUB PUSH0 DUP4 ADD MSTORE PUSH2 0x2AE9 DUP2 PUSH2 0x2AB0 JUMP JUMPDEST SWAP1 POP SWAP2 SWAP1 POP JUMP JUMPDEST PUSH32 0x526563697069656E74206E6F7420617574686F72697A65640000000000000000 PUSH0 DUP3 ADD MSTORE POP JUMP JUMPDEST PUSH0 PUSH2 0x2B24 PUSH1 0x18 DUP4 PUSH2 0x1F81 JUMP JUMPDEST SWAP2 POP PUSH2 0x2B2F DUP3 PUSH2 0x2AF0 JUMP JUMPDEST PUSH1 0x20 DUP3 ADD SWAP1 POP SWAP2 SWAP1 POP JUMP JUMPDEST PUSH0 PUSH1 0x20 DUP3 ADD SWAP1 POP DUP2 DUP2 SUB PUSH0 DUP4 ADD MSTORE PUSH2 0x2B51 DUP2 PUSH2 0x2B18 JUMP JUMPDEST SWAP1 POP SWAP2 SWAP1 POP JUMP JUMPDEST PUSH32 0x50726F6475636572202D3E2048616C616C417574686F72697479206F6E6C7900 PUSH0 DUP3 ADD MSTORE POP JUMP JUMPDEST PUSH0 PUSH2 0x2B8C PUSH1 0x1F DUP4 PUSH2 0x1F81 JUMP JUMPDEST SWAP2 POP PUSH2 0x2B97 DUP3 PUSH2 0x2B58 JUMP JUMPDEST PUSH1 0x20 DUP3 ADD SWAP1 POP SWAP2 SWAP1 POP JUMP JUMPDEST PUSH0 PUSH1 0x20 DUP3 ADD SWAP1 POP DUP2 DUP2 SUB PUSH0 DUP4 ADD MSTORE PUSH2 0x2BB9 DUP2 PUSH2 0x2B80 JUMP JUMPDEST SWAP1 POP SWAP2 SWAP1 POP JUMP JUMPDEST PUSH32 0x48616C616C417574686F72697479202D3E204469737472696275746F72206F6E PUSH0 DUP3 ADD MSTORE PUSH32 0x6C79000000000000000000000000000000000000000000000000000000000000 PUSH1 0x20 DUP3 ADD MSTORE POP JUMP JUMPDEST PUSH0 PUSH2 0x2C1A PUSH1 0x22 DUP4 PUSH2 0x1F81 JUMP JUMPDEST SWAP2 POP PUSH2 0x2C25 DUP3 PUSH2 0x2BC0 JUMP JUMPDEST PUSH1 0x40 DUP3 ADD SWAP1 POP SWAP2 SWAP1 POP JUMP JUMPDEST PUSH0 PUSH1 0x20 DUP3 ADD SWAP1 POP DUP2 DUP2 SUB PUSH0 DUP4 ADD MSTORE PUSH2 0x2C47 DUP2 PUSH2 0x2C0E JUMP JUMPDEST SWAP1 POP SWAP2 SWAP1 POP JUMP JUMPDEST PUSH32 0x4469737472696275746F72202D3E2052657461696C6572206F6E6C7900000000 PUSH0 DUP3 ADD MSTORE POP JUMP JUMPDEST PUSH0 PUSH2 0x2C82 PUSH1 0x1C DUP4 PUSH2 0x1F81 JUMP JUMPDEST SWAP2 POP PUSH2 0x2C8D DUP3 PUSH2 0x2C4E JUMP JUMPDEST PUSH1 0x20 DUP3 ADD SWAP1 POP SWAP2 SWAP1 POP JUMP JUMPDEST PUSH0 PUSH1 0x20 DUP3 ADD SWAP1 POP DUP2 DUP2 SUB PUSH0 DUP4 ADD MSTORE PUSH2 0x2CAF DUP2 PUSH2 0x2C76 JUMP JUMPDEST SWAP1 POP SWAP2 SWAP1 POP JUMP JUMPDEST PUSH32 0x5468697320726F6C652063616E6E6F74207472616E7366657220626174636800 PUSH0 DUP3 ADD MSTORE POP JUMP JUMPDEST PUSH0 PUSH2 0x2CEA PUSH1 0x1F DUP4 PUSH2 0x1F81 JUMP JUMPDEST SWAP2 POP PUSH2 0x2CF5 DUP3 PUSH2 0x2CB6 JUMP JUMPDEST PUSH1 0x20 DUP3 ADD SWAP1 POP SWAP2 SWAP1 POP JUMP JUMPDEST PUSH0 PUSH1 0x20 DUP3 ADD SWAP1 POP DUP2 DUP2 SUB PUSH0 DUP4 ADD MSTORE PUSH2 0x2D17 DUP2 PUSH2 0x2CDE JUMP JUMPDEST SWAP1 POP SWAP2 SWAP1 POP JUMP JUMPDEST PUSH32 0x5472616E73666572726564000000000000000000000000000000000000000000 PUSH0 DUP3 ADD MSTORE POP JUMP JUMPDEST PUSH0 PUSH2 0x2D52 PUSH1 0xB DUP4 PUSH2 0x1F81 JUMP JUMPDEST SWAP2 POP PUSH2 0x2D5D DUP3 PUSH2 0x2D1E JUMP JUMPDEST PUSH1 0x20 DUP3 ADD SWAP1 POP SWAP2 SWAP1 POP JUMP JUMPDEST PUSH0 PUSH1 0x20 DUP3 ADD SWAP1 POP DUP2 DUP2 SUB PUSH0 DUP4 ADD MSTORE PUSH2 0x2D7F DUP2 PUSH2 0x2D46 JUMP JUMPDEST SWAP1 POP SWAP2 SWAP1 POP JUMP JUMPDEST PUSH32 0x6365727448617368207265717569726564000000000000000000000000000000 PUSH0 DUP3 ADD MSTORE POP JUMP JUMPDEST PUSH0 PUSH2 0x2DBA PUSH1 0x11 DUP4 PUSH2 0x1F81 JUMP JUMPDEST SWAP2 POP PUSH2 0x2DC5 DUP3 PUSH2 0x2D86 JUMP JUMPDEST PUSH1 0x20 DUP3 ADD SWAP1 POP SWAP2 SWAP1 POP JUMP JUMPDEST PUSH0 PUSH1 0x20 DUP3 ADD SWAP1 POP DUP2 DUP2 SUB PUSH0 DUP4 ADD MSTORE PUSH2 0x2DE7 DUP2 PUSH2 0x2DAE JUMP JUMPDEST SWAP1 POP SWAP2 SWAP1 POP JUMP JUMPDEST PUSH32 0x48616C616C20616C726561647920636572746966696564000000000000000000 PUSH0 DUP3 ADD MSTORE POP JUMP JUMPDEST PUSH0 PUSH2 0x2E22 PUSH1 0x17 DUP4 PUSH2 0x1F81 JUMP JUMPDEST SWAP2 POP PUSH2 0x2E2D DUP3 PUSH2 0x2DEE JUMP JUMPDEST PUSH1 0x20 DUP3 ADD SWAP1 POP SWAP2 SWAP1 POP JUMP JUMPDEST PUSH0 PUSH1 0x20 DUP3 ADD SWAP1 POP DUP2 DUP2 SUB PUSH0 DUP4 ADD MSTORE PUSH2 0x2E4F DUP2 PUSH2 0x2E16 JUMP JUMPDEST SWAP1 POP SWAP2 SWAP1 POP JUMP JUMPDEST PUSH32 0x4365727469666965642048616C616C0000000000000000000000000000000000 PUSH0 DUP3 ADD MSTORE POP JUMP JUMPDEST PUSH0 PUSH2 0x2E8A PUSH1 0xF DUP4 PUSH2 0x1F81 JUMP JUMPDEST SWAP2 POP PUSH2 0x2E95 DUP3 PUSH2 0x2E56 JUMP JUMPDEST PUSH1 0x20 DUP3 ADD SWAP1 POP SWAP2 SWAP1 POP JUMP JUMPDEST PUSH0 PUSH1 0x20 DUP3 ADD SWAP1 POP DUP2 DUP2 SUB PUSH0 DUP4 ADD MSTORE PUSH2 0x2EB7 DUP2 PUSH2 0x2E7E JUMP JUMPDEST SWAP1 POP SWAP2 SWAP1 POP JUMP INVALID LOG2 PUSH5 0x6970667358 0x22 SLT KECCAK256 0xC0 PUSH32 0x1D5F9190AB3A815521D5D8EAFC7731DB0672C1802EC3018CA722AC7BE0936473 PUSH16 0x6C634300081F00330000000000000000 "
				},
				"gasEstimates": {
					"creation": {
						"codeDepositCost": "2404000",
						"executionCost": "52889",
						"totalCost": "2456889"
					},
					"external": {
						"admin()": "2573",
						"assignRole(address,uint8)": "29013",
						"createBatch(string,string)": "infinite",
						"getBatch(string)": "infinite",
						"isBatchExists(string)": "infinite",
						"roles(address)": "2921",
						"setHalalCertificate(string,string)": "infinite",
						"transferBatch(string,address)": "infinite",
						"updateStatus(string,string)": "infinite"
					}
				},
				"methodIdentifiers": {
					"admin()": "f851a440",
					"assignRole(address,uint8)": "630a195b",
					"createBatch(string,string)": "92b8f021",
					"getBatch(string)": "f9ca4274",
					"isBatchExists(string)": "374acb1b",
					"roles(address)": "99374642",
					"setHalalCertificate(string,string)": "bbb65699",
					"transferBatch(string,address)": "b401563b",
					"updateStatus(string,string)": "347047cc"
				}
			},
			"storageLayout": {
				"storage": [
					{
						"astId": 13,
						"contract": "ElMino_HalalSupplyChain.sol:ElMinoHalalSupplyChain",
						"label": "admin",
						"offset": 0,
						"slot": "0",
						"type": "t_address"
					},
					{
						"astId": 19,
						"contract": "ElMino_HalalSupplyChain.sol:ElMinoHalalSupplyChain",
						"label": "roles",
						"offset": 0,
						"slot": "1",
						"type": "t_mapping(t_address,t_enum(Role)10)"
					},
					{
						"astId": 53,
						"contract": "ElMino_HalalSupplyChain.sol:ElMinoHalalSupplyChain",
						"label": "batches",
						"offset": 0,
						"slot": "2",
						"type": "t_mapping(t_string_memory_ptr,t_struct(Batch)47_storage)"
					}
				],
				"types": {
					"t_address": {
						"encoding": "inplace",
						"label": "address",
						"numberOfBytes": "20"
					},
					"t_bool": {
						"encoding": "inplace",
						"label": "bool",
						"numberOfBytes": "1"
					},
					"t_enum(Role)10": {
						"encoding": "inplace",
						"label": "enum ElMinoHalalSupplyChain.Role",
						"numberOfBytes": "1"
					},
					"t_mapping(t_address,t_enum(Role)10)": {
						"encoding": "mapping",
						"key": "t_address",
						"label": "mapping(address => enum ElMinoHalalSupplyChain.Role)",
						"numberOfBytes": "32",
						"value": "t_enum(Role)10"
					},
					"t_mapping(t_string_memory_ptr,t_struct(Batch)47_storage)": {
						"encoding": "mapping",
						"key": "t_string_memory_ptr",
						"label": "mapping(string => struct ElMinoHalalSupplyChain.Batch)",
						"numberOfBytes": "32",
						"value": "t_struct(Batch)47_storage"
					},
					"t_string_memory_ptr": {
						"encoding": "bytes",
						"label": "string",
						"numberOfBytes": "32"
					},
					"t_string_storage": {
						"encoding": "bytes",
						"label": "string",
						"numberOfBytes": "32"
					},
					"t_struct(Batch)47_storage": {
						"encoding": "inplace",
						"label": "struct ElMinoHalalSupplyChain.Batch",
						"members": [
							{
								"astId": 30,
								"contract": "ElMino_HalalSupplyChain.sol:ElMinoHalalSupplyChain",
								"label": "productName",
								"offset": 0,
								"slot": "0",
								"type": "t_string_storage"
							},
							{
								"astId": 32,
								"contract": "ElMino_HalalSupplyChain.sol:ElMinoHalalSupplyChain",
								"label": "batchId",
								"offset": 0,
								"slot": "1",
								"type": "t_string_storage"
							},
							{
								"astId": 34,
								"contract": "ElMino_HalalSupplyChain.sol:ElMinoHalalSupplyChain",
								"label": "producer",
								"offset": 0,
								"slot": "2",
								"type": "t_address"
							},
							{
								"astId": 36,
								"contract": "ElMino_HalalSupplyChain.sol:ElMinoHalalSupplyChain",
								"label": "currentOwner",
								"offset": 0,
								"slot": "3",
								"type": "t_address"
							},
							{
								"astId": 38,
								"contract": "ElMino_HalalSupplyChain.sol:ElMinoHalalSupplyChain",
								"label": "status",
								"offset": 0,
								"slot": "4",
								"type": "t_string_storage"
							},
							{
								"astId": 40,
								"contract": "ElMino_HalalSupplyChain.sol:ElMinoHalalSupplyChain",
								"label": "halalCertHash",
								"offset": 0,
								"slot": "5",
								"type": "t_string_storage"
							},
							{
								"astId": 42,
								"contract": "ElMino_HalalSupplyChain.sol:ElMinoHalalSupplyChain",
								"label": "createdAt",
								"offset": 0,
								"slot": "6",
								"type": "t_uint256"
							},
							{
								"astId": 44,
								"contract": "ElMino_HalalSupplyChain.sol:ElMinoHalalSupplyChain",
								"label": "exists",
								"offset": 0,
								"slot": "7",
								"type": "t_bool"
							},
							{
								"astId": 46,
								"contract": "ElMino_HalalSupplyChain.sol:ElMinoHalalSupplyChain",
								"label": "halalCertified",
								"offset": 1,
								"slot": "7",
								"type": "t_bool"
							}
						],
						"numberOfBytes": "256"
					},
					"t_uint256": {
						"encoding": "inplace",
						"label": "uint256",
						"numberOfBytes": "32"
					}
				}
			},
			"userdoc": {
				"events": {
					"ActorAuthorized(address,uint8)": {
						"notice": "Admin assigns roles (whitelisting)"
					}
				},
				"kind": "user",
				"methods": {
					"admin()": {
						"notice": "Contract deployer becomes Admin"
					},
					"assignRole(address,uint8)": {
						"notice": "assignRole Admin assigns one of: Producer, HalalAuthority, Distributor, Retailer"
					},
					"createBatch(string,string)": {
						"notice": "createBatch(batchId, productName) — only Producer - prevents duplicates - initializes status as \"Produced\""
					},
					"getBatch(string)": {
						"notice": "getBatch(batchId) returns full details for consumer verification"
					},
					"roles(address)": {
						"notice": "Store role of each address"
					},
					"setHalalCertificate(string,string)": {
						"notice": "setHalalCertificate(batchId, certHash) - Only HalalAuthority - Must OWN the batch first (onlyCurrentOwner) - Only certify once - Sets status to \"Certified Halal\""
					},
					"transferBatch(string,address)": {
						"notice": "transferBatch(batchId, to) Enforced sequence (patched): Producer -> HalalAuthority -> Distributor -> Retailer Rules: - batch exists - only currentOwner can transfer - recipient must be authorized"
					},
					"updateStatus(string,string)": {
						"notice": "updateStatus(batchId, newStatus) Requirement: only currentOwner OR authorized roles. Implementation: - If caller is currentOwner => allowed - OR if caller has any authorized role (not None) => allowed"
					}
				},
				"notice": "=================================================================================================  El Mino - Halal Supply Chain Tracking (Part 1)  Minimum Requirements Covered (from Overall specification file in Italeem):  1) Roles: producer, halalAuthority, distributor, retailer (+ admin deployer)  2) Batch Data: productName, batchId, producer, currentOwner, status, halalCertHash, createdAt  3) Core Functions:     - createBatch(batchId, productName) -> only producer     - setHalalCertificate(batchId, certHash) -> only halalAuthority (and must own batch)     - updateStatus(batchId, newStatus) -> only currentOwner OR authorized roles     - transferBatch(batchId, to) -> enforce sequence     - getBatch(batchId) -> returns full details  4) Events: BatchCreated, HalalCertified, StatusUpdated, BatchTransferred =================================================================================================",
				"version": 1
			}
		}
	}
}