{
  "_format": "hh-sol-artifact-1",
  "contractName": "ElMinoHalalSupplyChain",
  "sourceName": "contracts/ElMino_HalalSupplyChain.sol",
  "abi": [
    {
      "inputs": [],
      "stateMutability": "nonpayable",
      "type": "constructor"
    },
    {
      "anonymous": false,
      "inputs": [
        {
          "indexed": true,
          "internalType": "address",
          "name": "actor",
          "type": "address"
        },
        {
          "indexed": false,
          "internalType": "enum ElMinoHalalSupplyChain.Role",
          "name": "role",
          "type": "uint8"
        }
      ],
      "name": "ActorAuthorized",
      "type": "event"
    },
    {
      "anonymous": false,
      "inputs": [
        {
          "indexed": true,
          "internalType": "string",
          "name": "batchId",
          "type": "string"
        },
        {
          "indexed": false,
          "internalType": "string",
          "name": "productName",
          "type": "string"
        },
        {
          "indexed": true,
          "internalType": "address",
          "name": "producer",
          "type": "address"
        }
      ],
      "name": "BatchCreated",
      "type": "event"
    },
    {
      "anonymous": false,
      "inputs": [
        {
          "indexed": true,
          "internalType": "string",
          "name": "batchId",
          "type": "string"
        },
        {
          "indexed": true,
          "internalType": "address",
          "name": "from",
          "type": "address"
        },
        {
          "indexed": true,
          "internalType": "address",
          "name": "to",
          "type": "address"
        }
      ],
      "name": "BatchTransferred",
      "type": "event"
    },
    {
      "anonymous": false,
      "inputs": [
        {
          "indexed": true,
          "internalType": "string",
          "name": "batchId",
          "type": "string"
        },
        {
          "indexed": false,
          "internalType": "string",
          "name": "certHash",
          "type": "string"
        },
        {
          "indexed": true,
          "internalType": "address",
          "name": "halalAuthority",
          "type": "address"
        }
      ],
      "name": "HalalCertified",
      "type": "event"
    },
    {
      "anonymous": false,
      "inputs": [
        {
          "indexed": true,
          "internalType": "string",
          "name": "batchId",
          "type": "string"
        },
        {
          "indexed": false,
          "internalType": "string",
          "name": "newStatus",
          "type": "string"
        },
        {
          "indexed": true,
          "internalType": "address",
          "name": "updatedBy",
          "type": "address"
        }
      ],
      "name": "StatusUpdated",
      "type": "event"
    },
    {
      "inputs": [],
      "name": "admin",
      "outputs": [
        {
          "internalType": "address",
          "name": "",
          "type": "address"
        }
      ],
      "stateMutability": "view",
      "type": "function"
    },
    {
      "inputs": [
        {
          "internalType": "address",
          "name": "actor",
          "type": "address"
        },
        {
          "internalType": "enum ElMinoHalalSupplyChain.Role",
          "name": "role",
          "type": "uint8"
        }
      ],
      "name": "assignRole",
      "outputs": [],
      "stateMutability": "nonpayable",
      "type": "function"
    },
    {
      "inputs": [
        {
          "internalType": "string",
          "name": "batchId",
          "type": "string"
        },
        {
          "internalType": "string",
          "name": "productName",
          "type": "string"
        }
      ],
      "name": "createBatch",
      "outputs": [],
      "stateMutability": "nonpayable",
      "type": "function"
    },
    {
      "inputs": [
        {
          "internalType": "string",
          "name": "batchId",
          "type": "string"
        }
      ],
      "name": "getBatch",
      "outputs": [
        {
          "internalType": "string",
          "name": "productName",
          "type": "string"
        },
        {
          "internalType": "string",
          "name": "id",
          "type": "string"
        },
        {
          "internalType": "address",
          "name": "producer",
          "type": "address"
        },
        {
          "internalType": "address",
          "name": "currentOwner",
          "type": "address"
        },
        {
          "internalType": "string",
          "name": "status",
          "type": "string"
        },
        {
          "internalType": "string",
          "name": "halalCertHash",
          "type": "string"
        },
        {
          "internalType": "uint256",
          "name": "createdAt",
          "type": "uint256"
        }
      ],
      "stateMutability": "view",
      "type": "function"
    },
    {
      "inputs": [
        {
          "internalType": "string",
          "name": "batchId",
          "type": "string"
        }
      ],
      "name": "isBatchExists",
      "outputs": [
        {
          "internalType": "bool",
          "name": "",
          "type": "bool"
        }
      ],
      "stateMutability": "view",
      "type": "function"
    },
    {
      "inputs": [
        {
          "internalType": "address",
          "name": "",
          "type": "address"
        }
      ],
      "name": "roles",
      "outputs": [
        {
          "internalType": "enum ElMinoHalalSupplyChain.Role",
          "name": "",
          "type": "uint8"
        }
      ],
      "stateMutability": "view",
      "type": "function"
    },
    {
      "inputs": [
        {
          "internalType": "string",
          "name": "batchId",
          "type": "string"
        },
        {
          "internalType": "string",
          "name": "certHash",
          "type": "string"
        }
      ],
      "name": "setHalalCertificate",
      "outputs": [],
      "stateMutability": "nonpayable",
      "type": "function"
    },
    {
      "inputs": [
        {
          "internalType": "string",
          "name": "batchId",
          "type": "string"
        },
        {
          "internalType": "address",
          "name": "to",
          "type": "address"
        }
      ],
      "name": "transferBatch",
      "outputs": [],
      "stateMutability": "nonpayable",
      "type": "function"
    },
    {
      "inputs": [
        {
          "internalType": "string",
          "name": "batchId",
          "type": "string"
        },
        {
          "internalType": "string",
          "name": "newStatus",
          "type": "string"
        }
      ],
      "name": "updateStatus",
      "outputs": [],
      "stateMutability": "nonpayable",
      "type": "function"
    }
  ],
  "bytecode": "0x608060405234801561001057600080fd5b50336000806101000a81548173ffffffffffffffffffffffffffffffffffffffff021916908373ffffffffffffffffffffffffffffffffffffffff16021790555060018060003373ffffffffffffffffffffffffffffffffffffffff1673ffffffffffffffffffffffffffffffffffffffff16815260200190815260200160002060006101000a81548160ff021916908360058111156100b3576100b261010c565b5b02179055503373ffffffffffffffffffffffffffffffffffffffff167f7dfb9fc416e4287afa0615b649cb29f7b04a76c92ecdca2f8dc3dfd55158a3b460016040516100ff9190610183565b60405180910390a261019e565b7f4e487b7100000000000000000000000000000000000000000000000000000000600052602160045260246000fd5b6006811061014c5761014b61010c565b5b50565b600081905061015d8261013b565b919050565b600061016d8261014f565b9050919050565b61017d81610162565b82525050565b60006020820190506101986000830184610174565b92915050565b613008806101ad6000396000f3fe608060405234801561001057600080fd5b50600436106100935760003560e01c80639937464211610066578063993746421461011c578063b401563b1461014c578063bbb6569914610168578063f851a44014610184578063f9ca4274146101a257610093565b8063347047cc14610098578063374acb1b146100b4578063630a195b146100e457806392b8f02114610100575b600080fd5b6100b260048036038101906100ad9190611cdb565b6101d8565b005b6100ce60048036038101906100c99190611d5c565b6104ab565b6040516100db9190611dc4565b60405180910390f35b6100fe60048036038101906100f99190611e62565b6104e6565b005b61011a60048036038101906101159190611cdb565b61076a565b005b61013660048036038101906101319190611ea2565b610c80565b6040516101439190611f46565b60405180910390f35b61016660048036038101906101619190611f61565b610ca0565b005b610182600480360381019061017d9190611cdb565b6113ff565b005b61018c6118bb565b6040516101999190611fd0565b60405180910390f35b6101bc60048036038101906101b79190611d5c565b6118df565b6040516101cf9796959493929190612094565b60405180910390f35b83838080601f016020809104026020016040519081016040528093929190818152602001838380828437600081840152601f19601f8201169050808301925050505050505060028160405161022d919061215b565b908152602001604051809103902060070160009054906101000a900460ff1661028b576040517f08c379a0000000000000000000000000000000000000000000000000000000008152600401610282906121be565b60405180910390fd5b600083839050116102d1576040517f08c379a00000000000000000000000000000000000000000000000000000000081526004016102c89061222a565b60405180910390fd5b60003373ffffffffffffffffffffffffffffffffffffffff16600287876040516102fc92919061227e565b908152602001604051809103902060030160009054906101000a900473ffffffffffffffffffffffffffffffffffffffff1673ffffffffffffffffffffffffffffffffffffffff16149050600080600581111561035c5761035b611ecf565b5b600160003373ffffffffffffffffffffffffffffffffffffffff1673ffffffffffffffffffffffffffffffffffffffff16815260200190815260200160002060009054906101000a900460ff1660058111156103bb576103ba611ecf565b5b1415905081806103c85750805b610407576040517f08c379a00000000000000000000000000000000000000000000000000000000081526004016103fe906122e3565b60405180910390fd5b84846002898960405161041b92919061227e565b90815260200160405180910390206004019182610439929190612549565b503373ffffffffffffffffffffffffffffffffffffffff16878760405161046192919061227e565b60405180910390207fa40410f71afcb456ef810bf2c9cf8d0e917213d9477633602d780d212f0b9389878760405161049a929190612646565b60405180910390a350505050505050565b6000600283836040516104bf92919061227e565b908152602001604051809103902060070160009054906101000a900460ff16905092915050565b60008054906101000a900473ffffffffffffffffffffffffffffffffffffffff1673ffffffffffffffffffffffffffffffffffffffff163373ffffffffffffffffffffffffffffffffffffffff1614610574576040517f08c379a000000000000000000000000000000000000000000000000000000000815260040161056b906126b6565b60405180910390fd5b600073ffffffffffffffffffffffffffffffffffffffff168273ffffffffffffffffffffffffffffffffffffffff16036105e3576040517f08c379a00000000000000000000000000000000000000000000000000000000081526004016105da90612722565b60405180910390fd5b600060058111156105f7576105f6611ecf565b5b81600581111561060a57610609611ecf565b5b0361064a576040517f08c379a00000000000000000000000000000000000000000000000000000000081526004016106419061278e565b60405180910390fd5b6001600581111561065e5761065d611ecf565b5b81600581111561067157610670611ecf565b5b036106b1576040517f08c379a00000000000000000000000000000000000000000000000000000000081526004016106a8906127fa565b60405180910390fd5b80600160008473ffffffffffffffffffffffffffffffffffffffff1673ffffffffffffffffffffffffffffffffffffffff16815260200190815260200160002060006101000a81548160ff0219169083600581111561071357610712611ecf565b5b02179055508173ffffffffffffffffffffffffffffffffffffffff167f7dfb9fc416e4287afa0615b649cb29f7b04a76c92ecdca2f8dc3dfd55158a3b48260405161075e9190611f46565b60405180910390a25050565b600280600581111561077f5761077e611ecf565b5b600160003373ffffffffffffffffffffffffffffffffffffffff1673ffffffffffffffffffffffffffffffffffffffff16815260200190815260200160002060009054906101000a900460ff1660058111156107de576107dd611ecf565b5b1461081e576040517f08c379a000000000000000000000000000000000000000000000000000000000815260040161081590612866565b60405180910390fd5b60008585905011610864576040517f08c379a000000000000000000000000000000000000000000000000000000000815260040161085b906128d2565b60405180910390fd5b600083839050116108aa576040517f08c379a00000000000000000000000000000000000000000000000000000000081526004016108a19061293e565b60405180910390fd5b600285856040516108bc92919061227e565b908152602001604051809103902060070160009054906101000a900460ff161561091b576040517f08c379a0000000000000000000000000000000000000000000000000000000008152600401610912906129aa565b60405180910390fd5b60405180610120016040528084848080601f016020809104026020016040519081016040528093929190818152602001838380828437600081840152601f19601f82011690508083019250505050505050815260200186868080601f016020809104026020016040519081016040528093929190818152602001838380828437600081840152601f19601f8201169050808301925050505050505081526020013373ffffffffffffffffffffffffffffffffffffffff1681526020013373ffffffffffffffffffffffffffffffffffffffff1681526020016040518060400160405280600881526020017f50726f647563656400000000000000000000000000000000000000000000000081525081526020016040518060200160405280600081525081526020014281526020016001151581526020016000151581525060028686604051610a6b92919061227e565b90815260200160405180910390206000820151816000019081610a8e91906129ca565b506020820151816001019081610aa491906129ca565b5060408201518160020160006101000a81548173ffffffffffffffffffffffffffffffffffffffff021916908373ffffffffffffffffffffffffffffffffffffffff16021790555060608201518160030160006101000a81548173ffffffffffffffffffffffffffffffffffffffff021916908373ffffffffffffffffffffffffffffffffffffffff1602179055506080820151816004019081610b4891906129ca565b5060a0820151816005019081610b5e91906129ca565b5060c0820151816006015560e08201518160070160006101000a81548160ff0219169083151502179055506101008201518160070160016101000a81548160ff0219169083151502179055509050503373ffffffffffffffffffffffffffffffffffffffff168585604051610bd492919061227e565b60405180910390207f14a4819b534290cb8ccfb4060d5410e04c15b9493bccae224d5b9ae9e6f939d08585604051610c0d929190612646565b60405180910390a33373ffffffffffffffffffffffffffffffffffffffff168585604051610c3c92919061227e565b60405180910390207fa40410f71afcb456ef810bf2c9cf8d0e917213d9477633602d780d212f0b9389604051610c7190612ae8565b60405180910390a35050505050565b60016020528060005260406000206000915054906101000a900460ff1681565b82828080601f016020809104026020016040519081016040528093929190818152602001838380828437600081840152601f19601f82011690508083019250505050505050600281604051610cf5919061215b565b908152602001604051809103902060070160009054906101000a900460ff16610d53576040517f08c379a0000000000000000000000000000000000000000000000000000000008152600401610d4a906121be565b60405180910390fd5b83838080601f016020809104026020016040519081016040528093929190818152602001838380828437600081840152601f19601f820116905080830192505050505050503373ffffffffffffffffffffffffffffffffffffffff16600282604051610dbf919061215b565b908152602001604051809103902060030160009054906101000a900473ffffffffffffffffffffffffffffffffffffffff1673ffffffffffffffffffffffffffffffffffffffff1614610e47576040517f08c379a0000000000000000000000000000000000000000000000000000000008152600401610e3e90612b54565b60405180910390fd5b600073ffffffffffffffffffffffffffffffffffffffff168373ffffffffffffffffffffffffffffffffffffffff1603610eb6576040517f08c379a0000000000000000000000000000000000000000000000000000000008152600401610ead90612bc0565b60405180910390fd5b60006005811115610eca57610ec9611ecf565b5b600160008573ffffffffffffffffffffffffffffffffffffffff1673ffffffffffffffffffffffffffffffffffffffff16815260200190815260200160002060009054906101000a900460ff166005811115610f2957610f28611ecf565b5b03610f69576040517f08c379a0000000000000000000000000000000000000000000000000000000008152600401610f6090612c2c565b60405180910390fd5b6000600160003373ffffffffffffffffffffffffffffffffffffffff1673ffffffffffffffffffffffffffffffffffffffff16815260200190815260200160002060009054906101000a900460ff1690506000600160008673ffffffffffffffffffffffffffffffffffffffff1673ffffffffffffffffffffffffffffffffffffffff16815260200190815260200160002060009054906101000a900460ff1690506002600581111561101f5761101e611ecf565b5b82600581111561103257611031611ecf565b5b036110a3576003600581111561104b5761104a611ecf565b5b81600581111561105e5761105d611ecf565b5b1461109e576040517f08c379a000000000000000000000000000000000000000000000000000000000815260040161109590612c98565b60405180910390fd5b61120f565b600360058111156110b7576110b6611ecf565b5b8260058111156110ca576110c9611ecf565b5b0361113b57600460058111156110e3576110e2611ecf565b5b8160058111156110f6576110f5611ecf565b5b14611136576040517f08c379a000000000000000000000000000000000000000000000000000000000815260040161112d90612d2a565b60405180910390fd5b61120e565b6004600581111561114f5761114e611ecf565b5b82600581111561116257611161611ecf565b5b036111d25760058081111561117a57611179611ecf565b5b81600581111561118d5761118c611ecf565b5b146111cd576040517f08c379a00000000000000000000000000000000000000000000000000000000081526004016111c490612d96565b60405180910390fd5b61120d565b6040517f08c379a000000000000000000000000000000000000000000000000000000000815260040161120490612e02565b60405180910390fd5b5b5b60006002888860405161122392919061227e565b908152602001604051809103902060030160009054906101000a900473ffffffffffffffffffffffffffffffffffffffff169050856002898960405161126a92919061227e565b908152602001604051809103902060030160006101000a81548173ffffffffffffffffffffffffffffffffffffffff021916908373ffffffffffffffffffffffffffffffffffffffff1602179055506040518060400160405280600b81526020017f5472616e736665727265640000000000000000000000000000000000000000008152506002898960405161130192919061227e565b9081526020016040518091039020600401908161131e91906129ca565b508573ffffffffffffffffffffffffffffffffffffffff168173ffffffffffffffffffffffffffffffffffffffff16898960405161135d92919061227e565b60405180910390207fa8b047db3c9b378a978a9cc59c0f75a2671f935a140d6799f8f56104f0ec6dd660405160405180910390a43373ffffffffffffffffffffffffffffffffffffffff1688886040516113b892919061227e565b60405180910390207fa40410f71afcb456ef810bf2c9cf8d0e917213d9477633602d780d212f0b93896040516113ed90612e6e565b60405180910390a35050505050505050565b83838080601f016020809104026020016040519081016040528093929190818152602001838380828437600081840152601f19601f82011690508083019250505050505050600281604051611454919061215b565b908152602001604051809103902060070160009054906101000a900460ff166114b2576040517f08c379a00000000000000000000000000000000000000000000000000000000081526004016114a9906121be565b60405180910390fd5b60038060058111156114c7576114c6611ecf565b5b600160003373ffffffffffffffffffffffffffffffffffffffff1673ffffffffffffffffffffffffffffffffffffffff16815260200190815260200160002060009054906101000a900460ff16600581111561152657611525611ecf565b5b14611566576040517f08c379a000000000000000000000000000000000000000000000000000000000815260040161155d90612866565b60405180910390fd5b85858080601f016020809104026020016040519081016040528093929190818152602001838380828437600081840152601f19601f820116905080830192505050505050503373ffffffffffffffffffffffffffffffffffffffff166002826040516115d2919061215b565b908152602001604051809103902060030160009054906101000a900473ffffffffffffffffffffffffffffffffffffffff1673ffffffffffffffffffffffffffffffffffffffff161461165a576040517f08c379a000000000000000000000000000000000000000000000000000000000815260040161165190612b54565b60405180910390fd5b600085859050116116a0576040517f08c379a000000000000000000000000000000000000000000000000000000000815260040161169790612eda565b60405180910390fd5b600287876040516116b292919061227e565b908152602001604051809103902060070160019054906101000a900460ff1615611711576040517f08c379a000000000000000000000000000000000000000000000000000000000815260040161170890612f46565b60405180910390fd5b84846002898960405161172592919061227e565b90815260200160405180910390206005019182611743929190612549565b5060016002888860405161175892919061227e565b908152602001604051809103902060070160016101000a81548160ff0219169083151502179055506040518060400160405280600f81526020017f4365727469666965642048616c616c0000000000000000000000000000000000815250600288886040516117c892919061227e565b908152602001604051809103902060040190816117e591906129ca565b503373ffffffffffffffffffffffffffffffffffffffff16878760405161180d92919061227e565b60405180910390207f63d98c95c04737c94b1ccd82ad5f6540cfa9dd84872f501890d38d6884f291e48787604051611846929190612646565b60405180910390a33373ffffffffffffffffffffffffffffffffffffffff16878760405161187592919061227e565b60405180910390207fa40410f71afcb456ef810bf2c9cf8d0e917213d9477633602d780d212f0b93896040516118aa90612fb2565b60405180910390a350505050505050565b60008054906101000a900473ffffffffffffffffffffffffffffffffffffffff1681565b606080600080606080600088888080601f016020809104026020016040519081016040528093929190818152602001838380828437600081840152601f19601f8201169050808301925050505050505060028160405161193f919061215b565b908152602001604051809103902060070160009054906101000a900460ff1661199d576040517f08c379a0000000000000000000000000000000000000000000000000000000008152600401611994906121be565b60405180910390fd5b600060028b8b6040516119b192919061227e565b9081526020016040518091039020905080600001816001018260020160009054906101000a900473ffffffffffffffffffffffffffffffffffffffff168360030160009054906101000a900473ffffffffffffffffffffffffffffffffffffffff1684600401856005018660060154868054611a2c9061236c565b80601f0160208091040260200160405190810160405280929190818152602001828054611a589061236c565b8015611aa55780601f10611a7a57610100808354040283529160200191611aa5565b820191906000526020600020905b815481529060010190602001808311611a8857829003601f168201915b50505050509650858054611ab89061236c565b80601f0160208091040260200160405190810160405280929190818152602001828054611ae49061236c565b8015611b315780601f10611b0657610100808354040283529160200191611b31565b820191906000526020600020905b815481529060010190602001808311611b1457829003601f168201915b50505050509550828054611b449061236c565b80601f0160208091040260200160405190810160405280929190818152602001828054611b709061236c565b8015611bbd5780601f10611b9257610100808354040283529160200191611bbd565b820191906000526020600020905b815481529060010190602001808311611ba057829003601f168201915b50505050509250818054611bd09061236c565b80601f0160208091040260200160405190810160405280929190818152602001828054611bfc9061236c565b8015611c495780601f10611c1e57610100808354040283529160200191611c49565b820191906000526020600020905b815481529060010190602001808311611c2c57829003601f168201915b505050505091509850985098509850985098509850505092959891949750929550565b600080fd5b600080fd5b600080fd5b600080fd5b600080fd5b60008083601f840112611c9b57611c9a611c76565b5b8235905067ffffffffffffffff811115611cb857611cb7611c7b565b5b602083019150836001820283011115611cd457611cd3611c80565b5b9250929050565b60008060008060408587031215611cf557611cf4611c6c565b5b600085013567ffffffffffffffff811115611d1357611d12611c71565b5b611d1f87828801611c85565b9450945050602085013567ffffffffffffffff811115611d4257611d41611c71565b5b611d4e87828801611c85565b925092505092959194509250565b60008060208385031215611d7357611d72611c6c565b5b600083013567ffffffffffffffff811115611d9157611d90611c71565b5b611d9d85828601611c85565b92509250509250929050565b60008115159050919050565b611dbe81611da9565b82525050565b6000602082019050611dd96000830184611db5565b92915050565b600073ffffffffffffffffffffffffffffffffffffffff82169050919050565b6000611e0a82611ddf565b9050919050565b611e1a81611dff565b8114611e2557600080fd5b50565b600081359050611e3781611e11565b92915050565b60068110611e4a57600080fd5b50565b600081359050611e5c81611e3d565b92915050565b60008060408385031215611e7957611e78611c6c565b5b6000611e8785828601611e28565b9250506020611e9885828601611e4d565b9150509250929050565b600060208284031215611eb857611eb7611c6c565b5b6000611ec684828501611e28565b91505092915050565b7f4e487b7100000000000000000000000000000000000000000000000000000000600052602160045260246000fd5b60068110611f0f57611f0e611ecf565b5b50565b6000819050611f2082611efe565b919050565b6000611f3082611f12565b9050919050565b611f4081611f25565b82525050565b6000602082019050611f5b6000830184611f37565b92915050565b600080600060408486031215611f7a57611f79611c6c565b5b600084013567ffffffffffffffff811115611f9857611f97611c71565b5b611fa486828701611c85565b93509350506020611fb786828701611e28565b9150509250925092565b611fca81611dff565b82525050565b6000602082019050611fe56000830184611fc1565b92915050565b600081519050919050565b600082825260208201905092915050565b60005b8381101561202557808201518184015260208101905061200a565b60008484015250505050565b6000601f19601f8301169050919050565b600061204d82611feb565b6120578185611ff6565b9350612067818560208601612007565b61207081612031565b840191505092915050565b6000819050919050565b61208e8161207b565b82525050565b600060e08201905081810360008301526120ae818a612042565b905081810360208301526120c28189612042565b90506120d16040830188611fc1565b6120de6060830187611fc1565b81810360808301526120f08186612042565b905081810360a08301526121048185612042565b905061211360c0830184612085565b98975050505050505050565b600081905092915050565b600061213582611feb565b61213f818561211f565b935061214f818560208601612007565b80840191505092915050565b6000612167828461212a565b915081905092915050565b7f426174636820646f6573206e6f74206578697374000000000000000000000000600082015250565b60006121a8601483611ff6565b91506121b382612172565b602082019050919050565b600060208201905081810360008301526121d78161219b565b9050919050565b7f6e65775374617475732072657175697265640000000000000000000000000000600082015250565b6000612214601283611ff6565b915061221f826121de565b602082019050919050565b6000602082019050818103600083015261224381612207565b9050919050565b82818337600083830152505050565b6000612265838561211f565b935061227283858461224a565b82840190509392505050565b600061228b828486612259565b91508190509392505050565b7f4e6f7420616c6c6f77656420746f207570646174652073746174757300000000600082015250565b60006122cd601c83611ff6565b91506122d882612297565b602082019050919050565b600060208201905081810360008301526122fc816122c0565b9050919050565b600082905092915050565b7f4e487b7100000000000000000000000000000000000000000000000000000000600052604160045260246000fd5b7f4e487b7100000000000000000000000000000000000000000000000000000000600052602260045260246000fd5b6000600282049050600182168061238457607f821691505b6020821081036123975761239661233d565b5b50919050565b60008190508160005260206000209050919050565b60006020601f8301049050919050565b600082821b905092915050565b6000600883026123ff7fffffffffffffffffffffffffffffffffffffffffffffffffffffffffffffffff826123c2565b61240986836123c2565b95508019841693508086168417925050509392505050565b6000819050919050565b600061244661244161243c8461207b565b612421565b61207b565b9050919050565b6000819050919050565b6124608361242b565b61247461246c8261244d565b8484546123cf565b825550505050565b600090565b61248961247c565b612494818484612457565b505050565b5b818110156124b8576124ad600082612481565b60018101905061249a565b5050565b601f8211156124fd576124ce8161239d565b6124d7846123b2565b810160208510156124e6578190505b6124fa6124f2856123b2565b830182612499565b50505b505050565b600082821c905092915050565b600061252060001984600802612502565b1980831691505092915050565b6000612539838361250f565b9150826002028217905092915050565b6125538383612303565b67ffffffffffffffff81111561256c5761256b61230e565b5b612576825461236c565b6125818282856124bc565b6000601f8311600181146125b0576000841561259e578287013590505b6125a8858261252d565b865550612610565b601f1984166125be8661239d565b60005b828110156125e6578489013582556001820191506020850194506020810190506125c1565b8683101561260357848901356125ff601f89168261250f565b8355505b6001600288020188555050505b50505050505050565b60006126258385611ff6565b935061263283858461224a565b61263b83612031565b840190509392505050565b60006020820190508181036000830152612661818486612619565b90509392505050565b7f4f6e6c792061646d696e2063616e2063616c6c20746869730000000000000000600082015250565b60006126a0601883611ff6565b91506126ab8261266a565b602082019050919050565b600060208201905081810360008301526126cf81612693565b9050919050565b7f5a65726f2061646472657373206e6f7420616c6c6f7765640000000000000000600082015250565b600061270c601883611ff6565b9150612717826126d6565b602082019050919050565b6000602082019050818103600083015261273b816126ff565b9050919050565b7f526f6c652063616e6e6f74206265204e6f6e6500000000000000000000000000600082015250565b6000612778601383611ff6565b915061278382612742565b602082019050919050565b600060208201905081810360008301526127a78161276b565b9050919050565b7f43616e6e6f742061737369676e2041646d696e20726f6c650000000000000000600082015250565b60006127e4601883611ff6565b91506127ef826127ae565b602082019050919050565b60006020820190508181036000830152612813816127d7565b9050919050565b7f496e76616c696420726f6c6520666f72207468697320616374696f6e00000000600082015250565b6000612850601c83611ff6565b915061285b8261281a565b602082019050919050565b6000602082019050818103600083015261287f81612843565b9050919050565b7f6261746368496420726571756972656400000000000000000000000000000000600082015250565b60006128bc601083611ff6565b91506128c782612886565b602082019050919050565b600060208201905081810360008301526128eb816128af565b9050919050565b7f70726f647563744e616d65207265717569726564000000000000000000000000600082015250565b6000612928601483611ff6565b9150612933826128f2565b602082019050919050565b600060208201905081810360008301526129578161291b565b9050919050565b7f4475706c69636174652062617463684964000000000000000000000000000000600082015250565b6000612994601183611ff6565b915061299f8261295e565b602082019050919050565b600060208201905081810360008301526129c381612987565b9050919050565b6129d382611feb565b67ffffffffffffffff8111156129ec576129eb61230e565b5b6129f6825461236c565b612a018282856124bc565b600060209050601f831160018114612a345760008415612a22578287015190505b612a2c858261252d565b865550612a94565b601f198416612a428661239d565b60005b82811015612a6a57848901518255600182019150602085019450602081019050612a45565b86831015612a875784890151612a83601f89168261250f565b8355505b6001600288020188555050505b505050505050565b7f50726f6475636564000000000000000000000000000000000000000000000000600082015250565b6000612ad2600883611ff6565b9150612add82612a9c565b602082019050919050565b60006020820190508181036000830152612b0181612ac5565b9050919050565b7f4e6f742063757272656e74206f776e6572000000000000000000000000000000600082015250565b6000612b3e601183611ff6565b9150612b4982612b08565b602082019050919050565b60006020820190508181036000830152612b6d81612b31565b9050919050565b7f5a65726f20616464726573730000000000000000000000000000000000000000600082015250565b6000612baa600c83611ff6565b9150612bb582612b74565b602082019050919050565b60006020820190508181036000830152612bd981612b9d565b9050919050565b7f526563697069656e74206e6f7420617574686f72697a65640000000000000000600082015250565b6000612c16601883611ff6565b9150612c2182612be0565b602082019050919050565b60006020820190508181036000830152612c4581612c09565b9050919050565b7f50726f6475636572202d3e2048616c616c417574686f72697479206f6e6c7900600082015250565b6000612c82601f83611ff6565b9150612c8d82612c4c565b602082019050919050565b60006020820190508181036000830152612cb181612c75565b9050919050565b7f48616c616c417574686f72697479202d3e204469737472696275746f72206f6e60008201527f6c79000000000000000000000000000000000000000000000000000000000000602082015250565b6000612d14602283611ff6565b9150612d1f82612cb8565b604082019050919050565b60006020820190508181036000830152612d4381612d07565b9050919050565b7f4469737472696275746f72202d3e2052657461696c6572206f6e6c7900000000600082015250565b6000612d80601c83611ff6565b9150612d8b82612d4a565b602082019050919050565b60006020820190508181036000830152612daf81612d73565b9050919050565b7f5468697320726f6c652063616e6e6f74207472616e7366657220626174636800600082015250565b6000612dec601f83611ff6565b9150612df782612db6565b602082019050919050565b60006020820190508181036000830152612e1b81612ddf565b9050919050565b7f5472616e73666572726564000000000000000000000000000000000000000000600082015250565b6000612e58600b83611ff6565b9150612e6382612e22565b602082019050919050565b60006020820190508181036000830152612e8781612e4b565b9050919050565b7f6365727448617368207265717569726564000000000000000000000000000000600082015250565b6000612ec4601183611ff6565b9150612ecf82612e8e565b602082019050919050565b60006020820190508181036000830152612ef381612eb7565b9050919050565b7f48616c616c20616c726561647920636572746966696564000000000000000000600082015250565b6000612f30601783611ff6565b9150612f3b82612efa565b602082019050919050565b60006020820190508181036000830152612f5f81612f23565b9050919050565b7f4365727469666965642048616c616c0000000000000000000000000000000000600082015250565b6000612f9c600f83611ff6565b9150612fa782612f66565b602082019050919050565b60006020820190508181036000830152612fcb81612f8f565b905091905056fea26469706673582212200932729f32fdd149262f85c322d5d4f095f9ab187e6a5450474b1f0caa3f26d664736f6c634300081c0033",
  "linkReferences": {},
  "deployedLinkReferences": {}
}